{"contracts/BingoGame.sol":{"Bingo":{"abi":[{"inputs":[{"internalType":"address","name":"_bingoTokenAddress","type":"address"}],"stateMutability":"nonpayable","type":"constructor"},{"inputs":[],"name":"erorr__entryFee","type":"error"},{"inputs":[],"name":"error__drawsNotStared","type":"error"},{"inputs":[],"name":"error__exceedLimitPlayersInOneGame","type":"error"},{"inputs":[],"name":"error__gameStarted","type":"error"},{"inputs":[],"name":"error__gameWinnerDrawed","type":"error"},{"inputs":[],"name":"error__gameWinnerNotDrawed","type":"error"},{"inputs":[],"name":"error__inGameAlready","type":"error"},{"inputs":[],"name":"error__notAdmin","type":"error"},{"inputs":[],"name":"error__notInGameOrClaimedRewards","type":"error"},{"inputs":[],"name":"error__winnerIsDRAWING","type":"error"},{"anonymous":false,"inputs":[{"indexed":true,"internalType":"address","name":"player","type":"address"},{"indexed":true,"internalType":"uint256","name":"Claimed","type":"uint256"}],"name":"Claimed","type":"event"},{"anonymous":false,"inputs":[{"indexed":true,"internalType":"address","name":"creator","type":"address"},{"indexed":true,"internalType":"uint256","name":"roundCreated","type":"uint256"},{"indexed":true,"internalType":"uint256","name":"timeCreated","type":"uint256"}],"name":"Created","type":"event"},{"anonymous":false,"inputs":[{"indexed":true,"internalType":"uint256","name":"gameRound","type":"uint256"},{"indexed":true,"internalType":"uint256","name":"playersNum","type":"uint256"},{"indexed":false,"internalType":"uint256[24]","name":"winningNumbers","type":"uint256[24]"},{"indexed":false,"internalType":"uint256","name":"bingoRound","type":"uint256"}],"name":"Drawed","type":"event"},{"anonymous":false,"inputs":[{"indexed":true,"internalType":"address","name":"player","type":"address"},{"indexed":true,"internalType":"uint256","name":"roundJoined","type":"uint256"}],"name":"Joined","type":"event"},{"inputs":[],"name":"BingoToken","outputs":[{"internalType":"address","name":"","type":"address"}],"stateMutability":"view","type":"function"},{"inputs":[],"name":"admin","outputs":[{"internalType":"address","name":"","type":"address"}],"stateMutability":"view","type":"function"},{"inputs":[],"name":"betAmountForBINGO","outputs":[{"internalType":"uint256","name":"","type":"uint256"}],"stateMutability":"view","type":"function"},{"inputs":[{"internalType":"uint256","name":"_gameRound","type":"uint256"},{"internalType":"address","name":"_player","type":"address"}],"name":"checkWinner","outputs":[{"internalType":"bool","name":"","type":"bool"},{"internalType":"uint256","name":"","type":"uint256"}],"stateMutability":"view","type":"function"},{"inputs":[{"internalType":"uint256","name":"_gameRound","type":"uint256"}],"name":"claimPrize","outputs":[],"stateMutability":"nonpayable","type":"function"},{"inputs":[{"internalType":"uint256","name":"_gameRound","type":"uint256"}],"name":"drawWinner","outputs":[],"stateMutability":"nonpayable","type":"function"},{"inputs":[],"name":"gameRoundNow","outputs":[{"internalType":"uint256","name":"","type":"uint256"}],"stateMutability":"view","type":"function"},{"inputs":[{"internalType":"uint256","name":"_gameRound","type":"uint256"}],"name":"getPlayerArray","outputs":[{"internalType":"address[]","name":"","type":"address[]"}],"stateMutability":"view","type":"function"},{"inputs":[{"internalType":"address","name":"_player","type":"address"},{"internalType":"uint256","name":"_gameRound","type":"uint256"}],"name":"getPlayerGameBoard","outputs":[{"internalType":"uint256[25]","name":"","type":"uint256[25]"}],"stateMutability":"view","type":"function"},{"inputs":[{"internalType":"uint256","name":"_gameRound","type":"uint256"}],"name":"getRoundBingoResult","outputs":[{"internalType":"bool","name":"","type":"bool"},{"internalType":"uint256[24]","name":"","type":"uint256[24]"}],"stateMutability":"view","type":"function"},{"inputs":[{"internalType":"uint256","name":"_gameRoundToJoin","type":"uint256"}],"name":"joinCurrentGameWithBet","outputs":[],"stateMutability":"nonpayable","type":"function"},{"inputs":[],"name":"joinDuration","outputs":[{"internalType":"uint256","name":"","type":"uint256"}],"stateMutability":"view","type":"function"},{"inputs":[],"name":"maxPlayerNum","outputs":[{"internalType":"uint256","name":"","type":"uint256"}],"stateMutability":"view","type":"function"},{"inputs":[],"name":"returnBet","outputs":[{"internalType":"bool","name":"","type":"bool"}],"stateMutability":"view","type":"function"},{"inputs":[{"internalType":"uint256","name":"_betAmountForBINGO","type":"uint256"}],"name":"setConfigBetAmountForBINGO","outputs":[],"stateMutability":"nonpayable","type":"function"},{"inputs":[{"internalType":"uint256","name":"_maxPlayerNum","type":"uint256"}],"name":"setConfigMaxPlayerNum","outputs":[],"stateMutability":"nonpayable","type":"function"},{"inputs":[{"internalType":"bool","name":"_returnBet","type":"bool"}],"name":"setConfigReturnBet","outputs":[],"stateMutability":"nonpayable","type":"function"},{"inputs":[{"internalType":"uint256","name":"_turnDuration","type":"uint256"}],"name":"setConfigTurnDuration","outputs":[],"stateMutability":"nonpayable","type":"function"},{"inputs":[{"internalType":"uint256","name":"_joinDuration","type":"uint256"}],"name":"setJoinDuration","outputs":[],"stateMutability":"nonpayable","type":"function"},{"inputs":[],"name":"startNewGameWithBet","outputs":[],"stateMutability":"nonpayable","type":"function"},{"inputs":[],"name":"turnDuration","outputs":[{"internalType":"uint256","name":"","type":"uint256"}],"stateMutability":"view","type":"function"},{"inputs":[{"internalType":"address","name":"_erc20ContractAddress","type":"address"},{"internalType":"uint256","name":"_amount","type":"uint256"},{"internalType":"address","name":"_to","type":"address"}],"name":"withdrawToken","outputs":[],"stateMutability":"nonpayable","type":"function"}],"devdoc":{"events":{"Drawed(uint256,uint256,uint256[24],uint256)":{"details":"bingoRound == 0: no Bingo; bingoRound > 0: bingo in number of rounds"}},"kind":"dev","methods":{"checkWinner(uint256,address)":{"params":{"_gameRound":"the round of game id","_player":"player address of this round of game"}},"claimPrize(uint256)":{"details":"Normally player dont need to call this function, in case of draw function errorIf return bet is true, player needs to call this function to get the token back","params":{"_gameRound":"the round of game id that player joined"}},"drawWinner(uint256)":{"details":"if one game is drawed, other players in this round","params":{"_gameRound":"the round of game id that player joined"}},"getPlayerArray(uint256)":{"details":"This function is for frontend to get the players addresses in each round","params":{"_gameRound":"the round of game id"}},"getPlayerGameBoard(address,uint256)":{"params":{"_gameRound":"the round of game id","_player":"player address of this round of game"}},"getRoundBingoResult(uint256)":{"params":{"_gameRound":"the round of game id"}},"joinCurrentGameWithBet(uint256)":{"details":"Worst case of nobody has a bingo for 4 players are about 24356551 gas within 0 - 64 as numbers that this contract generated for bingo game with 24 winning numbers generated","params":{"_gameRoundToJoin":"the round of game id"}},"withdrawToken(address,uint256,address)":{"details":"this function helps people who accidentally transfer ERC20 token to our contract, and also withdraw Bingo Token as revenue"}},"version":1},"evm":{"bytecode":{"linkReferences":{},"object":"608060405260b460025560b4600355670de0b6b3a7640000600555600460075534801561002b57600080fd5b50604051613a16380380613a16833981810160405281019061004d9190610138565b80600460006101000a81548173ffffffffffffffffffffffffffffffffffffffff021916908373ffffffffffffffffffffffffffffffffffffffff16021790555033600160006101000a81548173ffffffffffffffffffffffffffffffffffffffff021916908373ffffffffffffffffffffffffffffffffffffffff16021790555050610165565b600080fd5b600073ffffffffffffffffffffffffffffffffffffffff82169050919050565b6000610105826100da565b9050919050565b610115816100fa565b811461012057600080fd5b50565b6000815190506101328161010c565b92915050565b60006020828403121561014e5761014d6100d5565b5b600061015c84828501610123565b91505092915050565b6138a2806101746000396000f3fe608060405234801561001057600080fd5b50600436106101425760003560e01c806360b2a56a116100b8578063bdff7d881161007c578063bdff7d8814610355578063c849938b14610371578063d013b2f81461038d578063d7098154146103a9578063ed7d8900146103c5578063f851a440146103e157610142565b806360b2a56a146102b157806362e838ef146102cd5780636fa4935e146102eb578063884c0fe91461030757806395f5d1fd1461032557610142565b806316b243b81161010a57806316b243b8146101ee578063172bf8541461020a578063227b03541461022857806327249ee8146102595780633ccdbb28146102775780634fbd239b1461029357610142565b8063050669171461014757806307d8c565146101655780630b3ca74d14610195578063108027491461019f57806313b3da5d146101bd575b600080fd5b61014f6103ff565b60405161015c9190612e77565b60405180910390f35b61017f600480360381019061017a9190612ec3565b610405565b60405161018c9190612fe0565b60405180910390f35b61019d6104a9565b005b6101a761060c565b6040516101b49190612e77565b60405180910390f35b6101d760048036038101906101d29190612ec3565b610612565b6040516101e59291906130c8565b60405180910390f35b61020860048036038101906102039190612ec3565b610694565b005b610212610725565b60405161021f9190612e77565b60405180910390f35b610242600480360381019061023d919061311e565b61072b565b60405161025092919061315e565b60405180910390f35b610261610870565b60405161026e9190612e77565b60405180910390f35b610291600480360381019061028c9190613187565b610876565b005b61029b610a46565b6040516102a891906131e9565b60405180910390f35b6102cb60048036038101906102c69190612ec3565b610a6c565b005b6102d56112ff565b6040516102e29190613204565b60405180910390f35b61030560048036038101906103009190612ec3565b611312565b005b61030f6113a3565b60405161031c9190612e77565b60405180910390f35b61033f600480360381019061033a919061321f565b6113a9565b60405161034c91906132e3565b60405180910390f35b61036f600480360381019061036a9190612ec3565b61144b565b005b61038b6004803603810190610386919061332b565b611645565b005b6103a760048036038101906103a29190612ec3565b6116e9565b005b6103c360048036038101906103be9190612ec3565b61177a565b005b6103df60048036038101906103da9190612ec3565b611c49565b005b6103e9611cda565b6040516103f691906131e9565b60405180910390f35b60035481565b60606008600083815260200190815260200160002060040180548060200260200160405190810160405280929190818152602001828054801561049d57602002820191906000526020600020905b8160009054906101000a900473ffffffffffffffffffffffffffffffffffffffff1673ffffffffffffffffffffffffffffffffffffffff1681526020019060010190808311610453575b50505050509050919050565b60011515600460009054906101000a900473ffffffffffffffffffffffffffffffffffffffff1673ffffffffffffffffffffffffffffffffffffffff166323b872dd33306005546040518463ffffffff1660e01b815260040161050e93929190613358565b6020604051808303816000875af115801561052d573d6000803e3d6000fd5b505050506040513d601f19601f8201168201806040525081019061055191906133a4565b15151461058a576040517f2ff987e700000000000000000000000000000000000000000000000000000000815260040160405180910390fd5b6000808154600101919050819055506000805490504260086000838152602001908152602001600020600101819055506105c43382611d00565b42813373ffffffffffffffffffffffffffffffffffffffff167f95b18bbe5373dcbe675d3ab2ae6e3888392575c51b8b8c9c3cbbdb431af1929960405160405180910390a450565b60075481565b600061061c612ce7565b60006008600085815260200190815260200160002060020154116008600085815260200190815260200160002060050180601880602002604051908101604052809291908260188015610684576020028201915b815481526020019060010190808311610670575b5050505050905091509150915091565b600160009054906101000a900473ffffffffffffffffffffffffffffffffffffffff1673ffffffffffffffffffffffffffffffffffffffff163373ffffffffffffffffffffffffffffffffffffffff161461071b576040517f9639a84e00000000000000000000000000000000000000000000000000000000815260040160405180910390fd5b8060078190555050565b60025481565b6000806000600860008681526020019081526020016000206003018054806020026020016040519081016040528092919081815260200182805480156107c657602002820191906000526020600020905b8160009054906101000a900473ffffffffffffffffffffffffffffffffffffffff1673ffffffffffffffffffffffffffffffffffffffff168152602001906001019080831161077c575b505050505090506000808251111561085f575b8473ffffffffffffffffffffffffffffffffffffffff16828281518110610803576108026133d1565b5b602002602001015173ffffffffffffffffffffffffffffffffffffffff16036108435760006108328787612005565b905060018194509450505050610869565b806001019050815181106107d957600080935093505050610869565b6000809350935050505b9250929050565b60005481565b600160009054906101000a900473ffffffffffffffffffffffffffffffffffffffff1673ffffffffffffffffffffffffffffffffffffffff163373ffffffffffffffffffffffffffffffffffffffff16146108fd576040517f9639a84e00000000000000000000000000000000000000000000000000000000815260040160405180910390fd5b8273ffffffffffffffffffffffffffffffffffffffff1663095ea7b330846040518363ffffffff1660e01b8152600401610938929190613400565b6020604051808303816000875af1158015610957573d6000803e3d6000fd5b505050506040513d601f19601f8201168201806040525081019061097b91906133a4565b5060008373ffffffffffffffffffffffffffffffffffffffff166323b872dd3084866040518463ffffffff1660e01b81526004016109bb93929190613358565b6020604051808303816000875af11580156109da573d6000803e3d6000fd5b505050506040513d601f19601f820116820180604052508101906109fe91906133a4565b905080610a40576040517f08c379a0000000000000000000000000000000000000000000000000000000008152600401610a3790613486565b60405180910390fd5b50505050565b600460009054906101000a900473ffffffffffffffffffffffffffffffffffffffff1681565b806003546002546008600084815260200190815260200160002060010154610a9491906134d5565b610a9e91906134d5565b421015610ad7576040517faf30eb6800000000000000000000000000000000000000000000000000000000815260040160405180910390fd5b6008600082815260200190815260200160002060000160009054906101000a900460ff1615610b32576040517ffc1cee5000000000000000000000000000000000000000000000000000000000815260040160405180910390fd5b60016008600083815260200190815260200160002060000160006101000a81548160ff021916908315150217905550600115156008600084815260200190815260200160002060000160019054906101000a900460ff16151503610bc2576040517f9162ee7d00000000000000000000000000000000000000000000000000000000815260040160405180910390fd5b600060086000848152602001908152602001600020600401805480602002602001604051908101604052809291908181526020018280548015610c5a57602002820191906000526020600020905b8160009054906101000a900473ffffffffffffffffffffffffffffffffffffffff1673ffffffffffffffffffffffffffffffffffffffff1681526020019060010190808311610c10575b50505050509050610c69612ce7565b60018251111561124957600060189050610c8285612156565b915060008060005b600091505b600090506000610cb9878581518110610cab57610caa6133d1565b5b60200260200101518a6113a9565b90505b808260198110610ccf57610cce6133d1565b5b6020020151868460188110610ce757610ce66133d1565b5b602002015103610d79576001600860008b8152602001908152602001600020601d016000898781518110610d1e57610d1d6133d1565b5b602002602001015173ffffffffffffffffffffffffffffffffffffffff1673ffffffffffffffffffffffffffffffffffffffff168152602001908152602001600020601a016000848152602001908152602001600020819055505b600b8203610d88578160010191505b816001019150600482111561102657610dbb89888681518110610dae57610dad6133d1565b5b602002602001015161226f565b1561102557600185610dcd9190613509565b8303610e6957600860008a8152602001908152602001600020600301878581518110610dfc57610dfb6133d1565b5b60200260200101519080600181540180825580915050600190039060005260206000200160009091909190916101000a81548173ffffffffffffffffffffffffffffffffffffffff021916908373ffffffffffffffffffffffffffffffffffffffff160217905550610f6f565b600067ffffffffffffffff811115610e8457610e8361353d565b5b604051908082528060200260200182016040528015610eb25781602001602082028036833780820191505090505b50600860008b81526020019081526020016000206003019080519060200190610edc929190612d0a565b50600860008a8152602001908152602001600020600301878581518110610f0657610f056133d1565b5b60200260200101519080600181540180825580915050600190039060005260206000200160009091909190916101000a81548173ffffffffffffffffffffffffffffffffffffffff021916908373ffffffffffffffffffffffffffffffffffffffff1602179055505b60018301945082600860008b8152602001908152602001600020600201819055506110206040518060400160405280601481526020017f46697273742042696e676f20696e20726f756e64000000000000000000000000815250846040518060400160405280601281526020017f666f7220706c61796572206164647265737300000000000000000000000000008152508a8881518110611013576110126133d1565b5b6020026020010151612b69565b61102f565b5b60198210610cbc575b82600101925050838210610c8f5782600101925085518310610c8a57600092505b6000806110778a89878151811061106a576110696133d1565b5b602002602001015161072b565b91509150811561123457600460009054906101000a900473ffffffffffffffffffffffffffffffffffffffff1673ffffffffffffffffffffffffffffffffffffffff1663a9059cbb8987815181106110d2576110d16133d1565b5b6020026020010151836040518363ffffffff1660e01b81526004016110f8929190613400565b6020604051808303816000875af1158015611117573d6000803e3d6000fd5b505050506040513d601f19601f8201168201806040525081019061113b91906133a4565b506002600860008c8152602001908152602001600020601d0160008a8881518110611169576111686133d1565b5b602002602001015173ffffffffffffffffffffffffffffffffffffffff1673ffffffffffffffffffffffffffffffffffffffff16815260200190815260200160002060000160006101000a81548160ff021916908360028111156111d0576111cf61356c565b5b0217905550808886815181106111e9576111e86133d1565b5b602002602001015173ffffffffffffffffffffffffffffffffffffffff167fd8138f8a3f377c5259ca548e70e4c2de94f129f5a11036a15b69513cba2b426a60405160405180910390a35b84600101945050508551831061105057505050505b60016008600086815260200190815260200160002060000160016101000a81548160ff0219169083151502179055508151847f46aef705aa56eecf91cff09c38b492bb00be62e9cc0dbb3f786810e7b875136b8360086000898152602001908152602001600020600201546040516112c292919061359b565b60405180910390a3505060006008600083815260200190815260200160002060000160006101000a81548160ff0219169083151502179055505050565b600660009054906101000a900460ff1681565b600160009054906101000a900473ffffffffffffffffffffffffffffffffffffffff1673ffffffffffffffffffffffffffffffffffffffff163373ffffffffffffffffffffffffffffffffffffffff1614611399576040517f9639a84e00000000000000000000000000000000000000000000000000000000815260040160405180910390fd5b8060058190555050565b60055481565b6113b1612d94565b60086000838152602001908152602001600020601d0160008473ffffffffffffffffffffffffffffffffffffffff1673ffffffffffffffffffffffffffffffffffffffff16815260200190815260200160002060010160198060200260405190810160405280929190826019801561143e576020028201915b81548152602001906001019080831161142a575b5050505050905092915050565b6007546001600860008481526020019081526020016000206004018054905061147491906134d5565b11156114ac576040517f9aa0271f00000000000000000000000000000000000000000000000000000000815260040160405180910390fd5b6000806114b98333612c0b565b91509150600060028111156114d1576114d061356c565b5b8260028111156114e4576114e361356c565b5b1461151b576040517f70b48ea500000000000000000000000000000000000000000000000000000000815260040160405180910390fd5b80421115611555576040517f496f3b7600000000000000000000000000000000000000000000000000000000815260040160405180910390fd5b60011515600460009054906101000a900473ffffffffffffffffffffffffffffffffffffffff1673ffffffffffffffffffffffffffffffffffffffff166323b872dd33306005546040518463ffffffff1660e01b81526004016115ba93929190613358565b6020604051808303816000875af11580156115d9573d6000803e3d6000fd5b505050506040513d601f19601f820116820180604052508101906115fd91906133a4565b151514611636576040517f2ff987e700000000000000000000000000000000000000000000000000000000815260040160405180910390fd5b6116403384611d00565b505050565b600160009054906101000a900473ffffffffffffffffffffffffffffffffffffffff1673ffffffffffffffffffffffffffffffffffffffff163373ffffffffffffffffffffffffffffffffffffffff16146116cc576040517f9639a84e00000000000000000000000000000000000000000000000000000000815260040160405180910390fd5b80600660006101000a81548160ff02191690831515021790555050565b600160009054906101000a900473ffffffffffffffffffffffffffffffffffffffff1673ffffffffffffffffffffffffffffffffffffffff163373ffffffffffffffffffffffffffffffffffffffff1614611770576040517f9639a84e00000000000000000000000000000000000000000000000000000000815260040160405180910390fd5b8060028190555050565b8060035460025460086000848152602001908152602001600020600101546117a291906134d5565b6117ac91906134d5565b4210156117e5576040517faf30eb6800000000000000000000000000000000000000000000000000000000815260040160405180910390fd5b6008600082815260200190815260200160002060000160009054906101000a900460ff1615611840576040517ffc1cee5000000000000000000000000000000000000000000000000000000000815260040160405180910390fd5b60016008600083815260200190815260200160002060000160006101000a81548160ff021916908315150217905550600160028111156118835761188261356c565b5b60086000848152602001908152602001600020601d0160003373ffffffffffffffffffffffffffffffffffffffff1673ffffffffffffffffffffffffffffffffffffffff16815260200190815260200160002060000160009054906101000a900460ff1660028111156118f9576118f861356c565b5b14611930576040517f6c8aeb7700000000000000000000000000000000000000000000000000000000815260040160405180910390fd5b6000600554905060008015156008600086815260200190815260200160002060000160019054906101000a900460ff16151503611999576040517fff07fcae00000000000000000000000000000000000000000000000000000000815260040160405180910390fd5b600060086000868152602001908152602001600020600201541115611a74576119c28433612005565b90506000811115611a6f57600460009054906101000a900473ffffffffffffffffffffffffffffffffffffffff1673ffffffffffffffffffffffffffffffffffffffff1663a9059cbb33836040518363ffffffff1660e01b8152600401611a2a929190613400565b6020604051808303816000875af1158015611a49573d6000803e3d6000fd5b505050506040513d601f19601f82011682018060405250810190611a6d91906133a4565b505b611b51565b60016008600086815260200190815260200160002060040180549050111580611aa95750600660009054906101000a900460ff165b15611b5057600460009054906101000a900473ffffffffffffffffffffffffffffffffffffffff1673ffffffffffffffffffffffffffffffffffffffff1663a9059cbb33846040518363ffffffff1660e01b8152600401611b0b929190613400565b6020604051808303816000875af1158015611b2a573d6000803e3d6000fd5b505050506040513d601f19601f82011682018060405250810190611b4e91906133a4565b505b5b600260086000868152602001908152602001600020601d0160003373ffffffffffffffffffffffffffffffffffffffff1673ffffffffffffffffffffffffffffffffffffffff16815260200190815260200160002060000160006101000a81548160ff02191690836002811115611bcb57611bca61356c565b5b0217905550803373ffffffffffffffffffffffffffffffffffffffff167fd8138f8a3f377c5259ca548e70e4c2de94f129f5a11036a15b69513cba2b426a60405160405180910390a3505060006008600083815260200190815260200160002060000160006101000a81548160ff0219169083151502179055505050565b600160009054906101000a900473ffffffffffffffffffffffffffffffffffffffff1673ffffffffffffffffffffffffffffffffffffffff163373ffffffffffffffffffffffffffffffffffffffff1614611cd0576040517f9639a84e00000000000000000000000000000000000000000000000000000000815260040160405180910390fd5b8060038190555050565b600160009054906101000a900473ffffffffffffffffffffffffffffffffffffffff1681565b600160086000838152602001908152602001600020601d0160008473ffffffffffffffffffffffffffffffffffffffff1673ffffffffffffffffffffffffffffffffffffffff16815260200190815260200160002060000160006101000a81548160ff02191690836002811115611d7a57611d7961356c565b5b021790555060086000828152602001908152602001600020600401829080600181540180825580915050600190039060005260206000200160009091909190916101000a81548173ffffffffffffffffffffffffffffffffffffffff021916908373ffffffffffffffffffffffffffffffffffffffff1602179055506000611e00612d94565b6000600143611e0f9190613509565b40905060008160001c905060008133604051602001611e2f92919061362f565b6040516020818303038152906040528051906020012060001c90505b6000600682901c11611e96576040823387604051602001611e6e9392919061365b565b6040516020818303038152906040528051906020012060001c611e9191906136c7565b611ea8565b6040600682901c611ea791906136c7565b5b905080848660198110611ebe57611ebd6133d1565b5b602002018181525050600b8503611ed6578460010194505b84600101945060198510611e4b578360086000888152602001908152602001600020601d0160008973ffffffffffffffffffffffffffffffffffffffff1673ffffffffffffffffffffffffffffffffffffffff168152602001908152602001600020600101906019611f49929190612db7565b50600160086000888152602001908152602001600020601d0160008973ffffffffffffffffffffffffffffffffffffffff1673ffffffffffffffffffffffffffffffffffffffff168152602001908152602001600020601a016000600c815260200190815260200160002081905550853373ffffffffffffffffffffffffffffffffffffffff167f49f8fa5eee2e3f21251c2e968640dcaef35cb9332429eb059bb3cd56ddc2533d60405160405180910390a350505050505050565b6000806008600085815260200190815260200160002060030180548060200260200160405190810160405280929190818152602001828054801561209e57602002820191906000526020600020905b8160009054906101000a900473ffffffffffffffffffffffffffffffffffffffff1673ffffffffffffffffffffffffffffffffffffffff1681526020019060010190808311612054575b505050505090506000805b8473ffffffffffffffffffffffffffffffffffffffff168383815181106120d3576120d26133d1565b5b602002602001015173ffffffffffffffffffffffffffffffffffffffff16036120ff5780806001019150505b816001019150825182106120a9578251600860008881526020019081526020016000206004018054905060055461213691906136f8565b8261214191906136f8565b61214b919061373a565b935050505092915050565b61215e612ce7565b612166612ce7565b6000806001436121769190613509565b40905060008160001c90506000813360405160200161219692919061362f565b6040516020818303038152906040528051906020012060001c90505b6000600682901c116121fd5760408233866040516020016121d59392919061365b565b6040516020818303038152906040528051906020012060001c6121f891906136c7565b61220f565b6040600682901c61220e91906136c7565b5b905080858560188110612225576122246133d1565b5b602002018181525050836001019350601884106121b2578460086000898152602001908152602001600020600501906018612261929190612df7565b508495505050505050919050565b600080600160086000868152602001908152602001600020601d0160008573ffffffffffffffffffffffffffffffffffffffff1673ffffffffffffffffffffffffffffffffffffffff168152602001908152602001600020601a016000808152602001908152602001600020541480156123515750600160086000868152602001908152602001600020601d0160008573ffffffffffffffffffffffffffffffffffffffff1673ffffffffffffffffffffffffffffffffffffffff168152602001908152602001600020601a0160006006815260200190815260200160002054145b80156123c55750600160086000868152602001908152602001600020601d0160008573ffffffffffffffffffffffffffffffffffffffff1673ffffffffffffffffffffffffffffffffffffffff168152602001908152602001600020601a0160006012815260200190815260200160002054145b80156124395750600160086000868152602001908152602001600020601d0160008573ffffffffffffffffffffffffffffffffffffffff1673ffffffffffffffffffffffffffffffffffffffff168152602001908152602001600020601a0160006018815260200190815260200160002054145b806126085750600160086000868152602001908152602001600020601d0160008573ffffffffffffffffffffffffffffffffffffffff1673ffffffffffffffffffffffffffffffffffffffff168152602001908152602001600020601a016000600481526020019081526020016000205414801561251f5750600160086000868152602001908152602001600020601d0160008573ffffffffffffffffffffffffffffffffffffffff1673ffffffffffffffffffffffffffffffffffffffff168152602001908152602001600020601a0160006008815260200190815260200160002054145b80156125935750600160086000868152602001908152602001600020601d0160008573ffffffffffffffffffffffffffffffffffffffff1673ffffffffffffffffffffffffffffffffffffffff168152602001908152602001600020601a0160006010815260200190815260200160002054145b80156126075750600160086000868152602001908152602001600020601d0160008573ffffffffffffffffffffffffffffffffffffffff1673ffffffffffffffffffffffffffffffffffffffff168152602001908152602001600020601a0160006014815260200190815260200160002054145b5b15612617576001915050612b63565b5b600160086000868152602001908152602001600020601d0160008573ffffffffffffffffffffffffffffffffffffffff1673ffffffffffffffffffffffffffffffffffffffff168152602001908152602001600020601a0160008060058561268091906136f8565b61268a91906134d5565b8152602001908152602001600020541480156127255750600160086000868152602001908152602001600020601d0160008573ffffffffffffffffffffffffffffffffffffffff1673ffffffffffffffffffffffffffffffffffffffff168152602001908152602001600020601a016000600160058561270a91906136f8565b61271491906134d5565b815260200190815260200160002054145b80156127b05750600160086000868152602001908152602001600020601d0160008573ffffffffffffffffffffffffffffffffffffffff1673ffffffffffffffffffffffffffffffffffffffff168152602001908152602001600020601a016000600260058561279591906136f8565b61279f91906134d5565b815260200190815260200160002054145b801561283b5750600160086000868152602001908152602001600020601d0160008573ffffffffffffffffffffffffffffffffffffffff1673ffffffffffffffffffffffffffffffffffffffff168152602001908152602001600020601a016000600360058561282091906136f8565b61282a91906134d5565b815260200190815260200160002054145b80156128c65750600160086000868152602001908152602001600020601d0160008573ffffffffffffffffffffffffffffffffffffffff1673ffffffffffffffffffffffffffffffffffffffff168152602001908152602001600020601a01600060046005856128ab91906136f8565b6128b591906134d5565b815260200190815260200160002054145b80612b405750600160086000868152602001908152602001600020601d0160008573ffffffffffffffffffffffffffffffffffffffff1673ffffffffffffffffffffffffffffffffffffffff168152602001908152602001600020601a01600083600061293391906134d5565b8152602001908152602001600020541480156129c25750600160086000868152602001908152602001600020601d0160008573ffffffffffffffffffffffffffffffffffffffff1673ffffffffffffffffffffffffffffffffffffffff168152602001908152602001600020601a0160008360056129b191906134d5565b815260200190815260200160002054145b8015612a415750600160086000868152602001908152602001600020601d0160008573ffffffffffffffffffffffffffffffffffffffff1673ffffffffffffffffffffffffffffffffffffffff168152602001908152602001600020601a01600083600a612a3091906134d5565b815260200190815260200160002054145b8015612ac05750600160086000868152602001908152602001600020601d0160008573ffffffffffffffffffffffffffffffffffffffff1673ffffffffffffffffffffffffffffffffffffffff168152602001908152602001600020601a01600083600f612aaf91906134d5565b815260200190815260200160002054145b8015612b3f5750600160086000868152602001908152602001600020601d0160008573ffffffffffffffffffffffffffffffffffffffff1673ffffffffffffffffffffffffffffffffffffffff168152602001908152602001600020601a016000836014612b2e91906134d5565b815260200190815260200160002054145b5b15612b4f576001915050612b63565b806001019050600581106126185760009150505b92915050565b612c0584848484604051602401612b8394939291906137ea565b6040516020818303038152906040527f7c4632a4000000000000000000000000000000000000000000000000000000007bffffffffffffffffffffffffffffffffffffffffffffffffffffffff19166020820180517bffffffffffffffffffffffffffffffffffffffffffffffffffffffff8381831617835250505050612ca1565b50505050565b60008060086000858152602001908152602001600020601d0160008473ffffffffffffffffffffffffffffffffffffffff1673ffffffffffffffffffffffffffffffffffffffff16815260200190815260200160002060000160009054906101000a900460ff166002546008600087815260200190815260200160002060010154612c9691906134d5565b915091509250929050565b612cb881612cb0612cbb612cdc565b63ffffffff16565b50565b60006a636f6e736f6c652e6c6f679050600080835160208501845afa505050565b612e37819050919050565b604051806103000160405280601890602082028036833780820191505090505090565b828054828255906000526020600020908101928215612d83579160200282015b82811115612d825782518260006101000a81548173ffffffffffffffffffffffffffffffffffffffff021916908373ffffffffffffffffffffffffffffffffffffffff16021790555091602001919060010190612d2a565b5b509050612d909190612e41565b5090565b604051806103200160405280601990602082028036833780820191505090505090565b8260198101928215612de6579160200282015b82811115612de5578251825591602001919060010190612dca565b5b509050612df39190612e41565b5090565b8260188101928215612e26579160200282015b82811115612e25578251825591602001919060010190612e0a565b5b509050612e339190612e41565b5090565b612e3f61383d565b565b5b80821115612e5a576000816000905550600101612e42565b5090565b6000819050919050565b612e7181612e5e565b82525050565b6000602082019050612e8c6000830184612e68565b92915050565b600080fd5b612ea081612e5e565b8114612eab57600080fd5b50565b600081359050612ebd81612e97565b92915050565b600060208284031215612ed957612ed8612e92565b5b6000612ee784828501612eae565b91505092915050565b600081519050919050565b600082825260208201905092915050565b6000819050602082019050919050565b600073ffffffffffffffffffffffffffffffffffffffff82169050919050565b6000612f4782612f1c565b9050919050565b612f5781612f3c565b82525050565b6000612f698383612f4e565b60208301905092915050565b6000602082019050919050565b6000612f8d82612ef0565b612f978185612efb565b9350612fa283612f0c565b8060005b83811015612fd3578151612fba8882612f5d565b9750612fc583612f75565b925050600181019050612fa6565b5085935050505092915050565b60006020820190508181036000830152612ffa8184612f82565b905092915050565b60008115159050919050565b61301781613002565b82525050565b600060189050919050565b600081905092915050565b6000819050919050565b61304681612e5e565b82525050565b6000613058838361303d565b60208301905092915050565b6000602082019050919050565b61307a8161301d565b6130848184613028565b925061308f82613033565b8060005b838110156130c05781516130a7878261304c565b96506130b283613064565b925050600181019050613093565b505050505050565b6000610320820190506130de600083018561300e565b6130eb6020830184613071565b9392505050565b6130fb81612f3c565b811461310657600080fd5b50565b600081359050613118816130f2565b92915050565b6000806040838503121561313557613134612e92565b5b600061314385828601612eae565b925050602061315485828601613109565b9150509250929050565b6000604082019050613173600083018561300e565b6131806020830184612e68565b9392505050565b6000806000606084860312156131a05761319f612e92565b5b60006131ae86828701613109565b93505060206131bf86828701612eae565b92505060406131d086828701613109565b9150509250925092565b6131e381612f3c565b82525050565b60006020820190506131fe60008301846131da565b92915050565b6000602082019050613219600083018461300e565b92915050565b6000806040838503121561323657613235612e92565b5b600061324485828601613109565b925050602061325585828601612eae565b9150509250929050565b600060199050919050565b600081905092915050565b6000819050919050565b6000602082019050919050565b6132958161325f565b61329f818461326a565b92506132aa82613275565b8060005b838110156132db5781516132c2878261304c565b96506132cd8361327f565b9250506001810190506132ae565b505050505050565b6000610320820190506132f9600083018461328c565b92915050565b61330881613002565b811461331357600080fd5b50565b600081359050613325816132ff565b92915050565b60006020828403121561334157613340612e92565b5b600061334f84828501613316565b91505092915050565b600060608201905061336d60008301866131da565b61337a60208301856131da565b6133876040830184612e68565b949350505050565b60008151905061339e816132ff565b92915050565b6000602082840312156133ba576133b9612e92565b5b60006133c88482850161338f565b91505092915050565b7f4e487b7100000000000000000000000000000000000000000000000000000000600052603260045260246000fd5b600060408201905061341560008301856131da565b6134226020830184612e68565b9392505050565b600082825260208201905092915050565b7f5472616e73666572206661696c65640000000000000000000000000000000000600082015250565b6000613470600f83613429565b915061347b8261343a565b602082019050919050565b6000602082019050818103600083015261349f81613463565b9050919050565b7f4e487b7100000000000000000000000000000000000000000000000000000000600052601160045260246000fd5b60006134e082612e5e565b91506134eb83612e5e565b9250828201905080821115613503576135026134a6565b5b92915050565b600061351482612e5e565b915061351f83612e5e565b9250828203905081811115613537576135366134a6565b5b92915050565b7f4e487b7100000000000000000000000000000000000000000000000000000000600052604160045260246000fd5b7f4e487b7100000000000000000000000000000000000000000000000000000000600052602160045260246000fd5b6000610320820190506135b16000830185613071565b6135bf610300830184612e68565b9392505050565b6000819050919050565b6135e16135dc82612e5e565b6135c6565b82525050565b60008160601b9050919050565b60006135ff826135e7565b9050919050565b6000613611826135f4565b9050919050565b61362961362482612f3c565b613606565b82525050565b600061363b82856135d0565b60208201915061364b8284613618565b6014820191508190509392505050565b600061366782866135d0565b6020820191506136778285613618565b60148201915061368782846135d0565b602082019150819050949350505050565b7f4e487b7100000000000000000000000000000000000000000000000000000000600052601260045260246000fd5b60006136d282612e5e565b91506136dd83612e5e565b9250826136ed576136ec613698565b5b828206905092915050565b600061370382612e5e565b915061370e83612e5e565b925082820261371c81612e5e565b91508282048414831517613733576137326134a6565b5b5092915050565b600061374582612e5e565b915061375083612e5e565b9250826137605761375f613698565b5b828204905092915050565b600081519050919050565b60005b83811015613794578082015181840152602081019050613779565b60008484015250505050565b6000601f19601f8301169050919050565b60006137bc8261376b565b6137c68185613429565b93506137d6818560208601613776565b6137df816137a0565b840191505092915050565b6000608082019050818103600083015261380481876137b1565b90506138136020830186612e68565b818103604083015261382581856137b1565b905061383460608301846131da565b95945050505050565b7f4e487b7100000000000000000000000000000000000000000000000000000000600052605160045260246000fdfea26469706673582212201e87da7fc3807f6deb3d10808d6312a65dd099bca946baa8b0aae5af85202b9164736f6c634300081b0033","opcodes":"PUSH1 0x80 PUSH1 0x40 MSTORE PUSH1 0xB4 PUSH1 0x2 SSTORE PUSH1 0xB4 PUSH1 0x3 SSTORE PUSH8 0xDE0B6B3A7640000 PUSH1 0x5 SSTORE PUSH1 0x4 PUSH1 0x7 SSTORE CALLVALUE DUP1 ISZERO PUSH2 0x2B JUMPI PUSH1 0x0 DUP1 REVERT JUMPDEST POP PUSH1 0x40 MLOAD PUSH2 0x3A16 CODESIZE SUB DUP1 PUSH2 0x3A16 DUP4 CODECOPY DUP2 DUP2 ADD PUSH1 0x40 MSTORE DUP2 ADD SWAP1 PUSH2 0x4D SWAP2 SWAP1 PUSH2 0x138 JUMP JUMPDEST DUP1 PUSH1 0x4 PUSH1 0x0 PUSH2 0x100 EXP DUP2 SLOAD DUP2 PUSH20 0xFFFFFFFFFFFFFFFFFFFFFFFFFFFFFFFFFFFFFFFF MUL NOT AND SWAP1 DUP4 PUSH20 0xFFFFFFFFFFFFFFFFFFFFFFFFFFFFFFFFFFFFFFFF AND MUL OR SWAP1 SSTORE POP CALLER PUSH1 0x1 PUSH1 0x0 PUSH2 0x100 EXP DUP2 SLOAD DUP2 PUSH20 0xFFFFFFFFFFFFFFFFFFFFFFFFFFFFFFFFFFFFFFFF MUL NOT AND SWAP1 DUP4 PUSH20 0xFFFFFFFFFFFFFFFFFFFFFFFFFFFFFFFFFFFFFFFF AND MUL OR SWAP1 SSTORE POP POP PUSH2 0x165 JUMP JUMPDEST PUSH1 0x0 DUP1 REVERT JUMPDEST PUSH1 0x0 PUSH20 0xFFFFFFFFFFFFFFFFFFFFFFFFFFFFFFFFFFFFFFFF DUP3 AND SWAP1 POP SWAP2 SWAP1 POP JUMP JUMPDEST PUSH1 0x0 PUSH2 0x105 DUP3 PUSH2 0xDA JUMP JUMPDEST SWAP1 POP SWAP2 SWAP1 POP JUMP JUMPDEST PUSH2 0x115 DUP2 PUSH2 0xFA JUMP JUMPDEST DUP2 EQ PUSH2 0x120 JUMPI PUSH1 0x0 DUP1 REVERT JUMPDEST POP JUMP JUMPDEST PUSH1 0x0 DUP2 MLOAD SWAP1 POP PUSH2 0x132 DUP2 PUSH2 0x10C JUMP JUMPDEST SWAP3 SWAP2 POP POP JUMP JUMPDEST PUSH1 0x0 PUSH1 0x20 DUP3 DUP5 SUB SLT ISZERO PUSH2 0x14E JUMPI PUSH2 0x14D PUSH2 0xD5 JUMP JUMPDEST JUMPDEST PUSH1 0x0 PUSH2 0x15C DUP5 DUP3 DUP6 ADD PUSH2 0x123 JUMP JUMPDEST SWAP2 POP POP SWAP3 SWAP2 POP POP JUMP JUMPDEST PUSH2 0x38A2 DUP1 PUSH2 0x174 PUSH1 0x0 CODECOPY PUSH1 0x0 RETURN INVALID PUSH1 0x80 PUSH1 0x40 MSTORE CALLVALUE DUP1 ISZERO PUSH2 0x10 JUMPI PUSH1 0x0 DUP1 REVERT JUMPDEST POP PUSH1 0x4 CALLDATASIZE LT PUSH2 0x142 JUMPI PUSH1 0x0 CALLDATALOAD PUSH1 0xE0 SHR DUP1 PUSH4 0x60B2A56A GT PUSH2 0xB8 JUMPI DUP1 PUSH4 0xBDFF7D88 GT PUSH2 0x7C JUMPI DUP1 PUSH4 0xBDFF7D88 EQ PUSH2 0x355 JUMPI DUP1 PUSH4 0xC849938B EQ PUSH2 0x371 JUMPI DUP1 PUSH4 0xD013B2F8 EQ PUSH2 0x38D JUMPI DUP1 PUSH4 0xD7098154 EQ PUSH2 0x3A9 JUMPI DUP1 PUSH4 0xED7D8900 EQ PUSH2 0x3C5 JUMPI DUP1 PUSH4 0xF851A440 EQ PUSH2 0x3E1 JUMPI PUSH2 0x142 JUMP JUMPDEST DUP1 PUSH4 0x60B2A56A EQ PUSH2 0x2B1 JUMPI DUP1 PUSH4 0x62E838EF EQ PUSH2 0x2CD JUMPI DUP1 PUSH4 0x6FA4935E EQ PUSH2 0x2EB JUMPI DUP1 PUSH4 0x884C0FE9 EQ PUSH2 0x307 JUMPI DUP1 PUSH4 0x95F5D1FD EQ PUSH2 0x325 JUMPI PUSH2 0x142 JUMP JUMPDEST DUP1 PUSH4 0x16B243B8 GT PUSH2 0x10A JUMPI DUP1 PUSH4 0x16B243B8 EQ PUSH2 0x1EE JUMPI DUP1 PUSH4 0x172BF854 EQ PUSH2 0x20A JUMPI DUP1 PUSH4 0x227B0354 EQ PUSH2 0x228 JUMPI DUP1 PUSH4 0x27249EE8 EQ PUSH2 0x259 JUMPI DUP1 PUSH4 0x3CCDBB28 EQ PUSH2 0x277 JUMPI DUP1 PUSH4 0x4FBD239B EQ PUSH2 0x293 JUMPI PUSH2 0x142 JUMP JUMPDEST DUP1 PUSH4 0x5066917 EQ PUSH2 0x147 JUMPI DUP1 PUSH4 0x7D8C565 EQ PUSH2 0x165 JUMPI DUP1 PUSH4 0xB3CA74D EQ PUSH2 0x195 JUMPI DUP1 PUSH4 0x10802749 EQ PUSH2 0x19F JUMPI DUP1 PUSH4 0x13B3DA5D EQ PUSH2 0x1BD JUMPI JUMPDEST PUSH1 0x0 DUP1 REVERT JUMPDEST PUSH2 0x14F PUSH2 0x3FF JUMP JUMPDEST PUSH1 0x40 MLOAD PUSH2 0x15C SWAP2 SWAP1 PUSH2 0x2E77 JUMP JUMPDEST PUSH1 0x40 MLOAD DUP1 SWAP2 SUB SWAP1 RETURN JUMPDEST PUSH2 0x17F PUSH1 0x4 DUP1 CALLDATASIZE SUB DUP2 ADD SWAP1 PUSH2 0x17A SWAP2 SWAP1 PUSH2 0x2EC3 JUMP JUMPDEST PUSH2 0x405 JUMP JUMPDEST PUSH1 0x40 MLOAD PUSH2 0x18C SWAP2 SWAP1 PUSH2 0x2FE0 JUMP JUMPDEST PUSH1 0x40 MLOAD DUP1 SWAP2 SUB SWAP1 RETURN JUMPDEST PUSH2 0x19D PUSH2 0x4A9 JUMP JUMPDEST STOP JUMPDEST PUSH2 0x1A7 PUSH2 0x60C JUMP JUMPDEST PUSH1 0x40 MLOAD PUSH2 0x1B4 SWAP2 SWAP1 PUSH2 0x2E77 JUMP JUMPDEST PUSH1 0x40 MLOAD DUP1 SWAP2 SUB SWAP1 RETURN JUMPDEST PUSH2 0x1D7 PUSH1 0x4 DUP1 CALLDATASIZE SUB DUP2 ADD SWAP1 PUSH2 0x1D2 SWAP2 SWAP1 PUSH2 0x2EC3 JUMP JUMPDEST PUSH2 0x612 JUMP JUMPDEST PUSH1 0x40 MLOAD PUSH2 0x1E5 SWAP3 SWAP2 SWAP1 PUSH2 0x30C8 JUMP JUMPDEST PUSH1 0x40 MLOAD DUP1 SWAP2 SUB SWAP1 RETURN JUMPDEST PUSH2 0x208 PUSH1 0x4 DUP1 CALLDATASIZE SUB DUP2 ADD SWAP1 PUSH2 0x203 SWAP2 SWAP1 PUSH2 0x2EC3 JUMP JUMPDEST PUSH2 0x694 JUMP JUMPDEST STOP JUMPDEST PUSH2 0x212 PUSH2 0x725 JUMP JUMPDEST PUSH1 0x40 MLOAD PUSH2 0x21F SWAP2 SWAP1 PUSH2 0x2E77 JUMP JUMPDEST PUSH1 0x40 MLOAD DUP1 SWAP2 SUB SWAP1 RETURN JUMPDEST PUSH2 0x242 PUSH1 0x4 DUP1 CALLDATASIZE SUB DUP2 ADD SWAP1 PUSH2 0x23D SWAP2 SWAP1 PUSH2 0x311E JUMP JUMPDEST PUSH2 0x72B JUMP JUMPDEST PUSH1 0x40 MLOAD PUSH2 0x250 SWAP3 SWAP2 SWAP1 PUSH2 0x315E JUMP JUMPDEST PUSH1 0x40 MLOAD DUP1 SWAP2 SUB SWAP1 RETURN JUMPDEST PUSH2 0x261 PUSH2 0x870 JUMP JUMPDEST PUSH1 0x40 MLOAD PUSH2 0x26E SWAP2 SWAP1 PUSH2 0x2E77 JUMP JUMPDEST PUSH1 0x40 MLOAD DUP1 SWAP2 SUB SWAP1 RETURN JUMPDEST PUSH2 0x291 PUSH1 0x4 DUP1 CALLDATASIZE SUB DUP2 ADD SWAP1 PUSH2 0x28C SWAP2 SWAP1 PUSH2 0x3187 JUMP JUMPDEST PUSH2 0x876 JUMP JUMPDEST STOP JUMPDEST PUSH2 0x29B PUSH2 0xA46 JUMP JUMPDEST PUSH1 0x40 MLOAD PUSH2 0x2A8 SWAP2 SWAP1 PUSH2 0x31E9 JUMP JUMPDEST PUSH1 0x40 MLOAD DUP1 SWAP2 SUB SWAP1 RETURN JUMPDEST PUSH2 0x2CB PUSH1 0x4 DUP1 CALLDATASIZE SUB DUP2 ADD SWAP1 PUSH2 0x2C6 SWAP2 SWAP1 PUSH2 0x2EC3 JUMP JUMPDEST PUSH2 0xA6C JUMP JUMPDEST STOP JUMPDEST PUSH2 0x2D5 PUSH2 0x12FF JUMP JUMPDEST PUSH1 0x40 MLOAD PUSH2 0x2E2 SWAP2 SWAP1 PUSH2 0x3204 JUMP JUMPDEST PUSH1 0x40 MLOAD DUP1 SWAP2 SUB SWAP1 RETURN JUMPDEST PUSH2 0x305 PUSH1 0x4 DUP1 CALLDATASIZE SUB DUP2 ADD SWAP1 PUSH2 0x300 SWAP2 SWAP1 PUSH2 0x2EC3 JUMP JUMPDEST PUSH2 0x1312 JUMP JUMPDEST STOP JUMPDEST PUSH2 0x30F PUSH2 0x13A3 JUMP JUMPDEST PUSH1 0x40 MLOAD PUSH2 0x31C SWAP2 SWAP1 PUSH2 0x2E77 JUMP JUMPDEST PUSH1 0x40 MLOAD DUP1 SWAP2 SUB SWAP1 RETURN JUMPDEST PUSH2 0x33F PUSH1 0x4 DUP1 CALLDATASIZE SUB DUP2 ADD SWAP1 PUSH2 0x33A SWAP2 SWAP1 PUSH2 0x321F JUMP JUMPDEST PUSH2 0x13A9 JUMP JUMPDEST PUSH1 0x40 MLOAD PUSH2 0x34C SWAP2 SWAP1 PUSH2 0x32E3 JUMP JUMPDEST PUSH1 0x40 MLOAD DUP1 SWAP2 SUB SWAP1 RETURN JUMPDEST PUSH2 0x36F PUSH1 0x4 DUP1 CALLDATASIZE SUB DUP2 ADD SWAP1 PUSH2 0x36A SWAP2 SWAP1 PUSH2 0x2EC3 JUMP JUMPDEST PUSH2 0x144B JUMP JUMPDEST STOP JUMPDEST PUSH2 0x38B PUSH1 0x4 DUP1 CALLDATASIZE SUB DUP2 ADD SWAP1 PUSH2 0x386 SWAP2 SWAP1 PUSH2 0x332B JUMP JUMPDEST PUSH2 0x1645 JUMP JUMPDEST STOP JUMPDEST PUSH2 0x3A7 PUSH1 0x4 DUP1 CALLDATASIZE SUB DUP2 ADD SWAP1 PUSH2 0x3A2 SWAP2 SWAP1 PUSH2 0x2EC3 JUMP JUMPDEST PUSH2 0x16E9 JUMP JUMPDEST STOP JUMPDEST PUSH2 0x3C3 PUSH1 0x4 DUP1 CALLDATASIZE SUB DUP2 ADD SWAP1 PUSH2 0x3BE SWAP2 SWAP1 PUSH2 0x2EC3 JUMP JUMPDEST PUSH2 0x177A JUMP JUMPDEST STOP JUMPDEST PUSH2 0x3DF PUSH1 0x4 DUP1 CALLDATASIZE SUB DUP2 ADD SWAP1 PUSH2 0x3DA SWAP2 SWAP1 PUSH2 0x2EC3 JUMP JUMPDEST PUSH2 0x1C49 JUMP JUMPDEST STOP JUMPDEST PUSH2 0x3E9 PUSH2 0x1CDA JUMP JUMPDEST PUSH1 0x40 MLOAD PUSH2 0x3F6 SWAP2 SWAP1 PUSH2 0x31E9 JUMP JUMPDEST PUSH1 0x40 MLOAD DUP1 SWAP2 SUB SWAP1 RETURN JUMPDEST PUSH1 0x3 SLOAD DUP2 JUMP JUMPDEST PUSH1 0x60 PUSH1 0x8 PUSH1 0x0 DUP4 DUP2 MSTORE PUSH1 0x20 ADD SWAP1 DUP2 MSTORE PUSH1 0x20 ADD PUSH1 0x0 KECCAK256 PUSH1 0x4 ADD DUP1 SLOAD DUP1 PUSH1 0x20 MUL PUSH1 0x20 ADD PUSH1 0x40 MLOAD SWAP1 DUP2 ADD PUSH1 0x40 MSTORE DUP1 SWAP3 SWAP2 SWAP1 DUP2 DUP2 MSTORE PUSH1 0x20 ADD DUP3 DUP1 SLOAD DUP1 ISZERO PUSH2 0x49D JUMPI PUSH1 0x20 MUL DUP3 ADD SWAP2 SWAP1 PUSH1 0x0 MSTORE PUSH1 0x20 PUSH1 0x0 KECCAK256 SWAP1 JUMPDEST DUP2 PUSH1 0x0 SWAP1 SLOAD SWAP1 PUSH2 0x100 EXP SWAP1 DIV PUSH20 0xFFFFFFFFFFFFFFFFFFFFFFFFFFFFFFFFFFFFFFFF AND PUSH20 0xFFFFFFFFFFFFFFFFFFFFFFFFFFFFFFFFFFFFFFFF AND DUP2 MSTORE PUSH1 0x20 ADD SWAP1 PUSH1 0x1 ADD SWAP1 DUP1 DUP4 GT PUSH2 0x453 JUMPI JUMPDEST POP POP POP POP POP SWAP1 POP SWAP2 SWAP1 POP JUMP JUMPDEST PUSH1 0x1 ISZERO ISZERO PUSH1 0x4 PUSH1 0x0 SWAP1 SLOAD SWAP1 PUSH2 0x100 EXP SWAP1 DIV PUSH20 0xFFFFFFFFFFFFFFFFFFFFFFFFFFFFFFFFFFFFFFFF AND PUSH20 0xFFFFFFFFFFFFFFFFFFFFFFFFFFFFFFFFFFFFFFFF AND PUSH4 0x23B872DD CALLER ADDRESS PUSH1 0x5 SLOAD PUSH1 0x40 MLOAD DUP5 PUSH4 0xFFFFFFFF AND PUSH1 0xE0 SHL DUP2 MSTORE PUSH1 0x4 ADD PUSH2 0x50E SWAP4 SWAP3 SWAP2 SWAP1 PUSH2 0x3358 JUMP JUMPDEST PUSH1 0x20 PUSH1 0x40 MLOAD DUP1 DUP4 SUB DUP2 PUSH1 0x0 DUP8 GAS CALL ISZERO DUP1 ISZERO PUSH2 0x52D JUMPI RETURNDATASIZE PUSH1 0x0 DUP1 RETURNDATACOPY RETURNDATASIZE PUSH1 0x0 REVERT JUMPDEST POP POP POP POP PUSH1 0x40 MLOAD RETURNDATASIZE PUSH1 0x1F NOT PUSH1 0x1F DUP3 ADD AND DUP3 ADD DUP1 PUSH1 0x40 MSTORE POP DUP2 ADD SWAP1 PUSH2 0x551 SWAP2 SWAP1 PUSH2 0x33A4 JUMP JUMPDEST ISZERO ISZERO EQ PUSH2 0x58A JUMPI PUSH1 0x40 MLOAD PUSH32 0x2FF987E700000000000000000000000000000000000000000000000000000000 DUP2 MSTORE PUSH1 0x4 ADD PUSH1 0x40 MLOAD DUP1 SWAP2 SUB SWAP1 REVERT JUMPDEST PUSH1 0x0 DUP1 DUP2 SLOAD PUSH1 0x1 ADD SWAP2 SWAP1 POP DUP2 SWAP1 SSTORE POP PUSH1 0x0 DUP1 SLOAD SWAP1 POP TIMESTAMP PUSH1 0x8 PUSH1 0x0 DUP4 DUP2 MSTORE PUSH1 0x20 ADD SWAP1 DUP2 MSTORE PUSH1 0x20 ADD PUSH1 0x0 KECCAK256 PUSH1 0x1 ADD DUP2 SWAP1 SSTORE POP PUSH2 0x5C4 CALLER DUP3 PUSH2 0x1D00 JUMP JUMPDEST TIMESTAMP DUP2 CALLER PUSH20 0xFFFFFFFFFFFFFFFFFFFFFFFFFFFFFFFFFFFFFFFF AND PUSH32 0x95B18BBE5373DCBE675D3AB2AE6E3888392575C51B8B8C9C3CBBDB431AF19299 PUSH1 0x40 MLOAD PUSH1 0x40 MLOAD DUP1 SWAP2 SUB SWAP1 LOG4 POP JUMP JUMPDEST PUSH1 0x7 SLOAD DUP2 JUMP JUMPDEST PUSH1 0x0 PUSH2 0x61C PUSH2 0x2CE7 JUMP JUMPDEST PUSH1 0x0 PUSH1 0x8 PUSH1 0x0 DUP6 DUP2 MSTORE PUSH1 0x20 ADD SWAP1 DUP2 MSTORE PUSH1 0x20 ADD PUSH1 0x0 KECCAK256 PUSH1 0x2 ADD SLOAD GT PUSH1 0x8 PUSH1 0x0 DUP6 DUP2 MSTORE PUSH1 0x20 ADD SWAP1 DUP2 MSTORE PUSH1 0x20 ADD PUSH1 0x0 KECCAK256 PUSH1 0x5 ADD DUP1 PUSH1 0x18 DUP1 PUSH1 0x20 MUL PUSH1 0x40 MLOAD SWAP1 DUP2 ADD PUSH1 0x40 MSTORE DUP1 SWAP3 SWAP2 SWAP1 DUP3 PUSH1 0x18 DUP1 ISZERO PUSH2 0x684 JUMPI PUSH1 0x20 MUL DUP3 ADD SWAP2 JUMPDEST DUP2 SLOAD DUP2 MSTORE PUSH1 0x20 ADD SWAP1 PUSH1 0x1 ADD SWAP1 DUP1 DUP4 GT PUSH2 0x670 JUMPI JUMPDEST POP POP POP POP POP SWAP1 POP SWAP2 POP SWAP2 POP SWAP2 POP SWAP2 JUMP JUMPDEST PUSH1 0x1 PUSH1 0x0 SWAP1 SLOAD SWAP1 PUSH2 0x100 EXP SWAP1 DIV PUSH20 0xFFFFFFFFFFFFFFFFFFFFFFFFFFFFFFFFFFFFFFFF AND PUSH20 0xFFFFFFFFFFFFFFFFFFFFFFFFFFFFFFFFFFFFFFFF AND CALLER PUSH20 0xFFFFFFFFFFFFFFFFFFFFFFFFFFFFFFFFFFFFFFFF AND EQ PUSH2 0x71B JUMPI PUSH1 0x40 MLOAD PUSH32 0x9639A84E00000000000000000000000000000000000000000000000000000000 DUP2 MSTORE PUSH1 0x4 ADD PUSH1 0x40 MLOAD DUP1 SWAP2 SUB SWAP1 REVERT JUMPDEST DUP1 PUSH1 0x7 DUP2 SWAP1 SSTORE POP POP JUMP JUMPDEST PUSH1 0x2 SLOAD DUP2 JUMP JUMPDEST PUSH1 0x0 DUP1 PUSH1 0x0 PUSH1 0x8 PUSH1 0x0 DUP7 DUP2 MSTORE PUSH1 0x20 ADD SWAP1 DUP2 MSTORE PUSH1 0x20 ADD PUSH1 0x0 KECCAK256 PUSH1 0x3 ADD DUP1 SLOAD DUP1 PUSH1 0x20 MUL PUSH1 0x20 ADD PUSH1 0x40 MLOAD SWAP1 DUP2 ADD PUSH1 0x40 MSTORE DUP1 SWAP3 SWAP2 SWAP1 DUP2 DUP2 MSTORE PUSH1 0x20 ADD DUP3 DUP1 SLOAD DUP1 ISZERO PUSH2 0x7C6 JUMPI PUSH1 0x20 MUL DUP3 ADD SWAP2 SWAP1 PUSH1 0x0 MSTORE PUSH1 0x20 PUSH1 0x0 KECCAK256 SWAP1 JUMPDEST DUP2 PUSH1 0x0 SWAP1 SLOAD SWAP1 PUSH2 0x100 EXP SWAP1 DIV PUSH20 0xFFFFFFFFFFFFFFFFFFFFFFFFFFFFFFFFFFFFFFFF AND PUSH20 0xFFFFFFFFFFFFFFFFFFFFFFFFFFFFFFFFFFFFFFFF AND DUP2 MSTORE PUSH1 0x20 ADD SWAP1 PUSH1 0x1 ADD SWAP1 DUP1 DUP4 GT PUSH2 0x77C JUMPI JUMPDEST POP POP POP POP POP SWAP1 POP PUSH1 0x0 DUP1 DUP3 MLOAD GT ISZERO PUSH2 0x85F JUMPI JUMPDEST DUP5 PUSH20 0xFFFFFFFFFFFFFFFFFFFFFFFFFFFFFFFFFFFFFFFF AND DUP3 DUP3 DUP2 MLOAD DUP2 LT PUSH2 0x803 JUMPI PUSH2 0x802 PUSH2 0x33D1 JUMP JUMPDEST JUMPDEST PUSH1 0x20 MUL PUSH1 0x20 ADD ADD MLOAD PUSH20 0xFFFFFFFFFFFFFFFFFFFFFFFFFFFFFFFFFFFFFFFF AND SUB PUSH2 0x843 JUMPI PUSH1 0x0 PUSH2 0x832 DUP8 DUP8 PUSH2 0x2005 JUMP JUMPDEST SWAP1 POP PUSH1 0x1 DUP2 SWAP5 POP SWAP5 POP POP POP POP PUSH2 0x869 JUMP JUMPDEST DUP1 PUSH1 0x1 ADD SWAP1 POP DUP2 MLOAD DUP2 LT PUSH2 0x7D9 JUMPI PUSH1 0x0 DUP1 SWAP4 POP SWAP4 POP POP POP PUSH2 0x869 JUMP JUMPDEST PUSH1 0x0 DUP1 SWAP4 POP SWAP4 POP POP POP JUMPDEST SWAP3 POP SWAP3 SWAP1 POP JUMP JUMPDEST PUSH1 0x0 SLOAD DUP2 JUMP JUMPDEST PUSH1 0x1 PUSH1 0x0 SWAP1 SLOAD SWAP1 PUSH2 0x100 EXP SWAP1 DIV PUSH20 0xFFFFFFFFFFFFFFFFFFFFFFFFFFFFFFFFFFFFFFFF AND PUSH20 0xFFFFFFFFFFFFFFFFFFFFFFFFFFFFFFFFFFFFFFFF AND CALLER PUSH20 0xFFFFFFFFFFFFFFFFFFFFFFFFFFFFFFFFFFFFFFFF AND EQ PUSH2 0x8FD JUMPI PUSH1 0x40 MLOAD PUSH32 0x9639A84E00000000000000000000000000000000000000000000000000000000 DUP2 MSTORE PUSH1 0x4 ADD PUSH1 0x40 MLOAD DUP1 SWAP2 SUB SWAP1 REVERT JUMPDEST DUP3 PUSH20 0xFFFFFFFFFFFFFFFFFFFFFFFFFFFFFFFFFFFFFFFF AND PUSH4 0x95EA7B3 ADDRESS DUP5 PUSH1 0x40 MLOAD DUP4 PUSH4 0xFFFFFFFF AND PUSH1 0xE0 SHL DUP2 MSTORE PUSH1 0x4 ADD PUSH2 0x938 SWAP3 SWAP2 SWAP1 PUSH2 0x3400 JUMP JUMPDEST PUSH1 0x20 PUSH1 0x40 MLOAD DUP1 DUP4 SUB DUP2 PUSH1 0x0 DUP8 GAS CALL ISZERO DUP1 ISZERO PUSH2 0x957 JUMPI RETURNDATASIZE PUSH1 0x0 DUP1 RETURNDATACOPY RETURNDATASIZE PUSH1 0x0 REVERT JUMPDEST POP POP POP POP PUSH1 0x40 MLOAD RETURNDATASIZE PUSH1 0x1F NOT PUSH1 0x1F DUP3 ADD AND DUP3 ADD DUP1 PUSH1 0x40 MSTORE POP DUP2 ADD SWAP1 PUSH2 0x97B SWAP2 SWAP1 PUSH2 0x33A4 JUMP JUMPDEST POP PUSH1 0x0 DUP4 PUSH20 0xFFFFFFFFFFFFFFFFFFFFFFFFFFFFFFFFFFFFFFFF AND PUSH4 0x23B872DD ADDRESS DUP5 DUP7 PUSH1 0x40 MLOAD DUP5 PUSH4 0xFFFFFFFF AND PUSH1 0xE0 SHL DUP2 MSTORE PUSH1 0x4 ADD PUSH2 0x9BB SWAP4 SWAP3 SWAP2 SWAP1 PUSH2 0x3358 JUMP JUMPDEST PUSH1 0x20 PUSH1 0x40 MLOAD DUP1 DUP4 SUB DUP2 PUSH1 0x0 DUP8 GAS CALL ISZERO DUP1 ISZERO PUSH2 0x9DA JUMPI RETURNDATASIZE PUSH1 0x0 DUP1 RETURNDATACOPY RETURNDATASIZE PUSH1 0x0 REVERT JUMPDEST POP POP POP POP PUSH1 0x40 MLOAD RETURNDATASIZE PUSH1 0x1F NOT PUSH1 0x1F DUP3 ADD AND DUP3 ADD DUP1 PUSH1 0x40 MSTORE POP DUP2 ADD SWAP1 PUSH2 0x9FE SWAP2 SWAP1 PUSH2 0x33A4 JUMP JUMPDEST SWAP1 POP DUP1 PUSH2 0xA40 JUMPI PUSH1 0x40 MLOAD PUSH32 0x8C379A000000000000000000000000000000000000000000000000000000000 DUP2 MSTORE PUSH1 0x4 ADD PUSH2 0xA37 SWAP1 PUSH2 0x3486 JUMP JUMPDEST PUSH1 0x40 MLOAD DUP1 SWAP2 SUB SWAP1 REVERT JUMPDEST POP POP POP POP JUMP JUMPDEST PUSH1 0x4 PUSH1 0x0 SWAP1 SLOAD SWAP1 PUSH2 0x100 EXP SWAP1 DIV PUSH20 0xFFFFFFFFFFFFFFFFFFFFFFFFFFFFFFFFFFFFFFFF AND DUP2 JUMP JUMPDEST DUP1 PUSH1 0x3 SLOAD PUSH1 0x2 SLOAD PUSH1 0x8 PUSH1 0x0 DUP5 DUP2 MSTORE PUSH1 0x20 ADD SWAP1 DUP2 MSTORE PUSH1 0x20 ADD PUSH1 0x0 KECCAK256 PUSH1 0x1 ADD SLOAD PUSH2 0xA94 SWAP2 SWAP1 PUSH2 0x34D5 JUMP JUMPDEST PUSH2 0xA9E SWAP2 SWAP1 PUSH2 0x34D5 JUMP JUMPDEST TIMESTAMP LT ISZERO PUSH2 0xAD7 JUMPI PUSH1 0x40 MLOAD PUSH32 0xAF30EB6800000000000000000000000000000000000000000000000000000000 DUP2 MSTORE PUSH1 0x4 ADD PUSH1 0x40 MLOAD DUP1 SWAP2 SUB SWAP1 REVERT JUMPDEST PUSH1 0x8 PUSH1 0x0 DUP3 DUP2 MSTORE PUSH1 0x20 ADD SWAP1 DUP2 MSTORE PUSH1 0x20 ADD PUSH1 0x0 KECCAK256 PUSH1 0x0 ADD PUSH1 0x0 SWAP1 SLOAD SWAP1 PUSH2 0x100 EXP SWAP1 DIV PUSH1 0xFF AND ISZERO PUSH2 0xB32 JUMPI PUSH1 0x40 MLOAD PUSH32 0xFC1CEE5000000000000000000000000000000000000000000000000000000000 DUP2 MSTORE PUSH1 0x4 ADD PUSH1 0x40 MLOAD DUP1 SWAP2 SUB SWAP1 REVERT JUMPDEST PUSH1 0x1 PUSH1 0x8 PUSH1 0x0 DUP4 DUP2 MSTORE PUSH1 0x20 ADD SWAP1 DUP2 MSTORE PUSH1 0x20 ADD PUSH1 0x0 KECCAK256 PUSH1 0x0 ADD PUSH1 0x0 PUSH2 0x100 EXP DUP2 SLOAD DUP2 PUSH1 0xFF MUL NOT AND SWAP1 DUP4 ISZERO ISZERO MUL OR SWAP1 SSTORE POP PUSH1 0x1 ISZERO ISZERO PUSH1 0x8 PUSH1 0x0 DUP5 DUP2 MSTORE PUSH1 0x20 ADD SWAP1 DUP2 MSTORE PUSH1 0x20 ADD PUSH1 0x0 KECCAK256 PUSH1 0x0 ADD PUSH1 0x1 SWAP1 SLOAD SWAP1 PUSH2 0x100 EXP SWAP1 DIV PUSH1 0xFF AND ISZERO ISZERO SUB PUSH2 0xBC2 JUMPI PUSH1 0x40 MLOAD PUSH32 0x9162EE7D00000000000000000000000000000000000000000000000000000000 DUP2 MSTORE PUSH1 0x4 ADD PUSH1 0x40 MLOAD DUP1 SWAP2 SUB SWAP1 REVERT JUMPDEST PUSH1 0x0 PUSH1 0x8 PUSH1 0x0 DUP5 DUP2 MSTORE PUSH1 0x20 ADD SWAP1 DUP2 MSTORE PUSH1 0x20 ADD PUSH1 0x0 KECCAK256 PUSH1 0x4 ADD DUP1 SLOAD DUP1 PUSH1 0x20 MUL PUSH1 0x20 ADD PUSH1 0x40 MLOAD SWAP1 DUP2 ADD PUSH1 0x40 MSTORE DUP1 SWAP3 SWAP2 SWAP1 DUP2 DUP2 MSTORE PUSH1 0x20 ADD DUP3 DUP1 SLOAD DUP1 ISZERO PUSH2 0xC5A JUMPI PUSH1 0x20 MUL DUP3 ADD SWAP2 SWAP1 PUSH1 0x0 MSTORE PUSH1 0x20 PUSH1 0x0 KECCAK256 SWAP1 JUMPDEST DUP2 PUSH1 0x0 SWAP1 SLOAD SWAP1 PUSH2 0x100 EXP SWAP1 DIV PUSH20 0xFFFFFFFFFFFFFFFFFFFFFFFFFFFFFFFFFFFFFFFF AND PUSH20 0xFFFFFFFFFFFFFFFFFFFFFFFFFFFFFFFFFFFFFFFF AND DUP2 MSTORE PUSH1 0x20 ADD SWAP1 PUSH1 0x1 ADD SWAP1 DUP1 DUP4 GT PUSH2 0xC10 JUMPI JUMPDEST POP POP POP POP POP SWAP1 POP PUSH2 0xC69 PUSH2 0x2CE7 JUMP JUMPDEST PUSH1 0x1 DUP3 MLOAD GT ISZERO PUSH2 0x1249 JUMPI PUSH1 0x0 PUSH1 0x18 SWAP1 POP PUSH2 0xC82 DUP6 PUSH2 0x2156 JUMP JUMPDEST SWAP2 POP PUSH1 0x0 DUP1 PUSH1 0x0 JUMPDEST PUSH1 0x0 SWAP2 POP JUMPDEST PUSH1 0x0 SWAP1 POP PUSH1 0x0 PUSH2 0xCB9 DUP8 DUP6 DUP2 MLOAD DUP2 LT PUSH2 0xCAB JUMPI PUSH2 0xCAA PUSH2 0x33D1 JUMP JUMPDEST JUMPDEST PUSH1 0x20 MUL PUSH1 0x20 ADD ADD MLOAD DUP11 PUSH2 0x13A9 JUMP JUMPDEST SWAP1 POP JUMPDEST DUP1 DUP3 PUSH1 0x19 DUP2 LT PUSH2 0xCCF JUMPI PUSH2 0xCCE PUSH2 0x33D1 JUMP JUMPDEST JUMPDEST PUSH1 0x20 MUL ADD MLOAD DUP7 DUP5 PUSH1 0x18 DUP2 LT PUSH2 0xCE7 JUMPI PUSH2 0xCE6 PUSH2 0x33D1 JUMP JUMPDEST JUMPDEST PUSH1 0x20 MUL ADD MLOAD SUB PUSH2 0xD79 JUMPI PUSH1 0x1 PUSH1 0x8 PUSH1 0x0 DUP12 DUP2 MSTORE PUSH1 0x20 ADD SWAP1 DUP2 MSTORE PUSH1 0x20 ADD PUSH1 0x0 KECCAK256 PUSH1 0x1D ADD PUSH1 0x0 DUP10 DUP8 DUP2 MLOAD DUP2 LT PUSH2 0xD1E JUMPI PUSH2 0xD1D PUSH2 0x33D1 JUMP JUMPDEST JUMPDEST PUSH1 0x20 MUL PUSH1 0x20 ADD ADD MLOAD PUSH20 0xFFFFFFFFFFFFFFFFFFFFFFFFFFFFFFFFFFFFFFFF AND PUSH20 0xFFFFFFFFFFFFFFFFFFFFFFFFFFFFFFFFFFFFFFFF AND DUP2 MSTORE PUSH1 0x20 ADD SWAP1 DUP2 MSTORE PUSH1 0x20 ADD PUSH1 0x0 KECCAK256 PUSH1 0x1A ADD PUSH1 0x0 DUP5 DUP2 MSTORE PUSH1 0x20 ADD SWAP1 DUP2 MSTORE PUSH1 0x20 ADD PUSH1 0x0 KECCAK256 DUP2 SWAP1 SSTORE POP JUMPDEST PUSH1 0xB DUP3 SUB PUSH2 0xD88 JUMPI DUP2 PUSH1 0x1 ADD SWAP2 POP JUMPDEST DUP2 PUSH1 0x1 ADD SWAP2 POP PUSH1 0x4 DUP3 GT ISZERO PUSH2 0x1026 JUMPI PUSH2 0xDBB DUP10 DUP9 DUP7 DUP2 MLOAD DUP2 LT PUSH2 0xDAE JUMPI PUSH2 0xDAD PUSH2 0x33D1 JUMP JUMPDEST JUMPDEST PUSH1 0x20 MUL PUSH1 0x20 ADD ADD MLOAD PUSH2 0x226F JUMP JUMPDEST ISZERO PUSH2 0x1025 JUMPI PUSH1 0x1 DUP6 PUSH2 0xDCD SWAP2 SWAP1 PUSH2 0x3509 JUMP JUMPDEST DUP4 SUB PUSH2 0xE69 JUMPI PUSH1 0x8 PUSH1 0x0 DUP11 DUP2 MSTORE PUSH1 0x20 ADD SWAP1 DUP2 MSTORE PUSH1 0x20 ADD PUSH1 0x0 KECCAK256 PUSH1 0x3 ADD DUP8 DUP6 DUP2 MLOAD DUP2 LT PUSH2 0xDFC JUMPI PUSH2 0xDFB PUSH2 0x33D1 JUMP JUMPDEST JUMPDEST PUSH1 0x20 MUL PUSH1 0x20 ADD ADD MLOAD SWAP1 DUP1 PUSH1 0x1 DUP2 SLOAD ADD DUP1 DUP3 SSTORE DUP1 SWAP2 POP POP PUSH1 0x1 SWAP1 SUB SWAP1 PUSH1 0x0 MSTORE PUSH1 0x20 PUSH1 0x0 KECCAK256 ADD PUSH1 0x0 SWAP1 SWAP2 SWAP1 SWAP2 SWAP1 SWAP2 PUSH2 0x100 EXP DUP2 SLOAD DUP2 PUSH20 0xFFFFFFFFFFFFFFFFFFFFFFFFFFFFFFFFFFFFFFFF MUL NOT AND SWAP1 DUP4 PUSH20 0xFFFFFFFFFFFFFFFFFFFFFFFFFFFFFFFFFFFFFFFF AND MUL OR SWAP1 SSTORE POP PUSH2 0xF6F JUMP JUMPDEST PUSH1 0x0 PUSH8 0xFFFFFFFFFFFFFFFF DUP2 GT ISZERO PUSH2 0xE84 JUMPI PUSH2 0xE83 PUSH2 0x353D JUMP JUMPDEST JUMPDEST PUSH1 0x40 MLOAD SWAP1 DUP1 DUP3 MSTORE DUP1 PUSH1 0x20 MUL PUSH1 0x20 ADD DUP3 ADD PUSH1 0x40 MSTORE DUP1 ISZERO PUSH2 0xEB2 JUMPI DUP2 PUSH1 0x20 ADD PUSH1 0x20 DUP3 MUL DUP1 CALLDATASIZE DUP4 CALLDATACOPY DUP1 DUP3 ADD SWAP2 POP POP SWAP1 POP JUMPDEST POP PUSH1 0x8 PUSH1 0x0 DUP12 DUP2 MSTORE PUSH1 0x20 ADD SWAP1 DUP2 MSTORE PUSH1 0x20 ADD PUSH1 0x0 KECCAK256 PUSH1 0x3 ADD SWAP1 DUP1 MLOAD SWAP1 PUSH1 0x20 ADD SWAP1 PUSH2 0xEDC SWAP3 SWAP2 SWAP1 PUSH2 0x2D0A JUMP JUMPDEST POP PUSH1 0x8 PUSH1 0x0 DUP11 DUP2 MSTORE PUSH1 0x20 ADD SWAP1 DUP2 MSTORE PUSH1 0x20 ADD PUSH1 0x0 KECCAK256 PUSH1 0x3 ADD DUP8 DUP6 DUP2 MLOAD DUP2 LT PUSH2 0xF06 JUMPI PUSH2 0xF05 PUSH2 0x33D1 JUMP JUMPDEST JUMPDEST PUSH1 0x20 MUL PUSH1 0x20 ADD ADD MLOAD SWAP1 DUP1 PUSH1 0x1 DUP2 SLOAD ADD DUP1 DUP3 SSTORE DUP1 SWAP2 POP POP PUSH1 0x1 SWAP1 SUB SWAP1 PUSH1 0x0 MSTORE PUSH1 0x20 PUSH1 0x0 KECCAK256 ADD PUSH1 0x0 SWAP1 SWAP2 SWAP1 SWAP2 SWAP1 SWAP2 PUSH2 0x100 EXP DUP2 SLOAD DUP2 PUSH20 0xFFFFFFFFFFFFFFFFFFFFFFFFFFFFFFFFFFFFFFFF MUL NOT AND SWAP1 DUP4 PUSH20 0xFFFFFFFFFFFFFFFFFFFFFFFFFFFFFFFFFFFFFFFF AND MUL OR SWAP1 SSTORE POP JUMPDEST PUSH1 0x1 DUP4 ADD SWAP5 POP DUP3 PUSH1 0x8 PUSH1 0x0 DUP12 DUP2 MSTORE PUSH1 0x20 ADD SWAP1 DUP2 MSTORE PUSH1 0x20 ADD PUSH1 0x0 KECCAK256 PUSH1 0x2 ADD DUP2 SWAP1 SSTORE POP PUSH2 0x1020 PUSH1 0x40 MLOAD DUP1 PUSH1 0x40 ADD PUSH1 0x40 MSTORE DUP1 PUSH1 0x14 DUP2 MSTORE PUSH1 0x20 ADD PUSH32 0x46697273742042696E676F20696E20726F756E64000000000000000000000000 DUP2 MSTORE POP DUP5 PUSH1 0x40 MLOAD DUP1 PUSH1 0x40 ADD PUSH1 0x40 MSTORE DUP1 PUSH1 0x12 DUP2 MSTORE PUSH1 0x20 ADD PUSH32 0x666F7220706C6179657220616464726573730000000000000000000000000000 DUP2 MSTORE POP DUP11 DUP9 DUP2 MLOAD DUP2 LT PUSH2 0x1013 JUMPI PUSH2 0x1012 PUSH2 0x33D1 JUMP JUMPDEST JUMPDEST PUSH1 0x20 MUL PUSH1 0x20 ADD ADD MLOAD PUSH2 0x2B69 JUMP JUMPDEST PUSH2 0x102F JUMP JUMPDEST JUMPDEST PUSH1 0x19 DUP3 LT PUSH2 0xCBC JUMPI JUMPDEST DUP3 PUSH1 0x1 ADD SWAP3 POP POP DUP4 DUP3 LT PUSH2 0xC8F JUMPI DUP3 PUSH1 0x1 ADD SWAP3 POP DUP6 MLOAD DUP4 LT PUSH2 0xC8A JUMPI PUSH1 0x0 SWAP3 POP JUMPDEST PUSH1 0x0 DUP1 PUSH2 0x1077 DUP11 DUP10 DUP8 DUP2 MLOAD DUP2 LT PUSH2 0x106A JUMPI PUSH2 0x1069 PUSH2 0x33D1 JUMP JUMPDEST JUMPDEST PUSH1 0x20 MUL PUSH1 0x20 ADD ADD MLOAD PUSH2 0x72B JUMP JUMPDEST SWAP2 POP SWAP2 POP DUP2 ISZERO PUSH2 0x1234 JUMPI PUSH1 0x4 PUSH1 0x0 SWAP1 SLOAD SWAP1 PUSH2 0x100 EXP SWAP1 DIV PUSH20 0xFFFFFFFFFFFFFFFFFFFFFFFFFFFFFFFFFFFFFFFF AND PUSH20 0xFFFFFFFFFFFFFFFFFFFFFFFFFFFFFFFFFFFFFFFF AND PUSH4 0xA9059CBB DUP10 DUP8 DUP2 MLOAD DUP2 LT PUSH2 0x10D2 JUMPI PUSH2 0x10D1 PUSH2 0x33D1 JUMP JUMPDEST JUMPDEST PUSH1 0x20 MUL PUSH1 0x20 ADD ADD MLOAD DUP4 PUSH1 0x40 MLOAD DUP4 PUSH4 0xFFFFFFFF AND PUSH1 0xE0 SHL DUP2 MSTORE PUSH1 0x4 ADD PUSH2 0x10F8 SWAP3 SWAP2 SWAP1 PUSH2 0x3400 JUMP JUMPDEST PUSH1 0x20 PUSH1 0x40 MLOAD DUP1 DUP4 SUB DUP2 PUSH1 0x0 DUP8 GAS CALL ISZERO DUP1 ISZERO PUSH2 0x1117 JUMPI RETURNDATASIZE PUSH1 0x0 DUP1 RETURNDATACOPY RETURNDATASIZE PUSH1 0x0 REVERT JUMPDEST POP POP POP POP PUSH1 0x40 MLOAD RETURNDATASIZE PUSH1 0x1F NOT PUSH1 0x1F DUP3 ADD AND DUP3 ADD DUP1 PUSH1 0x40 MSTORE POP DUP2 ADD SWAP1 PUSH2 0x113B SWAP2 SWAP1 PUSH2 0x33A4 JUMP JUMPDEST POP PUSH1 0x2 PUSH1 0x8 PUSH1 0x0 DUP13 DUP2 MSTORE PUSH1 0x20 ADD SWAP1 DUP2 MSTORE PUSH1 0x20 ADD PUSH1 0x0 KECCAK256 PUSH1 0x1D ADD PUSH1 0x0 DUP11 DUP9 DUP2 MLOAD DUP2 LT PUSH2 0x1169 JUMPI PUSH2 0x1168 PUSH2 0x33D1 JUMP JUMPDEST JUMPDEST PUSH1 0x20 MUL PUSH1 0x20 ADD ADD MLOAD PUSH20 0xFFFFFFFFFFFFFFFFFFFFFFFFFFFFFFFFFFFFFFFF AND PUSH20 0xFFFFFFFFFFFFFFFFFFFFFFFFFFFFFFFFFFFFFFFF AND DUP2 MSTORE PUSH1 0x20 ADD SWAP1 DUP2 MSTORE PUSH1 0x20 ADD PUSH1 0x0 KECCAK256 PUSH1 0x0 ADD PUSH1 0x0 PUSH2 0x100 EXP DUP2 SLOAD DUP2 PUSH1 0xFF MUL NOT AND SWAP1 DUP4 PUSH1 0x2 DUP2 GT ISZERO PUSH2 0x11D0 JUMPI PUSH2 0x11CF PUSH2 0x356C JUMP JUMPDEST JUMPDEST MUL OR SWAP1 SSTORE POP DUP1 DUP9 DUP7 DUP2 MLOAD DUP2 LT PUSH2 0x11E9 JUMPI PUSH2 0x11E8 PUSH2 0x33D1 JUMP JUMPDEST JUMPDEST PUSH1 0x20 MUL PUSH1 0x20 ADD ADD MLOAD PUSH20 0xFFFFFFFFFFFFFFFFFFFFFFFFFFFFFFFFFFFFFFFF AND PUSH32 0xD8138F8A3F377C5259CA548E70E4C2DE94F129F5A11036A15B69513CBA2B426A PUSH1 0x40 MLOAD PUSH1 0x40 MLOAD DUP1 SWAP2 SUB SWAP1 LOG3 JUMPDEST DUP5 PUSH1 0x1 ADD SWAP5 POP POP POP DUP6 MLOAD DUP4 LT PUSH2 0x1050 JUMPI POP POP POP POP JUMPDEST PUSH1 0x1 PUSH1 0x8 PUSH1 0x0 DUP7 DUP2 MSTORE PUSH1 0x20 ADD SWAP1 DUP2 MSTORE PUSH1 0x20 ADD PUSH1 0x0 KECCAK256 PUSH1 0x0 ADD PUSH1 0x1 PUSH2 0x100 EXP DUP2 SLOAD DUP2 PUSH1 0xFF MUL NOT AND SWAP1 DUP4 ISZERO ISZERO MUL OR SWAP1 SSTORE POP DUP2 MLOAD DUP5 PUSH32 0x46AEF705AA56EECF91CFF09C38B492BB00BE62E9CC0DBB3F786810E7B875136B DUP4 PUSH1 0x8 PUSH1 0x0 DUP10 DUP2 MSTORE PUSH1 0x20 ADD SWAP1 DUP2 MSTORE PUSH1 0x20 ADD PUSH1 0x0 KECCAK256 PUSH1 0x2 ADD SLOAD PUSH1 0x40 MLOAD PUSH2 0x12C2 SWAP3 SWAP2 SWAP1 PUSH2 0x359B JUMP JUMPDEST PUSH1 0x40 MLOAD DUP1 SWAP2 SUB SWAP1 LOG3 POP POP PUSH1 0x0 PUSH1 0x8 PUSH1 0x0 DUP4 DUP2 MSTORE PUSH1 0x20 ADD SWAP1 DUP2 MSTORE PUSH1 0x20 ADD PUSH1 0x0 KECCAK256 PUSH1 0x0 ADD PUSH1 0x0 PUSH2 0x100 EXP DUP2 SLOAD DUP2 PUSH1 0xFF MUL NOT AND SWAP1 DUP4 ISZERO ISZERO MUL OR SWAP1 SSTORE POP POP POP JUMP JUMPDEST PUSH1 0x6 PUSH1 0x0 SWAP1 SLOAD SWAP1 PUSH2 0x100 EXP SWAP1 DIV PUSH1 0xFF AND DUP2 JUMP JUMPDEST PUSH1 0x1 PUSH1 0x0 SWAP1 SLOAD SWAP1 PUSH2 0x100 EXP SWAP1 DIV PUSH20 0xFFFFFFFFFFFFFFFFFFFFFFFFFFFFFFFFFFFFFFFF AND PUSH20 0xFFFFFFFFFFFFFFFFFFFFFFFFFFFFFFFFFFFFFFFF AND CALLER PUSH20 0xFFFFFFFFFFFFFFFFFFFFFFFFFFFFFFFFFFFFFFFF AND EQ PUSH2 0x1399 JUMPI PUSH1 0x40 MLOAD PUSH32 0x9639A84E00000000000000000000000000000000000000000000000000000000 DUP2 MSTORE PUSH1 0x4 ADD PUSH1 0x40 MLOAD DUP1 SWAP2 SUB SWAP1 REVERT JUMPDEST DUP1 PUSH1 0x5 DUP2 SWAP1 SSTORE POP POP JUMP JUMPDEST PUSH1 0x5 SLOAD DUP2 JUMP JUMPDEST PUSH2 0x13B1 PUSH2 0x2D94 JUMP JUMPDEST PUSH1 0x8 PUSH1 0x0 DUP4 DUP2 MSTORE PUSH1 0x20 ADD SWAP1 DUP2 MSTORE PUSH1 0x20 ADD PUSH1 0x0 KECCAK256 PUSH1 0x1D ADD PUSH1 0x0 DUP5 PUSH20 0xFFFFFFFFFFFFFFFFFFFFFFFFFFFFFFFFFFFFFFFF AND PUSH20 0xFFFFFFFFFFFFFFFFFFFFFFFFFFFFFFFFFFFFFFFF AND DUP2 MSTORE PUSH1 0x20 ADD SWAP1 DUP2 MSTORE PUSH1 0x20 ADD PUSH1 0x0 KECCAK256 PUSH1 0x1 ADD PUSH1 0x19 DUP1 PUSH1 0x20 MUL PUSH1 0x40 MLOAD SWAP1 DUP2 ADD PUSH1 0x40 MSTORE DUP1 SWAP3 SWAP2 SWAP1 DUP3 PUSH1 0x19 DUP1 ISZERO PUSH2 0x143E JUMPI PUSH1 0x20 MUL DUP3 ADD SWAP2 JUMPDEST DUP2 SLOAD DUP2 MSTORE PUSH1 0x20 ADD SWAP1 PUSH1 0x1 ADD SWAP1 DUP1 DUP4 GT PUSH2 0x142A JUMPI JUMPDEST POP POP POP POP POP SWAP1 POP SWAP3 SWAP2 POP POP JUMP JUMPDEST PUSH1 0x7 SLOAD PUSH1 0x1 PUSH1 0x8 PUSH1 0x0 DUP5 DUP2 MSTORE PUSH1 0x20 ADD SWAP1 DUP2 MSTORE PUSH1 0x20 ADD PUSH1 0x0 KECCAK256 PUSH1 0x4 ADD DUP1 SLOAD SWAP1 POP PUSH2 0x1474 SWAP2 SWAP1 PUSH2 0x34D5 JUMP JUMPDEST GT ISZERO PUSH2 0x14AC JUMPI PUSH1 0x40 MLOAD PUSH32 0x9AA0271F00000000000000000000000000000000000000000000000000000000 DUP2 MSTORE PUSH1 0x4 ADD PUSH1 0x40 MLOAD DUP1 SWAP2 SUB SWAP1 REVERT JUMPDEST PUSH1 0x0 DUP1 PUSH2 0x14B9 DUP4 CALLER PUSH2 0x2C0B JUMP JUMPDEST SWAP2 POP SWAP2 POP PUSH1 0x0 PUSH1 0x2 DUP2 GT ISZERO PUSH2 0x14D1 JUMPI PUSH2 0x14D0 PUSH2 0x356C JUMP JUMPDEST JUMPDEST DUP3 PUSH1 0x2 DUP2 GT ISZERO PUSH2 0x14E4 JUMPI PUSH2 0x14E3 PUSH2 0x356C JUMP JUMPDEST JUMPDEST EQ PUSH2 0x151B JUMPI PUSH1 0x40 MLOAD PUSH32 0x70B48EA500000000000000000000000000000000000000000000000000000000 DUP2 MSTORE PUSH1 0x4 ADD PUSH1 0x40 MLOAD DUP1 SWAP2 SUB SWAP1 REVERT JUMPDEST DUP1 TIMESTAMP GT ISZERO PUSH2 0x1555 JUMPI PUSH1 0x40 MLOAD PUSH32 0x496F3B7600000000000000000000000000000000000000000000000000000000 DUP2 MSTORE PUSH1 0x4 ADD PUSH1 0x40 MLOAD DUP1 SWAP2 SUB SWAP1 REVERT JUMPDEST PUSH1 0x1 ISZERO ISZERO PUSH1 0x4 PUSH1 0x0 SWAP1 SLOAD SWAP1 PUSH2 0x100 EXP SWAP1 DIV PUSH20 0xFFFFFFFFFFFFFFFFFFFFFFFFFFFFFFFFFFFFFFFF AND PUSH20 0xFFFFFFFFFFFFFFFFFFFFFFFFFFFFFFFFFFFFFFFF AND PUSH4 0x23B872DD CALLER ADDRESS PUSH1 0x5 SLOAD PUSH1 0x40 MLOAD DUP5 PUSH4 0xFFFFFFFF AND PUSH1 0xE0 SHL DUP2 MSTORE PUSH1 0x4 ADD PUSH2 0x15BA SWAP4 SWAP3 SWAP2 SWAP1 PUSH2 0x3358 JUMP JUMPDEST PUSH1 0x20 PUSH1 0x40 MLOAD DUP1 DUP4 SUB DUP2 PUSH1 0x0 DUP8 GAS CALL ISZERO DUP1 ISZERO PUSH2 0x15D9 JUMPI RETURNDATASIZE PUSH1 0x0 DUP1 RETURNDATACOPY RETURNDATASIZE PUSH1 0x0 REVERT JUMPDEST POP POP POP POP PUSH1 0x40 MLOAD RETURNDATASIZE PUSH1 0x1F NOT PUSH1 0x1F DUP3 ADD AND DUP3 ADD DUP1 PUSH1 0x40 MSTORE POP DUP2 ADD SWAP1 PUSH2 0x15FD SWAP2 SWAP1 PUSH2 0x33A4 JUMP JUMPDEST ISZERO ISZERO EQ PUSH2 0x1636 JUMPI PUSH1 0x40 MLOAD PUSH32 0x2FF987E700000000000000000000000000000000000000000000000000000000 DUP2 MSTORE PUSH1 0x4 ADD PUSH1 0x40 MLOAD DUP1 SWAP2 SUB SWAP1 REVERT JUMPDEST PUSH2 0x1640 CALLER DUP5 PUSH2 0x1D00 JUMP JUMPDEST POP POP POP JUMP JUMPDEST PUSH1 0x1 PUSH1 0x0 SWAP1 SLOAD SWAP1 PUSH2 0x100 EXP SWAP1 DIV PUSH20 0xFFFFFFFFFFFFFFFFFFFFFFFFFFFFFFFFFFFFFFFF AND PUSH20 0xFFFFFFFFFFFFFFFFFFFFFFFFFFFFFFFFFFFFFFFF AND CALLER PUSH20 0xFFFFFFFFFFFFFFFFFFFFFFFFFFFFFFFFFFFFFFFF AND EQ PUSH2 0x16CC JUMPI PUSH1 0x40 MLOAD PUSH32 0x9639A84E00000000000000000000000000000000000000000000000000000000 DUP2 MSTORE PUSH1 0x4 ADD PUSH1 0x40 MLOAD DUP1 SWAP2 SUB SWAP1 REVERT JUMPDEST DUP1 PUSH1 0x6 PUSH1 0x0 PUSH2 0x100 EXP DUP2 SLOAD DUP2 PUSH1 0xFF MUL NOT AND SWAP1 DUP4 ISZERO ISZERO MUL OR SWAP1 SSTORE POP POP JUMP JUMPDEST PUSH1 0x1 PUSH1 0x0 SWAP1 SLOAD SWAP1 PUSH2 0x100 EXP SWAP1 DIV PUSH20 0xFFFFFFFFFFFFFFFFFFFFFFFFFFFFFFFFFFFFFFFF AND PUSH20 0xFFFFFFFFFFFFFFFFFFFFFFFFFFFFFFFFFFFFFFFF AND CALLER PUSH20 0xFFFFFFFFFFFFFFFFFFFFFFFFFFFFFFFFFFFFFFFF AND EQ PUSH2 0x1770 JUMPI PUSH1 0x40 MLOAD PUSH32 0x9639A84E00000000000000000000000000000000000000000000000000000000 DUP2 MSTORE PUSH1 0x4 ADD PUSH1 0x40 MLOAD DUP1 SWAP2 SUB SWAP1 REVERT JUMPDEST DUP1 PUSH1 0x2 DUP2 SWAP1 SSTORE POP POP JUMP JUMPDEST DUP1 PUSH1 0x3 SLOAD PUSH1 0x2 SLOAD PUSH1 0x8 PUSH1 0x0 DUP5 DUP2 MSTORE PUSH1 0x20 ADD SWAP1 DUP2 MSTORE PUSH1 0x20 ADD PUSH1 0x0 KECCAK256 PUSH1 0x1 ADD SLOAD PUSH2 0x17A2 SWAP2 SWAP1 PUSH2 0x34D5 JUMP JUMPDEST PUSH2 0x17AC SWAP2 SWAP1 PUSH2 0x34D5 JUMP JUMPDEST TIMESTAMP LT ISZERO PUSH2 0x17E5 JUMPI PUSH1 0x40 MLOAD PUSH32 0xAF30EB6800000000000000000000000000000000000000000000000000000000 DUP2 MSTORE PUSH1 0x4 ADD PUSH1 0x40 MLOAD DUP1 SWAP2 SUB SWAP1 REVERT JUMPDEST PUSH1 0x8 PUSH1 0x0 DUP3 DUP2 MSTORE PUSH1 0x20 ADD SWAP1 DUP2 MSTORE PUSH1 0x20 ADD PUSH1 0x0 KECCAK256 PUSH1 0x0 ADD PUSH1 0x0 SWAP1 SLOAD SWAP1 PUSH2 0x100 EXP SWAP1 DIV PUSH1 0xFF AND ISZERO PUSH2 0x1840 JUMPI PUSH1 0x40 MLOAD PUSH32 0xFC1CEE5000000000000000000000000000000000000000000000000000000000 DUP2 MSTORE PUSH1 0x4 ADD PUSH1 0x40 MLOAD DUP1 SWAP2 SUB SWAP1 REVERT JUMPDEST PUSH1 0x1 PUSH1 0x8 PUSH1 0x0 DUP4 DUP2 MSTORE PUSH1 0x20 ADD SWAP1 DUP2 MSTORE PUSH1 0x20 ADD PUSH1 0x0 KECCAK256 PUSH1 0x0 ADD PUSH1 0x0 PUSH2 0x100 EXP DUP2 SLOAD DUP2 PUSH1 0xFF MUL NOT AND SWAP1 DUP4 ISZERO ISZERO MUL OR SWAP1 SSTORE POP PUSH1 0x1 PUSH1 0x2 DUP2 GT ISZERO PUSH2 0x1883 JUMPI PUSH2 0x1882 PUSH2 0x356C JUMP JUMPDEST JUMPDEST PUSH1 0x8 PUSH1 0x0 DUP5 DUP2 MSTORE PUSH1 0x20 ADD SWAP1 DUP2 MSTORE PUSH1 0x20 ADD PUSH1 0x0 KECCAK256 PUSH1 0x1D ADD PUSH1 0x0 CALLER PUSH20 0xFFFFFFFFFFFFFFFFFFFFFFFFFFFFFFFFFFFFFFFF AND PUSH20 0xFFFFFFFFFFFFFFFFFFFFFFFFFFFFFFFFFFFFFFFF AND DUP2 MSTORE PUSH1 0x20 ADD SWAP1 DUP2 MSTORE PUSH1 0x20 ADD PUSH1 0x0 KECCAK256 PUSH1 0x0 ADD PUSH1 0x0 SWAP1 SLOAD SWAP1 PUSH2 0x100 EXP SWAP1 DIV PUSH1 0xFF AND PUSH1 0x2 DUP2 GT ISZERO PUSH2 0x18F9 JUMPI PUSH2 0x18F8 PUSH2 0x356C JUMP JUMPDEST JUMPDEST EQ PUSH2 0x1930 JUMPI PUSH1 0x40 MLOAD PUSH32 0x6C8AEB7700000000000000000000000000000000000000000000000000000000 DUP2 MSTORE PUSH1 0x4 ADD PUSH1 0x40 MLOAD DUP1 SWAP2 SUB SWAP1 REVERT JUMPDEST PUSH1 0x0 PUSH1 0x5 SLOAD SWAP1 POP PUSH1 0x0 DUP1 ISZERO ISZERO PUSH1 0x8 PUSH1 0x0 DUP7 DUP2 MSTORE PUSH1 0x20 ADD SWAP1 DUP2 MSTORE PUSH1 0x20 ADD PUSH1 0x0 KECCAK256 PUSH1 0x0 ADD PUSH1 0x1 SWAP1 SLOAD SWAP1 PUSH2 0x100 EXP SWAP1 DIV PUSH1 0xFF AND ISZERO ISZERO SUB PUSH2 0x1999 JUMPI PUSH1 0x40 MLOAD PUSH32 0xFF07FCAE00000000000000000000000000000000000000000000000000000000 DUP2 MSTORE PUSH1 0x4 ADD PUSH1 0x40 MLOAD DUP1 SWAP2 SUB SWAP1 REVERT JUMPDEST PUSH1 0x0 PUSH1 0x8 PUSH1 0x0 DUP7 DUP2 MSTORE PUSH1 0x20 ADD SWAP1 DUP2 MSTORE PUSH1 0x20 ADD PUSH1 0x0 KECCAK256 PUSH1 0x2 ADD SLOAD GT ISZERO PUSH2 0x1A74 JUMPI PUSH2 0x19C2 DUP5 CALLER PUSH2 0x2005 JUMP JUMPDEST SWAP1 POP PUSH1 0x0 DUP2 GT ISZERO PUSH2 0x1A6F JUMPI PUSH1 0x4 PUSH1 0x0 SWAP1 SLOAD SWAP1 PUSH2 0x100 EXP SWAP1 DIV PUSH20 0xFFFFFFFFFFFFFFFFFFFFFFFFFFFFFFFFFFFFFFFF AND PUSH20 0xFFFFFFFFFFFFFFFFFFFFFFFFFFFFFFFFFFFFFFFF AND PUSH4 0xA9059CBB CALLER DUP4 PUSH1 0x40 MLOAD DUP4 PUSH4 0xFFFFFFFF AND PUSH1 0xE0 SHL DUP2 MSTORE PUSH1 0x4 ADD PUSH2 0x1A2A SWAP3 SWAP2 SWAP1 PUSH2 0x3400 JUMP JUMPDEST PUSH1 0x20 PUSH1 0x40 MLOAD DUP1 DUP4 SUB DUP2 PUSH1 0x0 DUP8 GAS CALL ISZERO DUP1 ISZERO PUSH2 0x1A49 JUMPI RETURNDATASIZE PUSH1 0x0 DUP1 RETURNDATACOPY RETURNDATASIZE PUSH1 0x0 REVERT JUMPDEST POP POP POP POP PUSH1 0x40 MLOAD RETURNDATASIZE PUSH1 0x1F NOT PUSH1 0x1F DUP3 ADD AND DUP3 ADD DUP1 PUSH1 0x40 MSTORE POP DUP2 ADD SWAP1 PUSH2 0x1A6D SWAP2 SWAP1 PUSH2 0x33A4 JUMP JUMPDEST POP JUMPDEST PUSH2 0x1B51 JUMP JUMPDEST PUSH1 0x1 PUSH1 0x8 PUSH1 0x0 DUP7 DUP2 MSTORE PUSH1 0x20 ADD SWAP1 DUP2 MSTORE PUSH1 0x20 ADD PUSH1 0x0 KECCAK256 PUSH1 0x4 ADD DUP1 SLOAD SWAP1 POP GT ISZERO DUP1 PUSH2 0x1AA9 JUMPI POP PUSH1 0x6 PUSH1 0x0 SWAP1 SLOAD SWAP1 PUSH2 0x100 EXP SWAP1 DIV PUSH1 0xFF AND JUMPDEST ISZERO PUSH2 0x1B50 JUMPI PUSH1 0x4 PUSH1 0x0 SWAP1 SLOAD SWAP1 PUSH2 0x100 EXP SWAP1 DIV PUSH20 0xFFFFFFFFFFFFFFFFFFFFFFFFFFFFFFFFFFFFFFFF AND PUSH20 0xFFFFFFFFFFFFFFFFFFFFFFFFFFFFFFFFFFFFFFFF AND PUSH4 0xA9059CBB CALLER DUP5 PUSH1 0x40 MLOAD DUP4 PUSH4 0xFFFFFFFF AND PUSH1 0xE0 SHL DUP2 MSTORE PUSH1 0x4 ADD PUSH2 0x1B0B SWAP3 SWAP2 SWAP1 PUSH2 0x3400 JUMP JUMPDEST PUSH1 0x20 PUSH1 0x40 MLOAD DUP1 DUP4 SUB DUP2 PUSH1 0x0 DUP8 GAS CALL ISZERO DUP1 ISZERO PUSH2 0x1B2A JUMPI RETURNDATASIZE PUSH1 0x0 DUP1 RETURNDATACOPY RETURNDATASIZE PUSH1 0x0 REVERT JUMPDEST POP POP POP POP PUSH1 0x40 MLOAD RETURNDATASIZE PUSH1 0x1F NOT PUSH1 0x1F DUP3 ADD AND DUP3 ADD DUP1 PUSH1 0x40 MSTORE POP DUP2 ADD SWAP1 PUSH2 0x1B4E SWAP2 SWAP1 PUSH2 0x33A4 JUMP JUMPDEST POP JUMPDEST JUMPDEST PUSH1 0x2 PUSH1 0x8 PUSH1 0x0 DUP7 DUP2 MSTORE PUSH1 0x20 ADD SWAP1 DUP2 MSTORE PUSH1 0x20 ADD PUSH1 0x0 KECCAK256 PUSH1 0x1D ADD PUSH1 0x0 CALLER PUSH20 0xFFFFFFFFFFFFFFFFFFFFFFFFFFFFFFFFFFFFFFFF AND PUSH20 0xFFFFFFFFFFFFFFFFFFFFFFFFFFFFFFFFFFFFFFFF AND DUP2 MSTORE PUSH1 0x20 ADD SWAP1 DUP2 MSTORE PUSH1 0x20 ADD PUSH1 0x0 KECCAK256 PUSH1 0x0 ADD PUSH1 0x0 PUSH2 0x100 EXP DUP2 SLOAD DUP2 PUSH1 0xFF MUL NOT AND SWAP1 DUP4 PUSH1 0x2 DUP2 GT ISZERO PUSH2 0x1BCB JUMPI PUSH2 0x1BCA PUSH2 0x356C JUMP JUMPDEST JUMPDEST MUL OR SWAP1 SSTORE POP DUP1 CALLER PUSH20 0xFFFFFFFFFFFFFFFFFFFFFFFFFFFFFFFFFFFFFFFF AND PUSH32 0xD8138F8A3F377C5259CA548E70E4C2DE94F129F5A11036A15B69513CBA2B426A PUSH1 0x40 MLOAD PUSH1 0x40 MLOAD DUP1 SWAP2 SUB SWAP1 LOG3 POP POP PUSH1 0x0 PUSH1 0x8 PUSH1 0x0 DUP4 DUP2 MSTORE PUSH1 0x20 ADD SWAP1 DUP2 MSTORE PUSH1 0x20 ADD PUSH1 0x0 KECCAK256 PUSH1 0x0 ADD PUSH1 0x0 PUSH2 0x100 EXP DUP2 SLOAD DUP2 PUSH1 0xFF MUL NOT AND SWAP1 DUP4 ISZERO ISZERO MUL OR SWAP1 SSTORE POP POP POP JUMP JUMPDEST PUSH1 0x1 PUSH1 0x0 SWAP1 SLOAD SWAP1 PUSH2 0x100 EXP SWAP1 DIV PUSH20 0xFFFFFFFFFFFFFFFFFFFFFFFFFFFFFFFFFFFFFFFF AND PUSH20 0xFFFFFFFFFFFFFFFFFFFFFFFFFFFFFFFFFFFFFFFF AND CALLER PUSH20 0xFFFFFFFFFFFFFFFFFFFFFFFFFFFFFFFFFFFFFFFF AND EQ PUSH2 0x1CD0 JUMPI PUSH1 0x40 MLOAD PUSH32 0x9639A84E00000000000000000000000000000000000000000000000000000000 DUP2 MSTORE PUSH1 0x4 ADD PUSH1 0x40 MLOAD DUP1 SWAP2 SUB SWAP1 REVERT JUMPDEST DUP1 PUSH1 0x3 DUP2 SWAP1 SSTORE POP POP JUMP JUMPDEST PUSH1 0x1 PUSH1 0x0 SWAP1 SLOAD SWAP1 PUSH2 0x100 EXP SWAP1 DIV PUSH20 0xFFFFFFFFFFFFFFFFFFFFFFFFFFFFFFFFFFFFFFFF AND DUP2 JUMP JUMPDEST PUSH1 0x1 PUSH1 0x8 PUSH1 0x0 DUP4 DUP2 MSTORE PUSH1 0x20 ADD SWAP1 DUP2 MSTORE PUSH1 0x20 ADD PUSH1 0x0 KECCAK256 PUSH1 0x1D ADD PUSH1 0x0 DUP5 PUSH20 0xFFFFFFFFFFFFFFFFFFFFFFFFFFFFFFFFFFFFFFFF AND PUSH20 0xFFFFFFFFFFFFFFFFFFFFFFFFFFFFFFFFFFFFFFFF AND DUP2 MSTORE PUSH1 0x20 ADD SWAP1 DUP2 MSTORE PUSH1 0x20 ADD PUSH1 0x0 KECCAK256 PUSH1 0x0 ADD PUSH1 0x0 PUSH2 0x100 EXP DUP2 SLOAD DUP2 PUSH1 0xFF MUL NOT AND SWAP1 DUP4 PUSH1 0x2 DUP2 GT ISZERO PUSH2 0x1D7A JUMPI PUSH2 0x1D79 PUSH2 0x356C JUMP JUMPDEST JUMPDEST MUL OR SWAP1 SSTORE POP PUSH1 0x8 PUSH1 0x0 DUP3 DUP2 MSTORE PUSH1 0x20 ADD SWAP1 DUP2 MSTORE PUSH1 0x20 ADD PUSH1 0x0 KECCAK256 PUSH1 0x4 ADD DUP3 SWAP1 DUP1 PUSH1 0x1 DUP2 SLOAD ADD DUP1 DUP3 SSTORE DUP1 SWAP2 POP POP PUSH1 0x1 SWAP1 SUB SWAP1 PUSH1 0x0 MSTORE PUSH1 0x20 PUSH1 0x0 KECCAK256 ADD PUSH1 0x0 SWAP1 SWAP2 SWAP1 SWAP2 SWAP1 SWAP2 PUSH2 0x100 EXP DUP2 SLOAD DUP2 PUSH20 0xFFFFFFFFFFFFFFFFFFFFFFFFFFFFFFFFFFFFFFFF MUL NOT AND SWAP1 DUP4 PUSH20 0xFFFFFFFFFFFFFFFFFFFFFFFFFFFFFFFFFFFFFFFF AND MUL OR SWAP1 SSTORE POP PUSH1 0x0 PUSH2 0x1E00 PUSH2 0x2D94 JUMP JUMPDEST PUSH1 0x0 PUSH1 0x1 NUMBER PUSH2 0x1E0F SWAP2 SWAP1 PUSH2 0x3509 JUMP JUMPDEST BLOCKHASH SWAP1 POP PUSH1 0x0 DUP2 PUSH1 0x0 SHR SWAP1 POP PUSH1 0x0 DUP2 CALLER PUSH1 0x40 MLOAD PUSH1 0x20 ADD PUSH2 0x1E2F SWAP3 SWAP2 SWAP1 PUSH2 0x362F JUMP JUMPDEST PUSH1 0x40 MLOAD PUSH1 0x20 DUP2 DUP4 SUB SUB DUP2 MSTORE SWAP1 PUSH1 0x40 MSTORE DUP1 MLOAD SWAP1 PUSH1 0x20 ADD KECCAK256 PUSH1 0x0 SHR SWAP1 POP JUMPDEST PUSH1 0x0 PUSH1 0x6 DUP3 SWAP1 SHR GT PUSH2 0x1E96 JUMPI PUSH1 0x40 DUP3 CALLER DUP8 PUSH1 0x40 MLOAD PUSH1 0x20 ADD PUSH2 0x1E6E SWAP4 SWAP3 SWAP2 SWAP1 PUSH2 0x365B JUMP JUMPDEST PUSH1 0x40 MLOAD PUSH1 0x20 DUP2 DUP4 SUB SUB DUP2 MSTORE SWAP1 PUSH1 0x40 MSTORE DUP1 MLOAD SWAP1 PUSH1 0x20 ADD KECCAK256 PUSH1 0x0 SHR PUSH2 0x1E91 SWAP2 SWAP1 PUSH2 0x36C7 JUMP JUMPDEST PUSH2 0x1EA8 JUMP JUMPDEST PUSH1 0x40 PUSH1 0x6 DUP3 SWAP1 SHR PUSH2 0x1EA7 SWAP2 SWAP1 PUSH2 0x36C7 JUMP JUMPDEST JUMPDEST SWAP1 POP DUP1 DUP5 DUP7 PUSH1 0x19 DUP2 LT PUSH2 0x1EBE JUMPI PUSH2 0x1EBD PUSH2 0x33D1 JUMP JUMPDEST JUMPDEST PUSH1 0x20 MUL ADD DUP2 DUP2 MSTORE POP POP PUSH1 0xB DUP6 SUB PUSH2 0x1ED6 JUMPI DUP5 PUSH1 0x1 ADD SWAP5 POP JUMPDEST DUP5 PUSH1 0x1 ADD SWAP5 POP PUSH1 0x19 DUP6 LT PUSH2 0x1E4B JUMPI DUP4 PUSH1 0x8 PUSH1 0x0 DUP9 DUP2 MSTORE PUSH1 0x20 ADD SWAP1 DUP2 MSTORE PUSH1 0x20 ADD PUSH1 0x0 KECCAK256 PUSH1 0x1D ADD PUSH1 0x0 DUP10 PUSH20 0xFFFFFFFFFFFFFFFFFFFFFFFFFFFFFFFFFFFFFFFF AND PUSH20 0xFFFFFFFFFFFFFFFFFFFFFFFFFFFFFFFFFFFFFFFF AND DUP2 MSTORE PUSH1 0x20 ADD SWAP1 DUP2 MSTORE PUSH1 0x20 ADD PUSH1 0x0 KECCAK256 PUSH1 0x1 ADD SWAP1 PUSH1 0x19 PUSH2 0x1F49 SWAP3 SWAP2 SWAP1 PUSH2 0x2DB7 JUMP JUMPDEST POP PUSH1 0x1 PUSH1 0x8 PUSH1 0x0 DUP9 DUP2 MSTORE PUSH1 0x20 ADD SWAP1 DUP2 MSTORE PUSH1 0x20 ADD PUSH1 0x0 KECCAK256 PUSH1 0x1D ADD PUSH1 0x0 DUP10 PUSH20 0xFFFFFFFFFFFFFFFFFFFFFFFFFFFFFFFFFFFFFFFF AND PUSH20 0xFFFFFFFFFFFFFFFFFFFFFFFFFFFFFFFFFFFFFFFF AND DUP2 MSTORE PUSH1 0x20 ADD SWAP1 DUP2 MSTORE PUSH1 0x20 ADD PUSH1 0x0 KECCAK256 PUSH1 0x1A ADD PUSH1 0x0 PUSH1 0xC DUP2 MSTORE PUSH1 0x20 ADD SWAP1 DUP2 MSTORE PUSH1 0x20 ADD PUSH1 0x0 KECCAK256 DUP2 SWAP1 SSTORE POP DUP6 CALLER PUSH20 0xFFFFFFFFFFFFFFFFFFFFFFFFFFFFFFFFFFFFFFFF AND PUSH32 0x49F8FA5EEE2E3F21251C2E968640DCAEF35CB9332429EB059BB3CD56DDC2533D PUSH1 0x40 MLOAD PUSH1 0x40 MLOAD DUP1 SWAP2 SUB SWAP1 LOG3 POP POP POP POP POP POP POP JUMP JUMPDEST PUSH1 0x0 DUP1 PUSH1 0x8 PUSH1 0x0 DUP6 DUP2 MSTORE PUSH1 0x20 ADD SWAP1 DUP2 MSTORE PUSH1 0x20 ADD PUSH1 0x0 KECCAK256 PUSH1 0x3 ADD DUP1 SLOAD DUP1 PUSH1 0x20 MUL PUSH1 0x20 ADD PUSH1 0x40 MLOAD SWAP1 DUP2 ADD PUSH1 0x40 MSTORE DUP1 SWAP3 SWAP2 SWAP1 DUP2 DUP2 MSTORE PUSH1 0x20 ADD DUP3 DUP1 SLOAD DUP1 ISZERO PUSH2 0x209E JUMPI PUSH1 0x20 MUL DUP3 ADD SWAP2 SWAP1 PUSH1 0x0 MSTORE PUSH1 0x20 PUSH1 0x0 KECCAK256 SWAP1 JUMPDEST DUP2 PUSH1 0x0 SWAP1 SLOAD SWAP1 PUSH2 0x100 EXP SWAP1 DIV PUSH20 0xFFFFFFFFFFFFFFFFFFFFFFFFFFFFFFFFFFFFFFFF AND PUSH20 0xFFFFFFFFFFFFFFFFFFFFFFFFFFFFFFFFFFFFFFFF AND DUP2 MSTORE PUSH1 0x20 ADD SWAP1 PUSH1 0x1 ADD SWAP1 DUP1 DUP4 GT PUSH2 0x2054 JUMPI JUMPDEST POP POP POP POP POP SWAP1 POP PUSH1 0x0 DUP1 JUMPDEST DUP5 PUSH20 0xFFFFFFFFFFFFFFFFFFFFFFFFFFFFFFFFFFFFFFFF AND DUP4 DUP4 DUP2 MLOAD DUP2 LT PUSH2 0x20D3 JUMPI PUSH2 0x20D2 PUSH2 0x33D1 JUMP JUMPDEST JUMPDEST PUSH1 0x20 MUL PUSH1 0x20 ADD ADD MLOAD PUSH20 0xFFFFFFFFFFFFFFFFFFFFFFFFFFFFFFFFFFFFFFFF AND SUB PUSH2 0x20FF JUMPI DUP1 DUP1 PUSH1 0x1 ADD SWAP2 POP POP JUMPDEST DUP2 PUSH1 0x1 ADD SWAP2 POP DUP3 MLOAD DUP3 LT PUSH2 0x20A9 JUMPI DUP3 MLOAD PUSH1 0x8 PUSH1 0x0 DUP9 DUP2 MSTORE PUSH1 0x20 ADD SWAP1 DUP2 MSTORE PUSH1 0x20 ADD PUSH1 0x0 KECCAK256 PUSH1 0x4 ADD DUP1 SLOAD SWAP1 POP PUSH1 0x5 SLOAD PUSH2 0x2136 SWAP2 SWAP1 PUSH2 0x36F8 JUMP JUMPDEST DUP3 PUSH2 0x2141 SWAP2 SWAP1 PUSH2 0x36F8 JUMP JUMPDEST PUSH2 0x214B SWAP2 SWAP1 PUSH2 0x373A JUMP JUMPDEST SWAP4 POP POP POP POP SWAP3 SWAP2 POP POP JUMP JUMPDEST PUSH2 0x215E PUSH2 0x2CE7 JUMP JUMPDEST PUSH2 0x2166 PUSH2 0x2CE7 JUMP JUMPDEST PUSH1 0x0 DUP1 PUSH1 0x1 NUMBER PUSH2 0x2176 SWAP2 SWAP1 PUSH2 0x3509 JUMP JUMPDEST BLOCKHASH SWAP1 POP PUSH1 0x0 DUP2 PUSH1 0x0 SHR SWAP1 POP PUSH1 0x0 DUP2 CALLER PUSH1 0x40 MLOAD PUSH1 0x20 ADD PUSH2 0x2196 SWAP3 SWAP2 SWAP1 PUSH2 0x362F JUMP JUMPDEST PUSH1 0x40 MLOAD PUSH1 0x20 DUP2 DUP4 SUB SUB DUP2 MSTORE SWAP1 PUSH1 0x40 MSTORE DUP1 MLOAD SWAP1 PUSH1 0x20 ADD KECCAK256 PUSH1 0x0 SHR SWAP1 POP JUMPDEST PUSH1 0x0 PUSH1 0x6 DUP3 SWAP1 SHR GT PUSH2 0x21FD JUMPI PUSH1 0x40 DUP3 CALLER DUP7 PUSH1 0x40 MLOAD PUSH1 0x20 ADD PUSH2 0x21D5 SWAP4 SWAP3 SWAP2 SWAP1 PUSH2 0x365B JUMP JUMPDEST PUSH1 0x40 MLOAD PUSH1 0x20 DUP2 DUP4 SUB SUB DUP2 MSTORE SWAP1 PUSH1 0x40 MSTORE DUP1 MLOAD SWAP1 PUSH1 0x20 ADD KECCAK256 PUSH1 0x0 SHR PUSH2 0x21F8 SWAP2 SWAP1 PUSH2 0x36C7 JUMP JUMPDEST PUSH2 0x220F JUMP JUMPDEST PUSH1 0x40 PUSH1 0x6 DUP3 SWAP1 SHR PUSH2 0x220E SWAP2 SWAP1 PUSH2 0x36C7 JUMP JUMPDEST JUMPDEST SWAP1 POP DUP1 DUP6 DUP6 PUSH1 0x18 DUP2 LT PUSH2 0x2225 JUMPI PUSH2 0x2224 PUSH2 0x33D1 JUMP JUMPDEST JUMPDEST PUSH1 0x20 MUL ADD DUP2 DUP2 MSTORE POP POP DUP4 PUSH1 0x1 ADD SWAP4 POP PUSH1 0x18 DUP5 LT PUSH2 0x21B2 JUMPI DUP5 PUSH1 0x8 PUSH1 0x0 DUP10 DUP2 MSTORE PUSH1 0x20 ADD SWAP1 DUP2 MSTORE PUSH1 0x20 ADD PUSH1 0x0 KECCAK256 PUSH1 0x5 ADD SWAP1 PUSH1 0x18 PUSH2 0x2261 SWAP3 SWAP2 SWAP1 PUSH2 0x2DF7 JUMP JUMPDEST POP DUP5 SWAP6 POP POP POP POP POP POP SWAP2 SWAP1 POP JUMP JUMPDEST PUSH1 0x0 DUP1 PUSH1 0x1 PUSH1 0x8 PUSH1 0x0 DUP7 DUP2 MSTORE PUSH1 0x20 ADD SWAP1 DUP2 MSTORE PUSH1 0x20 ADD PUSH1 0x0 KECCAK256 PUSH1 0x1D ADD PUSH1 0x0 DUP6 PUSH20 0xFFFFFFFFFFFFFFFFFFFFFFFFFFFFFFFFFFFFFFFF AND PUSH20 0xFFFFFFFFFFFFFFFFFFFFFFFFFFFFFFFFFFFFFFFF AND DUP2 MSTORE PUSH1 0x20 ADD SWAP1 DUP2 MSTORE PUSH1 0x20 ADD PUSH1 0x0 KECCAK256 PUSH1 0x1A ADD PUSH1 0x0 DUP1 DUP2 MSTORE PUSH1 0x20 ADD SWAP1 DUP2 MSTORE PUSH1 0x20 ADD PUSH1 0x0 KECCAK256 SLOAD EQ DUP1 ISZERO PUSH2 0x2351 JUMPI POP PUSH1 0x1 PUSH1 0x8 PUSH1 0x0 DUP7 DUP2 MSTORE PUSH1 0x20 ADD SWAP1 DUP2 MSTORE PUSH1 0x20 ADD PUSH1 0x0 KECCAK256 PUSH1 0x1D ADD PUSH1 0x0 DUP6 PUSH20 0xFFFFFFFFFFFFFFFFFFFFFFFFFFFFFFFFFFFFFFFF AND PUSH20 0xFFFFFFFFFFFFFFFFFFFFFFFFFFFFFFFFFFFFFFFF AND DUP2 MSTORE PUSH1 0x20 ADD SWAP1 DUP2 MSTORE PUSH1 0x20 ADD PUSH1 0x0 KECCAK256 PUSH1 0x1A ADD PUSH1 0x0 PUSH1 0x6 DUP2 MSTORE PUSH1 0x20 ADD SWAP1 DUP2 MSTORE PUSH1 0x20 ADD PUSH1 0x0 KECCAK256 SLOAD EQ JUMPDEST DUP1 ISZERO PUSH2 0x23C5 JUMPI POP PUSH1 0x1 PUSH1 0x8 PUSH1 0x0 DUP7 DUP2 MSTORE PUSH1 0x20 ADD SWAP1 DUP2 MSTORE PUSH1 0x20 ADD PUSH1 0x0 KECCAK256 PUSH1 0x1D ADD PUSH1 0x0 DUP6 PUSH20 0xFFFFFFFFFFFFFFFFFFFFFFFFFFFFFFFFFFFFFFFF AND PUSH20 0xFFFFFFFFFFFFFFFFFFFFFFFFFFFFFFFFFFFFFFFF AND DUP2 MSTORE PUSH1 0x20 ADD SWAP1 DUP2 MSTORE PUSH1 0x20 ADD PUSH1 0x0 KECCAK256 PUSH1 0x1A ADD PUSH1 0x0 PUSH1 0x12 DUP2 MSTORE PUSH1 0x20 ADD SWAP1 DUP2 MSTORE PUSH1 0x20 ADD PUSH1 0x0 KECCAK256 SLOAD EQ JUMPDEST DUP1 ISZERO PUSH2 0x2439 JUMPI POP PUSH1 0x1 PUSH1 0x8 PUSH1 0x0 DUP7 DUP2 MSTORE PUSH1 0x20 ADD SWAP1 DUP2 MSTORE PUSH1 0x20 ADD PUSH1 0x0 KECCAK256 PUSH1 0x1D ADD PUSH1 0x0 DUP6 PUSH20 0xFFFFFFFFFFFFFFFFFFFFFFFFFFFFFFFFFFFFFFFF AND PUSH20 0xFFFFFFFFFFFFFFFFFFFFFFFFFFFFFFFFFFFFFFFF AND DUP2 MSTORE PUSH1 0x20 ADD SWAP1 DUP2 MSTORE PUSH1 0x20 ADD PUSH1 0x0 KECCAK256 PUSH1 0x1A ADD PUSH1 0x0 PUSH1 0x18 DUP2 MSTORE PUSH1 0x20 ADD SWAP1 DUP2 MSTORE PUSH1 0x20 ADD PUSH1 0x0 KECCAK256 SLOAD EQ JUMPDEST DUP1 PUSH2 0x2608 JUMPI POP PUSH1 0x1 PUSH1 0x8 PUSH1 0x0 DUP7 DUP2 MSTORE PUSH1 0x20 ADD SWAP1 DUP2 MSTORE PUSH1 0x20 ADD PUSH1 0x0 KECCAK256 PUSH1 0x1D ADD PUSH1 0x0 DUP6 PUSH20 0xFFFFFFFFFFFFFFFFFFFFFFFFFFFFFFFFFFFFFFFF AND PUSH20 0xFFFFFFFFFFFFFFFFFFFFFFFFFFFFFFFFFFFFFFFF AND DUP2 MSTORE PUSH1 0x20 ADD SWAP1 DUP2 MSTORE PUSH1 0x20 ADD PUSH1 0x0 KECCAK256 PUSH1 0x1A ADD PUSH1 0x0 PUSH1 0x4 DUP2 MSTORE PUSH1 0x20 ADD SWAP1 DUP2 MSTORE PUSH1 0x20 ADD PUSH1 0x0 KECCAK256 SLOAD EQ DUP1 ISZERO PUSH2 0x251F JUMPI POP PUSH1 0x1 PUSH1 0x8 PUSH1 0x0 DUP7 DUP2 MSTORE PUSH1 0x20 ADD SWAP1 DUP2 MSTORE PUSH1 0x20 ADD PUSH1 0x0 KECCAK256 PUSH1 0x1D ADD PUSH1 0x0 DUP6 PUSH20 0xFFFFFFFFFFFFFFFFFFFFFFFFFFFFFFFFFFFFFFFF AND PUSH20 0xFFFFFFFFFFFFFFFFFFFFFFFFFFFFFFFFFFFFFFFF AND DUP2 MSTORE PUSH1 0x20 ADD SWAP1 DUP2 MSTORE PUSH1 0x20 ADD PUSH1 0x0 KECCAK256 PUSH1 0x1A ADD PUSH1 0x0 PUSH1 0x8 DUP2 MSTORE PUSH1 0x20 ADD SWAP1 DUP2 MSTORE PUSH1 0x20 ADD PUSH1 0x0 KECCAK256 SLOAD EQ JUMPDEST DUP1 ISZERO PUSH2 0x2593 JUMPI POP PUSH1 0x1 PUSH1 0x8 PUSH1 0x0 DUP7 DUP2 MSTORE PUSH1 0x20 ADD SWAP1 DUP2 MSTORE PUSH1 0x20 ADD PUSH1 0x0 KECCAK256 PUSH1 0x1D ADD PUSH1 0x0 DUP6 PUSH20 0xFFFFFFFFFFFFFFFFFFFFFFFFFFFFFFFFFFFFFFFF AND PUSH20 0xFFFFFFFFFFFFFFFFFFFFFFFFFFFFFFFFFFFFFFFF AND DUP2 MSTORE PUSH1 0x20 ADD SWAP1 DUP2 MSTORE PUSH1 0x20 ADD PUSH1 0x0 KECCAK256 PUSH1 0x1A ADD PUSH1 0x0 PUSH1 0x10 DUP2 MSTORE PUSH1 0x20 ADD SWAP1 DUP2 MSTORE PUSH1 0x20 ADD PUSH1 0x0 KECCAK256 SLOAD EQ JUMPDEST DUP1 ISZERO PUSH2 0x2607 JUMPI POP PUSH1 0x1 PUSH1 0x8 PUSH1 0x0 DUP7 DUP2 MSTORE PUSH1 0x20 ADD SWAP1 DUP2 MSTORE PUSH1 0x20 ADD PUSH1 0x0 KECCAK256 PUSH1 0x1D ADD PUSH1 0x0 DUP6 PUSH20 0xFFFFFFFFFFFFFFFFFFFFFFFFFFFFFFFFFFFFFFFF AND PUSH20 0xFFFFFFFFFFFFFFFFFFFFFFFFFFFFFFFFFFFFFFFF AND DUP2 MSTORE PUSH1 0x20 ADD SWAP1 DUP2 MSTORE PUSH1 0x20 ADD PUSH1 0x0 KECCAK256 PUSH1 0x1A ADD PUSH1 0x0 PUSH1 0x14 DUP2 MSTORE PUSH1 0x20 ADD SWAP1 DUP2 MSTORE PUSH1 0x20 ADD PUSH1 0x0 KECCAK256 SLOAD EQ JUMPDEST JUMPDEST ISZERO PUSH2 0x2617 JUMPI PUSH1 0x1 SWAP2 POP POP PUSH2 0x2B63 JUMP JUMPDEST JUMPDEST PUSH1 0x1 PUSH1 0x8 PUSH1 0x0 DUP7 DUP2 MSTORE PUSH1 0x20 ADD SWAP1 DUP2 MSTORE PUSH1 0x20 ADD PUSH1 0x0 KECCAK256 PUSH1 0x1D ADD PUSH1 0x0 DUP6 PUSH20 0xFFFFFFFFFFFFFFFFFFFFFFFFFFFFFFFFFFFFFFFF AND PUSH20 0xFFFFFFFFFFFFFFFFFFFFFFFFFFFFFFFFFFFFFFFF AND DUP2 MSTORE PUSH1 0x20 ADD SWAP1 DUP2 MSTORE PUSH1 0x20 ADD PUSH1 0x0 KECCAK256 PUSH1 0x1A ADD PUSH1 0x0 DUP1 PUSH1 0x5 DUP6 PUSH2 0x2680 SWAP2 SWAP1 PUSH2 0x36F8 JUMP JUMPDEST PUSH2 0x268A SWAP2 SWAP1 PUSH2 0x34D5 JUMP JUMPDEST DUP2 MSTORE PUSH1 0x20 ADD SWAP1 DUP2 MSTORE PUSH1 0x20 ADD PUSH1 0x0 KECCAK256 SLOAD EQ DUP1 ISZERO PUSH2 0x2725 JUMPI POP PUSH1 0x1 PUSH1 0x8 PUSH1 0x0 DUP7 DUP2 MSTORE PUSH1 0x20 ADD SWAP1 DUP2 MSTORE PUSH1 0x20 ADD PUSH1 0x0 KECCAK256 PUSH1 0x1D ADD PUSH1 0x0 DUP6 PUSH20 0xFFFFFFFFFFFFFFFFFFFFFFFFFFFFFFFFFFFFFFFF AND PUSH20 0xFFFFFFFFFFFFFFFFFFFFFFFFFFFFFFFFFFFFFFFF AND DUP2 MSTORE PUSH1 0x20 ADD SWAP1 DUP2 MSTORE PUSH1 0x20 ADD PUSH1 0x0 KECCAK256 PUSH1 0x1A ADD PUSH1 0x0 PUSH1 0x1 PUSH1 0x5 DUP6 PUSH2 0x270A SWAP2 SWAP1 PUSH2 0x36F8 JUMP JUMPDEST PUSH2 0x2714 SWAP2 SWAP1 PUSH2 0x34D5 JUMP JUMPDEST DUP2 MSTORE PUSH1 0x20 ADD SWAP1 DUP2 MSTORE PUSH1 0x20 ADD PUSH1 0x0 KECCAK256 SLOAD EQ JUMPDEST DUP1 ISZERO PUSH2 0x27B0 JUMPI POP PUSH1 0x1 PUSH1 0x8 PUSH1 0x0 DUP7 DUP2 MSTORE PUSH1 0x20 ADD SWAP1 DUP2 MSTORE PUSH1 0x20 ADD PUSH1 0x0 KECCAK256 PUSH1 0x1D ADD PUSH1 0x0 DUP6 PUSH20 0xFFFFFFFFFFFFFFFFFFFFFFFFFFFFFFFFFFFFFFFF AND PUSH20 0xFFFFFFFFFFFFFFFFFFFFFFFFFFFFFFFFFFFFFFFF AND DUP2 MSTORE PUSH1 0x20 ADD SWAP1 DUP2 MSTORE PUSH1 0x20 ADD PUSH1 0x0 KECCAK256 PUSH1 0x1A ADD PUSH1 0x0 PUSH1 0x2 PUSH1 0x5 DUP6 PUSH2 0x2795 SWAP2 SWAP1 PUSH2 0x36F8 JUMP JUMPDEST PUSH2 0x279F SWAP2 SWAP1 PUSH2 0x34D5 JUMP JUMPDEST DUP2 MSTORE PUSH1 0x20 ADD SWAP1 DUP2 MSTORE PUSH1 0x20 ADD PUSH1 0x0 KECCAK256 SLOAD EQ JUMPDEST DUP1 ISZERO PUSH2 0x283B JUMPI POP PUSH1 0x1 PUSH1 0x8 PUSH1 0x0 DUP7 DUP2 MSTORE PUSH1 0x20 ADD SWAP1 DUP2 MSTORE PUSH1 0x20 ADD PUSH1 0x0 KECCAK256 PUSH1 0x1D ADD PUSH1 0x0 DUP6 PUSH20 0xFFFFFFFFFFFFFFFFFFFFFFFFFFFFFFFFFFFFFFFF AND PUSH20 0xFFFFFFFFFFFFFFFFFFFFFFFFFFFFFFFFFFFFFFFF AND DUP2 MSTORE PUSH1 0x20 ADD SWAP1 DUP2 MSTORE PUSH1 0x20 ADD PUSH1 0x0 KECCAK256 PUSH1 0x1A ADD PUSH1 0x0 PUSH1 0x3 PUSH1 0x5 DUP6 PUSH2 0x2820 SWAP2 SWAP1 PUSH2 0x36F8 JUMP JUMPDEST PUSH2 0x282A SWAP2 SWAP1 PUSH2 0x34D5 JUMP JUMPDEST DUP2 MSTORE PUSH1 0x20 ADD SWAP1 DUP2 MSTORE PUSH1 0x20 ADD PUSH1 0x0 KECCAK256 SLOAD EQ JUMPDEST DUP1 ISZERO PUSH2 0x28C6 JUMPI POP PUSH1 0x1 PUSH1 0x8 PUSH1 0x0 DUP7 DUP2 MSTORE PUSH1 0x20 ADD SWAP1 DUP2 MSTORE PUSH1 0x20 ADD PUSH1 0x0 KECCAK256 PUSH1 0x1D ADD PUSH1 0x0 DUP6 PUSH20 0xFFFFFFFFFFFFFFFFFFFFFFFFFFFFFFFFFFFFFFFF AND PUSH20 0xFFFFFFFFFFFFFFFFFFFFFFFFFFFFFFFFFFFFFFFF AND DUP2 MSTORE PUSH1 0x20 ADD SWAP1 DUP2 MSTORE PUSH1 0x20 ADD PUSH1 0x0 KECCAK256 PUSH1 0x1A ADD PUSH1 0x0 PUSH1 0x4 PUSH1 0x5 DUP6 PUSH2 0x28AB SWAP2 SWAP1 PUSH2 0x36F8 JUMP JUMPDEST PUSH2 0x28B5 SWAP2 SWAP1 PUSH2 0x34D5 JUMP JUMPDEST DUP2 MSTORE PUSH1 0x20 ADD SWAP1 DUP2 MSTORE PUSH1 0x20 ADD PUSH1 0x0 KECCAK256 SLOAD EQ JUMPDEST DUP1 PUSH2 0x2B40 JUMPI POP PUSH1 0x1 PUSH1 0x8 PUSH1 0x0 DUP7 DUP2 MSTORE PUSH1 0x20 ADD SWAP1 DUP2 MSTORE PUSH1 0x20 ADD PUSH1 0x0 KECCAK256 PUSH1 0x1D ADD PUSH1 0x0 DUP6 PUSH20 0xFFFFFFFFFFFFFFFFFFFFFFFFFFFFFFFFFFFFFFFF AND PUSH20 0xFFFFFFFFFFFFFFFFFFFFFFFFFFFFFFFFFFFFFFFF AND DUP2 MSTORE PUSH1 0x20 ADD SWAP1 DUP2 MSTORE PUSH1 0x20 ADD PUSH1 0x0 KECCAK256 PUSH1 0x1A ADD PUSH1 0x0 DUP4 PUSH1 0x0 PUSH2 0x2933 SWAP2 SWAP1 PUSH2 0x34D5 JUMP JUMPDEST DUP2 MSTORE PUSH1 0x20 ADD SWAP1 DUP2 MSTORE PUSH1 0x20 ADD PUSH1 0x0 KECCAK256 SLOAD EQ DUP1 ISZERO PUSH2 0x29C2 JUMPI POP PUSH1 0x1 PUSH1 0x8 PUSH1 0x0 DUP7 DUP2 MSTORE PUSH1 0x20 ADD SWAP1 DUP2 MSTORE PUSH1 0x20 ADD PUSH1 0x0 KECCAK256 PUSH1 0x1D ADD PUSH1 0x0 DUP6 PUSH20 0xFFFFFFFFFFFFFFFFFFFFFFFFFFFFFFFFFFFFFFFF AND PUSH20 0xFFFFFFFFFFFFFFFFFFFFFFFFFFFFFFFFFFFFFFFF AND DUP2 MSTORE PUSH1 0x20 ADD SWAP1 DUP2 MSTORE PUSH1 0x20 ADD PUSH1 0x0 KECCAK256 PUSH1 0x1A ADD PUSH1 0x0 DUP4 PUSH1 0x5 PUSH2 0x29B1 SWAP2 SWAP1 PUSH2 0x34D5 JUMP JUMPDEST DUP2 MSTORE PUSH1 0x20 ADD SWAP1 DUP2 MSTORE PUSH1 0x20 ADD PUSH1 0x0 KECCAK256 SLOAD EQ JUMPDEST DUP1 ISZERO PUSH2 0x2A41 JUMPI POP PUSH1 0x1 PUSH1 0x8 PUSH1 0x0 DUP7 DUP2 MSTORE PUSH1 0x20 ADD SWAP1 DUP2 MSTORE PUSH1 0x20 ADD PUSH1 0x0 KECCAK256 PUSH1 0x1D ADD PUSH1 0x0 DUP6 PUSH20 0xFFFFFFFFFFFFFFFFFFFFFFFFFFFFFFFFFFFFFFFF AND PUSH20 0xFFFFFFFFFFFFFFFFFFFFFFFFFFFFFFFFFFFFFFFF AND DUP2 MSTORE PUSH1 0x20 ADD SWAP1 DUP2 MSTORE PUSH1 0x20 ADD PUSH1 0x0 KECCAK256 PUSH1 0x1A ADD PUSH1 0x0 DUP4 PUSH1 0xA PUSH2 0x2A30 SWAP2 SWAP1 PUSH2 0x34D5 JUMP JUMPDEST DUP2 MSTORE PUSH1 0x20 ADD SWAP1 DUP2 MSTORE PUSH1 0x20 ADD PUSH1 0x0 KECCAK256 SLOAD EQ JUMPDEST DUP1 ISZERO PUSH2 0x2AC0 JUMPI POP PUSH1 0x1 PUSH1 0x8 PUSH1 0x0 DUP7 DUP2 MSTORE PUSH1 0x20 ADD SWAP1 DUP2 MSTORE PUSH1 0x20 ADD PUSH1 0x0 KECCAK256 PUSH1 0x1D ADD PUSH1 0x0 DUP6 PUSH20 0xFFFFFFFFFFFFFFFFFFFFFFFFFFFFFFFFFFFFFFFF AND PUSH20 0xFFFFFFFFFFFFFFFFFFFFFFFFFFFFFFFFFFFFFFFF AND DUP2 MSTORE PUSH1 0x20 ADD SWAP1 DUP2 MSTORE PUSH1 0x20 ADD PUSH1 0x0 KECCAK256 PUSH1 0x1A ADD PUSH1 0x0 DUP4 PUSH1 0xF PUSH2 0x2AAF SWAP2 SWAP1 PUSH2 0x34D5 JUMP JUMPDEST DUP2 MSTORE PUSH1 0x20 ADD SWAP1 DUP2 MSTORE PUSH1 0x20 ADD PUSH1 0x0 KECCAK256 SLOAD EQ JUMPDEST DUP1 ISZERO PUSH2 0x2B3F JUMPI POP PUSH1 0x1 PUSH1 0x8 PUSH1 0x0 DUP7 DUP2 MSTORE PUSH1 0x20 ADD SWAP1 DUP2 MSTORE PUSH1 0x20 ADD PUSH1 0x0 KECCAK256 PUSH1 0x1D ADD PUSH1 0x0 DUP6 PUSH20 0xFFFFFFFFFFFFFFFFFFFFFFFFFFFFFFFFFFFFFFFF AND PUSH20 0xFFFFFFFFFFFFFFFFFFFFFFFFFFFFFFFFFFFFFFFF AND DUP2 MSTORE PUSH1 0x20 ADD SWAP1 DUP2 MSTORE PUSH1 0x20 ADD PUSH1 0x0 KECCAK256 PUSH1 0x1A ADD PUSH1 0x0 DUP4 PUSH1 0x14 PUSH2 0x2B2E SWAP2 SWAP1 PUSH2 0x34D5 JUMP JUMPDEST DUP2 MSTORE PUSH1 0x20 ADD SWAP1 DUP2 MSTORE PUSH1 0x20 ADD PUSH1 0x0 KECCAK256 SLOAD EQ JUMPDEST JUMPDEST ISZERO PUSH2 0x2B4F JUMPI PUSH1 0x1 SWAP2 POP POP PUSH2 0x2B63 JUMP JUMPDEST DUP1 PUSH1 0x1 ADD SWAP1 POP PUSH1 0x5 DUP2 LT PUSH2 0x2618 JUMPI PUSH1 0x0 SWAP2 POP POP JUMPDEST SWAP3 SWAP2 POP POP JUMP JUMPDEST PUSH2 0x2C05 DUP5 DUP5 DUP5 DUP5 PUSH1 0x40 MLOAD PUSH1 0x24 ADD PUSH2 0x2B83 SWAP5 SWAP4 SWAP3 SWAP2 SWAP1 PUSH2 0x37EA JUMP JUMPDEST PUSH1 0x40 MLOAD PUSH1 0x20 DUP2 DUP4 SUB SUB DUP2 MSTORE SWAP1 PUSH1 0x40 MSTORE PUSH32 0x7C4632A400000000000000000000000000000000000000000000000000000000 PUSH28 0xFFFFFFFFFFFFFFFFFFFFFFFFFFFFFFFFFFFFFFFFFFFFFFFFFFFFFFFF NOT AND PUSH1 0x20 DUP3 ADD DUP1 MLOAD PUSH28 0xFFFFFFFFFFFFFFFFFFFFFFFFFFFFFFFFFFFFFFFFFFFFFFFFFFFFFFFF DUP4 DUP2 DUP4 AND OR DUP4 MSTORE POP POP POP POP PUSH2 0x2CA1 JUMP JUMPDEST POP POP POP POP JUMP JUMPDEST PUSH1 0x0 DUP1 PUSH1 0x8 PUSH1 0x0 DUP6 DUP2 MSTORE PUSH1 0x20 ADD SWAP1 DUP2 MSTORE PUSH1 0x20 ADD PUSH1 0x0 KECCAK256 PUSH1 0x1D ADD PUSH1 0x0 DUP5 PUSH20 0xFFFFFFFFFFFFFFFFFFFFFFFFFFFFFFFFFFFFFFFF AND PUSH20 0xFFFFFFFFFFFFFFFFFFFFFFFFFFFFFFFFFFFFFFFF AND DUP2 MSTORE PUSH1 0x20 ADD SWAP1 DUP2 MSTORE PUSH1 0x20 ADD PUSH1 0x0 KECCAK256 PUSH1 0x0 ADD PUSH1 0x0 SWAP1 SLOAD SWAP1 PUSH2 0x100 EXP SWAP1 DIV PUSH1 0xFF AND PUSH1 0x2 SLOAD PUSH1 0x8 PUSH1 0x0 DUP8 DUP2 MSTORE PUSH1 0x20 ADD SWAP1 DUP2 MSTORE PUSH1 0x20 ADD PUSH1 0x0 KECCAK256 PUSH1 0x1 ADD SLOAD PUSH2 0x2C96 SWAP2 SWAP1 PUSH2 0x34D5 JUMP JUMPDEST SWAP2 POP SWAP2 POP SWAP3 POP SWAP3 SWAP1 POP JUMP JUMPDEST PUSH2 0x2CB8 DUP2 PUSH2 0x2CB0 PUSH2 0x2CBB PUSH2 0x2CDC JUMP JUMPDEST PUSH4 0xFFFFFFFF AND JUMP JUMPDEST POP JUMP JUMPDEST PUSH1 0x0 PUSH11 0x636F6E736F6C652E6C6F67 SWAP1 POP PUSH1 0x0 DUP1 DUP4 MLOAD PUSH1 0x20 DUP6 ADD DUP5 GAS STATICCALL POP POP POP JUMP JUMPDEST PUSH2 0x2E37 DUP2 SWAP1 POP SWAP2 SWAP1 POP JUMP JUMPDEST PUSH1 0x40 MLOAD DUP1 PUSH2 0x300 ADD PUSH1 0x40 MSTORE DUP1 PUSH1 0x18 SWAP1 PUSH1 0x20 DUP3 MUL DUP1 CALLDATASIZE DUP4 CALLDATACOPY DUP1 DUP3 ADD SWAP2 POP POP SWAP1 POP POP SWAP1 JUMP JUMPDEST DUP3 DUP1 SLOAD DUP3 DUP3 SSTORE SWAP1 PUSH1 0x0 MSTORE PUSH1 0x20 PUSH1 0x0 KECCAK256 SWAP1 DUP2 ADD SWAP3 DUP3 ISZERO PUSH2 0x2D83 JUMPI SWAP2 PUSH1 0x20 MUL DUP3 ADD JUMPDEST DUP3 DUP2 GT ISZERO PUSH2 0x2D82 JUMPI DUP3 MLOAD DUP3 PUSH1 0x0 PUSH2 0x100 EXP DUP2 SLOAD DUP2 PUSH20 0xFFFFFFFFFFFFFFFFFFFFFFFFFFFFFFFFFFFFFFFF MUL NOT AND SWAP1 DUP4 PUSH20 0xFFFFFFFFFFFFFFFFFFFFFFFFFFFFFFFFFFFFFFFF AND MUL OR SWAP1 SSTORE POP SWAP2 PUSH1 0x20 ADD SWAP2 SWAP1 PUSH1 0x1 ADD SWAP1 PUSH2 0x2D2A JUMP JUMPDEST JUMPDEST POP SWAP1 POP PUSH2 0x2D90 SWAP2 SWAP1 PUSH2 0x2E41 JUMP JUMPDEST POP SWAP1 JUMP JUMPDEST PUSH1 0x40 MLOAD DUP1 PUSH2 0x320 ADD PUSH1 0x40 MSTORE DUP1 PUSH1 0x19 SWAP1 PUSH1 0x20 DUP3 MUL DUP1 CALLDATASIZE DUP4 CALLDATACOPY DUP1 DUP3 ADD SWAP2 POP POP SWAP1 POP POP SWAP1 JUMP JUMPDEST DUP3 PUSH1 0x19 DUP2 ADD SWAP3 DUP3 ISZERO PUSH2 0x2DE6 JUMPI SWAP2 PUSH1 0x20 MUL DUP3 ADD JUMPDEST DUP3 DUP2 GT ISZERO PUSH2 0x2DE5 JUMPI DUP3 MLOAD DUP3 SSTORE SWAP2 PUSH1 0x20 ADD SWAP2 SWAP1 PUSH1 0x1 ADD SWAP1 PUSH2 0x2DCA JUMP JUMPDEST JUMPDEST POP SWAP1 POP PUSH2 0x2DF3 SWAP2 SWAP1 PUSH2 0x2E41 JUMP JUMPDEST POP SWAP1 JUMP JUMPDEST DUP3 PUSH1 0x18 DUP2 ADD SWAP3 DUP3 ISZERO PUSH2 0x2E26 JUMPI SWAP2 PUSH1 0x20 MUL DUP3 ADD JUMPDEST DUP3 DUP2 GT ISZERO PUSH2 0x2E25 JUMPI DUP3 MLOAD DUP3 SSTORE SWAP2 PUSH1 0x20 ADD SWAP2 SWAP1 PUSH1 0x1 ADD SWAP1 PUSH2 0x2E0A JUMP JUMPDEST JUMPDEST POP SWAP1 POP PUSH2 0x2E33 SWAP2 SWAP1 PUSH2 0x2E41 JUMP JUMPDEST POP SWAP1 JUMP JUMPDEST PUSH2 0x2E3F PUSH2 0x383D JUMP JUMPDEST JUMP JUMPDEST JUMPDEST DUP1 DUP3 GT ISZERO PUSH2 0x2E5A JUMPI PUSH1 0x0 DUP2 PUSH1 0x0 SWAP1 SSTORE POP PUSH1 0x1 ADD PUSH2 0x2E42 JUMP JUMPDEST POP SWAP1 JUMP JUMPDEST PUSH1 0x0 DUP2 SWAP1 POP SWAP2 SWAP1 POP JUMP JUMPDEST PUSH2 0x2E71 DUP2 PUSH2 0x2E5E JUMP JUMPDEST DUP3 MSTORE POP POP JUMP JUMPDEST PUSH1 0x0 PUSH1 0x20 DUP3 ADD SWAP1 POP PUSH2 0x2E8C PUSH1 0x0 DUP4 ADD DUP5 PUSH2 0x2E68 JUMP JUMPDEST SWAP3 SWAP2 POP POP JUMP JUMPDEST PUSH1 0x0 DUP1 REVERT JUMPDEST PUSH2 0x2EA0 DUP2 PUSH2 0x2E5E JUMP JUMPDEST DUP2 EQ PUSH2 0x2EAB JUMPI PUSH1 0x0 DUP1 REVERT JUMPDEST POP JUMP JUMPDEST PUSH1 0x0 DUP2 CALLDATALOAD SWAP1 POP PUSH2 0x2EBD DUP2 PUSH2 0x2E97 JUMP JUMPDEST SWAP3 SWAP2 POP POP JUMP JUMPDEST PUSH1 0x0 PUSH1 0x20 DUP3 DUP5 SUB SLT ISZERO PUSH2 0x2ED9 JUMPI PUSH2 0x2ED8 PUSH2 0x2E92 JUMP JUMPDEST JUMPDEST PUSH1 0x0 PUSH2 0x2EE7 DUP5 DUP3 DUP6 ADD PUSH2 0x2EAE JUMP JUMPDEST SWAP2 POP POP SWAP3 SWAP2 POP POP JUMP JUMPDEST PUSH1 0x0 DUP2 MLOAD SWAP1 POP SWAP2 SWAP1 POP JUMP JUMPDEST PUSH1 0x0 DUP3 DUP3 MSTORE PUSH1 0x20 DUP3 ADD SWAP1 POP SWAP3 SWAP2 POP POP JUMP JUMPDEST PUSH1 0x0 DUP2 SWAP1 POP PUSH1 0x20 DUP3 ADD SWAP1 POP SWAP2 SWAP1 POP JUMP JUMPDEST PUSH1 0x0 PUSH20 0xFFFFFFFFFFFFFFFFFFFFFFFFFFFFFFFFFFFFFFFF DUP3 AND SWAP1 POP SWAP2 SWAP1 POP JUMP JUMPDEST PUSH1 0x0 PUSH2 0x2F47 DUP3 PUSH2 0x2F1C JUMP JUMPDEST SWAP1 POP SWAP2 SWAP1 POP JUMP JUMPDEST PUSH2 0x2F57 DUP2 PUSH2 0x2F3C JUMP JUMPDEST DUP3 MSTORE POP POP JUMP JUMPDEST PUSH1 0x0 PUSH2 0x2F69 DUP4 DUP4 PUSH2 0x2F4E JUMP JUMPDEST PUSH1 0x20 DUP4 ADD SWAP1 POP SWAP3 SWAP2 POP POP JUMP JUMPDEST PUSH1 0x0 PUSH1 0x20 DUP3 ADD SWAP1 POP SWAP2 SWAP1 POP JUMP JUMPDEST PUSH1 0x0 PUSH2 0x2F8D DUP3 PUSH2 0x2EF0 JUMP JUMPDEST PUSH2 0x2F97 DUP2 DUP6 PUSH2 0x2EFB JUMP JUMPDEST SWAP4 POP PUSH2 0x2FA2 DUP4 PUSH2 0x2F0C JUMP JUMPDEST DUP1 PUSH1 0x0 JUMPDEST DUP4 DUP2 LT ISZERO PUSH2 0x2FD3 JUMPI DUP2 MLOAD PUSH2 0x2FBA DUP9 DUP3 PUSH2 0x2F5D JUMP JUMPDEST SWAP8 POP PUSH2 0x2FC5 DUP4 PUSH2 0x2F75 JUMP JUMPDEST SWAP3 POP POP PUSH1 0x1 DUP2 ADD SWAP1 POP PUSH2 0x2FA6 JUMP JUMPDEST POP DUP6 SWAP4 POP POP POP POP SWAP3 SWAP2 POP POP JUMP JUMPDEST PUSH1 0x0 PUSH1 0x20 DUP3 ADD SWAP1 POP DUP2 DUP2 SUB PUSH1 0x0 DUP4 ADD MSTORE PUSH2 0x2FFA DUP2 DUP5 PUSH2 0x2F82 JUMP JUMPDEST SWAP1 POP SWAP3 SWAP2 POP POP JUMP JUMPDEST PUSH1 0x0 DUP2 ISZERO ISZERO SWAP1 POP SWAP2 SWAP1 POP JUMP JUMPDEST PUSH2 0x3017 DUP2 PUSH2 0x3002 JUMP JUMPDEST DUP3 MSTORE POP POP JUMP JUMPDEST PUSH1 0x0 PUSH1 0x18 SWAP1 POP SWAP2 SWAP1 POP JUMP JUMPDEST PUSH1 0x0 DUP2 SWAP1 POP SWAP3 SWAP2 POP POP JUMP JUMPDEST PUSH1 0x0 DUP2 SWAP1 POP SWAP2 SWAP1 POP JUMP JUMPDEST PUSH2 0x3046 DUP2 PUSH2 0x2E5E JUMP JUMPDEST DUP3 MSTORE POP POP JUMP JUMPDEST PUSH1 0x0 PUSH2 0x3058 DUP4 DUP4 PUSH2 0x303D JUMP JUMPDEST PUSH1 0x20 DUP4 ADD SWAP1 POP SWAP3 SWAP2 POP POP JUMP JUMPDEST PUSH1 0x0 PUSH1 0x20 DUP3 ADD SWAP1 POP SWAP2 SWAP1 POP JUMP JUMPDEST PUSH2 0x307A DUP2 PUSH2 0x301D JUMP JUMPDEST PUSH2 0x3084 DUP2 DUP5 PUSH2 0x3028 JUMP JUMPDEST SWAP3 POP PUSH2 0x308F DUP3 PUSH2 0x3033 JUMP JUMPDEST DUP1 PUSH1 0x0 JUMPDEST DUP4 DUP2 LT ISZERO PUSH2 0x30C0 JUMPI DUP2 MLOAD PUSH2 0x30A7 DUP8 DUP3 PUSH2 0x304C JUMP JUMPDEST SWAP7 POP PUSH2 0x30B2 DUP4 PUSH2 0x3064 JUMP JUMPDEST SWAP3 POP POP PUSH1 0x1 DUP2 ADD SWAP1 POP PUSH2 0x3093 JUMP JUMPDEST POP POP POP POP POP POP JUMP JUMPDEST PUSH1 0x0 PUSH2 0x320 DUP3 ADD SWAP1 POP PUSH2 0x30DE PUSH1 0x0 DUP4 ADD DUP6 PUSH2 0x300E JUMP JUMPDEST PUSH2 0x30EB PUSH1 0x20 DUP4 ADD DUP5 PUSH2 0x3071 JUMP JUMPDEST SWAP4 SWAP3 POP POP POP JUMP JUMPDEST PUSH2 0x30FB DUP2 PUSH2 0x2F3C JUMP JUMPDEST DUP2 EQ PUSH2 0x3106 JUMPI PUSH1 0x0 DUP1 REVERT JUMPDEST POP JUMP JUMPDEST PUSH1 0x0 DUP2 CALLDATALOAD SWAP1 POP PUSH2 0x3118 DUP2 PUSH2 0x30F2 JUMP JUMPDEST SWAP3 SWAP2 POP POP JUMP JUMPDEST PUSH1 0x0 DUP1 PUSH1 0x40 DUP4 DUP6 SUB SLT ISZERO PUSH2 0x3135 JUMPI PUSH2 0x3134 PUSH2 0x2E92 JUMP JUMPDEST JUMPDEST PUSH1 0x0 PUSH2 0x3143 DUP6 DUP3 DUP7 ADD PUSH2 0x2EAE JUMP JUMPDEST SWAP3 POP POP PUSH1 0x20 PUSH2 0x3154 DUP6 DUP3 DUP7 ADD PUSH2 0x3109 JUMP JUMPDEST SWAP2 POP POP SWAP3 POP SWAP3 SWAP1 POP JUMP JUMPDEST PUSH1 0x0 PUSH1 0x40 DUP3 ADD SWAP1 POP PUSH2 0x3173 PUSH1 0x0 DUP4 ADD DUP6 PUSH2 0x300E JUMP JUMPDEST PUSH2 0x3180 PUSH1 0x20 DUP4 ADD DUP5 PUSH2 0x2E68 JUMP JUMPDEST SWAP4 SWAP3 POP POP POP JUMP JUMPDEST PUSH1 0x0 DUP1 PUSH1 0x0 PUSH1 0x60 DUP5 DUP7 SUB SLT ISZERO PUSH2 0x31A0 JUMPI PUSH2 0x319F PUSH2 0x2E92 JUMP JUMPDEST JUMPDEST PUSH1 0x0 PUSH2 0x31AE DUP7 DUP3 DUP8 ADD PUSH2 0x3109 JUMP JUMPDEST SWAP4 POP POP PUSH1 0x20 PUSH2 0x31BF DUP7 DUP3 DUP8 ADD PUSH2 0x2EAE JUMP JUMPDEST SWAP3 POP POP PUSH1 0x40 PUSH2 0x31D0 DUP7 DUP3 DUP8 ADD PUSH2 0x3109 JUMP JUMPDEST SWAP2 POP POP SWAP3 POP SWAP3 POP SWAP3 JUMP JUMPDEST PUSH2 0x31E3 DUP2 PUSH2 0x2F3C JUMP JUMPDEST DUP3 MSTORE POP POP JUMP JUMPDEST PUSH1 0x0 PUSH1 0x20 DUP3 ADD SWAP1 POP PUSH2 0x31FE PUSH1 0x0 DUP4 ADD DUP5 PUSH2 0x31DA JUMP JUMPDEST SWAP3 SWAP2 POP POP JUMP JUMPDEST PUSH1 0x0 PUSH1 0x20 DUP3 ADD SWAP1 POP PUSH2 0x3219 PUSH1 0x0 DUP4 ADD DUP5 PUSH2 0x300E JUMP JUMPDEST SWAP3 SWAP2 POP POP JUMP JUMPDEST PUSH1 0x0 DUP1 PUSH1 0x40 DUP4 DUP6 SUB SLT ISZERO PUSH2 0x3236 JUMPI PUSH2 0x3235 PUSH2 0x2E92 JUMP JUMPDEST JUMPDEST PUSH1 0x0 PUSH2 0x3244 DUP6 DUP3 DUP7 ADD PUSH2 0x3109 JUMP JUMPDEST SWAP3 POP POP PUSH1 0x20 PUSH2 0x3255 DUP6 DUP3 DUP7 ADD PUSH2 0x2EAE JUMP JUMPDEST SWAP2 POP POP SWAP3 POP SWAP3 SWAP1 POP JUMP JUMPDEST PUSH1 0x0 PUSH1 0x19 SWAP1 POP SWAP2 SWAP1 POP JUMP JUMPDEST PUSH1 0x0 DUP2 SWAP1 POP SWAP3 SWAP2 POP POP JUMP JUMPDEST PUSH1 0x0 DUP2 SWAP1 POP SWAP2 SWAP1 POP JUMP JUMPDEST PUSH1 0x0 PUSH1 0x20 DUP3 ADD SWAP1 POP SWAP2 SWAP1 POP JUMP JUMPDEST PUSH2 0x3295 DUP2 PUSH2 0x325F JUMP JUMPDEST PUSH2 0x329F DUP2 DUP5 PUSH2 0x326A JUMP JUMPDEST SWAP3 POP PUSH2 0x32AA DUP3 PUSH2 0x3275 JUMP JUMPDEST DUP1 PUSH1 0x0 JUMPDEST DUP4 DUP2 LT ISZERO PUSH2 0x32DB JUMPI DUP2 MLOAD PUSH2 0x32C2 DUP8 DUP3 PUSH2 0x304C JUMP JUMPDEST SWAP7 POP PUSH2 0x32CD DUP4 PUSH2 0x327F JUMP JUMPDEST SWAP3 POP POP PUSH1 0x1 DUP2 ADD SWAP1 POP PUSH2 0x32AE JUMP JUMPDEST POP POP POP POP POP POP JUMP JUMPDEST PUSH1 0x0 PUSH2 0x320 DUP3 ADD SWAP1 POP PUSH2 0x32F9 PUSH1 0x0 DUP4 ADD DUP5 PUSH2 0x328C JUMP JUMPDEST SWAP3 SWAP2 POP POP JUMP JUMPDEST PUSH2 0x3308 DUP2 PUSH2 0x3002 JUMP JUMPDEST DUP2 EQ PUSH2 0x3313 JUMPI PUSH1 0x0 DUP1 REVERT JUMPDEST POP JUMP JUMPDEST PUSH1 0x0 DUP2 CALLDATALOAD SWAP1 POP PUSH2 0x3325 DUP2 PUSH2 0x32FF JUMP JUMPDEST SWAP3 SWAP2 POP POP JUMP JUMPDEST PUSH1 0x0 PUSH1 0x20 DUP3 DUP5 SUB SLT ISZERO PUSH2 0x3341 JUMPI PUSH2 0x3340 PUSH2 0x2E92 JUMP JUMPDEST JUMPDEST PUSH1 0x0 PUSH2 0x334F DUP5 DUP3 DUP6 ADD PUSH2 0x3316 JUMP JUMPDEST SWAP2 POP POP SWAP3 SWAP2 POP POP JUMP JUMPDEST PUSH1 0x0 PUSH1 0x60 DUP3 ADD SWAP1 POP PUSH2 0x336D PUSH1 0x0 DUP4 ADD DUP7 PUSH2 0x31DA JUMP JUMPDEST PUSH2 0x337A PUSH1 0x20 DUP4 ADD DUP6 PUSH2 0x31DA JUMP JUMPDEST PUSH2 0x3387 PUSH1 0x40 DUP4 ADD DUP5 PUSH2 0x2E68 JUMP JUMPDEST SWAP5 SWAP4 POP POP POP POP JUMP JUMPDEST PUSH1 0x0 DUP2 MLOAD SWAP1 POP PUSH2 0x339E DUP2 PUSH2 0x32FF JUMP JUMPDEST SWAP3 SWAP2 POP POP JUMP JUMPDEST PUSH1 0x0 PUSH1 0x20 DUP3 DUP5 SUB SLT ISZERO PUSH2 0x33BA JUMPI PUSH2 0x33B9 PUSH2 0x2E92 JUMP JUMPDEST JUMPDEST PUSH1 0x0 PUSH2 0x33C8 DUP5 DUP3 DUP6 ADD PUSH2 0x338F JUMP JUMPDEST SWAP2 POP POP SWAP3 SWAP2 POP POP JUMP JUMPDEST PUSH32 0x4E487B7100000000000000000000000000000000000000000000000000000000 PUSH1 0x0 MSTORE PUSH1 0x32 PUSH1 0x4 MSTORE PUSH1 0x24 PUSH1 0x0 REVERT JUMPDEST PUSH1 0x0 PUSH1 0x40 DUP3 ADD SWAP1 POP PUSH2 0x3415 PUSH1 0x0 DUP4 ADD DUP6 PUSH2 0x31DA JUMP JUMPDEST PUSH2 0x3422 PUSH1 0x20 DUP4 ADD DUP5 PUSH2 0x2E68 JUMP JUMPDEST SWAP4 SWAP3 POP POP POP JUMP JUMPDEST PUSH1 0x0 DUP3 DUP3 MSTORE PUSH1 0x20 DUP3 ADD SWAP1 POP SWAP3 SWAP2 POP POP JUMP JUMPDEST PUSH32 0x5472616E73666572206661696C65640000000000000000000000000000000000 PUSH1 0x0 DUP3 ADD MSTORE POP JUMP JUMPDEST PUSH1 0x0 PUSH2 0x3470 PUSH1 0xF DUP4 PUSH2 0x3429 JUMP JUMPDEST SWAP2 POP PUSH2 0x347B DUP3 PUSH2 0x343A JUMP JUMPDEST PUSH1 0x20 DUP3 ADD SWAP1 POP SWAP2 SWAP1 POP JUMP JUMPDEST PUSH1 0x0 PUSH1 0x20 DUP3 ADD SWAP1 POP DUP2 DUP2 SUB PUSH1 0x0 DUP4 ADD MSTORE PUSH2 0x349F DUP2 PUSH2 0x3463 JUMP JUMPDEST SWAP1 POP SWAP2 SWAP1 POP JUMP JUMPDEST PUSH32 0x4E487B7100000000000000000000000000000000000000000000000000000000 PUSH1 0x0 MSTORE PUSH1 0x11 PUSH1 0x4 MSTORE PUSH1 0x24 PUSH1 0x0 REVERT JUMPDEST PUSH1 0x0 PUSH2 0x34E0 DUP3 PUSH2 0x2E5E JUMP JUMPDEST SWAP2 POP PUSH2 0x34EB DUP4 PUSH2 0x2E5E JUMP JUMPDEST SWAP3 POP DUP3 DUP3 ADD SWAP1 POP DUP1 DUP3 GT ISZERO PUSH2 0x3503 JUMPI PUSH2 0x3502 PUSH2 0x34A6 JUMP JUMPDEST JUMPDEST SWAP3 SWAP2 POP POP JUMP JUMPDEST PUSH1 0x0 PUSH2 0x3514 DUP3 PUSH2 0x2E5E JUMP JUMPDEST SWAP2 POP PUSH2 0x351F DUP4 PUSH2 0x2E5E JUMP JUMPDEST SWAP3 POP DUP3 DUP3 SUB SWAP1 POP DUP2 DUP2 GT ISZERO PUSH2 0x3537 JUMPI PUSH2 0x3536 PUSH2 0x34A6 JUMP JUMPDEST JUMPDEST SWAP3 SWAP2 POP POP JUMP JUMPDEST PUSH32 0x4E487B7100000000000000000000000000000000000000000000000000000000 PUSH1 0x0 MSTORE PUSH1 0x41 PUSH1 0x4 MSTORE PUSH1 0x24 PUSH1 0x0 REVERT JUMPDEST PUSH32 0x4E487B7100000000000000000000000000000000000000000000000000000000 PUSH1 0x0 MSTORE PUSH1 0x21 PUSH1 0x4 MSTORE PUSH1 0x24 PUSH1 0x0 REVERT JUMPDEST PUSH1 0x0 PUSH2 0x320 DUP3 ADD SWAP1 POP PUSH2 0x35B1 PUSH1 0x0 DUP4 ADD DUP6 PUSH2 0x3071 JUMP JUMPDEST PUSH2 0x35BF PUSH2 0x300 DUP4 ADD DUP5 PUSH2 0x2E68 JUMP JUMPDEST SWAP4 SWAP3 POP POP POP JUMP JUMPDEST PUSH1 0x0 DUP2 SWAP1 POP SWAP2 SWAP1 POP JUMP JUMPDEST PUSH2 0x35E1 PUSH2 0x35DC DUP3 PUSH2 0x2E5E JUMP JUMPDEST PUSH2 0x35C6 JUMP JUMPDEST DUP3 MSTORE POP POP JUMP JUMPDEST PUSH1 0x0 DUP2 PUSH1 0x60 SHL SWAP1 POP SWAP2 SWAP1 POP JUMP JUMPDEST PUSH1 0x0 PUSH2 0x35FF DUP3 PUSH2 0x35E7 JUMP JUMPDEST SWAP1 POP SWAP2 SWAP1 POP JUMP JUMPDEST PUSH1 0x0 PUSH2 0x3611 DUP3 PUSH2 0x35F4 JUMP JUMPDEST SWAP1 POP SWAP2 SWAP1 POP JUMP JUMPDEST PUSH2 0x3629 PUSH2 0x3624 DUP3 PUSH2 0x2F3C JUMP JUMPDEST PUSH2 0x3606 JUMP JUMPDEST DUP3 MSTORE POP POP JUMP JUMPDEST PUSH1 0x0 PUSH2 0x363B DUP3 DUP6 PUSH2 0x35D0 JUMP JUMPDEST PUSH1 0x20 DUP3 ADD SWAP2 POP PUSH2 0x364B DUP3 DUP5 PUSH2 0x3618 JUMP JUMPDEST PUSH1 0x14 DUP3 ADD SWAP2 POP DUP2 SWAP1 POP SWAP4 SWAP3 POP POP POP JUMP JUMPDEST PUSH1 0x0 PUSH2 0x3667 DUP3 DUP7 PUSH2 0x35D0 JUMP JUMPDEST PUSH1 0x20 DUP3 ADD SWAP2 POP PUSH2 0x3677 DUP3 DUP6 PUSH2 0x3618 JUMP JUMPDEST PUSH1 0x14 DUP3 ADD SWAP2 POP PUSH2 0x3687 DUP3 DUP5 PUSH2 0x35D0 JUMP JUMPDEST PUSH1 0x20 DUP3 ADD SWAP2 POP DUP2 SWAP1 POP SWAP5 SWAP4 POP POP POP POP JUMP JUMPDEST PUSH32 0x4E487B7100000000000000000000000000000000000000000000000000000000 PUSH1 0x0 MSTORE PUSH1 0x12 PUSH1 0x4 MSTORE PUSH1 0x24 PUSH1 0x0 REVERT JUMPDEST PUSH1 0x0 PUSH2 0x36D2 DUP3 PUSH2 0x2E5E JUMP JUMPDEST SWAP2 POP PUSH2 0x36DD DUP4 PUSH2 0x2E5E JUMP JUMPDEST SWAP3 POP DUP3 PUSH2 0x36ED JUMPI PUSH2 0x36EC PUSH2 0x3698 JUMP JUMPDEST JUMPDEST DUP3 DUP3 MOD SWAP1 POP SWAP3 SWAP2 POP POP JUMP JUMPDEST PUSH1 0x0 PUSH2 0x3703 DUP3 PUSH2 0x2E5E JUMP JUMPDEST SWAP2 POP PUSH2 0x370E DUP4 PUSH2 0x2E5E JUMP JUMPDEST SWAP3 POP DUP3 DUP3 MUL PUSH2 0x371C DUP2 PUSH2 0x2E5E JUMP JUMPDEST SWAP2 POP DUP3 DUP3 DIV DUP5 EQ DUP4 ISZERO OR PUSH2 0x3733 JUMPI PUSH2 0x3732 PUSH2 0x34A6 JUMP JUMPDEST JUMPDEST POP SWAP3 SWAP2 POP POP JUMP JUMPDEST PUSH1 0x0 PUSH2 0x3745 DUP3 PUSH2 0x2E5E JUMP JUMPDEST SWAP2 POP PUSH2 0x3750 DUP4 PUSH2 0x2E5E JUMP JUMPDEST SWAP3 POP DUP3 PUSH2 0x3760 JUMPI PUSH2 0x375F PUSH2 0x3698 JUMP JUMPDEST JUMPDEST DUP3 DUP3 DIV SWAP1 POP SWAP3 SWAP2 POP POP JUMP JUMPDEST PUSH1 0x0 DUP2 MLOAD SWAP1 POP SWAP2 SWAP1 POP JUMP JUMPDEST PUSH1 0x0 JUMPDEST DUP4 DUP2 LT ISZERO PUSH2 0x3794 JUMPI DUP1 DUP3 ADD MLOAD DUP2 DUP5 ADD MSTORE PUSH1 0x20 DUP2 ADD SWAP1 POP PUSH2 0x3779 JUMP JUMPDEST PUSH1 0x0 DUP5 DUP5 ADD MSTORE POP POP POP POP JUMP JUMPDEST PUSH1 0x0 PUSH1 0x1F NOT PUSH1 0x1F DUP4 ADD AND SWAP1 POP SWAP2 SWAP1 POP JUMP JUMPDEST PUSH1 0x0 PUSH2 0x37BC DUP3 PUSH2 0x376B JUMP JUMPDEST PUSH2 0x37C6 DUP2 DUP6 PUSH2 0x3429 JUMP JUMPDEST SWAP4 POP PUSH2 0x37D6 DUP2 DUP6 PUSH1 0x20 DUP7 ADD PUSH2 0x3776 JUMP JUMPDEST PUSH2 0x37DF DUP2 PUSH2 0x37A0 JUMP JUMPDEST DUP5 ADD SWAP2 POP POP SWAP3 SWAP2 POP POP JUMP JUMPDEST PUSH1 0x0 PUSH1 0x80 DUP3 ADD SWAP1 POP DUP2 DUP2 SUB PUSH1 0x0 DUP4 ADD MSTORE PUSH2 0x3804 DUP2 DUP8 PUSH2 0x37B1 JUMP JUMPDEST SWAP1 POP PUSH2 0x3813 PUSH1 0x20 DUP4 ADD DUP7 PUSH2 0x2E68 JUMP JUMPDEST DUP2 DUP2 SUB PUSH1 0x40 DUP4 ADD MSTORE PUSH2 0x3825 DUP2 DUP6 PUSH2 0x37B1 JUMP JUMPDEST SWAP1 POP PUSH2 0x3834 PUSH1 0x60 DUP4 ADD DUP5 PUSH2 0x31DA JUMP JUMPDEST SWAP6 SWAP5 POP POP POP POP POP JUMP JUMPDEST PUSH32 0x4E487B7100000000000000000000000000000000000000000000000000000000 PUSH1 0x0 MSTORE PUSH1 0x51 PUSH1 0x4 MSTORE PUSH1 0x24 PUSH1 0x0 REVERT INVALID LOG2 PUSH5 0x6970667358 0x22 SLT KECCAK256 0x1E DUP8 0xDA PUSH32 0xC3807F6DEB3D10808D6312A65DD099BCA946BAA8B0AAE5AF85202B9164736F6C PUSH4 0x4300081B STOP CALLER "},"gasEstimates":{"creation":{"codeDepositCost":"2899600","executionCost":"infinite","totalCost":"infinite"},"external":{"BingoToken()":"2647","admin()":"2646","betAmountForBINGO()":"2518","checkWinner(uint256,address)":"infinite","claimPrize(uint256)":"infinite","drawWinner(uint256)":"infinite","gameRoundNow()":"2518","getPlayerArray(uint256)":"infinite","getPlayerGameBoard(address,uint256)":"infinite","getRoundBingoResult(uint256)":"infinite","joinCurrentGameWithBet(uint256)":"infinite","joinDuration()":"2474","maxPlayerNum()":"2519","returnBet()":"2516","setConfigBetAmountForBINGO(uint256)":"24757","setConfigMaxPlayerNum(uint256)":"24713","setConfigReturnBet(bool)":"26893","setConfigTurnDuration(uint256)":"24800","setJoinDuration(uint256)":"24756","startNewGameWithBet()":"infinite","turnDuration()":"2453","withdrawToken(address,uint256,address)":"infinite"},"internal":{"checkPrize(uint256,address)":"infinite","checkWinning(uint256,address)":"infinite","gameGenerateNumber(uint256)":"infinite","getRoundDetails(uint256,address)":"infinite","playerGenerateGameBoard(address,uint256)":"infinite"}},"methodIdentifiers":{"BingoToken()":"4fbd239b","admin()":"f851a440","betAmountForBINGO()":"884c0fe9","checkWinner(uint256,address)":"227b0354","claimPrize(uint256)":"d7098154","drawWinner(uint256)":"60b2a56a","gameRoundNow()":"27249ee8","getPlayerArray(uint256)":"07d8c565","getPlayerGameBoard(address,uint256)":"95f5d1fd","getRoundBingoResult(uint256)":"13b3da5d","joinCurrentGameWithBet(uint256)":"bdff7d88","joinDuration()":"172bf854","maxPlayerNum()":"10802749","returnBet()":"62e838ef","setConfigBetAmountForBINGO(uint256)":"6fa4935e","setConfigMaxPlayerNum(uint256)":"16b243b8","setConfigReturnBet(bool)":"c849938b","setConfigTurnDuration(uint256)":"ed7d8900","setJoinDuration(uint256)":"d013b2f8","startNewGameWithBet()":"0b3ca74d","turnDuration()":"05066917","withdrawToken(address,uint256,address)":"3ccdbb28"}},"storageLayout":{"storage":[{"astId":71,"contract":"contracts/BingoGame.sol:Bingo","label":"gameRoundNow","offset":0,"slot":"0","type":"t_uint256"},{"astId":74,"contract":"contracts/BingoGame.sol:Bingo","label":"admin","offset":0,"slot":"1","type":"t_address"},{"astId":78,"contract":"contracts/BingoGame.sol:Bingo","label":"joinDuration","offset":0,"slot":"2","type":"t_uint256"},{"astId":82,"contract":"contracts/BingoGame.sol:Bingo","label":"turnDuration","offset":0,"slot":"3","type":"t_uint256"},{"astId":85,"contract":"contracts/BingoGame.sol:Bingo","label":"BingoToken","offset":0,"slot":"4","type":"t_address"},{"astId":89,"contract":"contracts/BingoGame.sol:Bingo","label":"betAmountForBINGO","offset":0,"slot":"5","type":"t_uint256"},{"astId":92,"contract":"contracts/BingoGame.sol:Bingo","label":"returnBet","offset":0,"slot":"6","type":"t_bool"},{"astId":96,"contract":"contracts/BingoGame.sol:Bingo","label":"maxPlayerNum","offset":0,"slot":"7","type":"t_uint256"},{"astId":102,"contract":"contracts/BingoGame.sol:Bingo","label":"gameRounds","offset":0,"slot":"8","type":"t_mapping(t_uint256,t_struct(gameRound)69_storage)"}],"types":{"t_address":{"encoding":"inplace","label":"address","numberOfBytes":"20"},"t_array(t_address)dyn_storage":{"base":"t_address","encoding":"dynamic_array","label":"address[]","numberOfBytes":"32"},"t_array(t_uint256)24_storage":{"base":"t_uint256","encoding":"inplace","label":"uint256[24]","numberOfBytes":"768"},"t_array(t_uint256)25_storage":{"base":"t_uint256","encoding":"inplace","label":"uint256[25]","numberOfBytes":"800"},"t_bool":{"encoding":"inplace","label":"bool","numberOfBytes":"1"},"t_enum(gameStage)28":{"encoding":"inplace","label":"enum Bingo.gameStage","numberOfBytes":"1"},"t_mapping(t_address,t_struct(player)42_storage)":{"encoding":"mapping","key":"t_address","label":"mapping(address => struct Bingo.player)","numberOfBytes":"32","value":"t_struct(player)42_storage"},"t_mapping(t_uint256,t_struct(gameRound)69_storage)":{"encoding":"mapping","key":"t_uint256","label":"mapping(uint256 => struct Bingo.gameRound)","numberOfBytes":"32","value":"t_struct(gameRound)69_storage"},"t_mapping(t_uint256,t_uint256)":{"encoding":"mapping","key":"t_uint256","label":"mapping(uint256 => uint256)","numberOfBytes":"32","value":"t_uint256"},"t_struct(gameRound)69_storage":{"encoding":"inplace","label":"struct Bingo.gameRound","members":[{"astId":45,"contract":"contracts/BingoGame.sol:Bingo","label":"drawing","offset":0,"slot":"0","type":"t_bool"},{"astId":48,"contract":"contracts/BingoGame.sol:Bingo","label":"winnerAnnounced","offset":1,"slot":"0","type":"t_bool"},{"astId":50,"contract":"contracts/BingoGame.sol:Bingo","label":"startTime","offset":0,"slot":"1","type":"t_uint256"},{"astId":52,"contract":"contracts/BingoGame.sol:Bingo","label":"bingo","offset":0,"slot":"2","type":"t_uint256"},{"astId":56,"contract":"contracts/BingoGame.sol:Bingo","label":"winner","offset":0,"slot":"3","type":"t_array(t_address)dyn_storage"},{"astId":59,"contract":"contracts/BingoGame.sol:Bingo","label":"playersArray","offset":0,"slot":"4","type":"t_array(t_address)dyn_storage"},{"astId":63,"contract":"contracts/BingoGame.sol:Bingo","label":"winningNumders","offset":0,"slot":"5","type":"t_array(t_uint256)24_storage"},{"astId":68,"contract":"contracts/BingoGame.sol:Bingo","label":"players","offset":0,"slot":"29","type":"t_mapping(t_address,t_struct(player)42_storage)"}],"numberOfBytes":"960"},"t_struct(player)42_storage":{"encoding":"inplace","label":"struct Bingo.player","members":[{"astId":32,"contract":"contracts/BingoGame.sol:Bingo","label":"stage","offset":0,"slot":"0","type":"t_enum(gameStage)28"},{"astId":36,"contract":"contracts/BingoGame.sol:Bingo","label":"gameBoard","offset":0,"slot":"1","type":"t_array(t_uint256)25_storage"},{"astId":41,"contract":"contracts/BingoGame.sol:Bingo","label":"gameBoardMatchs","offset":0,"slot":"26","type":"t_mapping(t_uint256,t_uint256)"}],"numberOfBytes":"864"},"t_uint256":{"encoding":"inplace","label":"uint256","numberOfBytes":"32"}}},"userdoc":{"events":{"Claimed(address,uint256)":{"notice":"Event emit when a player claimed prize"},"Created(address,uint256,uint256)":{"notice":"Event emit when player create a new game"},"Drawed(uint256,uint256,uint256[24],uint256)":{"notice":"Event emit when a game is drawed"},"Joined(address,uint256)":{"notice":"Event emit when player joins a existing game"}},"kind":"user","methods":{"BingoToken()":{"notice":"Each player pays an ERC20 entry fee, transferred on join"},"admin()":{"notice":"Admin can update the entry fee, join duration, and turn duration"},"betAmountForBINGO()":{"notice":"`betAmountForBINGO` sets to 1 token as default to save gas"},"checkWinner(uint256,address)":{"notice":"Check if player is the the winner of this game round, and returns bool with winning prize to claim"},"claimPrize(uint256)":{"notice":"Players claim prize if retrun bet is true or there is only one player in this game round"},"constructor":{"notice":"Deploying Bingo Token first before deploying this contract"},"drawWinner(uint256)":{"notice":"Players draw winner of this game round or claim prize"},"getPlayerArray(uint256)":{"notice":"Get players addresses array of this round"},"getPlayerGameBoard(address,uint256)":{"notice":"Get player game board numbers in a uint256 array"},"getRoundBingoResult(uint256)":{"notice":"Get the Bingo result of this round of game and winning numbers"},"joinCurrentGameWithBet(uint256)":{"notice":"Players join current game and generate their game board"},"joinDuration()":{"notice":"Games have a minimum join duration before start`joinDuration` sets to 180 seconds as default to save gas"},"maxPlayerNum()":{"notice":"maxPlayerNum sets the max player numbers in a game, default as 4 due to out of gas problem"},"returnBet()":{"notice":"returnBet sets the contract whether return player entry fee or not"},"setJoinDuration(uint256)":{"notice":"set config for the game, such as join durations, turn durations, bet amount for bingo game, returnBet boolean for if game returns no-winner game, max player numbers in one game"},"startNewGameWithBet()":{"notice":"player start a new with game board generated"},"turnDuration()":{"notice":"Games have a minimum turn duration between draws`turnDuration` sets to 180 seconds as default to save gas"}},"version":1}}}}