{"contracts/BingoGame.sol":{"Bingo":{"abi":[{"inputs":[{"internalType":"address","name":"_bingoTokenAddress","type":"address"}],"stateMutability":"nonpayable","type":"constructor"},{"inputs":[],"name":"NotAdminError","type":"error"},{"inputs":[],"name":"erorr__entryFee","type":"error"},{"inputs":[],"name":"error__exceedLimitPlayersInOneGame","type":"error"},{"inputs":[],"name":"error__gameStarted","type":"error"},{"inputs":[],"name":"error__gameWinnerDrawed","type":"error"},{"inputs":[],"name":"error__gameWinnerNotDrawed","type":"error"},{"inputs":[],"name":"error__inGameAlready","type":"error"},{"inputs":[],"name":"error__notInGameOrClaimedRewards","type":"error"},{"inputs":[],"name":"error_drawsNotStarted","type":"error"},{"inputs":[],"name":"error_winnerIsDrawing","type":"error"},{"anonymous":false,"inputs":[{"indexed":true,"internalType":"address","name":"creator","type":"address"},{"indexed":true,"internalType":"uint256","name":"round","type":"uint256"},{"indexed":false,"internalType":"uint256","name":"time","type":"uint256"}],"name":"GameCreated","type":"event"},{"anonymous":false,"inputs":[{"indexed":true,"internalType":"uint256","name":"round","type":"uint256"},{"indexed":false,"internalType":"uint256","name":"playersCount","type":"uint256"},{"indexed":false,"internalType":"uint256[24]","name":"winningNumbers","type":"uint256[24]"},{"indexed":false,"internalType":"uint256","name":"bingoRound","type":"uint256"}],"name":"GameDrawn","type":"event"},{"anonymous":false,"inputs":[{"indexed":true,"internalType":"address","name":"player","type":"address"},{"indexed":true,"internalType":"uint256","name":"round","type":"uint256"}],"name":"PlayerJoined","type":"event"},{"anonymous":false,"inputs":[{"indexed":true,"internalType":"address","name":"player","type":"address"},{"indexed":false,"internalType":"uint256","name":"amount","type":"uint256"}],"name":"PrizeClaimed","type":"event"},{"inputs":[],"name":"BingoToken","outputs":[{"internalType":"address","name":"","type":"address"}],"stateMutability":"view","type":"function"},{"inputs":[],"name":"EntryFee","outputs":[{"internalType":"uint256","name":"","type":"uint256"}],"stateMutability":"view","type":"function"},{"inputs":[],"name":"admin","outputs":[{"internalType":"address","name":"","type":"address"}],"stateMutability":"view","type":"function"},{"inputs":[{"internalType":"uint256","name":"_gameRound","type":"uint256"},{"internalType":"address","name":"_player","type":"address"}],"name":"checkWinner","outputs":[{"internalType":"bool","name":"","type":"bool"},{"internalType":"uint256","name":"","type":"uint256"}],"stateMutability":"view","type":"function"},{"inputs":[{"internalType":"uint256","name":"_gameRound","type":"uint256"}],"name":"claimPrize","outputs":[],"stateMutability":"nonpayable","type":"function"},{"inputs":[],"name":"createGameWithEntryFee","outputs":[],"stateMutability":"nonpayable","type":"function"},{"inputs":[],"name":"currentGameRound","outputs":[{"internalType":"uint256","name":"","type":"uint256"}],"stateMutability":"view","type":"function"},{"inputs":[{"internalType":"uint256","name":"_gameRound","type":"uint256"}],"name":"drawWinner","outputs":[],"stateMutability":"nonpayable","type":"function"},{"inputs":[{"internalType":"uint256","name":"","type":"uint256"}],"name":"gameRoundsData","outputs":[{"internalType":"bool","name":"drawing","type":"bool"},{"internalType":"bool","name":"winnerAnnounced","type":"bool"},{"internalType":"uint256","name":"startTime","type":"uint256"},{"internalType":"uint256","name":"bingo","type":"uint256"}],"stateMutability":"view","type":"function"},{"inputs":[{"internalType":"uint256","name":"_gameRound","type":"uint256"}],"name":"getBingoRoundResult","outputs":[{"internalType":"bool","name":"","type":"bool"},{"internalType":"uint256[24]","name":"","type":"uint256[24]"}],"stateMutability":"view","type":"function"},{"inputs":[{"internalType":"uint256","name":"_gameRound","type":"uint256"}],"name":"getPlayerArray","outputs":[{"internalType":"address[]","name":"","type":"address[]"}],"stateMutability":"view","type":"function"},{"inputs":[{"internalType":"address","name":"_player","type":"address"},{"internalType":"uint256","name":"_gameRound","type":"uint256"}],"name":"getPlayerGameBoard","outputs":[{"internalType":"uint256[25]","name":"","type":"uint256[25]"}],"stateMutability":"view","type":"function"},{"inputs":[{"internalType":"uint256","name":"_gameRoundToJoin","type":"uint256"}],"name":"joinCurrentGameWithEntry","outputs":[],"stateMutability":"nonpayable","type":"function"},{"inputs":[],"name":"joinDuration","outputs":[{"internalType":"uint256","name":"","type":"uint256"}],"stateMutability":"view","type":"function"},{"inputs":[],"name":"maxPlayers","outputs":[{"internalType":"uint256","name":"","type":"uint256"}],"stateMutability":"view","type":"function"},{"inputs":[],"name":"returnBet","outputs":[{"internalType":"bool","name":"","type":"bool"}],"stateMutability":"view","type":"function"},{"inputs":[{"internalType":"uint256","name":"_entryFee","type":"uint256"}],"name":"setConfigEntryFee","outputs":[],"stateMutability":"nonpayable","type":"function"},{"inputs":[{"internalType":"uint256","name":"_maxPlayers","type":"uint256"}],"name":"setConfigMaxPlayer","outputs":[],"stateMutability":"nonpayable","type":"function"},{"inputs":[{"internalType":"bool","name":"_returnBet","type":"bool"}],"name":"setConfigRefundEntryFee","outputs":[],"stateMutability":"nonpayable","type":"function"},{"inputs":[{"internalType":"uint256","name":"_turnDuration","type":"uint256"}],"name":"setConfigTurnDuration","outputs":[],"stateMutability":"nonpayable","type":"function"},{"inputs":[{"internalType":"uint256","name":"_joinDuration","type":"uint256"}],"name":"setJoinDuration","outputs":[],"stateMutability":"nonpayable","type":"function"},{"inputs":[],"name":"turnDuration","outputs":[{"internalType":"uint256","name":"","type":"uint256"}],"stateMutability":"view","type":"function"},{"inputs":[{"internalType":"address","name":"_erc20ContractAddress","type":"address"},{"internalType":"uint256","name":"_amount","type":"uint256"},{"internalType":"address","name":"_to","type":"address"}],"name":"withdrawToken","outputs":[],"stateMutability":"nonpayable","type":"function"}],"devdoc":{"kind":"dev","methods":{"checkWinner(uint256,address)":{"params":{"_gameRound":"the round of game id","_player":"player address of this round of game"}},"claimPrize(uint256)":{"details":"Normally player dont need to call this function, in case of draw function errorIf return bet is true, player needs to call this function to get the token back","params":{"_gameRound":"the round of game id that player joined"}},"drawWinner(uint256)":{"details":"if one game is drawed, other players in this round","params":{"_gameRound":"the round of game id that player joined"}},"getBingoRoundResult(uint256)":{"params":{"_gameRound":"the round of game id"}},"getPlayerArray(uint256)":{"details":"This function is for frontend to get the players addresses in each round","params":{"_gameRound":"the round of game id"}},"getPlayerGameBoard(address,uint256)":{"params":{"_gameRound":"the round of game id","_player":"player address of this round of game"}},"joinCurrentGameWithEntry(uint256)":{"params":{"_gameRoundToJoin":"the round of game id"}},"withdrawToken(address,uint256,address)":{"details":"this function helps people who accidentally transfer ERC20 token to our contract, and also withdraw Bingo Token as revenue"}},"version":1},"evm":{"bytecode":{"linkReferences":{},"object":"608060405260b460025560b4600355670de0b6b3a7640000600555600460075534801561002b57600080fd5b50604051613b15380380613b15833981810160405281019061004d9190610138565b80600460006101000a81548173ffffffffffffffffffffffffffffffffffffffff021916908373ffffffffffffffffffffffffffffffffffffffff16021790555033600160006101000a81548173ffffffffffffffffffffffffffffffffffffffff021916908373ffffffffffffffffffffffffffffffffffffffff16021790555050610165565b600080fd5b600073ffffffffffffffffffffffffffffffffffffffff82169050919050565b6000610105826100da565b9050919050565b610115816100fa565b811461012057600080fd5b50565b6000815190506101328161010c565b92915050565b60006020828403121561014e5761014d6100d5565b5b600061015c84828501610123565b91505092915050565b6139a1806101746000396000f3fe608060405234801561001057600080fd5b506004361061014d5760003560e01c806359fe8c84116100c35780638b8a908f1161007c5780638b8a908f1461037f57806395f5d1fd1461039b578063d013b2f8146103cb578063d7098154146103e7578063ed7d890014610403578063f851a4401461041f5761014d565b806359fe8c84146102e557806360b2a56a1461030357806362e838ef1461031f5780636a3ff6251461033d578063736e2aa5146103595780637a12d9cb146103635761014d565b80632ea2e8f8116101155780632ea2e8f81461022057806338a6a9ba1461023e5780633ccdbb281461025a5780634c2412a2146102765780634fbd239b1461029457806353d0579e146102b25761014d565b8063050669171461015257806307d8c56514610170578063172bf854146101a0578063227b0354146101be5780632d7a4db3146101ef575b600080fd5b61015a61043d565b6040516101679190612f23565b60405180910390f35b61018a60048036038101906101859190612f6f565b610443565b604051610197919061308c565b60405180910390f35b6101a86104e7565b6040516101b59190612f23565b60405180910390f35b6101d860048036038101906101d391906130da565b6104ed565b6040516101e6929190613135565b60405180910390f35b61020960048036038101906102049190612f6f565b610632565b604051610217929190613209565b60405180910390f35b6102286106b4565b6040516102359190612f23565b60405180910390f35b6102586004803603810190610253919061325f565b6106ba565b005b610274600480360381019061026f919061328c565b61075e565b005b61027e61092e565b60405161028b9190612f23565b60405180910390f35b61029c610934565b6040516102a991906132ee565b60405180910390f35b6102cc60048036038101906102c79190612f6f565b61095a565b6040516102dc9493929190613309565b60405180910390f35b6102ed6109a4565b6040516102fa9190612f23565b60405180910390f35b61031d60048036038101906103189190612f6f565b6109aa565b005b610327611248565b604051610334919061334e565b60405180910390f35b61035760048036038101906103529190612f6f565b61125b565b005b6103616112ec565b005b61037d60048036038101906103789190612f6f565b611459565b005b61039960048036038101906103949190612f6f565b6114ea565b005b6103b560048036038101906103b09190613369565b6116e5565b6040516103c2919061342d565b60405180910390f35b6103e560048036038101906103e09190612f6f565b611787565b005b61040160048036038101906103fc9190612f6f565b611818565b005b61041d60048036038101906104189190612f6f565b611cf1565b005b610427611d82565b60405161043491906132ee565b60405180910390f35b60035481565b6060600860008381526020019081526020016000206004018054806020026020016040519081016040528092919081815260200182805480156104db57602002820191906000526020600020905b8160009054906101000a900473ffffffffffffffffffffffffffffffffffffffff1673ffffffffffffffffffffffffffffffffffffffff1681526020019060010190808311610491575b50505050509050919050565b60025481565b60008060006008600086815260200190815260200160002060030180548060200260200160405190810160405280929190818152602001828054801561058857602002820191906000526020600020905b8160009054906101000a900473ffffffffffffffffffffffffffffffffffffffff1673ffffffffffffffffffffffffffffffffffffffff168152602001906001019080831161053e575b5050505050905060008082511115610621575b8473ffffffffffffffffffffffffffffffffffffffff168282815181106105c5576105c4613449565b5b602002602001015173ffffffffffffffffffffffffffffffffffffffff16036106055760006105f48787611da8565b90506001819450945050505061062b565b8060010190508151811061059b5760008093509350505061062b565b6000809350935050505b9250929050565b600061063c612d93565b600060086000858152602001908152602001600020600201541160086000858152602001908152602001600020600501806018806020026040519081016040528092919082601880156106a4576020028201915b815481526020019060010190808311610690575b5050505050905091509150915091565b60005481565b600160009054906101000a900473ffffffffffffffffffffffffffffffffffffffff1673ffffffffffffffffffffffffffffffffffffffff163373ffffffffffffffffffffffffffffffffffffffff1614610741576040517fb5c42b3b00000000000000000000000000000000000000000000000000000000815260040160405180910390fd5b80600660006101000a81548160ff02191690831515021790555050565b600160009054906101000a900473ffffffffffffffffffffffffffffffffffffffff1673ffffffffffffffffffffffffffffffffffffffff163373ffffffffffffffffffffffffffffffffffffffff16146107e5576040517fb5c42b3b00000000000000000000000000000000000000000000000000000000815260040160405180910390fd5b8273ffffffffffffffffffffffffffffffffffffffff1663095ea7b330846040518363ffffffff1660e01b8152600401610820929190613478565b6020604051808303816000875af115801561083f573d6000803e3d6000fd5b505050506040513d601f19601f8201168201806040525081019061086391906134b6565b5060008373ffffffffffffffffffffffffffffffffffffffff166323b872dd3084866040518463ffffffff1660e01b81526004016108a3939291906134e3565b6020604051808303816000875af11580156108c2573d6000803e3d6000fd5b505050506040513d601f19601f820116820180604052508101906108e691906134b6565b905080610928576040517f08c379a000000000000000000000000000000000000000000000000000000000815260040161091f90613577565b60405180910390fd5b50505050565b60075481565b600460009054906101000a900473ffffffffffffffffffffffffffffffffffffffff1681565b60086020528060005260406000206000915090508060000160009054906101000a900460ff16908060000160019054906101000a900460ff16908060010154908060020154905084565b60055481565b8060035460025460086000848152602001908152602001600020600101546109d291906135c6565b6109dc91906135c6565b421015610a15576040517f596dccc400000000000000000000000000000000000000000000000000000000815260040160405180910390fd5b6008600082815260200190815260200160002060000160009054906101000a900460ff1615610a70576040517f589a12e900000000000000000000000000000000000000000000000000000000815260040160405180910390fd5b60016008600083815260200190815260200160002060000160006101000a81548160ff021916908315150217905550600115156008600084815260200190815260200160002060000160019054906101000a900460ff16151503610b00576040517f9162ee7d00000000000000000000000000000000000000000000000000000000815260040160405180910390fd5b600060086000848152602001908152602001600020600401805480602002602001604051908101604052809291908181526020018280548015610b9857602002820191906000526020600020905b8160009054906101000a900473ffffffffffffffffffffffffffffffffffffffff1673ffffffffffffffffffffffffffffffffffffffff1681526020019060010190808311610b4e575b50505050509050610ba7612d93565b60018251111561119157600060189050610bc085611ef9565b915060008060005b600091505b600090506000610bf7878581518110610be957610be8613449565b5b60200260200101518a6116e5565b90505b808260198110610c0d57610c0c613449565b5b6020020151868460188110610c2557610c24613449565b5b602002015103610cb7576001600860008b8152602001908152602001600020601d016000898781518110610c5c57610c5b613449565b5b602002602001015173ffffffffffffffffffffffffffffffffffffffff1673ffffffffffffffffffffffffffffffffffffffff168152602001908152602001600020601a016000848152602001908152602001600020819055505b600b8203610cc6578160010191505b8160010191506004821115610f6457610cf989888681518110610cec57610ceb613449565b5b6020026020010151612014565b15610f6357600185610d0b91906135fa565b8303610da757600860008a8152602001908152602001600020600301878581518110610d3a57610d39613449565b5b60200260200101519080600181540180825580915050600190039060005260206000200160009091909190916101000a81548173ffffffffffffffffffffffffffffffffffffffff021916908373ffffffffffffffffffffffffffffffffffffffff160217905550610ead565b600067ffffffffffffffff811115610dc257610dc161362e565b5b604051908082528060200260200182016040528015610df05781602001602082028036833780820191505090505b50600860008b81526020019081526020016000206003019080519060200190610e1a929190612db6565b50600860008a8152602001908152602001600020600301878581518110610e4457610e43613449565b5b60200260200101519080600181540180825580915050600190039060005260206000200160009091909190916101000a81548173ffffffffffffffffffffffffffffffffffffffff021916908373ffffffffffffffffffffffffffffffffffffffff1602179055505b60018301945082600860008b815260200190815260200160002060020181905550610f5e6040518060400160405280601481526020017f46697273742042696e676f20696e20726f756e64000000000000000000000000815250846040518060400160405280601281526020017f666f7220706c61796572206164647265737300000000000000000000000000008152508a8881518110610f5157610f50613449565b5b602002602001015161290e565b610f6d565b5b60198210610bfa575b82600101925050838210610bcd5782600101925085518310610bc857600092505b600080610fb58a898781518110610fa857610fa7613449565b5b60200260200101516104ed565b91509150811561117c57600460009054906101000a900473ffffffffffffffffffffffffffffffffffffffff1673ffffffffffffffffffffffffffffffffffffffff1663a9059cbb8987815181106110105761100f613449565b5b6020026020010151836040518363ffffffff1660e01b8152600401611036929190613478565b6020604051808303816000875af1158015611055573d6000803e3d6000fd5b505050506040513d601f19601f8201168201806040525081019061107991906134b6565b506002600860008c8152602001908152602001600020601d0160008a88815181106110a7576110a6613449565b5b602002602001015173ffffffffffffffffffffffffffffffffffffffff1673ffffffffffffffffffffffffffffffffffffffff16815260200190815260200160002060000160006101000a81548160ff0219169083600281111561110e5761110d61365d565b5b021790555087858151811061112657611125613449565b5b602002602001015173ffffffffffffffffffffffffffffffffffffffff167f95681e512bc0fe659e195e06c283eada494316f3d801213e48e7101af92bf770826040516111739190612f23565b60405180910390a25b846001019450505085518310610f8e57505050505b60016008600086815260200190815260200160002060000160016101000a81548160ff021916908315150217905550837f98a17e99e8596b16b3f270787de6e7ba987ca828fb02af439604b812fb3f700d835183600860008981526020019081526020016000206002015460405161120b9392919061368c565b60405180910390a2505060006008600083815260200190815260200160002060000160006101000a81548160ff0219169083151502179055505050565b600660009054906101000a900460ff1681565b600160009054906101000a900473ffffffffffffffffffffffffffffffffffffffff1673ffffffffffffffffffffffffffffffffffffffff163373ffffffffffffffffffffffffffffffffffffffff16146112e2576040517fb5c42b3b00000000000000000000000000000000000000000000000000000000815260040160405180910390fd5b8060078190555050565b60011515600460009054906101000a900473ffffffffffffffffffffffffffffffffffffffff1673ffffffffffffffffffffffffffffffffffffffff166323b872dd33306005546040518463ffffffff1660e01b8152600401611351939291906134e3565b6020604051808303816000875af1158015611370573d6000803e3d6000fd5b505050506040513d601f19601f8201168201806040525081019061139491906134b6565b1515146113cd576040517f2ff987e700000000000000000000000000000000000000000000000000000000815260040160405180910390fd5b60008081546001019190508190555060008054905042600860008381526020019081526020016000206001018190555061140733826129b0565b803373ffffffffffffffffffffffffffffffffffffffff167f27bd49aa3baf4aa9d565998bd41f40d6ff8cb737a8b4935d9ead830220fb73bc4260405161144e9190612f23565b60405180910390a350565b600160009054906101000a900473ffffffffffffffffffffffffffffffffffffffff1673ffffffffffffffffffffffffffffffffffffffff163373ffffffffffffffffffffffffffffffffffffffff16146114e0576040517fb5c42b3b00000000000000000000000000000000000000000000000000000000815260040160405180910390fd5b8060058190555050565b6007546001600860008481526020019081526020016000206004018054905061151391906135c6565b111561154b576040517f9aa0271f00000000000000000000000000000000000000000000000000000000815260040160405180910390fd5b6000806115588333612cb7565b91509150600060028111156115705761156f61365d565b5b8260028111156115835761158261365d565b5b146115ba576040517f70b48ea500000000000000000000000000000000000000000000000000000000815260040160405180910390fd5b804211156115f4576040517f496f3b7600000000000000000000000000000000000000000000000000000000815260040160405180910390fd5b60011515600460009054906101000a900473ffffffffffffffffffffffffffffffffffffffff1673ffffffffffffffffffffffffffffffffffffffff166323b872dd33306005546040518463ffffffff1660e01b8152600401611659939291906134e3565b6020604051808303816000875af1158015611678573d6000803e3d6000fd5b505050506040513d601f19601f8201168201806040525081019061169c91906134b6565b1515146116d5576040517f2ff987e700000000000000000000000000000000000000000000000000000000815260040160405180910390fd5b6116df33846116e5565b50505050565b6116ed612e40565b60086000838152602001908152602001600020601d0160008473ffffffffffffffffffffffffffffffffffffffff1673ffffffffffffffffffffffffffffffffffffffff16815260200190815260200160002060010160198060200260405190810160405280929190826019801561177a576020028201915b815481526020019060010190808311611766575b5050505050905092915050565b600160009054906101000a900473ffffffffffffffffffffffffffffffffffffffff1673ffffffffffffffffffffffffffffffffffffffff163373ffffffffffffffffffffffffffffffffffffffff161461180e576040517fb5c42b3b00000000000000000000000000000000000000000000000000000000815260040160405180910390fd5b8060028190555050565b80600354600254600860008481526020019081526020016000206001015461184091906135c6565b61184a91906135c6565b421015611883576040517f596dccc400000000000000000000000000000000000000000000000000000000815260040160405180910390fd5b6008600082815260200190815260200160002060000160009054906101000a900460ff16156118de576040517f589a12e900000000000000000000000000000000000000000000000000000000815260040160405180910390fd5b60016008600083815260200190815260200160002060000160006101000a81548160ff021916908315150217905550600160028111156119215761192061365d565b5b60086000848152602001908152602001600020601d0160003373ffffffffffffffffffffffffffffffffffffffff1673ffffffffffffffffffffffffffffffffffffffff16815260200190815260200160002060000160009054906101000a900460ff1660028111156119975761199661365d565b5b146119ce576040517f6c8aeb7700000000000000000000000000000000000000000000000000000000815260040160405180910390fd5b6000600554905060008015156008600086815260200190815260200160002060000160019054906101000a900460ff16151503611a37576040517fff07fcae00000000000000000000000000000000000000000000000000000000815260040160405180910390fd5b600060086000868152602001908152602001600020600201541115611b1257611a608433611da8565b90506000811115611b0d57600460009054906101000a900473ffffffffffffffffffffffffffffffffffffffff1673ffffffffffffffffffffffffffffffffffffffff1663a9059cbb33836040518363ffffffff1660e01b8152600401611ac8929190613478565b6020604051808303816000875af1158015611ae7573d6000803e3d6000fd5b505050506040513d601f19601f82011682018060405250810190611b0b91906134b6565b505b611bef565b60016008600086815260200190815260200160002060040180549050111580611b475750600660009054906101000a900460ff165b15611bee57600460009054906101000a900473ffffffffffffffffffffffffffffffffffffffff1673ffffffffffffffffffffffffffffffffffffffff1663a9059cbb33846040518363ffffffff1660e01b8152600401611ba9929190613478565b6020604051808303816000875af1158015611bc8573d6000803e3d6000fd5b505050506040513d601f19601f82011682018060405250810190611bec91906134b6565b505b5b600260086000868152602001908152602001600020601d0160003373ffffffffffffffffffffffffffffffffffffffff1673ffffffffffffffffffffffffffffffffffffffff16815260200190815260200160002060000160006101000a81548160ff02191690836002811115611c6957611c6861365d565b5b02179055503373ffffffffffffffffffffffffffffffffffffffff167f95681e512bc0fe659e195e06c283eada494316f3d801213e48e7101af92bf77082604051611cb49190612f23565b60405180910390a2505060006008600083815260200190815260200160002060000160006101000a81548160ff0219169083151502179055505050565b600160009054906101000a900473ffffffffffffffffffffffffffffffffffffffff1673ffffffffffffffffffffffffffffffffffffffff163373ffffffffffffffffffffffffffffffffffffffff1614611d78576040517fb5c42b3b00000000000000000000000000000000000000000000000000000000815260040160405180910390fd5b8060038190555050565b600160009054906101000a900473ffffffffffffffffffffffffffffffffffffffff1681565b60008060086000858152602001908152602001600020600301805480602002602001604051908101604052809291908181526020018280548015611e4157602002820191906000526020600020905b8160009054906101000a900473ffffffffffffffffffffffffffffffffffffffff1673ffffffffffffffffffffffffffffffffffffffff1681526020019060010190808311611df7575b505050505090506000805b8473ffffffffffffffffffffffffffffffffffffffff16838381518110611e7657611e75613449565b5b602002602001015173ffffffffffffffffffffffffffffffffffffffff1603611ea25780806001019150505b81600101915082518210611e4c5782516008600088815260200190815260200160002060040180549050600554611ed991906136c5565b82611ee491906136c5565b611eee9190613736565b935050505092915050565b611f01612d93565b611f09612d93565b600080600143611f1991906135fa565b40905060008160001c905060008133604051602001611f399291906137d0565b6040516020818303038152906040528051906020012060001c90505b6000600882901c11611fa157610100823386604051602001611f79939291906137fc565b6040516020818303038152906040528051906020012060001c611f9c9190613839565b611fb4565b610100600882901c611fb39190613839565b5b905080858560188110611fca57611fc9613449565b5b60200201818152505083600101935060188410611f55578460086000898152602001908152602001600020600501906018612006929190612e63565b508495505050505050919050565b600080600160086000868152602001908152602001600020601d0160008573ffffffffffffffffffffffffffffffffffffffff1673ffffffffffffffffffffffffffffffffffffffff168152602001908152602001600020601a016000808152602001908152602001600020541480156120f65750600160086000868152602001908152602001600020601d0160008573ffffffffffffffffffffffffffffffffffffffff1673ffffffffffffffffffffffffffffffffffffffff168152602001908152602001600020601a0160006006815260200190815260200160002054145b801561216a5750600160086000868152602001908152602001600020601d0160008573ffffffffffffffffffffffffffffffffffffffff1673ffffffffffffffffffffffffffffffffffffffff168152602001908152602001600020601a0160006012815260200190815260200160002054145b80156121de5750600160086000868152602001908152602001600020601d0160008573ffffffffffffffffffffffffffffffffffffffff1673ffffffffffffffffffffffffffffffffffffffff168152602001908152602001600020601a0160006018815260200190815260200160002054145b806123ad5750600160086000868152602001908152602001600020601d0160008573ffffffffffffffffffffffffffffffffffffffff1673ffffffffffffffffffffffffffffffffffffffff168152602001908152602001600020601a01600060048152602001908152602001600020541480156122c45750600160086000868152602001908152602001600020601d0160008573ffffffffffffffffffffffffffffffffffffffff1673ffffffffffffffffffffffffffffffffffffffff168152602001908152602001600020601a0160006008815260200190815260200160002054145b80156123385750600160086000868152602001908152602001600020601d0160008573ffffffffffffffffffffffffffffffffffffffff1673ffffffffffffffffffffffffffffffffffffffff168152602001908152602001600020601a0160006010815260200190815260200160002054145b80156123ac5750600160086000868152602001908152602001600020601d0160008573ffffffffffffffffffffffffffffffffffffffff1673ffffffffffffffffffffffffffffffffffffffff168152602001908152602001600020601a0160006014815260200190815260200160002054145b5b156123bc576001915050612908565b5b600160086000868152602001908152602001600020601d0160008573ffffffffffffffffffffffffffffffffffffffff1673ffffffffffffffffffffffffffffffffffffffff168152602001908152602001600020601a0160008060058561242591906136c5565b61242f91906135c6565b8152602001908152602001600020541480156124ca5750600160086000868152602001908152602001600020601d0160008573ffffffffffffffffffffffffffffffffffffffff1673ffffffffffffffffffffffffffffffffffffffff168152602001908152602001600020601a01600060016005856124af91906136c5565b6124b991906135c6565b815260200190815260200160002054145b80156125555750600160086000868152602001908152602001600020601d0160008573ffffffffffffffffffffffffffffffffffffffff1673ffffffffffffffffffffffffffffffffffffffff168152602001908152602001600020601a016000600260058561253a91906136c5565b61254491906135c6565b815260200190815260200160002054145b80156125e05750600160086000868152602001908152602001600020601d0160008573ffffffffffffffffffffffffffffffffffffffff1673ffffffffffffffffffffffffffffffffffffffff168152602001908152602001600020601a01600060036005856125c591906136c5565b6125cf91906135c6565b815260200190815260200160002054145b801561266b5750600160086000868152602001908152602001600020601d0160008573ffffffffffffffffffffffffffffffffffffffff1673ffffffffffffffffffffffffffffffffffffffff168152602001908152602001600020601a016000600460058561265091906136c5565b61265a91906135c6565b815260200190815260200160002054145b806128e55750600160086000868152602001908152602001600020601d0160008573ffffffffffffffffffffffffffffffffffffffff1673ffffffffffffffffffffffffffffffffffffffff168152602001908152602001600020601a0160008360006126d891906135c6565b8152602001908152602001600020541480156127675750600160086000868152602001908152602001600020601d0160008573ffffffffffffffffffffffffffffffffffffffff1673ffffffffffffffffffffffffffffffffffffffff168152602001908152602001600020601a01600083600561275691906135c6565b815260200190815260200160002054145b80156127e65750600160086000868152602001908152602001600020601d0160008573ffffffffffffffffffffffffffffffffffffffff1673ffffffffffffffffffffffffffffffffffffffff168152602001908152602001600020601a01600083600a6127d591906135c6565b815260200190815260200160002054145b80156128655750600160086000868152602001908152602001600020601d0160008573ffffffffffffffffffffffffffffffffffffffff1673ffffffffffffffffffffffffffffffffffffffff168152602001908152602001600020601a01600083600f61285491906135c6565b815260200190815260200160002054145b80156128e45750600160086000868152602001908152602001600020601d0160008573ffffffffffffffffffffffffffffffffffffffff1673ffffffffffffffffffffffffffffffffffffffff168152602001908152602001600020601a0160008360146128d391906135c6565b815260200190815260200160002054145b5b156128f4576001915050612908565b806001019050600581106123bd5760009150505b92915050565b6129aa8484848460405160240161292894939291906138e9565b6040516020818303038152906040527f7c4632a4000000000000000000000000000000000000000000000000000000007bffffffffffffffffffffffffffffffffffffffffffffffffffffffff19166020820180517bffffffffffffffffffffffffffffffffffffffffffffffffffffffff8381831617835250505050612d4d565b50505050565b600160086000838152602001908152602001600020601d0160008473ffffffffffffffffffffffffffffffffffffffff1673ffffffffffffffffffffffffffffffffffffffff16815260200190815260200160002060000160006101000a81548160ff02191690836002811115612a2a57612a2961365d565b5b021790555060086000828152602001908152602001600020600401829080600181540180825580915050600190039060005260206000200160009091909190916101000a81548173ffffffffffffffffffffffffffffffffffffffff021916908373ffffffffffffffffffffffffffffffffffffffff1602179055506000612ab0612e40565b6000600143612abf91906135fa565b40905060008160001c905060008133604051602001612adf9291906137d0565b6040516020818303038152906040528051906020012060001c90505b6000600882901c11612b4757610100823387604051602001612b1f939291906137fc565b6040516020818303038152906040528051906020012060001c612b429190613839565b612b5a565b610100600882901c612b599190613839565b5b905080848660198110612b7057612b6f613449565b5b602002018181525050600c8503612b88578460010194505b84600101945060198510612afb578360086000888152602001908152602001600020601d0160008973ffffffffffffffffffffffffffffffffffffffff1673ffffffffffffffffffffffffffffffffffffffff168152602001908152602001600020600101906019612bfb929190612ea3565b50600160086000888152602001908152602001600020601d0160008973ffffffffffffffffffffffffffffffffffffffff1673ffffffffffffffffffffffffffffffffffffffff168152602001908152602001600020601a016000600c815260200190815260200160002081905550853373ffffffffffffffffffffffffffffffffffffffff167f3330a6773675f31f62070870f40379f8c6d42e3761410011a4dfc42b18043d2f60405160405180910390a350505050505050565b60008060086000858152602001908152602001600020601d0160008473ffffffffffffffffffffffffffffffffffffffff1673ffffffffffffffffffffffffffffffffffffffff16815260200190815260200160002060000160009054906101000a900460ff166002546008600087815260200190815260200160002060010154612d4291906135c6565b915091509250929050565b612d6481612d5c612d67612d88565b63ffffffff16565b50565b60006a636f6e736f6c652e6c6f679050600080835160208501845afa505050565b612ee3819050919050565b604051806103000160405280601890602082028036833780820191505090505090565b828054828255906000526020600020908101928215612e2f579160200282015b82811115612e2e5782518260006101000a81548173ffffffffffffffffffffffffffffffffffffffff021916908373ffffffffffffffffffffffffffffffffffffffff16021790555091602001919060010190612dd6565b5b509050612e3c9190612eed565b5090565b604051806103200160405280601990602082028036833780820191505090505090565b8260188101928215612e92579160200282015b82811115612e91578251825591602001919060010190612e76565b5b509050612e9f9190612eed565b5090565b8260198101928215612ed2579160200282015b82811115612ed1578251825591602001919060010190612eb6565b5b509050612edf9190612eed565b5090565b612eeb61393c565b565b5b80821115612f06576000816000905550600101612eee565b5090565b6000819050919050565b612f1d81612f0a565b82525050565b6000602082019050612f386000830184612f14565b92915050565b600080fd5b612f4c81612f0a565b8114612f5757600080fd5b50565b600081359050612f6981612f43565b92915050565b600060208284031215612f8557612f84612f3e565b5b6000612f9384828501612f5a565b91505092915050565b600081519050919050565b600082825260208201905092915050565b6000819050602082019050919050565b600073ffffffffffffffffffffffffffffffffffffffff82169050919050565b6000612ff382612fc8565b9050919050565b61300381612fe8565b82525050565b60006130158383612ffa565b60208301905092915050565b6000602082019050919050565b600061303982612f9c565b6130438185612fa7565b935061304e83612fb8565b8060005b8381101561307f5781516130668882613009565b975061307183613021565b925050600181019050613052565b5085935050505092915050565b600060208201905081810360008301526130a6818461302e565b905092915050565b6130b781612fe8565b81146130c257600080fd5b50565b6000813590506130d4816130ae565b92915050565b600080604083850312156130f1576130f0612f3e565b5b60006130ff85828601612f5a565b9250506020613110858286016130c5565b9150509250929050565b60008115159050919050565b61312f8161311a565b82525050565b600060408201905061314a6000830185613126565b6131576020830184612f14565b9392505050565b600060189050919050565b600081905092915050565b6000819050919050565b61318781612f0a565b82525050565b6000613199838361317e565b60208301905092915050565b6000602082019050919050565b6131bb8161315e565b6131c58184613169565b92506131d082613174565b8060005b838110156132015781516131e8878261318d565b96506131f3836131a5565b9250506001810190506131d4565b505050505050565b60006103208201905061321f6000830185613126565b61322c60208301846131b2565b9392505050565b61323c8161311a565b811461324757600080fd5b50565b60008135905061325981613233565b92915050565b60006020828403121561327557613274612f3e565b5b60006132838482850161324a565b91505092915050565b6000806000606084860312156132a5576132a4612f3e565b5b60006132b3868287016130c5565b93505060206132c486828701612f5a565b92505060406132d5868287016130c5565b9150509250925092565b6132e881612fe8565b82525050565b600060208201905061330360008301846132df565b92915050565b600060808201905061331e6000830187613126565b61332b6020830186613126565b6133386040830185612f14565b6133456060830184612f14565b95945050505050565b60006020820190506133636000830184613126565b92915050565b600080604083850312156133805761337f612f3e565b5b600061338e858286016130c5565b925050602061339f85828601612f5a565b9150509250929050565b600060199050919050565b600081905092915050565b6000819050919050565b6000602082019050919050565b6133df816133a9565b6133e981846133b4565b92506133f4826133bf565b8060005b8381101561342557815161340c878261318d565b9650613417836133c9565b9250506001810190506133f8565b505050505050565b60006103208201905061344360008301846133d6565b92915050565b7f4e487b7100000000000000000000000000000000000000000000000000000000600052603260045260246000fd5b600060408201905061348d60008301856132df565b61349a6020830184612f14565b9392505050565b6000815190506134b081613233565b92915050565b6000602082840312156134cc576134cb612f3e565b5b60006134da848285016134a1565b91505092915050565b60006060820190506134f860008301866132df565b61350560208301856132df565b6135126040830184612f14565b949350505050565b600082825260208201905092915050565b7f5472616e73666572206661696c65640000000000000000000000000000000000600082015250565b6000613561600f8361351a565b915061356c8261352b565b602082019050919050565b6000602082019050818103600083015261359081613554565b9050919050565b7f4e487b7100000000000000000000000000000000000000000000000000000000600052601160045260246000fd5b60006135d182612f0a565b91506135dc83612f0a565b92508282019050808211156135f4576135f3613597565b5b92915050565b600061360582612f0a565b915061361083612f0a565b925082820390508181111561362857613627613597565b5b92915050565b7f4e487b7100000000000000000000000000000000000000000000000000000000600052604160045260246000fd5b7f4e487b7100000000000000000000000000000000000000000000000000000000600052602160045260246000fd5b6000610340820190506136a26000830186612f14565b6136af60208301856131b2565b6136bd610320830184612f14565b949350505050565b60006136d082612f0a565b91506136db83612f0a565b92508282026136e981612f0a565b91508282048414831517613700576136ff613597565b5b5092915050565b7f4e487b7100000000000000000000000000000000000000000000000000000000600052601260045260246000fd5b600061374182612f0a565b915061374c83612f0a565b92508261375c5761375b613707565b5b828204905092915050565b6000819050919050565b61378261377d82612f0a565b613767565b82525050565b60008160601b9050919050565b60006137a082613788565b9050919050565b60006137b282613795565b9050919050565b6137ca6137c582612fe8565b6137a7565b82525050565b60006137dc8285613771565b6020820191506137ec82846137b9565b6014820191508190509392505050565b60006138088286613771565b60208201915061381882856137b9565b6014820191506138288284613771565b602082019150819050949350505050565b600061384482612f0a565b915061384f83612f0a565b92508261385f5761385e613707565b5b828206905092915050565b600081519050919050565b60005b83811015613893578082015181840152602081019050613878565b60008484015250505050565b6000601f19601f8301169050919050565b60006138bb8261386a565b6138c5818561351a565b93506138d5818560208601613875565b6138de8161389f565b840191505092915050565b6000608082019050818103600083015261390381876138b0565b90506139126020830186612f14565b818103604083015261392481856138b0565b905061393360608301846132df565b95945050505050565b7f4e487b7100000000000000000000000000000000000000000000000000000000600052605160045260246000fdfea26469706673582212209aa399dc48a456a2cb4a1b0898d56044653c8fbc15f06ef70739ad99b2b143b764736f6c634300081b0033","opcodes":"PUSH1 0x80 PUSH1 0x40 MSTORE PUSH1 0xB4 PUSH1 0x2 SSTORE PUSH1 0xB4 PUSH1 0x3 SSTORE PUSH8 0xDE0B6B3A7640000 PUSH1 0x5 SSTORE PUSH1 0x4 PUSH1 0x7 SSTORE CALLVALUE DUP1 ISZERO PUSH2 0x2B JUMPI PUSH1 0x0 DUP1 REVERT JUMPDEST POP PUSH1 0x40 MLOAD PUSH2 0x3B15 CODESIZE SUB DUP1 PUSH2 0x3B15 DUP4 CODECOPY DUP2 DUP2 ADD PUSH1 0x40 MSTORE DUP2 ADD SWAP1 PUSH2 0x4D SWAP2 SWAP1 PUSH2 0x138 JUMP JUMPDEST DUP1 PUSH1 0x4 PUSH1 0x0 PUSH2 0x100 EXP DUP2 SLOAD DUP2 PUSH20 0xFFFFFFFFFFFFFFFFFFFFFFFFFFFFFFFFFFFFFFFF MUL NOT AND SWAP1 DUP4 PUSH20 0xFFFFFFFFFFFFFFFFFFFFFFFFFFFFFFFFFFFFFFFF AND MUL OR SWAP1 SSTORE POP CALLER PUSH1 0x1 PUSH1 0x0 PUSH2 0x100 EXP DUP2 SLOAD DUP2 PUSH20 0xFFFFFFFFFFFFFFFFFFFFFFFFFFFFFFFFFFFFFFFF MUL NOT AND SWAP1 DUP4 PUSH20 0xFFFFFFFFFFFFFFFFFFFFFFFFFFFFFFFFFFFFFFFF AND MUL OR SWAP1 SSTORE POP POP PUSH2 0x165 JUMP JUMPDEST PUSH1 0x0 DUP1 REVERT JUMPDEST PUSH1 0x0 PUSH20 0xFFFFFFFFFFFFFFFFFFFFFFFFFFFFFFFFFFFFFFFF DUP3 AND SWAP1 POP SWAP2 SWAP1 POP JUMP JUMPDEST PUSH1 0x0 PUSH2 0x105 DUP3 PUSH2 0xDA JUMP JUMPDEST SWAP1 POP SWAP2 SWAP1 POP JUMP JUMPDEST PUSH2 0x115 DUP2 PUSH2 0xFA JUMP JUMPDEST DUP2 EQ PUSH2 0x120 JUMPI PUSH1 0x0 DUP1 REVERT JUMPDEST POP JUMP JUMPDEST PUSH1 0x0 DUP2 MLOAD SWAP1 POP PUSH2 0x132 DUP2 PUSH2 0x10C JUMP JUMPDEST SWAP3 SWAP2 POP POP JUMP JUMPDEST PUSH1 0x0 PUSH1 0x20 DUP3 DUP5 SUB SLT ISZERO PUSH2 0x14E JUMPI PUSH2 0x14D PUSH2 0xD5 JUMP JUMPDEST JUMPDEST PUSH1 0x0 PUSH2 0x15C DUP5 DUP3 DUP6 ADD PUSH2 0x123 JUMP JUMPDEST SWAP2 POP POP SWAP3 SWAP2 POP POP JUMP JUMPDEST PUSH2 0x39A1 DUP1 PUSH2 0x174 PUSH1 0x0 CODECOPY PUSH1 0x0 RETURN INVALID PUSH1 0x80 PUSH1 0x40 MSTORE CALLVALUE DUP1 ISZERO PUSH2 0x10 JUMPI PUSH1 0x0 DUP1 REVERT JUMPDEST POP PUSH1 0x4 CALLDATASIZE LT PUSH2 0x14D JUMPI PUSH1 0x0 CALLDATALOAD PUSH1 0xE0 SHR DUP1 PUSH4 0x59FE8C84 GT PUSH2 0xC3 JUMPI DUP1 PUSH4 0x8B8A908F GT PUSH2 0x7C JUMPI DUP1 PUSH4 0x8B8A908F EQ PUSH2 0x37F JUMPI DUP1 PUSH4 0x95F5D1FD EQ PUSH2 0x39B JUMPI DUP1 PUSH4 0xD013B2F8 EQ PUSH2 0x3CB JUMPI DUP1 PUSH4 0xD7098154 EQ PUSH2 0x3E7 JUMPI DUP1 PUSH4 0xED7D8900 EQ PUSH2 0x403 JUMPI DUP1 PUSH4 0xF851A440 EQ PUSH2 0x41F JUMPI PUSH2 0x14D JUMP JUMPDEST DUP1 PUSH4 0x59FE8C84 EQ PUSH2 0x2E5 JUMPI DUP1 PUSH4 0x60B2A56A EQ PUSH2 0x303 JUMPI DUP1 PUSH4 0x62E838EF EQ PUSH2 0x31F JUMPI DUP1 PUSH4 0x6A3FF625 EQ PUSH2 0x33D JUMPI DUP1 PUSH4 0x736E2AA5 EQ PUSH2 0x359 JUMPI DUP1 PUSH4 0x7A12D9CB EQ PUSH2 0x363 JUMPI PUSH2 0x14D JUMP JUMPDEST DUP1 PUSH4 0x2EA2E8F8 GT PUSH2 0x115 JUMPI DUP1 PUSH4 0x2EA2E8F8 EQ PUSH2 0x220 JUMPI DUP1 PUSH4 0x38A6A9BA EQ PUSH2 0x23E JUMPI DUP1 PUSH4 0x3CCDBB28 EQ PUSH2 0x25A JUMPI DUP1 PUSH4 0x4C2412A2 EQ PUSH2 0x276 JUMPI DUP1 PUSH4 0x4FBD239B EQ PUSH2 0x294 JUMPI DUP1 PUSH4 0x53D0579E EQ PUSH2 0x2B2 JUMPI PUSH2 0x14D JUMP JUMPDEST DUP1 PUSH4 0x5066917 EQ PUSH2 0x152 JUMPI DUP1 PUSH4 0x7D8C565 EQ PUSH2 0x170 JUMPI DUP1 PUSH4 0x172BF854 EQ PUSH2 0x1A0 JUMPI DUP1 PUSH4 0x227B0354 EQ PUSH2 0x1BE JUMPI DUP1 PUSH4 0x2D7A4DB3 EQ PUSH2 0x1EF JUMPI JUMPDEST PUSH1 0x0 DUP1 REVERT JUMPDEST PUSH2 0x15A PUSH2 0x43D JUMP JUMPDEST PUSH1 0x40 MLOAD PUSH2 0x167 SWAP2 SWAP1 PUSH2 0x2F23 JUMP JUMPDEST PUSH1 0x40 MLOAD DUP1 SWAP2 SUB SWAP1 RETURN JUMPDEST PUSH2 0x18A PUSH1 0x4 DUP1 CALLDATASIZE SUB DUP2 ADD SWAP1 PUSH2 0x185 SWAP2 SWAP1 PUSH2 0x2F6F JUMP JUMPDEST PUSH2 0x443 JUMP JUMPDEST PUSH1 0x40 MLOAD PUSH2 0x197 SWAP2 SWAP1 PUSH2 0x308C JUMP JUMPDEST PUSH1 0x40 MLOAD DUP1 SWAP2 SUB SWAP1 RETURN JUMPDEST PUSH2 0x1A8 PUSH2 0x4E7 JUMP JUMPDEST PUSH1 0x40 MLOAD PUSH2 0x1B5 SWAP2 SWAP1 PUSH2 0x2F23 JUMP JUMPDEST PUSH1 0x40 MLOAD DUP1 SWAP2 SUB SWAP1 RETURN JUMPDEST PUSH2 0x1D8 PUSH1 0x4 DUP1 CALLDATASIZE SUB DUP2 ADD SWAP1 PUSH2 0x1D3 SWAP2 SWAP1 PUSH2 0x30DA JUMP JUMPDEST PUSH2 0x4ED JUMP JUMPDEST PUSH1 0x40 MLOAD PUSH2 0x1E6 SWAP3 SWAP2 SWAP1 PUSH2 0x3135 JUMP JUMPDEST PUSH1 0x40 MLOAD DUP1 SWAP2 SUB SWAP1 RETURN JUMPDEST PUSH2 0x209 PUSH1 0x4 DUP1 CALLDATASIZE SUB DUP2 ADD SWAP1 PUSH2 0x204 SWAP2 SWAP1 PUSH2 0x2F6F JUMP JUMPDEST PUSH2 0x632 JUMP JUMPDEST PUSH1 0x40 MLOAD PUSH2 0x217 SWAP3 SWAP2 SWAP1 PUSH2 0x3209 JUMP JUMPDEST PUSH1 0x40 MLOAD DUP1 SWAP2 SUB SWAP1 RETURN JUMPDEST PUSH2 0x228 PUSH2 0x6B4 JUMP JUMPDEST PUSH1 0x40 MLOAD PUSH2 0x235 SWAP2 SWAP1 PUSH2 0x2F23 JUMP JUMPDEST PUSH1 0x40 MLOAD DUP1 SWAP2 SUB SWAP1 RETURN JUMPDEST PUSH2 0x258 PUSH1 0x4 DUP1 CALLDATASIZE SUB DUP2 ADD SWAP1 PUSH2 0x253 SWAP2 SWAP1 PUSH2 0x325F JUMP JUMPDEST PUSH2 0x6BA JUMP JUMPDEST STOP JUMPDEST PUSH2 0x274 PUSH1 0x4 DUP1 CALLDATASIZE SUB DUP2 ADD SWAP1 PUSH2 0x26F SWAP2 SWAP1 PUSH2 0x328C JUMP JUMPDEST PUSH2 0x75E JUMP JUMPDEST STOP JUMPDEST PUSH2 0x27E PUSH2 0x92E JUMP JUMPDEST PUSH1 0x40 MLOAD PUSH2 0x28B SWAP2 SWAP1 PUSH2 0x2F23 JUMP JUMPDEST PUSH1 0x40 MLOAD DUP1 SWAP2 SUB SWAP1 RETURN JUMPDEST PUSH2 0x29C PUSH2 0x934 JUMP JUMPDEST PUSH1 0x40 MLOAD PUSH2 0x2A9 SWAP2 SWAP1 PUSH2 0x32EE JUMP JUMPDEST PUSH1 0x40 MLOAD DUP1 SWAP2 SUB SWAP1 RETURN JUMPDEST PUSH2 0x2CC PUSH1 0x4 DUP1 CALLDATASIZE SUB DUP2 ADD SWAP1 PUSH2 0x2C7 SWAP2 SWAP1 PUSH2 0x2F6F JUMP JUMPDEST PUSH2 0x95A JUMP JUMPDEST PUSH1 0x40 MLOAD PUSH2 0x2DC SWAP5 SWAP4 SWAP3 SWAP2 SWAP1 PUSH2 0x3309 JUMP JUMPDEST PUSH1 0x40 MLOAD DUP1 SWAP2 SUB SWAP1 RETURN JUMPDEST PUSH2 0x2ED PUSH2 0x9A4 JUMP JUMPDEST PUSH1 0x40 MLOAD PUSH2 0x2FA SWAP2 SWAP1 PUSH2 0x2F23 JUMP JUMPDEST PUSH1 0x40 MLOAD DUP1 SWAP2 SUB SWAP1 RETURN JUMPDEST PUSH2 0x31D PUSH1 0x4 DUP1 CALLDATASIZE SUB DUP2 ADD SWAP1 PUSH2 0x318 SWAP2 SWAP1 PUSH2 0x2F6F JUMP JUMPDEST PUSH2 0x9AA JUMP JUMPDEST STOP JUMPDEST PUSH2 0x327 PUSH2 0x1248 JUMP JUMPDEST PUSH1 0x40 MLOAD PUSH2 0x334 SWAP2 SWAP1 PUSH2 0x334E JUMP JUMPDEST PUSH1 0x40 MLOAD DUP1 SWAP2 SUB SWAP1 RETURN JUMPDEST PUSH2 0x357 PUSH1 0x4 DUP1 CALLDATASIZE SUB DUP2 ADD SWAP1 PUSH2 0x352 SWAP2 SWAP1 PUSH2 0x2F6F JUMP JUMPDEST PUSH2 0x125B JUMP JUMPDEST STOP JUMPDEST PUSH2 0x361 PUSH2 0x12EC JUMP JUMPDEST STOP JUMPDEST PUSH2 0x37D PUSH1 0x4 DUP1 CALLDATASIZE SUB DUP2 ADD SWAP1 PUSH2 0x378 SWAP2 SWAP1 PUSH2 0x2F6F JUMP JUMPDEST PUSH2 0x1459 JUMP JUMPDEST STOP JUMPDEST PUSH2 0x399 PUSH1 0x4 DUP1 CALLDATASIZE SUB DUP2 ADD SWAP1 PUSH2 0x394 SWAP2 SWAP1 PUSH2 0x2F6F JUMP JUMPDEST PUSH2 0x14EA JUMP JUMPDEST STOP JUMPDEST PUSH2 0x3B5 PUSH1 0x4 DUP1 CALLDATASIZE SUB DUP2 ADD SWAP1 PUSH2 0x3B0 SWAP2 SWAP1 PUSH2 0x3369 JUMP JUMPDEST PUSH2 0x16E5 JUMP JUMPDEST PUSH1 0x40 MLOAD PUSH2 0x3C2 SWAP2 SWAP1 PUSH2 0x342D JUMP JUMPDEST PUSH1 0x40 MLOAD DUP1 SWAP2 SUB SWAP1 RETURN JUMPDEST PUSH2 0x3E5 PUSH1 0x4 DUP1 CALLDATASIZE SUB DUP2 ADD SWAP1 PUSH2 0x3E0 SWAP2 SWAP1 PUSH2 0x2F6F JUMP JUMPDEST PUSH2 0x1787 JUMP JUMPDEST STOP JUMPDEST PUSH2 0x401 PUSH1 0x4 DUP1 CALLDATASIZE SUB DUP2 ADD SWAP1 PUSH2 0x3FC SWAP2 SWAP1 PUSH2 0x2F6F JUMP JUMPDEST PUSH2 0x1818 JUMP JUMPDEST STOP JUMPDEST PUSH2 0x41D PUSH1 0x4 DUP1 CALLDATASIZE SUB DUP2 ADD SWAP1 PUSH2 0x418 SWAP2 SWAP1 PUSH2 0x2F6F JUMP JUMPDEST PUSH2 0x1CF1 JUMP JUMPDEST STOP JUMPDEST PUSH2 0x427 PUSH2 0x1D82 JUMP JUMPDEST PUSH1 0x40 MLOAD PUSH2 0x434 SWAP2 SWAP1 PUSH2 0x32EE JUMP JUMPDEST PUSH1 0x40 MLOAD DUP1 SWAP2 SUB SWAP1 RETURN JUMPDEST PUSH1 0x3 SLOAD DUP2 JUMP JUMPDEST PUSH1 0x60 PUSH1 0x8 PUSH1 0x0 DUP4 DUP2 MSTORE PUSH1 0x20 ADD SWAP1 DUP2 MSTORE PUSH1 0x20 ADD PUSH1 0x0 KECCAK256 PUSH1 0x4 ADD DUP1 SLOAD DUP1 PUSH1 0x20 MUL PUSH1 0x20 ADD PUSH1 0x40 MLOAD SWAP1 DUP2 ADD PUSH1 0x40 MSTORE DUP1 SWAP3 SWAP2 SWAP1 DUP2 DUP2 MSTORE PUSH1 0x20 ADD DUP3 DUP1 SLOAD DUP1 ISZERO PUSH2 0x4DB JUMPI PUSH1 0x20 MUL DUP3 ADD SWAP2 SWAP1 PUSH1 0x0 MSTORE PUSH1 0x20 PUSH1 0x0 KECCAK256 SWAP1 JUMPDEST DUP2 PUSH1 0x0 SWAP1 SLOAD SWAP1 PUSH2 0x100 EXP SWAP1 DIV PUSH20 0xFFFFFFFFFFFFFFFFFFFFFFFFFFFFFFFFFFFFFFFF AND PUSH20 0xFFFFFFFFFFFFFFFFFFFFFFFFFFFFFFFFFFFFFFFF AND DUP2 MSTORE PUSH1 0x20 ADD SWAP1 PUSH1 0x1 ADD SWAP1 DUP1 DUP4 GT PUSH2 0x491 JUMPI JUMPDEST POP POP POP POP POP SWAP1 POP SWAP2 SWAP1 POP JUMP JUMPDEST PUSH1 0x2 SLOAD DUP2 JUMP JUMPDEST PUSH1 0x0 DUP1 PUSH1 0x0 PUSH1 0x8 PUSH1 0x0 DUP7 DUP2 MSTORE PUSH1 0x20 ADD SWAP1 DUP2 MSTORE PUSH1 0x20 ADD PUSH1 0x0 KECCAK256 PUSH1 0x3 ADD DUP1 SLOAD DUP1 PUSH1 0x20 MUL PUSH1 0x20 ADD PUSH1 0x40 MLOAD SWAP1 DUP2 ADD PUSH1 0x40 MSTORE DUP1 SWAP3 SWAP2 SWAP1 DUP2 DUP2 MSTORE PUSH1 0x20 ADD DUP3 DUP1 SLOAD DUP1 ISZERO PUSH2 0x588 JUMPI PUSH1 0x20 MUL DUP3 ADD SWAP2 SWAP1 PUSH1 0x0 MSTORE PUSH1 0x20 PUSH1 0x0 KECCAK256 SWAP1 JUMPDEST DUP2 PUSH1 0x0 SWAP1 SLOAD SWAP1 PUSH2 0x100 EXP SWAP1 DIV PUSH20 0xFFFFFFFFFFFFFFFFFFFFFFFFFFFFFFFFFFFFFFFF AND PUSH20 0xFFFFFFFFFFFFFFFFFFFFFFFFFFFFFFFFFFFFFFFF AND DUP2 MSTORE PUSH1 0x20 ADD SWAP1 PUSH1 0x1 ADD SWAP1 DUP1 DUP4 GT PUSH2 0x53E JUMPI JUMPDEST POP POP POP POP POP SWAP1 POP PUSH1 0x0 DUP1 DUP3 MLOAD GT ISZERO PUSH2 0x621 JUMPI JUMPDEST DUP5 PUSH20 0xFFFFFFFFFFFFFFFFFFFFFFFFFFFFFFFFFFFFFFFF AND DUP3 DUP3 DUP2 MLOAD DUP2 LT PUSH2 0x5C5 JUMPI PUSH2 0x5C4 PUSH2 0x3449 JUMP JUMPDEST JUMPDEST PUSH1 0x20 MUL PUSH1 0x20 ADD ADD MLOAD PUSH20 0xFFFFFFFFFFFFFFFFFFFFFFFFFFFFFFFFFFFFFFFF AND SUB PUSH2 0x605 JUMPI PUSH1 0x0 PUSH2 0x5F4 DUP8 DUP8 PUSH2 0x1DA8 JUMP JUMPDEST SWAP1 POP PUSH1 0x1 DUP2 SWAP5 POP SWAP5 POP POP POP POP PUSH2 0x62B JUMP JUMPDEST DUP1 PUSH1 0x1 ADD SWAP1 POP DUP2 MLOAD DUP2 LT PUSH2 0x59B JUMPI PUSH1 0x0 DUP1 SWAP4 POP SWAP4 POP POP POP PUSH2 0x62B JUMP JUMPDEST PUSH1 0x0 DUP1 SWAP4 POP SWAP4 POP POP POP JUMPDEST SWAP3 POP SWAP3 SWAP1 POP JUMP JUMPDEST PUSH1 0x0 PUSH2 0x63C PUSH2 0x2D93 JUMP JUMPDEST PUSH1 0x0 PUSH1 0x8 PUSH1 0x0 DUP6 DUP2 MSTORE PUSH1 0x20 ADD SWAP1 DUP2 MSTORE PUSH1 0x20 ADD PUSH1 0x0 KECCAK256 PUSH1 0x2 ADD SLOAD GT PUSH1 0x8 PUSH1 0x0 DUP6 DUP2 MSTORE PUSH1 0x20 ADD SWAP1 DUP2 MSTORE PUSH1 0x20 ADD PUSH1 0x0 KECCAK256 PUSH1 0x5 ADD DUP1 PUSH1 0x18 DUP1 PUSH1 0x20 MUL PUSH1 0x40 MLOAD SWAP1 DUP2 ADD PUSH1 0x40 MSTORE DUP1 SWAP3 SWAP2 SWAP1 DUP3 PUSH1 0x18 DUP1 ISZERO PUSH2 0x6A4 JUMPI PUSH1 0x20 MUL DUP3 ADD SWAP2 JUMPDEST DUP2 SLOAD DUP2 MSTORE PUSH1 0x20 ADD SWAP1 PUSH1 0x1 ADD SWAP1 DUP1 DUP4 GT PUSH2 0x690 JUMPI JUMPDEST POP POP POP POP POP SWAP1 POP SWAP2 POP SWAP2 POP SWAP2 POP SWAP2 JUMP JUMPDEST PUSH1 0x0 SLOAD DUP2 JUMP JUMPDEST PUSH1 0x1 PUSH1 0x0 SWAP1 SLOAD SWAP1 PUSH2 0x100 EXP SWAP1 DIV PUSH20 0xFFFFFFFFFFFFFFFFFFFFFFFFFFFFFFFFFFFFFFFF AND PUSH20 0xFFFFFFFFFFFFFFFFFFFFFFFFFFFFFFFFFFFFFFFF AND CALLER PUSH20 0xFFFFFFFFFFFFFFFFFFFFFFFFFFFFFFFFFFFFFFFF AND EQ PUSH2 0x741 JUMPI PUSH1 0x40 MLOAD PUSH32 0xB5C42B3B00000000000000000000000000000000000000000000000000000000 DUP2 MSTORE PUSH1 0x4 ADD PUSH1 0x40 MLOAD DUP1 SWAP2 SUB SWAP1 REVERT JUMPDEST DUP1 PUSH1 0x6 PUSH1 0x0 PUSH2 0x100 EXP DUP2 SLOAD DUP2 PUSH1 0xFF MUL NOT AND SWAP1 DUP4 ISZERO ISZERO MUL OR SWAP1 SSTORE POP POP JUMP JUMPDEST PUSH1 0x1 PUSH1 0x0 SWAP1 SLOAD SWAP1 PUSH2 0x100 EXP SWAP1 DIV PUSH20 0xFFFFFFFFFFFFFFFFFFFFFFFFFFFFFFFFFFFFFFFF AND PUSH20 0xFFFFFFFFFFFFFFFFFFFFFFFFFFFFFFFFFFFFFFFF AND CALLER PUSH20 0xFFFFFFFFFFFFFFFFFFFFFFFFFFFFFFFFFFFFFFFF AND EQ PUSH2 0x7E5 JUMPI PUSH1 0x40 MLOAD PUSH32 0xB5C42B3B00000000000000000000000000000000000000000000000000000000 DUP2 MSTORE PUSH1 0x4 ADD PUSH1 0x40 MLOAD DUP1 SWAP2 SUB SWAP1 REVERT JUMPDEST DUP3 PUSH20 0xFFFFFFFFFFFFFFFFFFFFFFFFFFFFFFFFFFFFFFFF AND PUSH4 0x95EA7B3 ADDRESS DUP5 PUSH1 0x40 MLOAD DUP4 PUSH4 0xFFFFFFFF AND PUSH1 0xE0 SHL DUP2 MSTORE PUSH1 0x4 ADD PUSH2 0x820 SWAP3 SWAP2 SWAP1 PUSH2 0x3478 JUMP JUMPDEST PUSH1 0x20 PUSH1 0x40 MLOAD DUP1 DUP4 SUB DUP2 PUSH1 0x0 DUP8 GAS CALL ISZERO DUP1 ISZERO PUSH2 0x83F JUMPI RETURNDATASIZE PUSH1 0x0 DUP1 RETURNDATACOPY RETURNDATASIZE PUSH1 0x0 REVERT JUMPDEST POP POP POP POP PUSH1 0x40 MLOAD RETURNDATASIZE PUSH1 0x1F NOT PUSH1 0x1F DUP3 ADD AND DUP3 ADD DUP1 PUSH1 0x40 MSTORE POP DUP2 ADD SWAP1 PUSH2 0x863 SWAP2 SWAP1 PUSH2 0x34B6 JUMP JUMPDEST POP PUSH1 0x0 DUP4 PUSH20 0xFFFFFFFFFFFFFFFFFFFFFFFFFFFFFFFFFFFFFFFF AND PUSH4 0x23B872DD ADDRESS DUP5 DUP7 PUSH1 0x40 MLOAD DUP5 PUSH4 0xFFFFFFFF AND PUSH1 0xE0 SHL DUP2 MSTORE PUSH1 0x4 ADD PUSH2 0x8A3 SWAP4 SWAP3 SWAP2 SWAP1 PUSH2 0x34E3 JUMP JUMPDEST PUSH1 0x20 PUSH1 0x40 MLOAD DUP1 DUP4 SUB DUP2 PUSH1 0x0 DUP8 GAS CALL ISZERO DUP1 ISZERO PUSH2 0x8C2 JUMPI RETURNDATASIZE PUSH1 0x0 DUP1 RETURNDATACOPY RETURNDATASIZE PUSH1 0x0 REVERT JUMPDEST POP POP POP POP PUSH1 0x40 MLOAD RETURNDATASIZE PUSH1 0x1F NOT PUSH1 0x1F DUP3 ADD AND DUP3 ADD DUP1 PUSH1 0x40 MSTORE POP DUP2 ADD SWAP1 PUSH2 0x8E6 SWAP2 SWAP1 PUSH2 0x34B6 JUMP JUMPDEST SWAP1 POP DUP1 PUSH2 0x928 JUMPI PUSH1 0x40 MLOAD PUSH32 0x8C379A000000000000000000000000000000000000000000000000000000000 DUP2 MSTORE PUSH1 0x4 ADD PUSH2 0x91F SWAP1 PUSH2 0x3577 JUMP JUMPDEST PUSH1 0x40 MLOAD DUP1 SWAP2 SUB SWAP1 REVERT JUMPDEST POP POP POP POP JUMP JUMPDEST PUSH1 0x7 SLOAD DUP2 JUMP JUMPDEST PUSH1 0x4 PUSH1 0x0 SWAP1 SLOAD SWAP1 PUSH2 0x100 EXP SWAP1 DIV PUSH20 0xFFFFFFFFFFFFFFFFFFFFFFFFFFFFFFFFFFFFFFFF AND DUP2 JUMP JUMPDEST PUSH1 0x8 PUSH1 0x20 MSTORE DUP1 PUSH1 0x0 MSTORE PUSH1 0x40 PUSH1 0x0 KECCAK256 PUSH1 0x0 SWAP2 POP SWAP1 POP DUP1 PUSH1 0x0 ADD PUSH1 0x0 SWAP1 SLOAD SWAP1 PUSH2 0x100 EXP SWAP1 DIV PUSH1 0xFF AND SWAP1 DUP1 PUSH1 0x0 ADD PUSH1 0x1 SWAP1 SLOAD SWAP1 PUSH2 0x100 EXP SWAP1 DIV PUSH1 0xFF AND SWAP1 DUP1 PUSH1 0x1 ADD SLOAD SWAP1 DUP1 PUSH1 0x2 ADD SLOAD SWAP1 POP DUP5 JUMP JUMPDEST PUSH1 0x5 SLOAD DUP2 JUMP JUMPDEST DUP1 PUSH1 0x3 SLOAD PUSH1 0x2 SLOAD PUSH1 0x8 PUSH1 0x0 DUP5 DUP2 MSTORE PUSH1 0x20 ADD SWAP1 DUP2 MSTORE PUSH1 0x20 ADD PUSH1 0x0 KECCAK256 PUSH1 0x1 ADD SLOAD PUSH2 0x9D2 SWAP2 SWAP1 PUSH2 0x35C6 JUMP JUMPDEST PUSH2 0x9DC SWAP2 SWAP1 PUSH2 0x35C6 JUMP JUMPDEST TIMESTAMP LT ISZERO PUSH2 0xA15 JUMPI PUSH1 0x40 MLOAD PUSH32 0x596DCCC400000000000000000000000000000000000000000000000000000000 DUP2 MSTORE PUSH1 0x4 ADD PUSH1 0x40 MLOAD DUP1 SWAP2 SUB SWAP1 REVERT JUMPDEST PUSH1 0x8 PUSH1 0x0 DUP3 DUP2 MSTORE PUSH1 0x20 ADD SWAP1 DUP2 MSTORE PUSH1 0x20 ADD PUSH1 0x0 KECCAK256 PUSH1 0x0 ADD PUSH1 0x0 SWAP1 SLOAD SWAP1 PUSH2 0x100 EXP SWAP1 DIV PUSH1 0xFF AND ISZERO PUSH2 0xA70 JUMPI PUSH1 0x40 MLOAD PUSH32 0x589A12E900000000000000000000000000000000000000000000000000000000 DUP2 MSTORE PUSH1 0x4 ADD PUSH1 0x40 MLOAD DUP1 SWAP2 SUB SWAP1 REVERT JUMPDEST PUSH1 0x1 PUSH1 0x8 PUSH1 0x0 DUP4 DUP2 MSTORE PUSH1 0x20 ADD SWAP1 DUP2 MSTORE PUSH1 0x20 ADD PUSH1 0x0 KECCAK256 PUSH1 0x0 ADD PUSH1 0x0 PUSH2 0x100 EXP DUP2 SLOAD DUP2 PUSH1 0xFF MUL NOT AND SWAP1 DUP4 ISZERO ISZERO MUL OR SWAP1 SSTORE POP PUSH1 0x1 ISZERO ISZERO PUSH1 0x8 PUSH1 0x0 DUP5 DUP2 MSTORE PUSH1 0x20 ADD SWAP1 DUP2 MSTORE PUSH1 0x20 ADD PUSH1 0x0 KECCAK256 PUSH1 0x0 ADD PUSH1 0x1 SWAP1 SLOAD SWAP1 PUSH2 0x100 EXP SWAP1 DIV PUSH1 0xFF AND ISZERO ISZERO SUB PUSH2 0xB00 JUMPI PUSH1 0x40 MLOAD PUSH32 0x9162EE7D00000000000000000000000000000000000000000000000000000000 DUP2 MSTORE PUSH1 0x4 ADD PUSH1 0x40 MLOAD DUP1 SWAP2 SUB SWAP1 REVERT JUMPDEST PUSH1 0x0 PUSH1 0x8 PUSH1 0x0 DUP5 DUP2 MSTORE PUSH1 0x20 ADD SWAP1 DUP2 MSTORE PUSH1 0x20 ADD PUSH1 0x0 KECCAK256 PUSH1 0x4 ADD DUP1 SLOAD DUP1 PUSH1 0x20 MUL PUSH1 0x20 ADD PUSH1 0x40 MLOAD SWAP1 DUP2 ADD PUSH1 0x40 MSTORE DUP1 SWAP3 SWAP2 SWAP1 DUP2 DUP2 MSTORE PUSH1 0x20 ADD DUP3 DUP1 SLOAD DUP1 ISZERO PUSH2 0xB98 JUMPI PUSH1 0x20 MUL DUP3 ADD SWAP2 SWAP1 PUSH1 0x0 MSTORE PUSH1 0x20 PUSH1 0x0 KECCAK256 SWAP1 JUMPDEST DUP2 PUSH1 0x0 SWAP1 SLOAD SWAP1 PUSH2 0x100 EXP SWAP1 DIV PUSH20 0xFFFFFFFFFFFFFFFFFFFFFFFFFFFFFFFFFFFFFFFF AND PUSH20 0xFFFFFFFFFFFFFFFFFFFFFFFFFFFFFFFFFFFFFFFF AND DUP2 MSTORE PUSH1 0x20 ADD SWAP1 PUSH1 0x1 ADD SWAP1 DUP1 DUP4 GT PUSH2 0xB4E JUMPI JUMPDEST POP POP POP POP POP SWAP1 POP PUSH2 0xBA7 PUSH2 0x2D93 JUMP JUMPDEST PUSH1 0x1 DUP3 MLOAD GT ISZERO PUSH2 0x1191 JUMPI PUSH1 0x0 PUSH1 0x18 SWAP1 POP PUSH2 0xBC0 DUP6 PUSH2 0x1EF9 JUMP JUMPDEST SWAP2 POP PUSH1 0x0 DUP1 PUSH1 0x0 JUMPDEST PUSH1 0x0 SWAP2 POP JUMPDEST PUSH1 0x0 SWAP1 POP PUSH1 0x0 PUSH2 0xBF7 DUP8 DUP6 DUP2 MLOAD DUP2 LT PUSH2 0xBE9 JUMPI PUSH2 0xBE8 PUSH2 0x3449 JUMP JUMPDEST JUMPDEST PUSH1 0x20 MUL PUSH1 0x20 ADD ADD MLOAD DUP11 PUSH2 0x16E5 JUMP JUMPDEST SWAP1 POP JUMPDEST DUP1 DUP3 PUSH1 0x19 DUP2 LT PUSH2 0xC0D JUMPI PUSH2 0xC0C PUSH2 0x3449 JUMP JUMPDEST JUMPDEST PUSH1 0x20 MUL ADD MLOAD DUP7 DUP5 PUSH1 0x18 DUP2 LT PUSH2 0xC25 JUMPI PUSH2 0xC24 PUSH2 0x3449 JUMP JUMPDEST JUMPDEST PUSH1 0x20 MUL ADD MLOAD SUB PUSH2 0xCB7 JUMPI PUSH1 0x1 PUSH1 0x8 PUSH1 0x0 DUP12 DUP2 MSTORE PUSH1 0x20 ADD SWAP1 DUP2 MSTORE PUSH1 0x20 ADD PUSH1 0x0 KECCAK256 PUSH1 0x1D ADD PUSH1 0x0 DUP10 DUP8 DUP2 MLOAD DUP2 LT PUSH2 0xC5C JUMPI PUSH2 0xC5B PUSH2 0x3449 JUMP JUMPDEST JUMPDEST PUSH1 0x20 MUL PUSH1 0x20 ADD ADD MLOAD PUSH20 0xFFFFFFFFFFFFFFFFFFFFFFFFFFFFFFFFFFFFFFFF AND PUSH20 0xFFFFFFFFFFFFFFFFFFFFFFFFFFFFFFFFFFFFFFFF AND DUP2 MSTORE PUSH1 0x20 ADD SWAP1 DUP2 MSTORE PUSH1 0x20 ADD PUSH1 0x0 KECCAK256 PUSH1 0x1A ADD PUSH1 0x0 DUP5 DUP2 MSTORE PUSH1 0x20 ADD SWAP1 DUP2 MSTORE PUSH1 0x20 ADD PUSH1 0x0 KECCAK256 DUP2 SWAP1 SSTORE POP JUMPDEST PUSH1 0xB DUP3 SUB PUSH2 0xCC6 JUMPI DUP2 PUSH1 0x1 ADD SWAP2 POP JUMPDEST DUP2 PUSH1 0x1 ADD SWAP2 POP PUSH1 0x4 DUP3 GT ISZERO PUSH2 0xF64 JUMPI PUSH2 0xCF9 DUP10 DUP9 DUP7 DUP2 MLOAD DUP2 LT PUSH2 0xCEC JUMPI PUSH2 0xCEB PUSH2 0x3449 JUMP JUMPDEST JUMPDEST PUSH1 0x20 MUL PUSH1 0x20 ADD ADD MLOAD PUSH2 0x2014 JUMP JUMPDEST ISZERO PUSH2 0xF63 JUMPI PUSH1 0x1 DUP6 PUSH2 0xD0B SWAP2 SWAP1 PUSH2 0x35FA JUMP JUMPDEST DUP4 SUB PUSH2 0xDA7 JUMPI PUSH1 0x8 PUSH1 0x0 DUP11 DUP2 MSTORE PUSH1 0x20 ADD SWAP1 DUP2 MSTORE PUSH1 0x20 ADD PUSH1 0x0 KECCAK256 PUSH1 0x3 ADD DUP8 DUP6 DUP2 MLOAD DUP2 LT PUSH2 0xD3A JUMPI PUSH2 0xD39 PUSH2 0x3449 JUMP JUMPDEST JUMPDEST PUSH1 0x20 MUL PUSH1 0x20 ADD ADD MLOAD SWAP1 DUP1 PUSH1 0x1 DUP2 SLOAD ADD DUP1 DUP3 SSTORE DUP1 SWAP2 POP POP PUSH1 0x1 SWAP1 SUB SWAP1 PUSH1 0x0 MSTORE PUSH1 0x20 PUSH1 0x0 KECCAK256 ADD PUSH1 0x0 SWAP1 SWAP2 SWAP1 SWAP2 SWAP1 SWAP2 PUSH2 0x100 EXP DUP2 SLOAD DUP2 PUSH20 0xFFFFFFFFFFFFFFFFFFFFFFFFFFFFFFFFFFFFFFFF MUL NOT AND SWAP1 DUP4 PUSH20 0xFFFFFFFFFFFFFFFFFFFFFFFFFFFFFFFFFFFFFFFF AND MUL OR SWAP1 SSTORE POP PUSH2 0xEAD JUMP JUMPDEST PUSH1 0x0 PUSH8 0xFFFFFFFFFFFFFFFF DUP2 GT ISZERO PUSH2 0xDC2 JUMPI PUSH2 0xDC1 PUSH2 0x362E JUMP JUMPDEST JUMPDEST PUSH1 0x40 MLOAD SWAP1 DUP1 DUP3 MSTORE DUP1 PUSH1 0x20 MUL PUSH1 0x20 ADD DUP3 ADD PUSH1 0x40 MSTORE DUP1 ISZERO PUSH2 0xDF0 JUMPI DUP2 PUSH1 0x20 ADD PUSH1 0x20 DUP3 MUL DUP1 CALLDATASIZE DUP4 CALLDATACOPY DUP1 DUP3 ADD SWAP2 POP POP SWAP1 POP JUMPDEST POP PUSH1 0x8 PUSH1 0x0 DUP12 DUP2 MSTORE PUSH1 0x20 ADD SWAP1 DUP2 MSTORE PUSH1 0x20 ADD PUSH1 0x0 KECCAK256 PUSH1 0x3 ADD SWAP1 DUP1 MLOAD SWAP1 PUSH1 0x20 ADD SWAP1 PUSH2 0xE1A SWAP3 SWAP2 SWAP1 PUSH2 0x2DB6 JUMP JUMPDEST POP PUSH1 0x8 PUSH1 0x0 DUP11 DUP2 MSTORE PUSH1 0x20 ADD SWAP1 DUP2 MSTORE PUSH1 0x20 ADD PUSH1 0x0 KECCAK256 PUSH1 0x3 ADD DUP8 DUP6 DUP2 MLOAD DUP2 LT PUSH2 0xE44 JUMPI PUSH2 0xE43 PUSH2 0x3449 JUMP JUMPDEST JUMPDEST PUSH1 0x20 MUL PUSH1 0x20 ADD ADD MLOAD SWAP1 DUP1 PUSH1 0x1 DUP2 SLOAD ADD DUP1 DUP3 SSTORE DUP1 SWAP2 POP POP PUSH1 0x1 SWAP1 SUB SWAP1 PUSH1 0x0 MSTORE PUSH1 0x20 PUSH1 0x0 KECCAK256 ADD PUSH1 0x0 SWAP1 SWAP2 SWAP1 SWAP2 SWAP1 SWAP2 PUSH2 0x100 EXP DUP2 SLOAD DUP2 PUSH20 0xFFFFFFFFFFFFFFFFFFFFFFFFFFFFFFFFFFFFFFFF MUL NOT AND SWAP1 DUP4 PUSH20 0xFFFFFFFFFFFFFFFFFFFFFFFFFFFFFFFFFFFFFFFF AND MUL OR SWAP1 SSTORE POP JUMPDEST PUSH1 0x1 DUP4 ADD SWAP5 POP DUP3 PUSH1 0x8 PUSH1 0x0 DUP12 DUP2 MSTORE PUSH1 0x20 ADD SWAP1 DUP2 MSTORE PUSH1 0x20 ADD PUSH1 0x0 KECCAK256 PUSH1 0x2 ADD DUP2 SWAP1 SSTORE POP PUSH2 0xF5E PUSH1 0x40 MLOAD DUP1 PUSH1 0x40 ADD PUSH1 0x40 MSTORE DUP1 PUSH1 0x14 DUP2 MSTORE PUSH1 0x20 ADD PUSH32 0x46697273742042696E676F20696E20726F756E64000000000000000000000000 DUP2 MSTORE POP DUP5 PUSH1 0x40 MLOAD DUP1 PUSH1 0x40 ADD PUSH1 0x40 MSTORE DUP1 PUSH1 0x12 DUP2 MSTORE PUSH1 0x20 ADD PUSH32 0x666F7220706C6179657220616464726573730000000000000000000000000000 DUP2 MSTORE POP DUP11 DUP9 DUP2 MLOAD DUP2 LT PUSH2 0xF51 JUMPI PUSH2 0xF50 PUSH2 0x3449 JUMP JUMPDEST JUMPDEST PUSH1 0x20 MUL PUSH1 0x20 ADD ADD MLOAD PUSH2 0x290E JUMP JUMPDEST PUSH2 0xF6D JUMP JUMPDEST JUMPDEST PUSH1 0x19 DUP3 LT PUSH2 0xBFA JUMPI JUMPDEST DUP3 PUSH1 0x1 ADD SWAP3 POP POP DUP4 DUP3 LT PUSH2 0xBCD JUMPI DUP3 PUSH1 0x1 ADD SWAP3 POP DUP6 MLOAD DUP4 LT PUSH2 0xBC8 JUMPI PUSH1 0x0 SWAP3 POP JUMPDEST PUSH1 0x0 DUP1 PUSH2 0xFB5 DUP11 DUP10 DUP8 DUP2 MLOAD DUP2 LT PUSH2 0xFA8 JUMPI PUSH2 0xFA7 PUSH2 0x3449 JUMP JUMPDEST JUMPDEST PUSH1 0x20 MUL PUSH1 0x20 ADD ADD MLOAD PUSH2 0x4ED JUMP JUMPDEST SWAP2 POP SWAP2 POP DUP2 ISZERO PUSH2 0x117C JUMPI PUSH1 0x4 PUSH1 0x0 SWAP1 SLOAD SWAP1 PUSH2 0x100 EXP SWAP1 DIV PUSH20 0xFFFFFFFFFFFFFFFFFFFFFFFFFFFFFFFFFFFFFFFF AND PUSH20 0xFFFFFFFFFFFFFFFFFFFFFFFFFFFFFFFFFFFFFFFF AND PUSH4 0xA9059CBB DUP10 DUP8 DUP2 MLOAD DUP2 LT PUSH2 0x1010 JUMPI PUSH2 0x100F PUSH2 0x3449 JUMP JUMPDEST JUMPDEST PUSH1 0x20 MUL PUSH1 0x20 ADD ADD MLOAD DUP4 PUSH1 0x40 MLOAD DUP4 PUSH4 0xFFFFFFFF AND PUSH1 0xE0 SHL DUP2 MSTORE PUSH1 0x4 ADD PUSH2 0x1036 SWAP3 SWAP2 SWAP1 PUSH2 0x3478 JUMP JUMPDEST PUSH1 0x20 PUSH1 0x40 MLOAD DUP1 DUP4 SUB DUP2 PUSH1 0x0 DUP8 GAS CALL ISZERO DUP1 ISZERO PUSH2 0x1055 JUMPI RETURNDATASIZE PUSH1 0x0 DUP1 RETURNDATACOPY RETURNDATASIZE PUSH1 0x0 REVERT JUMPDEST POP POP POP POP PUSH1 0x40 MLOAD RETURNDATASIZE PUSH1 0x1F NOT PUSH1 0x1F DUP3 ADD AND DUP3 ADD DUP1 PUSH1 0x40 MSTORE POP DUP2 ADD SWAP1 PUSH2 0x1079 SWAP2 SWAP1 PUSH2 0x34B6 JUMP JUMPDEST POP PUSH1 0x2 PUSH1 0x8 PUSH1 0x0 DUP13 DUP2 MSTORE PUSH1 0x20 ADD SWAP1 DUP2 MSTORE PUSH1 0x20 ADD PUSH1 0x0 KECCAK256 PUSH1 0x1D ADD PUSH1 0x0 DUP11 DUP9 DUP2 MLOAD DUP2 LT PUSH2 0x10A7 JUMPI PUSH2 0x10A6 PUSH2 0x3449 JUMP JUMPDEST JUMPDEST PUSH1 0x20 MUL PUSH1 0x20 ADD ADD MLOAD PUSH20 0xFFFFFFFFFFFFFFFFFFFFFFFFFFFFFFFFFFFFFFFF AND PUSH20 0xFFFFFFFFFFFFFFFFFFFFFFFFFFFFFFFFFFFFFFFF AND DUP2 MSTORE PUSH1 0x20 ADD SWAP1 DUP2 MSTORE PUSH1 0x20 ADD PUSH1 0x0 KECCAK256 PUSH1 0x0 ADD PUSH1 0x0 PUSH2 0x100 EXP DUP2 SLOAD DUP2 PUSH1 0xFF MUL NOT AND SWAP1 DUP4 PUSH1 0x2 DUP2 GT ISZERO PUSH2 0x110E JUMPI PUSH2 0x110D PUSH2 0x365D JUMP JUMPDEST JUMPDEST MUL OR SWAP1 SSTORE POP DUP8 DUP6 DUP2 MLOAD DUP2 LT PUSH2 0x1126 JUMPI PUSH2 0x1125 PUSH2 0x3449 JUMP JUMPDEST JUMPDEST PUSH1 0x20 MUL PUSH1 0x20 ADD ADD MLOAD PUSH20 0xFFFFFFFFFFFFFFFFFFFFFFFFFFFFFFFFFFFFFFFF AND PUSH32 0x95681E512BC0FE659E195E06C283EADA494316F3D801213E48E7101AF92BF770 DUP3 PUSH1 0x40 MLOAD PUSH2 0x1173 SWAP2 SWAP1 PUSH2 0x2F23 JUMP JUMPDEST PUSH1 0x40 MLOAD DUP1 SWAP2 SUB SWAP1 LOG2 JUMPDEST DUP5 PUSH1 0x1 ADD SWAP5 POP POP POP DUP6 MLOAD DUP4 LT PUSH2 0xF8E JUMPI POP POP POP POP JUMPDEST PUSH1 0x1 PUSH1 0x8 PUSH1 0x0 DUP7 DUP2 MSTORE PUSH1 0x20 ADD SWAP1 DUP2 MSTORE PUSH1 0x20 ADD PUSH1 0x0 KECCAK256 PUSH1 0x0 ADD PUSH1 0x1 PUSH2 0x100 EXP DUP2 SLOAD DUP2 PUSH1 0xFF MUL NOT AND SWAP1 DUP4 ISZERO ISZERO MUL OR SWAP1 SSTORE POP DUP4 PUSH32 0x98A17E99E8596B16B3F270787DE6E7BA987CA828FB02AF439604B812FB3F700D DUP4 MLOAD DUP4 PUSH1 0x8 PUSH1 0x0 DUP10 DUP2 MSTORE PUSH1 0x20 ADD SWAP1 DUP2 MSTORE PUSH1 0x20 ADD PUSH1 0x0 KECCAK256 PUSH1 0x2 ADD SLOAD PUSH1 0x40 MLOAD PUSH2 0x120B SWAP4 SWAP3 SWAP2 SWAP1 PUSH2 0x368C JUMP JUMPDEST PUSH1 0x40 MLOAD DUP1 SWAP2 SUB SWAP1 LOG2 POP POP PUSH1 0x0 PUSH1 0x8 PUSH1 0x0 DUP4 DUP2 MSTORE PUSH1 0x20 ADD SWAP1 DUP2 MSTORE PUSH1 0x20 ADD PUSH1 0x0 KECCAK256 PUSH1 0x0 ADD PUSH1 0x0 PUSH2 0x100 EXP DUP2 SLOAD DUP2 PUSH1 0xFF MUL NOT AND SWAP1 DUP4 ISZERO ISZERO MUL OR SWAP1 SSTORE POP POP POP JUMP JUMPDEST PUSH1 0x6 PUSH1 0x0 SWAP1 SLOAD SWAP1 PUSH2 0x100 EXP SWAP1 DIV PUSH1 0xFF AND DUP2 JUMP JUMPDEST PUSH1 0x1 PUSH1 0x0 SWAP1 SLOAD SWAP1 PUSH2 0x100 EXP SWAP1 DIV PUSH20 0xFFFFFFFFFFFFFFFFFFFFFFFFFFFFFFFFFFFFFFFF AND PUSH20 0xFFFFFFFFFFFFFFFFFFFFFFFFFFFFFFFFFFFFFFFF AND CALLER PUSH20 0xFFFFFFFFFFFFFFFFFFFFFFFFFFFFFFFFFFFFFFFF AND EQ PUSH2 0x12E2 JUMPI PUSH1 0x40 MLOAD PUSH32 0xB5C42B3B00000000000000000000000000000000000000000000000000000000 DUP2 MSTORE PUSH1 0x4 ADD PUSH1 0x40 MLOAD DUP1 SWAP2 SUB SWAP1 REVERT JUMPDEST DUP1 PUSH1 0x7 DUP2 SWAP1 SSTORE POP POP JUMP JUMPDEST PUSH1 0x1 ISZERO ISZERO PUSH1 0x4 PUSH1 0x0 SWAP1 SLOAD SWAP1 PUSH2 0x100 EXP SWAP1 DIV PUSH20 0xFFFFFFFFFFFFFFFFFFFFFFFFFFFFFFFFFFFFFFFF AND PUSH20 0xFFFFFFFFFFFFFFFFFFFFFFFFFFFFFFFFFFFFFFFF AND PUSH4 0x23B872DD CALLER ADDRESS PUSH1 0x5 SLOAD PUSH1 0x40 MLOAD DUP5 PUSH4 0xFFFFFFFF AND PUSH1 0xE0 SHL DUP2 MSTORE PUSH1 0x4 ADD PUSH2 0x1351 SWAP4 SWAP3 SWAP2 SWAP1 PUSH2 0x34E3 JUMP JUMPDEST PUSH1 0x20 PUSH1 0x40 MLOAD DUP1 DUP4 SUB DUP2 PUSH1 0x0 DUP8 GAS CALL ISZERO DUP1 ISZERO PUSH2 0x1370 JUMPI RETURNDATASIZE PUSH1 0x0 DUP1 RETURNDATACOPY RETURNDATASIZE PUSH1 0x0 REVERT JUMPDEST POP POP POP POP PUSH1 0x40 MLOAD RETURNDATASIZE PUSH1 0x1F NOT PUSH1 0x1F DUP3 ADD AND DUP3 ADD DUP1 PUSH1 0x40 MSTORE POP DUP2 ADD SWAP1 PUSH2 0x1394 SWAP2 SWAP1 PUSH2 0x34B6 JUMP JUMPDEST ISZERO ISZERO EQ PUSH2 0x13CD JUMPI PUSH1 0x40 MLOAD PUSH32 0x2FF987E700000000000000000000000000000000000000000000000000000000 DUP2 MSTORE PUSH1 0x4 ADD PUSH1 0x40 MLOAD DUP1 SWAP2 SUB SWAP1 REVERT JUMPDEST PUSH1 0x0 DUP1 DUP2 SLOAD PUSH1 0x1 ADD SWAP2 SWAP1 POP DUP2 SWAP1 SSTORE POP PUSH1 0x0 DUP1 SLOAD SWAP1 POP TIMESTAMP PUSH1 0x8 PUSH1 0x0 DUP4 DUP2 MSTORE PUSH1 0x20 ADD SWAP1 DUP2 MSTORE PUSH1 0x20 ADD PUSH1 0x0 KECCAK256 PUSH1 0x1 ADD DUP2 SWAP1 SSTORE POP PUSH2 0x1407 CALLER DUP3 PUSH2 0x29B0 JUMP JUMPDEST DUP1 CALLER PUSH20 0xFFFFFFFFFFFFFFFFFFFFFFFFFFFFFFFFFFFFFFFF AND PUSH32 0x27BD49AA3BAF4AA9D565998BD41F40D6FF8CB737A8B4935D9EAD830220FB73BC TIMESTAMP PUSH1 0x40 MLOAD PUSH2 0x144E SWAP2 SWAP1 PUSH2 0x2F23 JUMP JUMPDEST PUSH1 0x40 MLOAD DUP1 SWAP2 SUB SWAP1 LOG3 POP JUMP JUMPDEST PUSH1 0x1 PUSH1 0x0 SWAP1 SLOAD SWAP1 PUSH2 0x100 EXP SWAP1 DIV PUSH20 0xFFFFFFFFFFFFFFFFFFFFFFFFFFFFFFFFFFFFFFFF AND PUSH20 0xFFFFFFFFFFFFFFFFFFFFFFFFFFFFFFFFFFFFFFFF AND CALLER PUSH20 0xFFFFFFFFFFFFFFFFFFFFFFFFFFFFFFFFFFFFFFFF AND EQ PUSH2 0x14E0 JUMPI PUSH1 0x40 MLOAD PUSH32 0xB5C42B3B00000000000000000000000000000000000000000000000000000000 DUP2 MSTORE PUSH1 0x4 ADD PUSH1 0x40 MLOAD DUP1 SWAP2 SUB SWAP1 REVERT JUMPDEST DUP1 PUSH1 0x5 DUP2 SWAP1 SSTORE POP POP JUMP JUMPDEST PUSH1 0x7 SLOAD PUSH1 0x1 PUSH1 0x8 PUSH1 0x0 DUP5 DUP2 MSTORE PUSH1 0x20 ADD SWAP1 DUP2 MSTORE PUSH1 0x20 ADD PUSH1 0x0 KECCAK256 PUSH1 0x4 ADD DUP1 SLOAD SWAP1 POP PUSH2 0x1513 SWAP2 SWAP1 PUSH2 0x35C6 JUMP JUMPDEST GT ISZERO PUSH2 0x154B JUMPI PUSH1 0x40 MLOAD PUSH32 0x9AA0271F00000000000000000000000000000000000000000000000000000000 DUP2 MSTORE PUSH1 0x4 ADD PUSH1 0x40 MLOAD DUP1 SWAP2 SUB SWAP1 REVERT JUMPDEST PUSH1 0x0 DUP1 PUSH2 0x1558 DUP4 CALLER PUSH2 0x2CB7 JUMP JUMPDEST SWAP2 POP SWAP2 POP PUSH1 0x0 PUSH1 0x2 DUP2 GT ISZERO PUSH2 0x1570 JUMPI PUSH2 0x156F PUSH2 0x365D JUMP JUMPDEST JUMPDEST DUP3 PUSH1 0x2 DUP2 GT ISZERO PUSH2 0x1583 JUMPI PUSH2 0x1582 PUSH2 0x365D JUMP JUMPDEST JUMPDEST EQ PUSH2 0x15BA JUMPI PUSH1 0x40 MLOAD PUSH32 0x70B48EA500000000000000000000000000000000000000000000000000000000 DUP2 MSTORE PUSH1 0x4 ADD PUSH1 0x40 MLOAD DUP1 SWAP2 SUB SWAP1 REVERT JUMPDEST DUP1 TIMESTAMP GT ISZERO PUSH2 0x15F4 JUMPI PUSH1 0x40 MLOAD PUSH32 0x496F3B7600000000000000000000000000000000000000000000000000000000 DUP2 MSTORE PUSH1 0x4 ADD PUSH1 0x40 MLOAD DUP1 SWAP2 SUB SWAP1 REVERT JUMPDEST PUSH1 0x1 ISZERO ISZERO PUSH1 0x4 PUSH1 0x0 SWAP1 SLOAD SWAP1 PUSH2 0x100 EXP SWAP1 DIV PUSH20 0xFFFFFFFFFFFFFFFFFFFFFFFFFFFFFFFFFFFFFFFF AND PUSH20 0xFFFFFFFFFFFFFFFFFFFFFFFFFFFFFFFFFFFFFFFF AND PUSH4 0x23B872DD CALLER ADDRESS PUSH1 0x5 SLOAD PUSH1 0x40 MLOAD DUP5 PUSH4 0xFFFFFFFF AND PUSH1 0xE0 SHL DUP2 MSTORE PUSH1 0x4 ADD PUSH2 0x1659 SWAP4 SWAP3 SWAP2 SWAP1 PUSH2 0x34E3 JUMP JUMPDEST PUSH1 0x20 PUSH1 0x40 MLOAD DUP1 DUP4 SUB DUP2 PUSH1 0x0 DUP8 GAS CALL ISZERO DUP1 ISZERO PUSH2 0x1678 JUMPI RETURNDATASIZE PUSH1 0x0 DUP1 RETURNDATACOPY RETURNDATASIZE PUSH1 0x0 REVERT JUMPDEST POP POP POP POP PUSH1 0x40 MLOAD RETURNDATASIZE PUSH1 0x1F NOT PUSH1 0x1F DUP3 ADD AND DUP3 ADD DUP1 PUSH1 0x40 MSTORE POP DUP2 ADD SWAP1 PUSH2 0x169C SWAP2 SWAP1 PUSH2 0x34B6 JUMP JUMPDEST ISZERO ISZERO EQ PUSH2 0x16D5 JUMPI PUSH1 0x40 MLOAD PUSH32 0x2FF987E700000000000000000000000000000000000000000000000000000000 DUP2 MSTORE PUSH1 0x4 ADD PUSH1 0x40 MLOAD DUP1 SWAP2 SUB SWAP1 REVERT JUMPDEST PUSH2 0x16DF CALLER DUP5 PUSH2 0x16E5 JUMP JUMPDEST POP POP POP POP JUMP JUMPDEST PUSH2 0x16ED PUSH2 0x2E40 JUMP JUMPDEST PUSH1 0x8 PUSH1 0x0 DUP4 DUP2 MSTORE PUSH1 0x20 ADD SWAP1 DUP2 MSTORE PUSH1 0x20 ADD PUSH1 0x0 KECCAK256 PUSH1 0x1D ADD PUSH1 0x0 DUP5 PUSH20 0xFFFFFFFFFFFFFFFFFFFFFFFFFFFFFFFFFFFFFFFF AND PUSH20 0xFFFFFFFFFFFFFFFFFFFFFFFFFFFFFFFFFFFFFFFF AND DUP2 MSTORE PUSH1 0x20 ADD SWAP1 DUP2 MSTORE PUSH1 0x20 ADD PUSH1 0x0 KECCAK256 PUSH1 0x1 ADD PUSH1 0x19 DUP1 PUSH1 0x20 MUL PUSH1 0x40 MLOAD SWAP1 DUP2 ADD PUSH1 0x40 MSTORE DUP1 SWAP3 SWAP2 SWAP1 DUP3 PUSH1 0x19 DUP1 ISZERO PUSH2 0x177A JUMPI PUSH1 0x20 MUL DUP3 ADD SWAP2 JUMPDEST DUP2 SLOAD DUP2 MSTORE PUSH1 0x20 ADD SWAP1 PUSH1 0x1 ADD SWAP1 DUP1 DUP4 GT PUSH2 0x1766 JUMPI JUMPDEST POP POP POP POP POP SWAP1 POP SWAP3 SWAP2 POP POP JUMP JUMPDEST PUSH1 0x1 PUSH1 0x0 SWAP1 SLOAD SWAP1 PUSH2 0x100 EXP SWAP1 DIV PUSH20 0xFFFFFFFFFFFFFFFFFFFFFFFFFFFFFFFFFFFFFFFF AND PUSH20 0xFFFFFFFFFFFFFFFFFFFFFFFFFFFFFFFFFFFFFFFF AND CALLER PUSH20 0xFFFFFFFFFFFFFFFFFFFFFFFFFFFFFFFFFFFFFFFF AND EQ PUSH2 0x180E JUMPI PUSH1 0x40 MLOAD PUSH32 0xB5C42B3B00000000000000000000000000000000000000000000000000000000 DUP2 MSTORE PUSH1 0x4 ADD PUSH1 0x40 MLOAD DUP1 SWAP2 SUB SWAP1 REVERT JUMPDEST DUP1 PUSH1 0x2 DUP2 SWAP1 SSTORE POP POP JUMP JUMPDEST DUP1 PUSH1 0x3 SLOAD PUSH1 0x2 SLOAD PUSH1 0x8 PUSH1 0x0 DUP5 DUP2 MSTORE PUSH1 0x20 ADD SWAP1 DUP2 MSTORE PUSH1 0x20 ADD PUSH1 0x0 KECCAK256 PUSH1 0x1 ADD SLOAD PUSH2 0x1840 SWAP2 SWAP1 PUSH2 0x35C6 JUMP JUMPDEST PUSH2 0x184A SWAP2 SWAP1 PUSH2 0x35C6 JUMP JUMPDEST TIMESTAMP LT ISZERO PUSH2 0x1883 JUMPI PUSH1 0x40 MLOAD PUSH32 0x596DCCC400000000000000000000000000000000000000000000000000000000 DUP2 MSTORE PUSH1 0x4 ADD PUSH1 0x40 MLOAD DUP1 SWAP2 SUB SWAP1 REVERT JUMPDEST PUSH1 0x8 PUSH1 0x0 DUP3 DUP2 MSTORE PUSH1 0x20 ADD SWAP1 DUP2 MSTORE PUSH1 0x20 ADD PUSH1 0x0 KECCAK256 PUSH1 0x0 ADD PUSH1 0x0 SWAP1 SLOAD SWAP1 PUSH2 0x100 EXP SWAP1 DIV PUSH1 0xFF AND ISZERO PUSH2 0x18DE JUMPI PUSH1 0x40 MLOAD PUSH32 0x589A12E900000000000000000000000000000000000000000000000000000000 DUP2 MSTORE PUSH1 0x4 ADD PUSH1 0x40 MLOAD DUP1 SWAP2 SUB SWAP1 REVERT JUMPDEST PUSH1 0x1 PUSH1 0x8 PUSH1 0x0 DUP4 DUP2 MSTORE PUSH1 0x20 ADD SWAP1 DUP2 MSTORE PUSH1 0x20 ADD PUSH1 0x0 KECCAK256 PUSH1 0x0 ADD PUSH1 0x0 PUSH2 0x100 EXP DUP2 SLOAD DUP2 PUSH1 0xFF MUL NOT AND SWAP1 DUP4 ISZERO ISZERO MUL OR SWAP1 SSTORE POP PUSH1 0x1 PUSH1 0x2 DUP2 GT ISZERO PUSH2 0x1921 JUMPI PUSH2 0x1920 PUSH2 0x365D JUMP JUMPDEST JUMPDEST PUSH1 0x8 PUSH1 0x0 DUP5 DUP2 MSTORE PUSH1 0x20 ADD SWAP1 DUP2 MSTORE PUSH1 0x20 ADD PUSH1 0x0 KECCAK256 PUSH1 0x1D ADD PUSH1 0x0 CALLER PUSH20 0xFFFFFFFFFFFFFFFFFFFFFFFFFFFFFFFFFFFFFFFF AND PUSH20 0xFFFFFFFFFFFFFFFFFFFFFFFFFFFFFFFFFFFFFFFF AND DUP2 MSTORE PUSH1 0x20 ADD SWAP1 DUP2 MSTORE PUSH1 0x20 ADD PUSH1 0x0 KECCAK256 PUSH1 0x0 ADD PUSH1 0x0 SWAP1 SLOAD SWAP1 PUSH2 0x100 EXP SWAP1 DIV PUSH1 0xFF AND PUSH1 0x2 DUP2 GT ISZERO PUSH2 0x1997 JUMPI PUSH2 0x1996 PUSH2 0x365D JUMP JUMPDEST JUMPDEST EQ PUSH2 0x19CE JUMPI PUSH1 0x40 MLOAD PUSH32 0x6C8AEB7700000000000000000000000000000000000000000000000000000000 DUP2 MSTORE PUSH1 0x4 ADD PUSH1 0x40 MLOAD DUP1 SWAP2 SUB SWAP1 REVERT JUMPDEST PUSH1 0x0 PUSH1 0x5 SLOAD SWAP1 POP PUSH1 0x0 DUP1 ISZERO ISZERO PUSH1 0x8 PUSH1 0x0 DUP7 DUP2 MSTORE PUSH1 0x20 ADD SWAP1 DUP2 MSTORE PUSH1 0x20 ADD PUSH1 0x0 KECCAK256 PUSH1 0x0 ADD PUSH1 0x1 SWAP1 SLOAD SWAP1 PUSH2 0x100 EXP SWAP1 DIV PUSH1 0xFF AND ISZERO ISZERO SUB PUSH2 0x1A37 JUMPI PUSH1 0x40 MLOAD PUSH32 0xFF07FCAE00000000000000000000000000000000000000000000000000000000 DUP2 MSTORE PUSH1 0x4 ADD PUSH1 0x40 MLOAD DUP1 SWAP2 SUB SWAP1 REVERT JUMPDEST PUSH1 0x0 PUSH1 0x8 PUSH1 0x0 DUP7 DUP2 MSTORE PUSH1 0x20 ADD SWAP1 DUP2 MSTORE PUSH1 0x20 ADD PUSH1 0x0 KECCAK256 PUSH1 0x2 ADD SLOAD GT ISZERO PUSH2 0x1B12 JUMPI PUSH2 0x1A60 DUP5 CALLER PUSH2 0x1DA8 JUMP JUMPDEST SWAP1 POP PUSH1 0x0 DUP2 GT ISZERO PUSH2 0x1B0D JUMPI PUSH1 0x4 PUSH1 0x0 SWAP1 SLOAD SWAP1 PUSH2 0x100 EXP SWAP1 DIV PUSH20 0xFFFFFFFFFFFFFFFFFFFFFFFFFFFFFFFFFFFFFFFF AND PUSH20 0xFFFFFFFFFFFFFFFFFFFFFFFFFFFFFFFFFFFFFFFF AND PUSH4 0xA9059CBB CALLER DUP4 PUSH1 0x40 MLOAD DUP4 PUSH4 0xFFFFFFFF AND PUSH1 0xE0 SHL DUP2 MSTORE PUSH1 0x4 ADD PUSH2 0x1AC8 SWAP3 SWAP2 SWAP1 PUSH2 0x3478 JUMP JUMPDEST PUSH1 0x20 PUSH1 0x40 MLOAD DUP1 DUP4 SUB DUP2 PUSH1 0x0 DUP8 GAS CALL ISZERO DUP1 ISZERO PUSH2 0x1AE7 JUMPI RETURNDATASIZE PUSH1 0x0 DUP1 RETURNDATACOPY RETURNDATASIZE PUSH1 0x0 REVERT JUMPDEST POP POP POP POP PUSH1 0x40 MLOAD RETURNDATASIZE PUSH1 0x1F NOT PUSH1 0x1F DUP3 ADD AND DUP3 ADD DUP1 PUSH1 0x40 MSTORE POP DUP2 ADD SWAP1 PUSH2 0x1B0B SWAP2 SWAP1 PUSH2 0x34B6 JUMP JUMPDEST POP JUMPDEST PUSH2 0x1BEF JUMP JUMPDEST PUSH1 0x1 PUSH1 0x8 PUSH1 0x0 DUP7 DUP2 MSTORE PUSH1 0x20 ADD SWAP1 DUP2 MSTORE PUSH1 0x20 ADD PUSH1 0x0 KECCAK256 PUSH1 0x4 ADD DUP1 SLOAD SWAP1 POP GT ISZERO DUP1 PUSH2 0x1B47 JUMPI POP PUSH1 0x6 PUSH1 0x0 SWAP1 SLOAD SWAP1 PUSH2 0x100 EXP SWAP1 DIV PUSH1 0xFF AND JUMPDEST ISZERO PUSH2 0x1BEE JUMPI PUSH1 0x4 PUSH1 0x0 SWAP1 SLOAD SWAP1 PUSH2 0x100 EXP SWAP1 DIV PUSH20 0xFFFFFFFFFFFFFFFFFFFFFFFFFFFFFFFFFFFFFFFF AND PUSH20 0xFFFFFFFFFFFFFFFFFFFFFFFFFFFFFFFFFFFFFFFF AND PUSH4 0xA9059CBB CALLER DUP5 PUSH1 0x40 MLOAD DUP4 PUSH4 0xFFFFFFFF AND PUSH1 0xE0 SHL DUP2 MSTORE PUSH1 0x4 ADD PUSH2 0x1BA9 SWAP3 SWAP2 SWAP1 PUSH2 0x3478 JUMP JUMPDEST PUSH1 0x20 PUSH1 0x40 MLOAD DUP1 DUP4 SUB DUP2 PUSH1 0x0 DUP8 GAS CALL ISZERO DUP1 ISZERO PUSH2 0x1BC8 JUMPI RETURNDATASIZE PUSH1 0x0 DUP1 RETURNDATACOPY RETURNDATASIZE PUSH1 0x0 REVERT JUMPDEST POP POP POP POP PUSH1 0x40 MLOAD RETURNDATASIZE PUSH1 0x1F NOT PUSH1 0x1F DUP3 ADD AND DUP3 ADD DUP1 PUSH1 0x40 MSTORE POP DUP2 ADD SWAP1 PUSH2 0x1BEC SWAP2 SWAP1 PUSH2 0x34B6 JUMP JUMPDEST POP JUMPDEST JUMPDEST PUSH1 0x2 PUSH1 0x8 PUSH1 0x0 DUP7 DUP2 MSTORE PUSH1 0x20 ADD SWAP1 DUP2 MSTORE PUSH1 0x20 ADD PUSH1 0x0 KECCAK256 PUSH1 0x1D ADD PUSH1 0x0 CALLER PUSH20 0xFFFFFFFFFFFFFFFFFFFFFFFFFFFFFFFFFFFFFFFF AND PUSH20 0xFFFFFFFFFFFFFFFFFFFFFFFFFFFFFFFFFFFFFFFF AND DUP2 MSTORE PUSH1 0x20 ADD SWAP1 DUP2 MSTORE PUSH1 0x20 ADD PUSH1 0x0 KECCAK256 PUSH1 0x0 ADD PUSH1 0x0 PUSH2 0x100 EXP DUP2 SLOAD DUP2 PUSH1 0xFF MUL NOT AND SWAP1 DUP4 PUSH1 0x2 DUP2 GT ISZERO PUSH2 0x1C69 JUMPI PUSH2 0x1C68 PUSH2 0x365D JUMP JUMPDEST JUMPDEST MUL OR SWAP1 SSTORE POP CALLER PUSH20 0xFFFFFFFFFFFFFFFFFFFFFFFFFFFFFFFFFFFFFFFF AND PUSH32 0x95681E512BC0FE659E195E06C283EADA494316F3D801213E48E7101AF92BF770 DUP3 PUSH1 0x40 MLOAD PUSH2 0x1CB4 SWAP2 SWAP1 PUSH2 0x2F23 JUMP JUMPDEST PUSH1 0x40 MLOAD DUP1 SWAP2 SUB SWAP1 LOG2 POP POP PUSH1 0x0 PUSH1 0x8 PUSH1 0x0 DUP4 DUP2 MSTORE PUSH1 0x20 ADD SWAP1 DUP2 MSTORE PUSH1 0x20 ADD PUSH1 0x0 KECCAK256 PUSH1 0x0 ADD PUSH1 0x0 PUSH2 0x100 EXP DUP2 SLOAD DUP2 PUSH1 0xFF MUL NOT AND SWAP1 DUP4 ISZERO ISZERO MUL OR SWAP1 SSTORE POP POP POP JUMP JUMPDEST PUSH1 0x1 PUSH1 0x0 SWAP1 SLOAD SWAP1 PUSH2 0x100 EXP SWAP1 DIV PUSH20 0xFFFFFFFFFFFFFFFFFFFFFFFFFFFFFFFFFFFFFFFF AND PUSH20 0xFFFFFFFFFFFFFFFFFFFFFFFFFFFFFFFFFFFFFFFF AND CALLER PUSH20 0xFFFFFFFFFFFFFFFFFFFFFFFFFFFFFFFFFFFFFFFF AND EQ PUSH2 0x1D78 JUMPI PUSH1 0x40 MLOAD PUSH32 0xB5C42B3B00000000000000000000000000000000000000000000000000000000 DUP2 MSTORE PUSH1 0x4 ADD PUSH1 0x40 MLOAD DUP1 SWAP2 SUB SWAP1 REVERT JUMPDEST DUP1 PUSH1 0x3 DUP2 SWAP1 SSTORE POP POP JUMP JUMPDEST PUSH1 0x1 PUSH1 0x0 SWAP1 SLOAD SWAP1 PUSH2 0x100 EXP SWAP1 DIV PUSH20 0xFFFFFFFFFFFFFFFFFFFFFFFFFFFFFFFFFFFFFFFF AND DUP2 JUMP JUMPDEST PUSH1 0x0 DUP1 PUSH1 0x8 PUSH1 0x0 DUP6 DUP2 MSTORE PUSH1 0x20 ADD SWAP1 DUP2 MSTORE PUSH1 0x20 ADD PUSH1 0x0 KECCAK256 PUSH1 0x3 ADD DUP1 SLOAD DUP1 PUSH1 0x20 MUL PUSH1 0x20 ADD PUSH1 0x40 MLOAD SWAP1 DUP2 ADD PUSH1 0x40 MSTORE DUP1 SWAP3 SWAP2 SWAP1 DUP2 DUP2 MSTORE PUSH1 0x20 ADD DUP3 DUP1 SLOAD DUP1 ISZERO PUSH2 0x1E41 JUMPI PUSH1 0x20 MUL DUP3 ADD SWAP2 SWAP1 PUSH1 0x0 MSTORE PUSH1 0x20 PUSH1 0x0 KECCAK256 SWAP1 JUMPDEST DUP2 PUSH1 0x0 SWAP1 SLOAD SWAP1 PUSH2 0x100 EXP SWAP1 DIV PUSH20 0xFFFFFFFFFFFFFFFFFFFFFFFFFFFFFFFFFFFFFFFF AND PUSH20 0xFFFFFFFFFFFFFFFFFFFFFFFFFFFFFFFFFFFFFFFF AND DUP2 MSTORE PUSH1 0x20 ADD SWAP1 PUSH1 0x1 ADD SWAP1 DUP1 DUP4 GT PUSH2 0x1DF7 JUMPI JUMPDEST POP POP POP POP POP SWAP1 POP PUSH1 0x0 DUP1 JUMPDEST DUP5 PUSH20 0xFFFFFFFFFFFFFFFFFFFFFFFFFFFFFFFFFFFFFFFF AND DUP4 DUP4 DUP2 MLOAD DUP2 LT PUSH2 0x1E76 JUMPI PUSH2 0x1E75 PUSH2 0x3449 JUMP JUMPDEST JUMPDEST PUSH1 0x20 MUL PUSH1 0x20 ADD ADD MLOAD PUSH20 0xFFFFFFFFFFFFFFFFFFFFFFFFFFFFFFFFFFFFFFFF AND SUB PUSH2 0x1EA2 JUMPI DUP1 DUP1 PUSH1 0x1 ADD SWAP2 POP POP JUMPDEST DUP2 PUSH1 0x1 ADD SWAP2 POP DUP3 MLOAD DUP3 LT PUSH2 0x1E4C JUMPI DUP3 MLOAD PUSH1 0x8 PUSH1 0x0 DUP9 DUP2 MSTORE PUSH1 0x20 ADD SWAP1 DUP2 MSTORE PUSH1 0x20 ADD PUSH1 0x0 KECCAK256 PUSH1 0x4 ADD DUP1 SLOAD SWAP1 POP PUSH1 0x5 SLOAD PUSH2 0x1ED9 SWAP2 SWAP1 PUSH2 0x36C5 JUMP JUMPDEST DUP3 PUSH2 0x1EE4 SWAP2 SWAP1 PUSH2 0x36C5 JUMP JUMPDEST PUSH2 0x1EEE SWAP2 SWAP1 PUSH2 0x3736 JUMP JUMPDEST SWAP4 POP POP POP POP SWAP3 SWAP2 POP POP JUMP JUMPDEST PUSH2 0x1F01 PUSH2 0x2D93 JUMP JUMPDEST PUSH2 0x1F09 PUSH2 0x2D93 JUMP JUMPDEST PUSH1 0x0 DUP1 PUSH1 0x1 NUMBER PUSH2 0x1F19 SWAP2 SWAP1 PUSH2 0x35FA JUMP JUMPDEST BLOCKHASH SWAP1 POP PUSH1 0x0 DUP2 PUSH1 0x0 SHR SWAP1 POP PUSH1 0x0 DUP2 CALLER PUSH1 0x40 MLOAD PUSH1 0x20 ADD PUSH2 0x1F39 SWAP3 SWAP2 SWAP1 PUSH2 0x37D0 JUMP JUMPDEST PUSH1 0x40 MLOAD PUSH1 0x20 DUP2 DUP4 SUB SUB DUP2 MSTORE SWAP1 PUSH1 0x40 MSTORE DUP1 MLOAD SWAP1 PUSH1 0x20 ADD KECCAK256 PUSH1 0x0 SHR SWAP1 POP JUMPDEST PUSH1 0x0 PUSH1 0x8 DUP3 SWAP1 SHR GT PUSH2 0x1FA1 JUMPI PUSH2 0x100 DUP3 CALLER DUP7 PUSH1 0x40 MLOAD PUSH1 0x20 ADD PUSH2 0x1F79 SWAP4 SWAP3 SWAP2 SWAP1 PUSH2 0x37FC JUMP JUMPDEST PUSH1 0x40 MLOAD PUSH1 0x20 DUP2 DUP4 SUB SUB DUP2 MSTORE SWAP1 PUSH1 0x40 MSTORE DUP1 MLOAD SWAP1 PUSH1 0x20 ADD KECCAK256 PUSH1 0x0 SHR PUSH2 0x1F9C SWAP2 SWAP1 PUSH2 0x3839 JUMP JUMPDEST PUSH2 0x1FB4 JUMP JUMPDEST PUSH2 0x100 PUSH1 0x8 DUP3 SWAP1 SHR PUSH2 0x1FB3 SWAP2 SWAP1 PUSH2 0x3839 JUMP JUMPDEST JUMPDEST SWAP1 POP DUP1 DUP6 DUP6 PUSH1 0x18 DUP2 LT PUSH2 0x1FCA JUMPI PUSH2 0x1FC9 PUSH2 0x3449 JUMP JUMPDEST JUMPDEST PUSH1 0x20 MUL ADD DUP2 DUP2 MSTORE POP POP DUP4 PUSH1 0x1 ADD SWAP4 POP PUSH1 0x18 DUP5 LT PUSH2 0x1F55 JUMPI DUP5 PUSH1 0x8 PUSH1 0x0 DUP10 DUP2 MSTORE PUSH1 0x20 ADD SWAP1 DUP2 MSTORE PUSH1 0x20 ADD PUSH1 0x0 KECCAK256 PUSH1 0x5 ADD SWAP1 PUSH1 0x18 PUSH2 0x2006 SWAP3 SWAP2 SWAP1 PUSH2 0x2E63 JUMP JUMPDEST POP DUP5 SWAP6 POP POP POP POP POP POP SWAP2 SWAP1 POP JUMP JUMPDEST PUSH1 0x0 DUP1 PUSH1 0x1 PUSH1 0x8 PUSH1 0x0 DUP7 DUP2 MSTORE PUSH1 0x20 ADD SWAP1 DUP2 MSTORE PUSH1 0x20 ADD PUSH1 0x0 KECCAK256 PUSH1 0x1D ADD PUSH1 0x0 DUP6 PUSH20 0xFFFFFFFFFFFFFFFFFFFFFFFFFFFFFFFFFFFFFFFF AND PUSH20 0xFFFFFFFFFFFFFFFFFFFFFFFFFFFFFFFFFFFFFFFF AND DUP2 MSTORE PUSH1 0x20 ADD SWAP1 DUP2 MSTORE PUSH1 0x20 ADD PUSH1 0x0 KECCAK256 PUSH1 0x1A ADD PUSH1 0x0 DUP1 DUP2 MSTORE PUSH1 0x20 ADD SWAP1 DUP2 MSTORE PUSH1 0x20 ADD PUSH1 0x0 KECCAK256 SLOAD EQ DUP1 ISZERO PUSH2 0x20F6 JUMPI POP PUSH1 0x1 PUSH1 0x8 PUSH1 0x0 DUP7 DUP2 MSTORE PUSH1 0x20 ADD SWAP1 DUP2 MSTORE PUSH1 0x20 ADD PUSH1 0x0 KECCAK256 PUSH1 0x1D ADD PUSH1 0x0 DUP6 PUSH20 0xFFFFFFFFFFFFFFFFFFFFFFFFFFFFFFFFFFFFFFFF AND PUSH20 0xFFFFFFFFFFFFFFFFFFFFFFFFFFFFFFFFFFFFFFFF AND DUP2 MSTORE PUSH1 0x20 ADD SWAP1 DUP2 MSTORE PUSH1 0x20 ADD PUSH1 0x0 KECCAK256 PUSH1 0x1A ADD PUSH1 0x0 PUSH1 0x6 DUP2 MSTORE PUSH1 0x20 ADD SWAP1 DUP2 MSTORE PUSH1 0x20 ADD PUSH1 0x0 KECCAK256 SLOAD EQ JUMPDEST DUP1 ISZERO PUSH2 0x216A JUMPI POP PUSH1 0x1 PUSH1 0x8 PUSH1 0x0 DUP7 DUP2 MSTORE PUSH1 0x20 ADD SWAP1 DUP2 MSTORE PUSH1 0x20 ADD PUSH1 0x0 KECCAK256 PUSH1 0x1D ADD PUSH1 0x0 DUP6 PUSH20 0xFFFFFFFFFFFFFFFFFFFFFFFFFFFFFFFFFFFFFFFF AND PUSH20 0xFFFFFFFFFFFFFFFFFFFFFFFFFFFFFFFFFFFFFFFF AND DUP2 MSTORE PUSH1 0x20 ADD SWAP1 DUP2 MSTORE PUSH1 0x20 ADD PUSH1 0x0 KECCAK256 PUSH1 0x1A ADD PUSH1 0x0 PUSH1 0x12 DUP2 MSTORE PUSH1 0x20 ADD SWAP1 DUP2 MSTORE PUSH1 0x20 ADD PUSH1 0x0 KECCAK256 SLOAD EQ JUMPDEST DUP1 ISZERO PUSH2 0x21DE JUMPI POP PUSH1 0x1 PUSH1 0x8 PUSH1 0x0 DUP7 DUP2 MSTORE PUSH1 0x20 ADD SWAP1 DUP2 MSTORE PUSH1 0x20 ADD PUSH1 0x0 KECCAK256 PUSH1 0x1D ADD PUSH1 0x0 DUP6 PUSH20 0xFFFFFFFFFFFFFFFFFFFFFFFFFFFFFFFFFFFFFFFF AND PUSH20 0xFFFFFFFFFFFFFFFFFFFFFFFFFFFFFFFFFFFFFFFF AND DUP2 MSTORE PUSH1 0x20 ADD SWAP1 DUP2 MSTORE PUSH1 0x20 ADD PUSH1 0x0 KECCAK256 PUSH1 0x1A ADD PUSH1 0x0 PUSH1 0x18 DUP2 MSTORE PUSH1 0x20 ADD SWAP1 DUP2 MSTORE PUSH1 0x20 ADD PUSH1 0x0 KECCAK256 SLOAD EQ JUMPDEST DUP1 PUSH2 0x23AD JUMPI POP PUSH1 0x1 PUSH1 0x8 PUSH1 0x0 DUP7 DUP2 MSTORE PUSH1 0x20 ADD SWAP1 DUP2 MSTORE PUSH1 0x20 ADD PUSH1 0x0 KECCAK256 PUSH1 0x1D ADD PUSH1 0x0 DUP6 PUSH20 0xFFFFFFFFFFFFFFFFFFFFFFFFFFFFFFFFFFFFFFFF AND PUSH20 0xFFFFFFFFFFFFFFFFFFFFFFFFFFFFFFFFFFFFFFFF AND DUP2 MSTORE PUSH1 0x20 ADD SWAP1 DUP2 MSTORE PUSH1 0x20 ADD PUSH1 0x0 KECCAK256 PUSH1 0x1A ADD PUSH1 0x0 PUSH1 0x4 DUP2 MSTORE PUSH1 0x20 ADD SWAP1 DUP2 MSTORE PUSH1 0x20 ADD PUSH1 0x0 KECCAK256 SLOAD EQ DUP1 ISZERO PUSH2 0x22C4 JUMPI POP PUSH1 0x1 PUSH1 0x8 PUSH1 0x0 DUP7 DUP2 MSTORE PUSH1 0x20 ADD SWAP1 DUP2 MSTORE PUSH1 0x20 ADD PUSH1 0x0 KECCAK256 PUSH1 0x1D ADD PUSH1 0x0 DUP6 PUSH20 0xFFFFFFFFFFFFFFFFFFFFFFFFFFFFFFFFFFFFFFFF AND PUSH20 0xFFFFFFFFFFFFFFFFFFFFFFFFFFFFFFFFFFFFFFFF AND DUP2 MSTORE PUSH1 0x20 ADD SWAP1 DUP2 MSTORE PUSH1 0x20 ADD PUSH1 0x0 KECCAK256 PUSH1 0x1A ADD PUSH1 0x0 PUSH1 0x8 DUP2 MSTORE PUSH1 0x20 ADD SWAP1 DUP2 MSTORE PUSH1 0x20 ADD PUSH1 0x0 KECCAK256 SLOAD EQ JUMPDEST DUP1 ISZERO PUSH2 0x2338 JUMPI POP PUSH1 0x1 PUSH1 0x8 PUSH1 0x0 DUP7 DUP2 MSTORE PUSH1 0x20 ADD SWAP1 DUP2 MSTORE PUSH1 0x20 ADD PUSH1 0x0 KECCAK256 PUSH1 0x1D ADD PUSH1 0x0 DUP6 PUSH20 0xFFFFFFFFFFFFFFFFFFFFFFFFFFFFFFFFFFFFFFFF AND PUSH20 0xFFFFFFFFFFFFFFFFFFFFFFFFFFFFFFFFFFFFFFFF AND DUP2 MSTORE PUSH1 0x20 ADD SWAP1 DUP2 MSTORE PUSH1 0x20 ADD PUSH1 0x0 KECCAK256 PUSH1 0x1A ADD PUSH1 0x0 PUSH1 0x10 DUP2 MSTORE PUSH1 0x20 ADD SWAP1 DUP2 MSTORE PUSH1 0x20 ADD PUSH1 0x0 KECCAK256 SLOAD EQ JUMPDEST DUP1 ISZERO PUSH2 0x23AC JUMPI POP PUSH1 0x1 PUSH1 0x8 PUSH1 0x0 DUP7 DUP2 MSTORE PUSH1 0x20 ADD SWAP1 DUP2 MSTORE PUSH1 0x20 ADD PUSH1 0x0 KECCAK256 PUSH1 0x1D ADD PUSH1 0x0 DUP6 PUSH20 0xFFFFFFFFFFFFFFFFFFFFFFFFFFFFFFFFFFFFFFFF AND PUSH20 0xFFFFFFFFFFFFFFFFFFFFFFFFFFFFFFFFFFFFFFFF AND DUP2 MSTORE PUSH1 0x20 ADD SWAP1 DUP2 MSTORE PUSH1 0x20 ADD PUSH1 0x0 KECCAK256 PUSH1 0x1A ADD PUSH1 0x0 PUSH1 0x14 DUP2 MSTORE PUSH1 0x20 ADD SWAP1 DUP2 MSTORE PUSH1 0x20 ADD PUSH1 0x0 KECCAK256 SLOAD EQ JUMPDEST JUMPDEST ISZERO PUSH2 0x23BC JUMPI PUSH1 0x1 SWAP2 POP POP PUSH2 0x2908 JUMP JUMPDEST JUMPDEST PUSH1 0x1 PUSH1 0x8 PUSH1 0x0 DUP7 DUP2 MSTORE PUSH1 0x20 ADD SWAP1 DUP2 MSTORE PUSH1 0x20 ADD PUSH1 0x0 KECCAK256 PUSH1 0x1D ADD PUSH1 0x0 DUP6 PUSH20 0xFFFFFFFFFFFFFFFFFFFFFFFFFFFFFFFFFFFFFFFF AND PUSH20 0xFFFFFFFFFFFFFFFFFFFFFFFFFFFFFFFFFFFFFFFF AND DUP2 MSTORE PUSH1 0x20 ADD SWAP1 DUP2 MSTORE PUSH1 0x20 ADD PUSH1 0x0 KECCAK256 PUSH1 0x1A ADD PUSH1 0x0 DUP1 PUSH1 0x5 DUP6 PUSH2 0x2425 SWAP2 SWAP1 PUSH2 0x36C5 JUMP JUMPDEST PUSH2 0x242F SWAP2 SWAP1 PUSH2 0x35C6 JUMP JUMPDEST DUP2 MSTORE PUSH1 0x20 ADD SWAP1 DUP2 MSTORE PUSH1 0x20 ADD PUSH1 0x0 KECCAK256 SLOAD EQ DUP1 ISZERO PUSH2 0x24CA JUMPI POP PUSH1 0x1 PUSH1 0x8 PUSH1 0x0 DUP7 DUP2 MSTORE PUSH1 0x20 ADD SWAP1 DUP2 MSTORE PUSH1 0x20 ADD PUSH1 0x0 KECCAK256 PUSH1 0x1D ADD PUSH1 0x0 DUP6 PUSH20 0xFFFFFFFFFFFFFFFFFFFFFFFFFFFFFFFFFFFFFFFF AND PUSH20 0xFFFFFFFFFFFFFFFFFFFFFFFFFFFFFFFFFFFFFFFF AND DUP2 MSTORE PUSH1 0x20 ADD SWAP1 DUP2 MSTORE PUSH1 0x20 ADD PUSH1 0x0 KECCAK256 PUSH1 0x1A ADD PUSH1 0x0 PUSH1 0x1 PUSH1 0x5 DUP6 PUSH2 0x24AF SWAP2 SWAP1 PUSH2 0x36C5 JUMP JUMPDEST PUSH2 0x24B9 SWAP2 SWAP1 PUSH2 0x35C6 JUMP JUMPDEST DUP2 MSTORE PUSH1 0x20 ADD SWAP1 DUP2 MSTORE PUSH1 0x20 ADD PUSH1 0x0 KECCAK256 SLOAD EQ JUMPDEST DUP1 ISZERO PUSH2 0x2555 JUMPI POP PUSH1 0x1 PUSH1 0x8 PUSH1 0x0 DUP7 DUP2 MSTORE PUSH1 0x20 ADD SWAP1 DUP2 MSTORE PUSH1 0x20 ADD PUSH1 0x0 KECCAK256 PUSH1 0x1D ADD PUSH1 0x0 DUP6 PUSH20 0xFFFFFFFFFFFFFFFFFFFFFFFFFFFFFFFFFFFFFFFF AND PUSH20 0xFFFFFFFFFFFFFFFFFFFFFFFFFFFFFFFFFFFFFFFF AND DUP2 MSTORE PUSH1 0x20 ADD SWAP1 DUP2 MSTORE PUSH1 0x20 ADD PUSH1 0x0 KECCAK256 PUSH1 0x1A ADD PUSH1 0x0 PUSH1 0x2 PUSH1 0x5 DUP6 PUSH2 0x253A SWAP2 SWAP1 PUSH2 0x36C5 JUMP JUMPDEST PUSH2 0x2544 SWAP2 SWAP1 PUSH2 0x35C6 JUMP JUMPDEST DUP2 MSTORE PUSH1 0x20 ADD SWAP1 DUP2 MSTORE PUSH1 0x20 ADD PUSH1 0x0 KECCAK256 SLOAD EQ JUMPDEST DUP1 ISZERO PUSH2 0x25E0 JUMPI POP PUSH1 0x1 PUSH1 0x8 PUSH1 0x0 DUP7 DUP2 MSTORE PUSH1 0x20 ADD SWAP1 DUP2 MSTORE PUSH1 0x20 ADD PUSH1 0x0 KECCAK256 PUSH1 0x1D ADD PUSH1 0x0 DUP6 PUSH20 0xFFFFFFFFFFFFFFFFFFFFFFFFFFFFFFFFFFFFFFFF AND PUSH20 0xFFFFFFFFFFFFFFFFFFFFFFFFFFFFFFFFFFFFFFFF AND DUP2 MSTORE PUSH1 0x20 ADD SWAP1 DUP2 MSTORE PUSH1 0x20 ADD PUSH1 0x0 KECCAK256 PUSH1 0x1A ADD PUSH1 0x0 PUSH1 0x3 PUSH1 0x5 DUP6 PUSH2 0x25C5 SWAP2 SWAP1 PUSH2 0x36C5 JUMP JUMPDEST PUSH2 0x25CF SWAP2 SWAP1 PUSH2 0x35C6 JUMP JUMPDEST DUP2 MSTORE PUSH1 0x20 ADD SWAP1 DUP2 MSTORE PUSH1 0x20 ADD PUSH1 0x0 KECCAK256 SLOAD EQ JUMPDEST DUP1 ISZERO PUSH2 0x266B JUMPI POP PUSH1 0x1 PUSH1 0x8 PUSH1 0x0 DUP7 DUP2 MSTORE PUSH1 0x20 ADD SWAP1 DUP2 MSTORE PUSH1 0x20 ADD PUSH1 0x0 KECCAK256 PUSH1 0x1D ADD PUSH1 0x0 DUP6 PUSH20 0xFFFFFFFFFFFFFFFFFFFFFFFFFFFFFFFFFFFFFFFF AND PUSH20 0xFFFFFFFFFFFFFFFFFFFFFFFFFFFFFFFFFFFFFFFF AND DUP2 MSTORE PUSH1 0x20 ADD SWAP1 DUP2 MSTORE PUSH1 0x20 ADD PUSH1 0x0 KECCAK256 PUSH1 0x1A ADD PUSH1 0x0 PUSH1 0x4 PUSH1 0x5 DUP6 PUSH2 0x2650 SWAP2 SWAP1 PUSH2 0x36C5 JUMP JUMPDEST PUSH2 0x265A SWAP2 SWAP1 PUSH2 0x35C6 JUMP JUMPDEST DUP2 MSTORE PUSH1 0x20 ADD SWAP1 DUP2 MSTORE PUSH1 0x20 ADD PUSH1 0x0 KECCAK256 SLOAD EQ JUMPDEST DUP1 PUSH2 0x28E5 JUMPI POP PUSH1 0x1 PUSH1 0x8 PUSH1 0x0 DUP7 DUP2 MSTORE PUSH1 0x20 ADD SWAP1 DUP2 MSTORE PUSH1 0x20 ADD PUSH1 0x0 KECCAK256 PUSH1 0x1D ADD PUSH1 0x0 DUP6 PUSH20 0xFFFFFFFFFFFFFFFFFFFFFFFFFFFFFFFFFFFFFFFF AND PUSH20 0xFFFFFFFFFFFFFFFFFFFFFFFFFFFFFFFFFFFFFFFF AND DUP2 MSTORE PUSH1 0x20 ADD SWAP1 DUP2 MSTORE PUSH1 0x20 ADD PUSH1 0x0 KECCAK256 PUSH1 0x1A ADD PUSH1 0x0 DUP4 PUSH1 0x0 PUSH2 0x26D8 SWAP2 SWAP1 PUSH2 0x35C6 JUMP JUMPDEST DUP2 MSTORE PUSH1 0x20 ADD SWAP1 DUP2 MSTORE PUSH1 0x20 ADD PUSH1 0x0 KECCAK256 SLOAD EQ DUP1 ISZERO PUSH2 0x2767 JUMPI POP PUSH1 0x1 PUSH1 0x8 PUSH1 0x0 DUP7 DUP2 MSTORE PUSH1 0x20 ADD SWAP1 DUP2 MSTORE PUSH1 0x20 ADD PUSH1 0x0 KECCAK256 PUSH1 0x1D ADD PUSH1 0x0 DUP6 PUSH20 0xFFFFFFFFFFFFFFFFFFFFFFFFFFFFFFFFFFFFFFFF AND PUSH20 0xFFFFFFFFFFFFFFFFFFFFFFFFFFFFFFFFFFFFFFFF AND DUP2 MSTORE PUSH1 0x20 ADD SWAP1 DUP2 MSTORE PUSH1 0x20 ADD PUSH1 0x0 KECCAK256 PUSH1 0x1A ADD PUSH1 0x0 DUP4 PUSH1 0x5 PUSH2 0x2756 SWAP2 SWAP1 PUSH2 0x35C6 JUMP JUMPDEST DUP2 MSTORE PUSH1 0x20 ADD SWAP1 DUP2 MSTORE PUSH1 0x20 ADD PUSH1 0x0 KECCAK256 SLOAD EQ JUMPDEST DUP1 ISZERO PUSH2 0x27E6 JUMPI POP PUSH1 0x1 PUSH1 0x8 PUSH1 0x0 DUP7 DUP2 MSTORE PUSH1 0x20 ADD SWAP1 DUP2 MSTORE PUSH1 0x20 ADD PUSH1 0x0 KECCAK256 PUSH1 0x1D ADD PUSH1 0x0 DUP6 PUSH20 0xFFFFFFFFFFFFFFFFFFFFFFFFFFFFFFFFFFFFFFFF AND PUSH20 0xFFFFFFFFFFFFFFFFFFFFFFFFFFFFFFFFFFFFFFFF AND DUP2 MSTORE PUSH1 0x20 ADD SWAP1 DUP2 MSTORE PUSH1 0x20 ADD PUSH1 0x0 KECCAK256 PUSH1 0x1A ADD PUSH1 0x0 DUP4 PUSH1 0xA PUSH2 0x27D5 SWAP2 SWAP1 PUSH2 0x35C6 JUMP JUMPDEST DUP2 MSTORE PUSH1 0x20 ADD SWAP1 DUP2 MSTORE PUSH1 0x20 ADD PUSH1 0x0 KECCAK256 SLOAD EQ JUMPDEST DUP1 ISZERO PUSH2 0x2865 JUMPI POP PUSH1 0x1 PUSH1 0x8 PUSH1 0x0 DUP7 DUP2 MSTORE PUSH1 0x20 ADD SWAP1 DUP2 MSTORE PUSH1 0x20 ADD PUSH1 0x0 KECCAK256 PUSH1 0x1D ADD PUSH1 0x0 DUP6 PUSH20 0xFFFFFFFFFFFFFFFFFFFFFFFFFFFFFFFFFFFFFFFF AND PUSH20 0xFFFFFFFFFFFFFFFFFFFFFFFFFFFFFFFFFFFFFFFF AND DUP2 MSTORE PUSH1 0x20 ADD SWAP1 DUP2 MSTORE PUSH1 0x20 ADD PUSH1 0x0 KECCAK256 PUSH1 0x1A ADD PUSH1 0x0 DUP4 PUSH1 0xF PUSH2 0x2854 SWAP2 SWAP1 PUSH2 0x35C6 JUMP JUMPDEST DUP2 MSTORE PUSH1 0x20 ADD SWAP1 DUP2 MSTORE PUSH1 0x20 ADD PUSH1 0x0 KECCAK256 SLOAD EQ JUMPDEST DUP1 ISZERO PUSH2 0x28E4 JUMPI POP PUSH1 0x1 PUSH1 0x8 PUSH1 0x0 DUP7 DUP2 MSTORE PUSH1 0x20 ADD SWAP1 DUP2 MSTORE PUSH1 0x20 ADD PUSH1 0x0 KECCAK256 PUSH1 0x1D ADD PUSH1 0x0 DUP6 PUSH20 0xFFFFFFFFFFFFFFFFFFFFFFFFFFFFFFFFFFFFFFFF AND PUSH20 0xFFFFFFFFFFFFFFFFFFFFFFFFFFFFFFFFFFFFFFFF AND DUP2 MSTORE PUSH1 0x20 ADD SWAP1 DUP2 MSTORE PUSH1 0x20 ADD PUSH1 0x0 KECCAK256 PUSH1 0x1A ADD PUSH1 0x0 DUP4 PUSH1 0x14 PUSH2 0x28D3 SWAP2 SWAP1 PUSH2 0x35C6 JUMP JUMPDEST DUP2 MSTORE PUSH1 0x20 ADD SWAP1 DUP2 MSTORE PUSH1 0x20 ADD PUSH1 0x0 KECCAK256 SLOAD EQ JUMPDEST JUMPDEST ISZERO PUSH2 0x28F4 JUMPI PUSH1 0x1 SWAP2 POP POP PUSH2 0x2908 JUMP JUMPDEST DUP1 PUSH1 0x1 ADD SWAP1 POP PUSH1 0x5 DUP2 LT PUSH2 0x23BD JUMPI PUSH1 0x0 SWAP2 POP POP JUMPDEST SWAP3 SWAP2 POP POP JUMP JUMPDEST PUSH2 0x29AA DUP5 DUP5 DUP5 DUP5 PUSH1 0x40 MLOAD PUSH1 0x24 ADD PUSH2 0x2928 SWAP5 SWAP4 SWAP3 SWAP2 SWAP1 PUSH2 0x38E9 JUMP JUMPDEST PUSH1 0x40 MLOAD PUSH1 0x20 DUP2 DUP4 SUB SUB DUP2 MSTORE SWAP1 PUSH1 0x40 MSTORE PUSH32 0x7C4632A400000000000000000000000000000000000000000000000000000000 PUSH28 0xFFFFFFFFFFFFFFFFFFFFFFFFFFFFFFFFFFFFFFFFFFFFFFFFFFFFFFFF NOT AND PUSH1 0x20 DUP3 ADD DUP1 MLOAD PUSH28 0xFFFFFFFFFFFFFFFFFFFFFFFFFFFFFFFFFFFFFFFFFFFFFFFFFFFFFFFF DUP4 DUP2 DUP4 AND OR DUP4 MSTORE POP POP POP POP PUSH2 0x2D4D JUMP JUMPDEST POP POP POP POP JUMP JUMPDEST PUSH1 0x1 PUSH1 0x8 PUSH1 0x0 DUP4 DUP2 MSTORE PUSH1 0x20 ADD SWAP1 DUP2 MSTORE PUSH1 0x20 ADD PUSH1 0x0 KECCAK256 PUSH1 0x1D ADD PUSH1 0x0 DUP5 PUSH20 0xFFFFFFFFFFFFFFFFFFFFFFFFFFFFFFFFFFFFFFFF AND PUSH20 0xFFFFFFFFFFFFFFFFFFFFFFFFFFFFFFFFFFFFFFFF AND DUP2 MSTORE PUSH1 0x20 ADD SWAP1 DUP2 MSTORE PUSH1 0x20 ADD PUSH1 0x0 KECCAK256 PUSH1 0x0 ADD PUSH1 0x0 PUSH2 0x100 EXP DUP2 SLOAD DUP2 PUSH1 0xFF MUL NOT AND SWAP1 DUP4 PUSH1 0x2 DUP2 GT ISZERO PUSH2 0x2A2A JUMPI PUSH2 0x2A29 PUSH2 0x365D JUMP JUMPDEST JUMPDEST MUL OR SWAP1 SSTORE POP PUSH1 0x8 PUSH1 0x0 DUP3 DUP2 MSTORE PUSH1 0x20 ADD SWAP1 DUP2 MSTORE PUSH1 0x20 ADD PUSH1 0x0 KECCAK256 PUSH1 0x4 ADD DUP3 SWAP1 DUP1 PUSH1 0x1 DUP2 SLOAD ADD DUP1 DUP3 SSTORE DUP1 SWAP2 POP POP PUSH1 0x1 SWAP1 SUB SWAP1 PUSH1 0x0 MSTORE PUSH1 0x20 PUSH1 0x0 KECCAK256 ADD PUSH1 0x0 SWAP1 SWAP2 SWAP1 SWAP2 SWAP1 SWAP2 PUSH2 0x100 EXP DUP2 SLOAD DUP2 PUSH20 0xFFFFFFFFFFFFFFFFFFFFFFFFFFFFFFFFFFFFFFFF MUL NOT AND SWAP1 DUP4 PUSH20 0xFFFFFFFFFFFFFFFFFFFFFFFFFFFFFFFFFFFFFFFF AND MUL OR SWAP1 SSTORE POP PUSH1 0x0 PUSH2 0x2AB0 PUSH2 0x2E40 JUMP JUMPDEST PUSH1 0x0 PUSH1 0x1 NUMBER PUSH2 0x2ABF SWAP2 SWAP1 PUSH2 0x35FA JUMP JUMPDEST BLOCKHASH SWAP1 POP PUSH1 0x0 DUP2 PUSH1 0x0 SHR SWAP1 POP PUSH1 0x0 DUP2 CALLER PUSH1 0x40 MLOAD PUSH1 0x20 ADD PUSH2 0x2ADF SWAP3 SWAP2 SWAP1 PUSH2 0x37D0 JUMP JUMPDEST PUSH1 0x40 MLOAD PUSH1 0x20 DUP2 DUP4 SUB SUB DUP2 MSTORE SWAP1 PUSH1 0x40 MSTORE DUP1 MLOAD SWAP1 PUSH1 0x20 ADD KECCAK256 PUSH1 0x0 SHR SWAP1 POP JUMPDEST PUSH1 0x0 PUSH1 0x8 DUP3 SWAP1 SHR GT PUSH2 0x2B47 JUMPI PUSH2 0x100 DUP3 CALLER DUP8 PUSH1 0x40 MLOAD PUSH1 0x20 ADD PUSH2 0x2B1F SWAP4 SWAP3 SWAP2 SWAP1 PUSH2 0x37FC JUMP JUMPDEST PUSH1 0x40 MLOAD PUSH1 0x20 DUP2 DUP4 SUB SUB DUP2 MSTORE SWAP1 PUSH1 0x40 MSTORE DUP1 MLOAD SWAP1 PUSH1 0x20 ADD KECCAK256 PUSH1 0x0 SHR PUSH2 0x2B42 SWAP2 SWAP1 PUSH2 0x3839 JUMP JUMPDEST PUSH2 0x2B5A JUMP JUMPDEST PUSH2 0x100 PUSH1 0x8 DUP3 SWAP1 SHR PUSH2 0x2B59 SWAP2 SWAP1 PUSH2 0x3839 JUMP JUMPDEST JUMPDEST SWAP1 POP DUP1 DUP5 DUP7 PUSH1 0x19 DUP2 LT PUSH2 0x2B70 JUMPI PUSH2 0x2B6F PUSH2 0x3449 JUMP JUMPDEST JUMPDEST PUSH1 0x20 MUL ADD DUP2 DUP2 MSTORE POP POP PUSH1 0xC DUP6 SUB PUSH2 0x2B88 JUMPI DUP5 PUSH1 0x1 ADD SWAP5 POP JUMPDEST DUP5 PUSH1 0x1 ADD SWAP5 POP PUSH1 0x19 DUP6 LT PUSH2 0x2AFB JUMPI DUP4 PUSH1 0x8 PUSH1 0x0 DUP9 DUP2 MSTORE PUSH1 0x20 ADD SWAP1 DUP2 MSTORE PUSH1 0x20 ADD PUSH1 0x0 KECCAK256 PUSH1 0x1D ADD PUSH1 0x0 DUP10 PUSH20 0xFFFFFFFFFFFFFFFFFFFFFFFFFFFFFFFFFFFFFFFF AND PUSH20 0xFFFFFFFFFFFFFFFFFFFFFFFFFFFFFFFFFFFFFFFF AND DUP2 MSTORE PUSH1 0x20 ADD SWAP1 DUP2 MSTORE PUSH1 0x20 ADD PUSH1 0x0 KECCAK256 PUSH1 0x1 ADD SWAP1 PUSH1 0x19 PUSH2 0x2BFB SWAP3 SWAP2 SWAP1 PUSH2 0x2EA3 JUMP JUMPDEST POP PUSH1 0x1 PUSH1 0x8 PUSH1 0x0 DUP9 DUP2 MSTORE PUSH1 0x20 ADD SWAP1 DUP2 MSTORE PUSH1 0x20 ADD PUSH1 0x0 KECCAK256 PUSH1 0x1D ADD PUSH1 0x0 DUP10 PUSH20 0xFFFFFFFFFFFFFFFFFFFFFFFFFFFFFFFFFFFFFFFF AND PUSH20 0xFFFFFFFFFFFFFFFFFFFFFFFFFFFFFFFFFFFFFFFF AND DUP2 MSTORE PUSH1 0x20 ADD SWAP1 DUP2 MSTORE PUSH1 0x20 ADD PUSH1 0x0 KECCAK256 PUSH1 0x1A ADD PUSH1 0x0 PUSH1 0xC DUP2 MSTORE PUSH1 0x20 ADD SWAP1 DUP2 MSTORE PUSH1 0x20 ADD PUSH1 0x0 KECCAK256 DUP2 SWAP1 SSTORE POP DUP6 CALLER PUSH20 0xFFFFFFFFFFFFFFFFFFFFFFFFFFFFFFFFFFFFFFFF AND PUSH32 0x3330A6773675F31F62070870F40379F8C6D42E3761410011A4DFC42B18043D2F PUSH1 0x40 MLOAD PUSH1 0x40 MLOAD DUP1 SWAP2 SUB SWAP1 LOG3 POP POP POP POP POP POP POP JUMP JUMPDEST PUSH1 0x0 DUP1 PUSH1 0x8 PUSH1 0x0 DUP6 DUP2 MSTORE PUSH1 0x20 ADD SWAP1 DUP2 MSTORE PUSH1 0x20 ADD PUSH1 0x0 KECCAK256 PUSH1 0x1D ADD PUSH1 0x0 DUP5 PUSH20 0xFFFFFFFFFFFFFFFFFFFFFFFFFFFFFFFFFFFFFFFF AND PUSH20 0xFFFFFFFFFFFFFFFFFFFFFFFFFFFFFFFFFFFFFFFF AND DUP2 MSTORE PUSH1 0x20 ADD SWAP1 DUP2 MSTORE PUSH1 0x20 ADD PUSH1 0x0 KECCAK256 PUSH1 0x0 ADD PUSH1 0x0 SWAP1 SLOAD SWAP1 PUSH2 0x100 EXP SWAP1 DIV PUSH1 0xFF AND PUSH1 0x2 SLOAD PUSH1 0x8 PUSH1 0x0 DUP8 DUP2 MSTORE PUSH1 0x20 ADD SWAP1 DUP2 MSTORE PUSH1 0x20 ADD PUSH1 0x0 KECCAK256 PUSH1 0x1 ADD SLOAD PUSH2 0x2D42 SWAP2 SWAP1 PUSH2 0x35C6 JUMP JUMPDEST SWAP2 POP SWAP2 POP SWAP3 POP SWAP3 SWAP1 POP JUMP JUMPDEST PUSH2 0x2D64 DUP2 PUSH2 0x2D5C PUSH2 0x2D67 PUSH2 0x2D88 JUMP JUMPDEST PUSH4 0xFFFFFFFF AND JUMP JUMPDEST POP JUMP JUMPDEST PUSH1 0x0 PUSH11 0x636F6E736F6C652E6C6F67 SWAP1 POP PUSH1 0x0 DUP1 DUP4 MLOAD PUSH1 0x20 DUP6 ADD DUP5 GAS STATICCALL POP POP POP JUMP JUMPDEST PUSH2 0x2EE3 DUP2 SWAP1 POP SWAP2 SWAP1 POP JUMP JUMPDEST PUSH1 0x40 MLOAD DUP1 PUSH2 0x300 ADD PUSH1 0x40 MSTORE DUP1 PUSH1 0x18 SWAP1 PUSH1 0x20 DUP3 MUL DUP1 CALLDATASIZE DUP4 CALLDATACOPY DUP1 DUP3 ADD SWAP2 POP POP SWAP1 POP POP SWAP1 JUMP JUMPDEST DUP3 DUP1 SLOAD DUP3 DUP3 SSTORE SWAP1 PUSH1 0x0 MSTORE PUSH1 0x20 PUSH1 0x0 KECCAK256 SWAP1 DUP2 ADD SWAP3 DUP3 ISZERO PUSH2 0x2E2F JUMPI SWAP2 PUSH1 0x20 MUL DUP3 ADD JUMPDEST DUP3 DUP2 GT ISZERO PUSH2 0x2E2E JUMPI DUP3 MLOAD DUP3 PUSH1 0x0 PUSH2 0x100 EXP DUP2 SLOAD DUP2 PUSH20 0xFFFFFFFFFFFFFFFFFFFFFFFFFFFFFFFFFFFFFFFF MUL NOT AND SWAP1 DUP4 PUSH20 0xFFFFFFFFFFFFFFFFFFFFFFFFFFFFFFFFFFFFFFFF AND MUL OR SWAP1 SSTORE POP SWAP2 PUSH1 0x20 ADD SWAP2 SWAP1 PUSH1 0x1 ADD SWAP1 PUSH2 0x2DD6 JUMP JUMPDEST JUMPDEST POP SWAP1 POP PUSH2 0x2E3C SWAP2 SWAP1 PUSH2 0x2EED JUMP JUMPDEST POP SWAP1 JUMP JUMPDEST PUSH1 0x40 MLOAD DUP1 PUSH2 0x320 ADD PUSH1 0x40 MSTORE DUP1 PUSH1 0x19 SWAP1 PUSH1 0x20 DUP3 MUL DUP1 CALLDATASIZE DUP4 CALLDATACOPY DUP1 DUP3 ADD SWAP2 POP POP SWAP1 POP POP SWAP1 JUMP JUMPDEST DUP3 PUSH1 0x18 DUP2 ADD SWAP3 DUP3 ISZERO PUSH2 0x2E92 JUMPI SWAP2 PUSH1 0x20 MUL DUP3 ADD JUMPDEST DUP3 DUP2 GT ISZERO PUSH2 0x2E91 JUMPI DUP3 MLOAD DUP3 SSTORE SWAP2 PUSH1 0x20 ADD SWAP2 SWAP1 PUSH1 0x1 ADD SWAP1 PUSH2 0x2E76 JUMP JUMPDEST JUMPDEST POP SWAP1 POP PUSH2 0x2E9F SWAP2 SWAP1 PUSH2 0x2EED JUMP JUMPDEST POP SWAP1 JUMP JUMPDEST DUP3 PUSH1 0x19 DUP2 ADD SWAP3 DUP3 ISZERO PUSH2 0x2ED2 JUMPI SWAP2 PUSH1 0x20 MUL DUP3 ADD JUMPDEST DUP3 DUP2 GT ISZERO PUSH2 0x2ED1 JUMPI DUP3 MLOAD DUP3 SSTORE SWAP2 PUSH1 0x20 ADD SWAP2 SWAP1 PUSH1 0x1 ADD SWAP1 PUSH2 0x2EB6 JUMP JUMPDEST JUMPDEST POP SWAP1 POP PUSH2 0x2EDF SWAP2 SWAP1 PUSH2 0x2EED JUMP JUMPDEST POP SWAP1 JUMP JUMPDEST PUSH2 0x2EEB PUSH2 0x393C JUMP JUMPDEST JUMP JUMPDEST JUMPDEST DUP1 DUP3 GT ISZERO PUSH2 0x2F06 JUMPI PUSH1 0x0 DUP2 PUSH1 0x0 SWAP1 SSTORE POP PUSH1 0x1 ADD PUSH2 0x2EEE JUMP JUMPDEST POP SWAP1 JUMP JUMPDEST PUSH1 0x0 DUP2 SWAP1 POP SWAP2 SWAP1 POP JUMP JUMPDEST PUSH2 0x2F1D DUP2 PUSH2 0x2F0A JUMP JUMPDEST DUP3 MSTORE POP POP JUMP JUMPDEST PUSH1 0x0 PUSH1 0x20 DUP3 ADD SWAP1 POP PUSH2 0x2F38 PUSH1 0x0 DUP4 ADD DUP5 PUSH2 0x2F14 JUMP JUMPDEST SWAP3 SWAP2 POP POP JUMP JUMPDEST PUSH1 0x0 DUP1 REVERT JUMPDEST PUSH2 0x2F4C DUP2 PUSH2 0x2F0A JUMP JUMPDEST DUP2 EQ PUSH2 0x2F57 JUMPI PUSH1 0x0 DUP1 REVERT JUMPDEST POP JUMP JUMPDEST PUSH1 0x0 DUP2 CALLDATALOAD SWAP1 POP PUSH2 0x2F69 DUP2 PUSH2 0x2F43 JUMP JUMPDEST SWAP3 SWAP2 POP POP JUMP JUMPDEST PUSH1 0x0 PUSH1 0x20 DUP3 DUP5 SUB SLT ISZERO PUSH2 0x2F85 JUMPI PUSH2 0x2F84 PUSH2 0x2F3E JUMP JUMPDEST JUMPDEST PUSH1 0x0 PUSH2 0x2F93 DUP5 DUP3 DUP6 ADD PUSH2 0x2F5A JUMP JUMPDEST SWAP2 POP POP SWAP3 SWAP2 POP POP JUMP JUMPDEST PUSH1 0x0 DUP2 MLOAD SWAP1 POP SWAP2 SWAP1 POP JUMP JUMPDEST PUSH1 0x0 DUP3 DUP3 MSTORE PUSH1 0x20 DUP3 ADD SWAP1 POP SWAP3 SWAP2 POP POP JUMP JUMPDEST PUSH1 0x0 DUP2 SWAP1 POP PUSH1 0x20 DUP3 ADD SWAP1 POP SWAP2 SWAP1 POP JUMP JUMPDEST PUSH1 0x0 PUSH20 0xFFFFFFFFFFFFFFFFFFFFFFFFFFFFFFFFFFFFFFFF DUP3 AND SWAP1 POP SWAP2 SWAP1 POP JUMP JUMPDEST PUSH1 0x0 PUSH2 0x2FF3 DUP3 PUSH2 0x2FC8 JUMP JUMPDEST SWAP1 POP SWAP2 SWAP1 POP JUMP JUMPDEST PUSH2 0x3003 DUP2 PUSH2 0x2FE8 JUMP JUMPDEST DUP3 MSTORE POP POP JUMP JUMPDEST PUSH1 0x0 PUSH2 0x3015 DUP4 DUP4 PUSH2 0x2FFA JUMP JUMPDEST PUSH1 0x20 DUP4 ADD SWAP1 POP SWAP3 SWAP2 POP POP JUMP JUMPDEST PUSH1 0x0 PUSH1 0x20 DUP3 ADD SWAP1 POP SWAP2 SWAP1 POP JUMP JUMPDEST PUSH1 0x0 PUSH2 0x3039 DUP3 PUSH2 0x2F9C JUMP JUMPDEST PUSH2 0x3043 DUP2 DUP6 PUSH2 0x2FA7 JUMP JUMPDEST SWAP4 POP PUSH2 0x304E DUP4 PUSH2 0x2FB8 JUMP JUMPDEST DUP1 PUSH1 0x0 JUMPDEST DUP4 DUP2 LT ISZERO PUSH2 0x307F JUMPI DUP2 MLOAD PUSH2 0x3066 DUP9 DUP3 PUSH2 0x3009 JUMP JUMPDEST SWAP8 POP PUSH2 0x3071 DUP4 PUSH2 0x3021 JUMP JUMPDEST SWAP3 POP POP PUSH1 0x1 DUP2 ADD SWAP1 POP PUSH2 0x3052 JUMP JUMPDEST POP DUP6 SWAP4 POP POP POP POP SWAP3 SWAP2 POP POP JUMP JUMPDEST PUSH1 0x0 PUSH1 0x20 DUP3 ADD SWAP1 POP DUP2 DUP2 SUB PUSH1 0x0 DUP4 ADD MSTORE PUSH2 0x30A6 DUP2 DUP5 PUSH2 0x302E JUMP JUMPDEST SWAP1 POP SWAP3 SWAP2 POP POP JUMP JUMPDEST PUSH2 0x30B7 DUP2 PUSH2 0x2FE8 JUMP JUMPDEST DUP2 EQ PUSH2 0x30C2 JUMPI PUSH1 0x0 DUP1 REVERT JUMPDEST POP JUMP JUMPDEST PUSH1 0x0 DUP2 CALLDATALOAD SWAP1 POP PUSH2 0x30D4 DUP2 PUSH2 0x30AE JUMP JUMPDEST SWAP3 SWAP2 POP POP JUMP JUMPDEST PUSH1 0x0 DUP1 PUSH1 0x40 DUP4 DUP6 SUB SLT ISZERO PUSH2 0x30F1 JUMPI PUSH2 0x30F0 PUSH2 0x2F3E JUMP JUMPDEST JUMPDEST PUSH1 0x0 PUSH2 0x30FF DUP6 DUP3 DUP7 ADD PUSH2 0x2F5A JUMP JUMPDEST SWAP3 POP POP PUSH1 0x20 PUSH2 0x3110 DUP6 DUP3 DUP7 ADD PUSH2 0x30C5 JUMP JUMPDEST SWAP2 POP POP SWAP3 POP SWAP3 SWAP1 POP JUMP JUMPDEST PUSH1 0x0 DUP2 ISZERO ISZERO SWAP1 POP SWAP2 SWAP1 POP JUMP JUMPDEST PUSH2 0x312F DUP2 PUSH2 0x311A JUMP JUMPDEST DUP3 MSTORE POP POP JUMP JUMPDEST PUSH1 0x0 PUSH1 0x40 DUP3 ADD SWAP1 POP PUSH2 0x314A PUSH1 0x0 DUP4 ADD DUP6 PUSH2 0x3126 JUMP JUMPDEST PUSH2 0x3157 PUSH1 0x20 DUP4 ADD DUP5 PUSH2 0x2F14 JUMP JUMPDEST SWAP4 SWAP3 POP POP POP JUMP JUMPDEST PUSH1 0x0 PUSH1 0x18 SWAP1 POP SWAP2 SWAP1 POP JUMP JUMPDEST PUSH1 0x0 DUP2 SWAP1 POP SWAP3 SWAP2 POP POP JUMP JUMPDEST PUSH1 0x0 DUP2 SWAP1 POP SWAP2 SWAP1 POP JUMP JUMPDEST PUSH2 0x3187 DUP2 PUSH2 0x2F0A JUMP JUMPDEST DUP3 MSTORE POP POP JUMP JUMPDEST PUSH1 0x0 PUSH2 0x3199 DUP4 DUP4 PUSH2 0x317E JUMP JUMPDEST PUSH1 0x20 DUP4 ADD SWAP1 POP SWAP3 SWAP2 POP POP JUMP JUMPDEST PUSH1 0x0 PUSH1 0x20 DUP3 ADD SWAP1 POP SWAP2 SWAP1 POP JUMP JUMPDEST PUSH2 0x31BB DUP2 PUSH2 0x315E JUMP JUMPDEST PUSH2 0x31C5 DUP2 DUP5 PUSH2 0x3169 JUMP JUMPDEST SWAP3 POP PUSH2 0x31D0 DUP3 PUSH2 0x3174 JUMP JUMPDEST DUP1 PUSH1 0x0 JUMPDEST DUP4 DUP2 LT ISZERO PUSH2 0x3201 JUMPI DUP2 MLOAD PUSH2 0x31E8 DUP8 DUP3 PUSH2 0x318D JUMP JUMPDEST SWAP7 POP PUSH2 0x31F3 DUP4 PUSH2 0x31A5 JUMP JUMPDEST SWAP3 POP POP PUSH1 0x1 DUP2 ADD SWAP1 POP PUSH2 0x31D4 JUMP JUMPDEST POP POP POP POP POP POP JUMP JUMPDEST PUSH1 0x0 PUSH2 0x320 DUP3 ADD SWAP1 POP PUSH2 0x321F PUSH1 0x0 DUP4 ADD DUP6 PUSH2 0x3126 JUMP JUMPDEST PUSH2 0x322C PUSH1 0x20 DUP4 ADD DUP5 PUSH2 0x31B2 JUMP JUMPDEST SWAP4 SWAP3 POP POP POP JUMP JUMPDEST PUSH2 0x323C DUP2 PUSH2 0x311A JUMP JUMPDEST DUP2 EQ PUSH2 0x3247 JUMPI PUSH1 0x0 DUP1 REVERT JUMPDEST POP JUMP JUMPDEST PUSH1 0x0 DUP2 CALLDATALOAD SWAP1 POP PUSH2 0x3259 DUP2 PUSH2 0x3233 JUMP JUMPDEST SWAP3 SWAP2 POP POP JUMP JUMPDEST PUSH1 0x0 PUSH1 0x20 DUP3 DUP5 SUB SLT ISZERO PUSH2 0x3275 JUMPI PUSH2 0x3274 PUSH2 0x2F3E JUMP JUMPDEST JUMPDEST PUSH1 0x0 PUSH2 0x3283 DUP5 DUP3 DUP6 ADD PUSH2 0x324A JUMP JUMPDEST SWAP2 POP POP SWAP3 SWAP2 POP POP JUMP JUMPDEST PUSH1 0x0 DUP1 PUSH1 0x0 PUSH1 0x60 DUP5 DUP7 SUB SLT ISZERO PUSH2 0x32A5 JUMPI PUSH2 0x32A4 PUSH2 0x2F3E JUMP JUMPDEST JUMPDEST PUSH1 0x0 PUSH2 0x32B3 DUP7 DUP3 DUP8 ADD PUSH2 0x30C5 JUMP JUMPDEST SWAP4 POP POP PUSH1 0x20 PUSH2 0x32C4 DUP7 DUP3 DUP8 ADD PUSH2 0x2F5A JUMP JUMPDEST SWAP3 POP POP PUSH1 0x40 PUSH2 0x32D5 DUP7 DUP3 DUP8 ADD PUSH2 0x30C5 JUMP JUMPDEST SWAP2 POP POP SWAP3 POP SWAP3 POP SWAP3 JUMP JUMPDEST PUSH2 0x32E8 DUP2 PUSH2 0x2FE8 JUMP JUMPDEST DUP3 MSTORE POP POP JUMP JUMPDEST PUSH1 0x0 PUSH1 0x20 DUP3 ADD SWAP1 POP PUSH2 0x3303 PUSH1 0x0 DUP4 ADD DUP5 PUSH2 0x32DF JUMP JUMPDEST SWAP3 SWAP2 POP POP JUMP JUMPDEST PUSH1 0x0 PUSH1 0x80 DUP3 ADD SWAP1 POP PUSH2 0x331E PUSH1 0x0 DUP4 ADD DUP8 PUSH2 0x3126 JUMP JUMPDEST PUSH2 0x332B PUSH1 0x20 DUP4 ADD DUP7 PUSH2 0x3126 JUMP JUMPDEST PUSH2 0x3338 PUSH1 0x40 DUP4 ADD DUP6 PUSH2 0x2F14 JUMP JUMPDEST PUSH2 0x3345 PUSH1 0x60 DUP4 ADD DUP5 PUSH2 0x2F14 JUMP JUMPDEST SWAP6 SWAP5 POP POP POP POP POP JUMP JUMPDEST PUSH1 0x0 PUSH1 0x20 DUP3 ADD SWAP1 POP PUSH2 0x3363 PUSH1 0x0 DUP4 ADD DUP5 PUSH2 0x3126 JUMP JUMPDEST SWAP3 SWAP2 POP POP JUMP JUMPDEST PUSH1 0x0 DUP1 PUSH1 0x40 DUP4 DUP6 SUB SLT ISZERO PUSH2 0x3380 JUMPI PUSH2 0x337F PUSH2 0x2F3E JUMP JUMPDEST JUMPDEST PUSH1 0x0 PUSH2 0x338E DUP6 DUP3 DUP7 ADD PUSH2 0x30C5 JUMP JUMPDEST SWAP3 POP POP PUSH1 0x20 PUSH2 0x339F DUP6 DUP3 DUP7 ADD PUSH2 0x2F5A JUMP JUMPDEST SWAP2 POP POP SWAP3 POP SWAP3 SWAP1 POP JUMP JUMPDEST PUSH1 0x0 PUSH1 0x19 SWAP1 POP SWAP2 SWAP1 POP JUMP JUMPDEST PUSH1 0x0 DUP2 SWAP1 POP SWAP3 SWAP2 POP POP JUMP JUMPDEST PUSH1 0x0 DUP2 SWAP1 POP SWAP2 SWAP1 POP JUMP JUMPDEST PUSH1 0x0 PUSH1 0x20 DUP3 ADD SWAP1 POP SWAP2 SWAP1 POP JUMP JUMPDEST PUSH2 0x33DF DUP2 PUSH2 0x33A9 JUMP JUMPDEST PUSH2 0x33E9 DUP2 DUP5 PUSH2 0x33B4 JUMP JUMPDEST SWAP3 POP PUSH2 0x33F4 DUP3 PUSH2 0x33BF JUMP JUMPDEST DUP1 PUSH1 0x0 JUMPDEST DUP4 DUP2 LT ISZERO PUSH2 0x3425 JUMPI DUP2 MLOAD PUSH2 0x340C DUP8 DUP3 PUSH2 0x318D JUMP JUMPDEST SWAP7 POP PUSH2 0x3417 DUP4 PUSH2 0x33C9 JUMP JUMPDEST SWAP3 POP POP PUSH1 0x1 DUP2 ADD SWAP1 POP PUSH2 0x33F8 JUMP JUMPDEST POP POP POP POP POP POP JUMP JUMPDEST PUSH1 0x0 PUSH2 0x320 DUP3 ADD SWAP1 POP PUSH2 0x3443 PUSH1 0x0 DUP4 ADD DUP5 PUSH2 0x33D6 JUMP JUMPDEST SWAP3 SWAP2 POP POP JUMP JUMPDEST PUSH32 0x4E487B7100000000000000000000000000000000000000000000000000000000 PUSH1 0x0 MSTORE PUSH1 0x32 PUSH1 0x4 MSTORE PUSH1 0x24 PUSH1 0x0 REVERT JUMPDEST PUSH1 0x0 PUSH1 0x40 DUP3 ADD SWAP1 POP PUSH2 0x348D PUSH1 0x0 DUP4 ADD DUP6 PUSH2 0x32DF JUMP JUMPDEST PUSH2 0x349A PUSH1 0x20 DUP4 ADD DUP5 PUSH2 0x2F14 JUMP JUMPDEST SWAP4 SWAP3 POP POP POP JUMP JUMPDEST PUSH1 0x0 DUP2 MLOAD SWAP1 POP PUSH2 0x34B0 DUP2 PUSH2 0x3233 JUMP JUMPDEST SWAP3 SWAP2 POP POP JUMP JUMPDEST PUSH1 0x0 PUSH1 0x20 DUP3 DUP5 SUB SLT ISZERO PUSH2 0x34CC JUMPI PUSH2 0x34CB PUSH2 0x2F3E JUMP JUMPDEST JUMPDEST PUSH1 0x0 PUSH2 0x34DA DUP5 DUP3 DUP6 ADD PUSH2 0x34A1 JUMP JUMPDEST SWAP2 POP POP SWAP3 SWAP2 POP POP JUMP JUMPDEST PUSH1 0x0 PUSH1 0x60 DUP3 ADD SWAP1 POP PUSH2 0x34F8 PUSH1 0x0 DUP4 ADD DUP7 PUSH2 0x32DF JUMP JUMPDEST PUSH2 0x3505 PUSH1 0x20 DUP4 ADD DUP6 PUSH2 0x32DF JUMP JUMPDEST PUSH2 0x3512 PUSH1 0x40 DUP4 ADD DUP5 PUSH2 0x2F14 JUMP JUMPDEST SWAP5 SWAP4 POP POP POP POP JUMP JUMPDEST PUSH1 0x0 DUP3 DUP3 MSTORE PUSH1 0x20 DUP3 ADD SWAP1 POP SWAP3 SWAP2 POP POP JUMP JUMPDEST PUSH32 0x5472616E73666572206661696C65640000000000000000000000000000000000 PUSH1 0x0 DUP3 ADD MSTORE POP JUMP JUMPDEST PUSH1 0x0 PUSH2 0x3561 PUSH1 0xF DUP4 PUSH2 0x351A JUMP JUMPDEST SWAP2 POP PUSH2 0x356C DUP3 PUSH2 0x352B JUMP JUMPDEST PUSH1 0x20 DUP3 ADD SWAP1 POP SWAP2 SWAP1 POP JUMP JUMPDEST PUSH1 0x0 PUSH1 0x20 DUP3 ADD SWAP1 POP DUP2 DUP2 SUB PUSH1 0x0 DUP4 ADD MSTORE PUSH2 0x3590 DUP2 PUSH2 0x3554 JUMP JUMPDEST SWAP1 POP SWAP2 SWAP1 POP JUMP JUMPDEST PUSH32 0x4E487B7100000000000000000000000000000000000000000000000000000000 PUSH1 0x0 MSTORE PUSH1 0x11 PUSH1 0x4 MSTORE PUSH1 0x24 PUSH1 0x0 REVERT JUMPDEST PUSH1 0x0 PUSH2 0x35D1 DUP3 PUSH2 0x2F0A JUMP JUMPDEST SWAP2 POP PUSH2 0x35DC DUP4 PUSH2 0x2F0A JUMP JUMPDEST SWAP3 POP DUP3 DUP3 ADD SWAP1 POP DUP1 DUP3 GT ISZERO PUSH2 0x35F4 JUMPI PUSH2 0x35F3 PUSH2 0x3597 JUMP JUMPDEST JUMPDEST SWAP3 SWAP2 POP POP JUMP JUMPDEST PUSH1 0x0 PUSH2 0x3605 DUP3 PUSH2 0x2F0A JUMP JUMPDEST SWAP2 POP PUSH2 0x3610 DUP4 PUSH2 0x2F0A JUMP JUMPDEST SWAP3 POP DUP3 DUP3 SUB SWAP1 POP DUP2 DUP2 GT ISZERO PUSH2 0x3628 JUMPI PUSH2 0x3627 PUSH2 0x3597 JUMP JUMPDEST JUMPDEST SWAP3 SWAP2 POP POP JUMP JUMPDEST PUSH32 0x4E487B7100000000000000000000000000000000000000000000000000000000 PUSH1 0x0 MSTORE PUSH1 0x41 PUSH1 0x4 MSTORE PUSH1 0x24 PUSH1 0x0 REVERT JUMPDEST PUSH32 0x4E487B7100000000000000000000000000000000000000000000000000000000 PUSH1 0x0 MSTORE PUSH1 0x21 PUSH1 0x4 MSTORE PUSH1 0x24 PUSH1 0x0 REVERT JUMPDEST PUSH1 0x0 PUSH2 0x340 DUP3 ADD SWAP1 POP PUSH2 0x36A2 PUSH1 0x0 DUP4 ADD DUP7 PUSH2 0x2F14 JUMP JUMPDEST PUSH2 0x36AF PUSH1 0x20 DUP4 ADD DUP6 PUSH2 0x31B2 JUMP JUMPDEST PUSH2 0x36BD PUSH2 0x320 DUP4 ADD DUP5 PUSH2 0x2F14 JUMP JUMPDEST SWAP5 SWAP4 POP POP POP POP JUMP JUMPDEST PUSH1 0x0 PUSH2 0x36D0 DUP3 PUSH2 0x2F0A JUMP JUMPDEST SWAP2 POP PUSH2 0x36DB DUP4 PUSH2 0x2F0A JUMP JUMPDEST SWAP3 POP DUP3 DUP3 MUL PUSH2 0x36E9 DUP2 PUSH2 0x2F0A JUMP JUMPDEST SWAP2 POP DUP3 DUP3 DIV DUP5 EQ DUP4 ISZERO OR PUSH2 0x3700 JUMPI PUSH2 0x36FF PUSH2 0x3597 JUMP JUMPDEST JUMPDEST POP SWAP3 SWAP2 POP POP JUMP JUMPDEST PUSH32 0x4E487B7100000000000000000000000000000000000000000000000000000000 PUSH1 0x0 MSTORE PUSH1 0x12 PUSH1 0x4 MSTORE PUSH1 0x24 PUSH1 0x0 REVERT JUMPDEST PUSH1 0x0 PUSH2 0x3741 DUP3 PUSH2 0x2F0A JUMP JUMPDEST SWAP2 POP PUSH2 0x374C DUP4 PUSH2 0x2F0A JUMP JUMPDEST SWAP3 POP DUP3 PUSH2 0x375C JUMPI PUSH2 0x375B PUSH2 0x3707 JUMP JUMPDEST JUMPDEST DUP3 DUP3 DIV SWAP1 POP SWAP3 SWAP2 POP POP JUMP JUMPDEST PUSH1 0x0 DUP2 SWAP1 POP SWAP2 SWAP1 POP JUMP JUMPDEST PUSH2 0x3782 PUSH2 0x377D DUP3 PUSH2 0x2F0A JUMP JUMPDEST PUSH2 0x3767 JUMP JUMPDEST DUP3 MSTORE POP POP JUMP JUMPDEST PUSH1 0x0 DUP2 PUSH1 0x60 SHL SWAP1 POP SWAP2 SWAP1 POP JUMP JUMPDEST PUSH1 0x0 PUSH2 0x37A0 DUP3 PUSH2 0x3788 JUMP JUMPDEST SWAP1 POP SWAP2 SWAP1 POP JUMP JUMPDEST PUSH1 0x0 PUSH2 0x37B2 DUP3 PUSH2 0x3795 JUMP JUMPDEST SWAP1 POP SWAP2 SWAP1 POP JUMP JUMPDEST PUSH2 0x37CA PUSH2 0x37C5 DUP3 PUSH2 0x2FE8 JUMP JUMPDEST PUSH2 0x37A7 JUMP JUMPDEST DUP3 MSTORE POP POP JUMP JUMPDEST PUSH1 0x0 PUSH2 0x37DC DUP3 DUP6 PUSH2 0x3771 JUMP JUMPDEST PUSH1 0x20 DUP3 ADD SWAP2 POP PUSH2 0x37EC DUP3 DUP5 PUSH2 0x37B9 JUMP JUMPDEST PUSH1 0x14 DUP3 ADD SWAP2 POP DUP2 SWAP1 POP SWAP4 SWAP3 POP POP POP JUMP JUMPDEST PUSH1 0x0 PUSH2 0x3808 DUP3 DUP7 PUSH2 0x3771 JUMP JUMPDEST PUSH1 0x20 DUP3 ADD SWAP2 POP PUSH2 0x3818 DUP3 DUP6 PUSH2 0x37B9 JUMP JUMPDEST PUSH1 0x14 DUP3 ADD SWAP2 POP PUSH2 0x3828 DUP3 DUP5 PUSH2 0x3771 JUMP JUMPDEST PUSH1 0x20 DUP3 ADD SWAP2 POP DUP2 SWAP1 POP SWAP5 SWAP4 POP POP POP POP JUMP JUMPDEST PUSH1 0x0 PUSH2 0x3844 DUP3 PUSH2 0x2F0A JUMP JUMPDEST SWAP2 POP PUSH2 0x384F DUP4 PUSH2 0x2F0A JUMP JUMPDEST SWAP3 POP DUP3 PUSH2 0x385F JUMPI PUSH2 0x385E PUSH2 0x3707 JUMP JUMPDEST JUMPDEST DUP3 DUP3 MOD SWAP1 POP SWAP3 SWAP2 POP POP JUMP JUMPDEST PUSH1 0x0 DUP2 MLOAD SWAP1 POP SWAP2 SWAP1 POP JUMP JUMPDEST PUSH1 0x0 JUMPDEST DUP4 DUP2 LT ISZERO PUSH2 0x3893 JUMPI DUP1 DUP3 ADD MLOAD DUP2 DUP5 ADD MSTORE PUSH1 0x20 DUP2 ADD SWAP1 POP PUSH2 0x3878 JUMP JUMPDEST PUSH1 0x0 DUP5 DUP5 ADD MSTORE POP POP POP POP JUMP JUMPDEST PUSH1 0x0 PUSH1 0x1F NOT PUSH1 0x1F DUP4 ADD AND SWAP1 POP SWAP2 SWAP1 POP JUMP JUMPDEST PUSH1 0x0 PUSH2 0x38BB DUP3 PUSH2 0x386A JUMP JUMPDEST PUSH2 0x38C5 DUP2 DUP6 PUSH2 0x351A JUMP JUMPDEST SWAP4 POP PUSH2 0x38D5 DUP2 DUP6 PUSH1 0x20 DUP7 ADD PUSH2 0x3875 JUMP JUMPDEST PUSH2 0x38DE DUP2 PUSH2 0x389F JUMP JUMPDEST DUP5 ADD SWAP2 POP POP SWAP3 SWAP2 POP POP JUMP JUMPDEST PUSH1 0x0 PUSH1 0x80 DUP3 ADD SWAP1 POP DUP2 DUP2 SUB PUSH1 0x0 DUP4 ADD MSTORE PUSH2 0x3903 DUP2 DUP8 PUSH2 0x38B0 JUMP JUMPDEST SWAP1 POP PUSH2 0x3912 PUSH1 0x20 DUP4 ADD DUP7 PUSH2 0x2F14 JUMP JUMPDEST DUP2 DUP2 SUB PUSH1 0x40 DUP4 ADD MSTORE PUSH2 0x3924 DUP2 DUP6 PUSH2 0x38B0 JUMP JUMPDEST SWAP1 POP PUSH2 0x3933 PUSH1 0x60 DUP4 ADD DUP5 PUSH2 0x32DF JUMP JUMPDEST SWAP6 SWAP5 POP POP POP POP POP JUMP JUMPDEST PUSH32 0x4E487B7100000000000000000000000000000000000000000000000000000000 PUSH1 0x0 MSTORE PUSH1 0x51 PUSH1 0x4 MSTORE PUSH1 0x24 PUSH1 0x0 REVERT INVALID LOG2 PUSH5 0x6970667358 0x22 SLT KECCAK256 SWAP11 LOG3 SWAP10 0xDC BASEFEE LOG4 JUMP LOG2 0xCB BLOBBASEFEE SHL ADDMOD SWAP9 0xD5 PUSH1 0x44 PUSH6 0x3C8FBC15F06E 0xF7 SMOD CODECOPY 0xAD SWAP10 0xB2 0xB1 NUMBER 0xB7 PUSH5 0x736F6C6343 STOP ADDMOD SHL STOP CALLER "},"gasEstimates":{"creation":{"codeDepositCost":"2950600","executionCost":"infinite","totalCost":"infinite"},"external":{"BingoToken()":"2625","EntryFee()":"2452","admin()":"2646","checkWinner(uint256,address)":"infinite","claimPrize(uint256)":"infinite","createGameWithEntryFee()":"infinite","currentGameRound()":"2452","drawWinner(uint256)":"infinite","gameRoundsData(uint256)":"infinite","getBingoRoundResult(uint256)":"infinite","getPlayerArray(uint256)":"infinite","getPlayerGameBoard(address,uint256)":"infinite","joinCurrentGameWithEntry(uint256)":"infinite","joinDuration()":"2497","maxPlayers()":"2518","returnBet()":"2538","setConfigEntryFee(uint256)":"24823","setConfigMaxPlayer(uint256)":"24779","setConfigRefundEntryFee(bool)":"26894","setConfigTurnDuration(uint256)":"24800","setJoinDuration(uint256)":"24756","turnDuration()":"2453","withdrawToken(address,uint256,address)":"infinite"},"internal":{"checkPrize(uint256,address)":"infinite","generatePlayerBoard(address,uint256)":"infinite","generateWinningNumbers(uint256)":"infinite","getRoundDetails(uint256,address)":"infinite","isWinningBoard(uint256,address)":"infinite"}},"methodIdentifiers":{"BingoToken()":"4fbd239b","EntryFee()":"59fe8c84","admin()":"f851a440","checkWinner(uint256,address)":"227b0354","claimPrize(uint256)":"d7098154","createGameWithEntryFee()":"736e2aa5","currentGameRound()":"2ea2e8f8","drawWinner(uint256)":"60b2a56a","gameRoundsData(uint256)":"53d0579e","getBingoRoundResult(uint256)":"2d7a4db3","getPlayerArray(uint256)":"07d8c565","getPlayerGameBoard(address,uint256)":"95f5d1fd","joinCurrentGameWithEntry(uint256)":"8b8a908f","joinDuration()":"172bf854","maxPlayers()":"4c2412a2","returnBet()":"62e838ef","setConfigEntryFee(uint256)":"7a12d9cb","setConfigMaxPlayer(uint256)":"6a3ff625","setConfigRefundEntryFee(bool)":"38a6a9ba","setConfigTurnDuration(uint256)":"ed7d8900","setJoinDuration(uint256)":"d013b2f8","turnDuration()":"05066917","withdrawToken(address,uint256,address)":"3ccdbb28"}},"storageLayout":{"storage":[{"astId":68,"contract":"contracts/BingoGame.sol:Bingo","label":"currentGameRound","offset":0,"slot":"0","type":"t_uint256"},{"astId":70,"contract":"contracts/BingoGame.sol:Bingo","label":"admin","offset":0,"slot":"1","type":"t_address"},{"astId":73,"contract":"contracts/BingoGame.sol:Bingo","label":"joinDuration","offset":0,"slot":"2","type":"t_uint256"},{"astId":76,"contract":"contracts/BingoGame.sol:Bingo","label":"turnDuration","offset":0,"slot":"3","type":"t_uint256"},{"astId":78,"contract":"contracts/BingoGame.sol:Bingo","label":"BingoToken","offset":0,"slot":"4","type":"t_address"},{"astId":81,"contract":"contracts/BingoGame.sol:Bingo","label":"EntryFee","offset":0,"slot":"5","type":"t_uint256"},{"astId":83,"contract":"contracts/BingoGame.sol:Bingo","label":"returnBet","offset":0,"slot":"6","type":"t_bool"},{"astId":86,"contract":"contracts/BingoGame.sol:Bingo","label":"maxPlayers","offset":0,"slot":"7","type":"t_uint256"},{"astId":91,"contract":"contracts/BingoGame.sol:Bingo","label":"gameRoundsData","offset":0,"slot":"8","type":"t_mapping(t_uint256,t_struct(gameround)66_storage)"}],"types":{"t_address":{"encoding":"inplace","label":"address","numberOfBytes":"20"},"t_array(t_address)dyn_storage":{"base":"t_address","encoding":"dynamic_array","label":"address[]","numberOfBytes":"32"},"t_array(t_uint256)24_storage":{"base":"t_uint256","encoding":"inplace","label":"uint256[24]","numberOfBytes":"768"},"t_array(t_uint256)25_storage":{"base":"t_uint256","encoding":"inplace","label":"uint256[25]","numberOfBytes":"800"},"t_bool":{"encoding":"inplace","label":"bool","numberOfBytes":"1"},"t_enum(gameStage)29":{"encoding":"inplace","label":"enum Bingo.gameStage","numberOfBytes":"1"},"t_mapping(t_address,t_struct(player)42_storage)":{"encoding":"mapping","key":"t_address","label":"mapping(address => struct Bingo.player)","numberOfBytes":"32","value":"t_struct(player)42_storage"},"t_mapping(t_uint256,t_struct(gameround)66_storage)":{"encoding":"mapping","key":"t_uint256","label":"mapping(uint256 => struct Bingo.gameround)","numberOfBytes":"32","value":"t_struct(gameround)66_storage"},"t_mapping(t_uint256,t_uint256)":{"encoding":"mapping","key":"t_uint256","label":"mapping(uint256 => uint256)","numberOfBytes":"32","value":"t_uint256"},"t_struct(gameround)66_storage":{"encoding":"inplace","label":"struct Bingo.gameround","members":[{"astId":44,"contract":"contracts/BingoGame.sol:Bingo","label":"drawing","offset":0,"slot":"0","type":"t_bool"},{"astId":46,"contract":"contracts/BingoGame.sol:Bingo","label":"winnerAnnounced","offset":1,"slot":"0","type":"t_bool"},{"astId":48,"contract":"contracts/BingoGame.sol:Bingo","label":"startTime","offset":0,"slot":"1","type":"t_uint256"},{"astId":50,"contract":"contracts/BingoGame.sol:Bingo","label":"bingo","offset":0,"slot":"2","type":"t_uint256"},{"astId":53,"contract":"contracts/BingoGame.sol:Bingo","label":"winner","offset":0,"slot":"3","type":"t_array(t_address)dyn_storage"},{"astId":56,"contract":"contracts/BingoGame.sol:Bingo","label":"playersArray","offset":0,"slot":"4","type":"t_array(t_address)dyn_storage"},{"astId":60,"contract":"contracts/BingoGame.sol:Bingo","label":"winningNumbers","offset":0,"slot":"5","type":"t_array(t_uint256)24_storage"},{"astId":65,"contract":"contracts/BingoGame.sol:Bingo","label":"players","offset":0,"slot":"29","type":"t_mapping(t_address,t_struct(player)42_storage)"}],"numberOfBytes":"960"},"t_struct(player)42_storage":{"encoding":"inplace","label":"struct Bingo.player","members":[{"astId":33,"contract":"contracts/BingoGame.sol:Bingo","label":"stage","offset":0,"slot":"0","type":"t_enum(gameStage)29"},{"astId":37,"contract":"contracts/BingoGame.sol:Bingo","label":"gameBoard","offset":0,"slot":"1","type":"t_array(t_uint256)25_storage"},{"astId":41,"contract":"contracts/BingoGame.sol:Bingo","label":"gameBoardMatches","offset":0,"slot":"26","type":"t_mapping(t_uint256,t_uint256)"}],"numberOfBytes":"864"},"t_uint256":{"encoding":"inplace","label":"uint256","numberOfBytes":"32"}}},"userdoc":{"kind":"user","methods":{"checkWinner(uint256,address)":{"notice":"Check if player is the the winner of this game round, and returns bool with winning prize to claim"},"claimPrize(uint256)":{"notice":"Players claim prize if retrun bet is true or there is only one player in this game round"},"constructor":{"notice":"Deploying Bingo Token first before deploying this contract"},"createGameWithEntryFee()":{"notice":"player start a new with game board generated"},"drawWinner(uint256)":{"notice":"Players draw winner of this game round or claim prize"},"getBingoRoundResult(uint256)":{"notice":"Get the Bingo result of this round of game and winning numbers"},"getPlayerArray(uint256)":{"notice":"Get players addresses array of this round"},"getPlayerGameBoard(address,uint256)":{"notice":"Get player game board numbers in a uint256 array"},"joinCurrentGameWithEntry(uint256)":{"notice":"Players join current game and generate their game board"}},"version":1}}}}