{
  "_format": "hh-sol-artifact-1",
  "contractName": "Bingo",
  "sourceName": "contracts/BingoGame.sol",
  "abi": [
    {
      "inputs": [
        {
          "internalType": "address",
          "name": "_bingoTokenAddress",
          "type": "address"
        }
      ],
      "stateMutability": "nonpayable",
      "type": "constructor"
    },
    {
      "inputs": [],
      "name": "NotAdminError",
      "type": "error"
    },
    {
      "inputs": [],
      "name": "erorr__entryFee",
      "type": "error"
    },
    {
      "inputs": [],
      "name": "error__exceedLimitPlayersInOneGame",
      "type": "error"
    },
    {
      "inputs": [],
      "name": "error__gameStarted",
      "type": "error"
    },
    {
      "inputs": [],
      "name": "error__gameWinnerDrawed",
      "type": "error"
    },
    {
      "inputs": [],
      "name": "error__gameWinnerNotDrawed",
      "type": "error"
    },
    {
      "inputs": [],
      "name": "error__inGameAlready",
      "type": "error"
    },
    {
      "inputs": [],
      "name": "error__notInGameOrClaimedRewards",
      "type": "error"
    },
    {
      "inputs": [],
      "name": "error_drawsNotStarted",
      "type": "error"
    },
    {
      "inputs": [],
      "name": "error_winnerIsDrawing",
      "type": "error"
    },
    {
      "anonymous": false,
      "inputs": [
        {
          "indexed": true,
          "internalType": "address",
          "name": "creator",
          "type": "address"
        },
        {
          "indexed": true,
          "internalType": "uint256",
          "name": "round",
          "type": "uint256"
        },
        {
          "indexed": false,
          "internalType": "uint256",
          "name": "time",
          "type": "uint256"
        }
      ],
      "name": "GameCreated",
      "type": "event"
    },
    {
      "anonymous": false,
      "inputs": [
        {
          "indexed": true,
          "internalType": "uint256",
          "name": "round",
          "type": "uint256"
        },
        {
          "indexed": false,
          "internalType": "uint256",
          "name": "playersCount",
          "type": "uint256"
        },
        {
          "indexed": false,
          "internalType": "uint256[24]",
          "name": "winningNumbers",
          "type": "uint256[24]"
        },
        {
          "indexed": false,
          "internalType": "uint256",
          "name": "bingoRound",
          "type": "uint256"
        }
      ],
      "name": "GameDrawn",
      "type": "event"
    },
    {
      "anonymous": false,
      "inputs": [
        {
          "indexed": true,
          "internalType": "address",
          "name": "player",
          "type": "address"
        },
        {
          "indexed": true,
          "internalType": "uint256",
          "name": "round",
          "type": "uint256"
        }
      ],
      "name": "PlayerJoined",
      "type": "event"
    },
    {
      "anonymous": false,
      "inputs": [
        {
          "indexed": true,
          "internalType": "address",
          "name": "player",
          "type": "address"
        },
        {
          "indexed": false,
          "internalType": "uint256",
          "name": "amount",
          "type": "uint256"
        }
      ],
      "name": "PrizeClaimed",
      "type": "event"
    },
    {
      "inputs": [],
      "name": "BingoToken",
      "outputs": [
        {
          "internalType": "address",
          "name": "",
          "type": "address"
        }
      ],
      "stateMutability": "view",
      "type": "function"
    },
    {
      "inputs": [],
      "name": "EntryFee",
      "outputs": [
        {
          "internalType": "uint256",
          "name": "",
          "type": "uint256"
        }
      ],
      "stateMutability": "view",
      "type": "function"
    },
    {
      "inputs": [],
      "name": "admin",
      "outputs": [
        {
          "internalType": "address",
          "name": "",
          "type": "address"
        }
      ],
      "stateMutability": "view",
      "type": "function"
    },
    {
      "inputs": [
        {
          "internalType": "uint256",
          "name": "_gameRound",
          "type": "uint256"
        },
        {
          "internalType": "address",
          "name": "_player",
          "type": "address"
        }
      ],
      "name": "checkWinner",
      "outputs": [
        {
          "internalType": "bool",
          "name": "",
          "type": "bool"
        },
        {
          "internalType": "uint256",
          "name": "",
          "type": "uint256"
        }
      ],
      "stateMutability": "view",
      "type": "function"
    },
    {
      "inputs": [
        {
          "internalType": "uint256",
          "name": "_gameRound",
          "type": "uint256"
        }
      ],
      "name": "claimPrize",
      "outputs": [],
      "stateMutability": "nonpayable",
      "type": "function"
    },
    {
      "inputs": [],
      "name": "createGameWithEntryFee",
      "outputs": [],
      "stateMutability": "nonpayable",
      "type": "function"
    },
    {
      "inputs": [],
      "name": "currentGameRound",
      "outputs": [
        {
          "internalType": "uint256",
          "name": "",
          "type": "uint256"
        }
      ],
      "stateMutability": "view",
      "type": "function"
    },
    {
      "inputs": [
        {
          "internalType": "uint256",
          "name": "_gameRound",
          "type": "uint256"
        }
      ],
      "name": "drawWinner",
      "outputs": [],
      "stateMutability": "nonpayable",
      "type": "function"
    },
    {
      "inputs": [
        {
          "internalType": "uint256",
          "name": "",
          "type": "uint256"
        }
      ],
      "name": "gameRoundsData",
      "outputs": [
        {
          "internalType": "bool",
          "name": "drawing",
          "type": "bool"
        },
        {
          "internalType": "bool",
          "name": "winnerAnnounced",
          "type": "bool"
        },
        {
          "internalType": "uint256",
          "name": "startTime",
          "type": "uint256"
        },
        {
          "internalType": "uint256",
          "name": "bingo",
          "type": "uint256"
        }
      ],
      "stateMutability": "view",
      "type": "function"
    },
    {
      "inputs": [
        {
          "internalType": "uint256",
          "name": "_gameRound",
          "type": "uint256"
        }
      ],
      "name": "getBingoRoundResult",
      "outputs": [
        {
          "internalType": "bool",
          "name": "",
          "type": "bool"
        },
        {
          "internalType": "uint256[24]",
          "name": "",
          "type": "uint256[24]"
        }
      ],
      "stateMutability": "view",
      "type": "function"
    },
    {
      "inputs": [
        {
          "internalType": "uint256",
          "name": "_gameRound",
          "type": "uint256"
        }
      ],
      "name": "getPlayerArray",
      "outputs": [
        {
          "internalType": "address[]",
          "name": "",
          "type": "address[]"
        }
      ],
      "stateMutability": "view",
      "type": "function"
    },
    {
      "inputs": [
        {
          "internalType": "address",
          "name": "_player",
          "type": "address"
        },
        {
          "internalType": "uint256",
          "name": "_gameRound",
          "type": "uint256"
        }
      ],
      "name": "getPlayerGameBoard",
      "outputs": [
        {
          "internalType": "uint256[25]",
          "name": "",
          "type": "uint256[25]"
        }
      ],
      "stateMutability": "view",
      "type": "function"
    },
    {
      "inputs": [
        {
          "internalType": "uint256",
          "name": "_gameRoundToJoin",
          "type": "uint256"
        }
      ],
      "name": "joinCurrentGameWithEntry",
      "outputs": [],
      "stateMutability": "nonpayable",
      "type": "function"
    },
    {
      "inputs": [],
      "name": "joinDuration",
      "outputs": [
        {
          "internalType": "uint256",
          "name": "",
          "type": "uint256"
        }
      ],
      "stateMutability": "view",
      "type": "function"
    },
    {
      "inputs": [],
      "name": "maxPlayers",
      "outputs": [
        {
          "internalType": "uint256",
          "name": "",
          "type": "uint256"
        }
      ],
      "stateMutability": "view",
      "type": "function"
    },
    {
      "inputs": [],
      "name": "returnBet",
      "outputs": [
        {
          "internalType": "bool",
          "name": "",
          "type": "bool"
        }
      ],
      "stateMutability": "view",
      "type": "function"
    },
    {
      "inputs": [
        {
          "internalType": "uint256",
          "name": "_entryFee",
          "type": "uint256"
        }
      ],
      "name": "setConfigEntryFee",
      "outputs": [],
      "stateMutability": "nonpayable",
      "type": "function"
    },
    {
      "inputs": [
        {
          "internalType": "uint256",
          "name": "_maxPlayers",
          "type": "uint256"
        }
      ],
      "name": "setConfigMaxPlayer",
      "outputs": [],
      "stateMutability": "nonpayable",
      "type": "function"
    },
    {
      "inputs": [
        {
          "internalType": "bool",
          "name": "_returnBet",
          "type": "bool"
        }
      ],
      "name": "setConfigRefundEntryFee",
      "outputs": [],
      "stateMutability": "nonpayable",
      "type": "function"
    },
    {
      "inputs": [
        {
          "internalType": "uint256",
          "name": "_turnDuration",
          "type": "uint256"
        }
      ],
      "name": "setConfigTurnDuration",
      "outputs": [],
      "stateMutability": "nonpayable",
      "type": "function"
    },
    {
      "inputs": [
        {
          "internalType": "uint256",
          "name": "_joinDuration",
          "type": "uint256"
        }
      ],
      "name": "setJoinDuration",
      "outputs": [],
      "stateMutability": "nonpayable",
      "type": "function"
    },
    {
      "inputs": [],
      "name": "turnDuration",
      "outputs": [
        {
          "internalType": "uint256",
          "name": "",
          "type": "uint256"
        }
      ],
      "stateMutability": "view",
      "type": "function"
    },
    {
      "inputs": [
        {
          "internalType": "address",
          "name": "_erc20ContractAddress",
          "type": "address"
        },
        {
          "internalType": "uint256",
          "name": "_amount",
          "type": "uint256"
        },
        {
          "internalType": "address",
          "name": "_to",
          "type": "address"
        }
      ],
      "name": "withdrawToken",
      "outputs": [],
      "stateMutability": "nonpayable",
      "type": "function"
    }
  ],
  "bytecode": "0x608060405260b460025560b4600355670de0b6b3a7640000600555600460075534801561002b57600080fd5b50604051613b15380380613b15833981810160405281019061004d9190610138565b80600460006101000a81548173ffffffffffffffffffffffffffffffffffffffff021916908373ffffffffffffffffffffffffffffffffffffffff16021790555033600160006101000a81548173ffffffffffffffffffffffffffffffffffffffff021916908373ffffffffffffffffffffffffffffffffffffffff16021790555050610165565b600080fd5b600073ffffffffffffffffffffffffffffffffffffffff82169050919050565b6000610105826100da565b9050919050565b610115816100fa565b811461012057600080fd5b50565b6000815190506101328161010c565b92915050565b60006020828403121561014e5761014d6100d5565b5b600061015c84828501610123565b91505092915050565b6139a1806101746000396000f3fe608060405234801561001057600080fd5b506004361061014d5760003560e01c806359fe8c84116100c35780638b8a908f1161007c5780638b8a908f1461037f57806395f5d1fd1461039b578063d013b2f8146103cb578063d7098154146103e7578063ed7d890014610403578063f851a4401461041f5761014d565b806359fe8c84146102e557806360b2a56a1461030357806362e838ef1461031f5780636a3ff6251461033d578063736e2aa5146103595780637a12d9cb146103635761014d565b80632ea2e8f8116101155780632ea2e8f81461022057806338a6a9ba1461023e5780633ccdbb281461025a5780634c2412a2146102765780634fbd239b1461029457806353d0579e146102b25761014d565b8063050669171461015257806307d8c56514610170578063172bf854146101a0578063227b0354146101be5780632d7a4db3146101ef575b600080fd5b61015a61043d565b6040516101679190612f23565b60405180910390f35b61018a60048036038101906101859190612f6f565b610443565b604051610197919061308c565b60405180910390f35b6101a86104e7565b6040516101b59190612f23565b60405180910390f35b6101d860048036038101906101d391906130da565b6104ed565b6040516101e6929190613135565b60405180910390f35b61020960048036038101906102049190612f6f565b610632565b604051610217929190613209565b60405180910390f35b6102286106b4565b6040516102359190612f23565b60405180910390f35b6102586004803603810190610253919061325f565b6106ba565b005b610274600480360381019061026f919061328c565b61075e565b005b61027e61092e565b60405161028b9190612f23565b60405180910390f35b61029c610934565b6040516102a991906132ee565b60405180910390f35b6102cc60048036038101906102c79190612f6f565b61095a565b6040516102dc9493929190613309565b60405180910390f35b6102ed6109a4565b6040516102fa9190612f23565b60405180910390f35b61031d60048036038101906103189190612f6f565b6109aa565b005b610327611248565b604051610334919061334e565b60405180910390f35b61035760048036038101906103529190612f6f565b61125b565b005b6103616112ec565b005b61037d60048036038101906103789190612f6f565b611459565b005b61039960048036038101906103949190612f6f565b6114ea565b005b6103b560048036038101906103b09190613369565b6116e5565b6040516103c2919061342d565b60405180910390f35b6103e560048036038101906103e09190612f6f565b611787565b005b61040160048036038101906103fc9190612f6f565b611818565b005b61041d60048036038101906104189190612f6f565b611cf1565b005b610427611d82565b60405161043491906132ee565b60405180910390f35b60035481565b6060600860008381526020019081526020016000206004018054806020026020016040519081016040528092919081815260200182805480156104db57602002820191906000526020600020905b8160009054906101000a900473ffffffffffffffffffffffffffffffffffffffff1673ffffffffffffffffffffffffffffffffffffffff1681526020019060010190808311610491575b50505050509050919050565b60025481565b60008060006008600086815260200190815260200160002060030180548060200260200160405190810160405280929190818152602001828054801561058857602002820191906000526020600020905b8160009054906101000a900473ffffffffffffffffffffffffffffffffffffffff1673ffffffffffffffffffffffffffffffffffffffff168152602001906001019080831161053e575b5050505050905060008082511115610621575b8473ffffffffffffffffffffffffffffffffffffffff168282815181106105c5576105c4613449565b5b602002602001015173ffffffffffffffffffffffffffffffffffffffff16036106055760006105f48787611da8565b90506001819450945050505061062b565b8060010190508151811061059b5760008093509350505061062b565b6000809350935050505b9250929050565b600061063c612d93565b600060086000858152602001908152602001600020600201541160086000858152602001908152602001600020600501806018806020026040519081016040528092919082601880156106a4576020028201915b815481526020019060010190808311610690575b5050505050905091509150915091565b60005481565b600160009054906101000a900473ffffffffffffffffffffffffffffffffffffffff1673ffffffffffffffffffffffffffffffffffffffff163373ffffffffffffffffffffffffffffffffffffffff1614610741576040517fb5c42b3b00000000000000000000000000000000000000000000000000000000815260040160405180910390fd5b80600660006101000a81548160ff02191690831515021790555050565b600160009054906101000a900473ffffffffffffffffffffffffffffffffffffffff1673ffffffffffffffffffffffffffffffffffffffff163373ffffffffffffffffffffffffffffffffffffffff16146107e5576040517fb5c42b3b00000000000000000000000000000000000000000000000000000000815260040160405180910390fd5b8273ffffffffffffffffffffffffffffffffffffffff1663095ea7b330846040518363ffffffff1660e01b8152600401610820929190613478565b6020604051808303816000875af115801561083f573d6000803e3d6000fd5b505050506040513d601f19601f8201168201806040525081019061086391906134b6565b5060008373ffffffffffffffffffffffffffffffffffffffff166323b872dd3084866040518463ffffffff1660e01b81526004016108a3939291906134e3565b6020604051808303816000875af11580156108c2573d6000803e3d6000fd5b505050506040513d601f19601f820116820180604052508101906108e691906134b6565b905080610928576040517f08c379a000000000000000000000000000000000000000000000000000000000815260040161091f90613577565b60405180910390fd5b50505050565b60075481565b600460009054906101000a900473ffffffffffffffffffffffffffffffffffffffff1681565b60086020528060005260406000206000915090508060000160009054906101000a900460ff16908060000160019054906101000a900460ff16908060010154908060020154905084565b60055481565b8060035460025460086000848152602001908152602001600020600101546109d291906135c6565b6109dc91906135c6565b421015610a15576040517f596dccc400000000000000000000000000000000000000000000000000000000815260040160405180910390fd5b6008600082815260200190815260200160002060000160009054906101000a900460ff1615610a70576040517f589a12e900000000000000000000000000000000000000000000000000000000815260040160405180910390fd5b60016008600083815260200190815260200160002060000160006101000a81548160ff021916908315150217905550600115156008600084815260200190815260200160002060000160019054906101000a900460ff16151503610b00576040517f9162ee7d00000000000000000000000000000000000000000000000000000000815260040160405180910390fd5b600060086000848152602001908152602001600020600401805480602002602001604051908101604052809291908181526020018280548015610b9857602002820191906000526020600020905b8160009054906101000a900473ffffffffffffffffffffffffffffffffffffffff1673ffffffffffffffffffffffffffffffffffffffff1681526020019060010190808311610b4e575b50505050509050610ba7612d93565b60018251111561119157600060189050610bc085611ef9565b915060008060005b600091505b600090506000610bf7878581518110610be957610be8613449565b5b60200260200101518a6116e5565b90505b808260198110610c0d57610c0c613449565b5b6020020151868460188110610c2557610c24613449565b5b602002015103610cb7576001600860008b8152602001908152602001600020601d016000898781518110610c5c57610c5b613449565b5b602002602001015173ffffffffffffffffffffffffffffffffffffffff1673ffffffffffffffffffffffffffffffffffffffff168152602001908152602001600020601a016000848152602001908152602001600020819055505b600b8203610cc6578160010191505b8160010191506004821115610f6457610cf989888681518110610cec57610ceb613449565b5b6020026020010151612014565b15610f6357600185610d0b91906135fa565b8303610da757600860008a8152602001908152602001600020600301878581518110610d3a57610d39613449565b5b60200260200101519080600181540180825580915050600190039060005260206000200160009091909190916101000a81548173ffffffffffffffffffffffffffffffffffffffff021916908373ffffffffffffffffffffffffffffffffffffffff160217905550610ead565b600067ffffffffffffffff811115610dc257610dc161362e565b5b604051908082528060200260200182016040528015610df05781602001602082028036833780820191505090505b50600860008b81526020019081526020016000206003019080519060200190610e1a929190612db6565b50600860008a8152602001908152602001600020600301878581518110610e4457610e43613449565b5b60200260200101519080600181540180825580915050600190039060005260206000200160009091909190916101000a81548173ffffffffffffffffffffffffffffffffffffffff021916908373ffffffffffffffffffffffffffffffffffffffff1602179055505b60018301945082600860008b815260200190815260200160002060020181905550610f5e6040518060400160405280601481526020017f46697273742042696e676f20696e20726f756e64000000000000000000000000815250846040518060400160405280601281526020017f666f7220706c61796572206164647265737300000000000000000000000000008152508a8881518110610f5157610f50613449565b5b602002602001015161290e565b610f6d565b5b60198210610bfa575b82600101925050838210610bcd5782600101925085518310610bc857600092505b600080610fb58a898781518110610fa857610fa7613449565b5b60200260200101516104ed565b91509150811561117c57600460009054906101000a900473ffffffffffffffffffffffffffffffffffffffff1673ffffffffffffffffffffffffffffffffffffffff1663a9059cbb8987815181106110105761100f613449565b5b6020026020010151836040518363ffffffff1660e01b8152600401611036929190613478565b6020604051808303816000875af1158015611055573d6000803e3d6000fd5b505050506040513d601f19601f8201168201806040525081019061107991906134b6565b506002600860008c8152602001908152602001600020601d0160008a88815181106110a7576110a6613449565b5b602002602001015173ffffffffffffffffffffffffffffffffffffffff1673ffffffffffffffffffffffffffffffffffffffff16815260200190815260200160002060000160006101000a81548160ff0219169083600281111561110e5761110d61365d565b5b021790555087858151811061112657611125613449565b5b602002602001015173ffffffffffffffffffffffffffffffffffffffff167f95681e512bc0fe659e195e06c283eada494316f3d801213e48e7101af92bf770826040516111739190612f23565b60405180910390a25b846001019450505085518310610f8e57505050505b60016008600086815260200190815260200160002060000160016101000a81548160ff021916908315150217905550837f98a17e99e8596b16b3f270787de6e7ba987ca828fb02af439604b812fb3f700d835183600860008981526020019081526020016000206002015460405161120b9392919061368c565b60405180910390a2505060006008600083815260200190815260200160002060000160006101000a81548160ff0219169083151502179055505050565b600660009054906101000a900460ff1681565b600160009054906101000a900473ffffffffffffffffffffffffffffffffffffffff1673ffffffffffffffffffffffffffffffffffffffff163373ffffffffffffffffffffffffffffffffffffffff16146112e2576040517fb5c42b3b00000000000000000000000000000000000000000000000000000000815260040160405180910390fd5b8060078190555050565b60011515600460009054906101000a900473ffffffffffffffffffffffffffffffffffffffff1673ffffffffffffffffffffffffffffffffffffffff166323b872dd33306005546040518463ffffffff1660e01b8152600401611351939291906134e3565b6020604051808303816000875af1158015611370573d6000803e3d6000fd5b505050506040513d601f19601f8201168201806040525081019061139491906134b6565b1515146113cd576040517f2ff987e700000000000000000000000000000000000000000000000000000000815260040160405180910390fd5b60008081546001019190508190555060008054905042600860008381526020019081526020016000206001018190555061140733826129b0565b803373ffffffffffffffffffffffffffffffffffffffff167f27bd49aa3baf4aa9d565998bd41f40d6ff8cb737a8b4935d9ead830220fb73bc4260405161144e9190612f23565b60405180910390a350565b600160009054906101000a900473ffffffffffffffffffffffffffffffffffffffff1673ffffffffffffffffffffffffffffffffffffffff163373ffffffffffffffffffffffffffffffffffffffff16146114e0576040517fb5c42b3b00000000000000000000000000000000000000000000000000000000815260040160405180910390fd5b8060058190555050565b6007546001600860008481526020019081526020016000206004018054905061151391906135c6565b111561154b576040517f9aa0271f00000000000000000000000000000000000000000000000000000000815260040160405180910390fd5b6000806115588333612cb7565b91509150600060028111156115705761156f61365d565b5b8260028111156115835761158261365d565b5b146115ba576040517f70b48ea500000000000000000000000000000000000000000000000000000000815260040160405180910390fd5b804211156115f4576040517f496f3b7600000000000000000000000000000000000000000000000000000000815260040160405180910390fd5b60011515600460009054906101000a900473ffffffffffffffffffffffffffffffffffffffff1673ffffffffffffffffffffffffffffffffffffffff166323b872dd33306005546040518463ffffffff1660e01b8152600401611659939291906134e3565b6020604051808303816000875af1158015611678573d6000803e3d6000fd5b505050506040513d601f19601f8201168201806040525081019061169c91906134b6565b1515146116d5576040517f2ff987e700000000000000000000000000000000000000000000000000000000815260040160405180910390fd5b6116df33846116e5565b50505050565b6116ed612e40565b60086000838152602001908152602001600020601d0160008473ffffffffffffffffffffffffffffffffffffffff1673ffffffffffffffffffffffffffffffffffffffff16815260200190815260200160002060010160198060200260405190810160405280929190826019801561177a576020028201915b815481526020019060010190808311611766575b5050505050905092915050565b600160009054906101000a900473ffffffffffffffffffffffffffffffffffffffff1673ffffffffffffffffffffffffffffffffffffffff163373ffffffffffffffffffffffffffffffffffffffff161461180e576040517fb5c42b3b00000000000000000000000000000000000000000000000000000000815260040160405180910390fd5b8060028190555050565b80600354600254600860008481526020019081526020016000206001015461184091906135c6565b61184a91906135c6565b421015611883576040517f596dccc400000000000000000000000000000000000000000000000000000000815260040160405180910390fd5b6008600082815260200190815260200160002060000160009054906101000a900460ff16156118de576040517f589a12e900000000000000000000000000000000000000000000000000000000815260040160405180910390fd5b60016008600083815260200190815260200160002060000160006101000a81548160ff021916908315150217905550600160028111156119215761192061365d565b5b60086000848152602001908152602001600020601d0160003373ffffffffffffffffffffffffffffffffffffffff1673ffffffffffffffffffffffffffffffffffffffff16815260200190815260200160002060000160009054906101000a900460ff1660028111156119975761199661365d565b5b146119ce576040517f6c8aeb7700000000000000000000000000000000000000000000000000000000815260040160405180910390fd5b6000600554905060008015156008600086815260200190815260200160002060000160019054906101000a900460ff16151503611a37576040517fff07fcae00000000000000000000000000000000000000000000000000000000815260040160405180910390fd5b600060086000868152602001908152602001600020600201541115611b1257611a608433611da8565b90506000811115611b0d57600460009054906101000a900473ffffffffffffffffffffffffffffffffffffffff1673ffffffffffffffffffffffffffffffffffffffff1663a9059cbb33836040518363ffffffff1660e01b8152600401611ac8929190613478565b6020604051808303816000875af1158015611ae7573d6000803e3d6000fd5b505050506040513d601f19601f82011682018060405250810190611b0b91906134b6565b505b611bef565b60016008600086815260200190815260200160002060040180549050111580611b475750600660009054906101000a900460ff165b15611bee57600460009054906101000a900473ffffffffffffffffffffffffffffffffffffffff1673ffffffffffffffffffffffffffffffffffffffff1663a9059cbb33846040518363ffffffff1660e01b8152600401611ba9929190613478565b6020604051808303816000875af1158015611bc8573d6000803e3d6000fd5b505050506040513d601f19601f82011682018060405250810190611bec91906134b6565b505b5b600260086000868152602001908152602001600020601d0160003373ffffffffffffffffffffffffffffffffffffffff1673ffffffffffffffffffffffffffffffffffffffff16815260200190815260200160002060000160006101000a81548160ff02191690836002811115611c6957611c6861365d565b5b02179055503373ffffffffffffffffffffffffffffffffffffffff167f95681e512bc0fe659e195e06c283eada494316f3d801213e48e7101af92bf77082604051611cb49190612f23565b60405180910390a2505060006008600083815260200190815260200160002060000160006101000a81548160ff0219169083151502179055505050565b600160009054906101000a900473ffffffffffffffffffffffffffffffffffffffff1673ffffffffffffffffffffffffffffffffffffffff163373ffffffffffffffffffffffffffffffffffffffff1614611d78576040517fb5c42b3b00000000000000000000000000000000000000000000000000000000815260040160405180910390fd5b8060038190555050565b600160009054906101000a900473ffffffffffffffffffffffffffffffffffffffff1681565b60008060086000858152602001908152602001600020600301805480602002602001604051908101604052809291908181526020018280548015611e4157602002820191906000526020600020905b8160009054906101000a900473ffffffffffffffffffffffffffffffffffffffff1673ffffffffffffffffffffffffffffffffffffffff1681526020019060010190808311611df7575b505050505090506000805b8473ffffffffffffffffffffffffffffffffffffffff16838381518110611e7657611e75613449565b5b602002602001015173ffffffffffffffffffffffffffffffffffffffff1603611ea25780806001019150505b81600101915082518210611e4c5782516008600088815260200190815260200160002060040180549050600554611ed991906136c5565b82611ee491906136c5565b611eee9190613736565b935050505092915050565b611f01612d93565b611f09612d93565b600080600143611f1991906135fa565b40905060008160001c905060008133604051602001611f399291906137d0565b6040516020818303038152906040528051906020012060001c90505b6000600882901c11611fa157610100823386604051602001611f79939291906137fc565b6040516020818303038152906040528051906020012060001c611f9c9190613839565b611fb4565b610100600882901c611fb39190613839565b5b905080858560188110611fca57611fc9613449565b5b60200201818152505083600101935060188410611f55578460086000898152602001908152602001600020600501906018612006929190612e63565b508495505050505050919050565b600080600160086000868152602001908152602001600020601d0160008573ffffffffffffffffffffffffffffffffffffffff1673ffffffffffffffffffffffffffffffffffffffff168152602001908152602001600020601a016000808152602001908152602001600020541480156120f65750600160086000868152602001908152602001600020601d0160008573ffffffffffffffffffffffffffffffffffffffff1673ffffffffffffffffffffffffffffffffffffffff168152602001908152602001600020601a0160006006815260200190815260200160002054145b801561216a5750600160086000868152602001908152602001600020601d0160008573ffffffffffffffffffffffffffffffffffffffff1673ffffffffffffffffffffffffffffffffffffffff168152602001908152602001600020601a0160006012815260200190815260200160002054145b80156121de5750600160086000868152602001908152602001600020601d0160008573ffffffffffffffffffffffffffffffffffffffff1673ffffffffffffffffffffffffffffffffffffffff168152602001908152602001600020601a0160006018815260200190815260200160002054145b806123ad5750600160086000868152602001908152602001600020601d0160008573ffffffffffffffffffffffffffffffffffffffff1673ffffffffffffffffffffffffffffffffffffffff168152602001908152602001600020601a01600060048152602001908152602001600020541480156122c45750600160086000868152602001908152602001600020601d0160008573ffffffffffffffffffffffffffffffffffffffff1673ffffffffffffffffffffffffffffffffffffffff168152602001908152602001600020601a0160006008815260200190815260200160002054145b80156123385750600160086000868152602001908152602001600020601d0160008573ffffffffffffffffffffffffffffffffffffffff1673ffffffffffffffffffffffffffffffffffffffff168152602001908152602001600020601a0160006010815260200190815260200160002054145b80156123ac5750600160086000868152602001908152602001600020601d0160008573ffffffffffffffffffffffffffffffffffffffff1673ffffffffffffffffffffffffffffffffffffffff168152602001908152602001600020601a0160006014815260200190815260200160002054145b5b156123bc576001915050612908565b5b600160086000868152602001908152602001600020601d0160008573ffffffffffffffffffffffffffffffffffffffff1673ffffffffffffffffffffffffffffffffffffffff168152602001908152602001600020601a0160008060058561242591906136c5565b61242f91906135c6565b8152602001908152602001600020541480156124ca5750600160086000868152602001908152602001600020601d0160008573ffffffffffffffffffffffffffffffffffffffff1673ffffffffffffffffffffffffffffffffffffffff168152602001908152602001600020601a01600060016005856124af91906136c5565b6124b991906135c6565b815260200190815260200160002054145b80156125555750600160086000868152602001908152602001600020601d0160008573ffffffffffffffffffffffffffffffffffffffff1673ffffffffffffffffffffffffffffffffffffffff168152602001908152602001600020601a016000600260058561253a91906136c5565b61254491906135c6565b815260200190815260200160002054145b80156125e05750600160086000868152602001908152602001600020601d0160008573ffffffffffffffffffffffffffffffffffffffff1673ffffffffffffffffffffffffffffffffffffffff168152602001908152602001600020601a01600060036005856125c591906136c5565b6125cf91906135c6565b815260200190815260200160002054145b801561266b5750600160086000868152602001908152602001600020601d0160008573ffffffffffffffffffffffffffffffffffffffff1673ffffffffffffffffffffffffffffffffffffffff168152602001908152602001600020601a016000600460058561265091906136c5565b61265a91906135c6565b815260200190815260200160002054145b806128e55750600160086000868152602001908152602001600020601d0160008573ffffffffffffffffffffffffffffffffffffffff1673ffffffffffffffffffffffffffffffffffffffff168152602001908152602001600020601a0160008360006126d891906135c6565b8152602001908152602001600020541480156127675750600160086000868152602001908152602001600020601d0160008573ffffffffffffffffffffffffffffffffffffffff1673ffffffffffffffffffffffffffffffffffffffff168152602001908152602001600020601a01600083600561275691906135c6565b815260200190815260200160002054145b80156127e65750600160086000868152602001908152602001600020601d0160008573ffffffffffffffffffffffffffffffffffffffff1673ffffffffffffffffffffffffffffffffffffffff168152602001908152602001600020601a01600083600a6127d591906135c6565b815260200190815260200160002054145b80156128655750600160086000868152602001908152602001600020601d0160008573ffffffffffffffffffffffffffffffffffffffff1673ffffffffffffffffffffffffffffffffffffffff168152602001908152602001600020601a01600083600f61285491906135c6565b815260200190815260200160002054145b80156128e45750600160086000868152602001908152602001600020601d0160008573ffffffffffffffffffffffffffffffffffffffff1673ffffffffffffffffffffffffffffffffffffffff168152602001908152602001600020601a0160008360146128d391906135c6565b815260200190815260200160002054145b5b156128f4576001915050612908565b806001019050600581106123bd5760009150505b92915050565b6129aa8484848460405160240161292894939291906138e9565b6040516020818303038152906040527f7c4632a4000000000000000000000000000000000000000000000000000000007bffffffffffffffffffffffffffffffffffffffffffffffffffffffff19166020820180517bffffffffffffffffffffffffffffffffffffffffffffffffffffffff8381831617835250505050612d4d565b50505050565b600160086000838152602001908152602001600020601d0160008473ffffffffffffffffffffffffffffffffffffffff1673ffffffffffffffffffffffffffffffffffffffff16815260200190815260200160002060000160006101000a81548160ff02191690836002811115612a2a57612a2961365d565b5b021790555060086000828152602001908152602001600020600401829080600181540180825580915050600190039060005260206000200160009091909190916101000a81548173ffffffffffffffffffffffffffffffffffffffff021916908373ffffffffffffffffffffffffffffffffffffffff1602179055506000612ab0612e40565b6000600143612abf91906135fa565b40905060008160001c905060008133604051602001612adf9291906137d0565b6040516020818303038152906040528051906020012060001c90505b6000600882901c11612b4757610100823387604051602001612b1f939291906137fc565b6040516020818303038152906040528051906020012060001c612b429190613839565b612b5a565b610100600882901c612b599190613839565b5b905080848660198110612b7057612b6f613449565b5b602002018181525050600c8503612b88578460010194505b84600101945060198510612afb578360086000888152602001908152602001600020601d0160008973ffffffffffffffffffffffffffffffffffffffff1673ffffffffffffffffffffffffffffffffffffffff168152602001908152602001600020600101906019612bfb929190612ea3565b50600160086000888152602001908152602001600020601d0160008973ffffffffffffffffffffffffffffffffffffffff1673ffffffffffffffffffffffffffffffffffffffff168152602001908152602001600020601a016000600c815260200190815260200160002081905550853373ffffffffffffffffffffffffffffffffffffffff167f3330a6773675f31f62070870f40379f8c6d42e3761410011a4dfc42b18043d2f60405160405180910390a350505050505050565b60008060086000858152602001908152602001600020601d0160008473ffffffffffffffffffffffffffffffffffffffff1673ffffffffffffffffffffffffffffffffffffffff16815260200190815260200160002060000160009054906101000a900460ff166002546008600087815260200190815260200160002060010154612d4291906135c6565b915091509250929050565b612d6481612d5c612d67612d88565b63ffffffff16565b50565b60006a636f6e736f6c652e6c6f679050600080835160208501845afa505050565b612ee3819050919050565b604051806103000160405280601890602082028036833780820191505090505090565b828054828255906000526020600020908101928215612e2f579160200282015b82811115612e2e5782518260006101000a81548173ffffffffffffffffffffffffffffffffffffffff021916908373ffffffffffffffffffffffffffffffffffffffff16021790555091602001919060010190612dd6565b5b509050612e3c9190612eed565b5090565b604051806103200160405280601990602082028036833780820191505090505090565b8260188101928215612e92579160200282015b82811115612e91578251825591602001919060010190612e76565b5b509050612e9f9190612eed565b5090565b8260198101928215612ed2579160200282015b82811115612ed1578251825591602001919060010190612eb6565b5b509050612edf9190612eed565b5090565b612eeb61393c565b565b5b80821115612f06576000816000905550600101612eee565b5090565b6000819050919050565b612f1d81612f0a565b82525050565b6000602082019050612f386000830184612f14565b92915050565b600080fd5b612f4c81612f0a565b8114612f5757600080fd5b50565b600081359050612f6981612f43565b92915050565b600060208284031215612f8557612f84612f3e565b5b6000612f9384828501612f5a565b91505092915050565b600081519050919050565b600082825260208201905092915050565b6000819050602082019050919050565b600073ffffffffffffffffffffffffffffffffffffffff82169050919050565b6000612ff382612fc8565b9050919050565b61300381612fe8565b82525050565b60006130158383612ffa565b60208301905092915050565b6000602082019050919050565b600061303982612f9c565b6130438185612fa7565b935061304e83612fb8565b8060005b8381101561307f5781516130668882613009565b975061307183613021565b925050600181019050613052565b5085935050505092915050565b600060208201905081810360008301526130a6818461302e565b905092915050565b6130b781612fe8565b81146130c257600080fd5b50565b6000813590506130d4816130ae565b92915050565b600080604083850312156130f1576130f0612f3e565b5b60006130ff85828601612f5a565b9250506020613110858286016130c5565b9150509250929050565b60008115159050919050565b61312f8161311a565b82525050565b600060408201905061314a6000830185613126565b6131576020830184612f14565b9392505050565b600060189050919050565b600081905092915050565b6000819050919050565b61318781612f0a565b82525050565b6000613199838361317e565b60208301905092915050565b6000602082019050919050565b6131bb8161315e565b6131c58184613169565b92506131d082613174565b8060005b838110156132015781516131e8878261318d565b96506131f3836131a5565b9250506001810190506131d4565b505050505050565b60006103208201905061321f6000830185613126565b61322c60208301846131b2565b9392505050565b61323c8161311a565b811461324757600080fd5b50565b60008135905061325981613233565b92915050565b60006020828403121561327557613274612f3e565b5b60006132838482850161324a565b91505092915050565b6000806000606084860312156132a5576132a4612f3e565b5b60006132b3868287016130c5565b93505060206132c486828701612f5a565b92505060406132d5868287016130c5565b9150509250925092565b6132e881612fe8565b82525050565b600060208201905061330360008301846132df565b92915050565b600060808201905061331e6000830187613126565b61332b6020830186613126565b6133386040830185612f14565b6133456060830184612f14565b95945050505050565b60006020820190506133636000830184613126565b92915050565b600080604083850312156133805761337f612f3e565b5b600061338e858286016130c5565b925050602061339f85828601612f5a565b9150509250929050565b600060199050919050565b600081905092915050565b6000819050919050565b6000602082019050919050565b6133df816133a9565b6133e981846133b4565b92506133f4826133bf565b8060005b8381101561342557815161340c878261318d565b9650613417836133c9565b9250506001810190506133f8565b505050505050565b60006103208201905061344360008301846133d6565b92915050565b7f4e487b7100000000000000000000000000000000000000000000000000000000600052603260045260246000fd5b600060408201905061348d60008301856132df565b61349a6020830184612f14565b9392505050565b6000815190506134b081613233565b92915050565b6000602082840312156134cc576134cb612f3e565b5b60006134da848285016134a1565b91505092915050565b60006060820190506134f860008301866132df565b61350560208301856132df565b6135126040830184612f14565b949350505050565b600082825260208201905092915050565b7f5472616e73666572206661696c65640000000000000000000000000000000000600082015250565b6000613561600f8361351a565b915061356c8261352b565b602082019050919050565b6000602082019050818103600083015261359081613554565b9050919050565b7f4e487b7100000000000000000000000000000000000000000000000000000000600052601160045260246000fd5b60006135d182612f0a565b91506135dc83612f0a565b92508282019050808211156135f4576135f3613597565b5b92915050565b600061360582612f0a565b915061361083612f0a565b925082820390508181111561362857613627613597565b5b92915050565b7f4e487b7100000000000000000000000000000000000000000000000000000000600052604160045260246000fd5b7f4e487b7100000000000000000000000000000000000000000000000000000000600052602160045260246000fd5b6000610340820190506136a26000830186612f14565b6136af60208301856131b2565b6136bd610320830184612f14565b949350505050565b60006136d082612f0a565b91506136db83612f0a565b92508282026136e981612f0a565b91508282048414831517613700576136ff613597565b5b5092915050565b7f4e487b7100000000000000000000000000000000000000000000000000000000600052601260045260246000fd5b600061374182612f0a565b915061374c83612f0a565b92508261375c5761375b613707565b5b828204905092915050565b6000819050919050565b61378261377d82612f0a565b613767565b82525050565b60008160601b9050919050565b60006137a082613788565b9050919050565b60006137b282613795565b9050919050565b6137ca6137c582612fe8565b6137a7565b82525050565b60006137dc8285613771565b6020820191506137ec82846137b9565b6014820191508190509392505050565b60006138088286613771565b60208201915061381882856137b9565b6014820191506138288284613771565b602082019150819050949350505050565b600061384482612f0a565b915061384f83612f0a565b92508261385f5761385e613707565b5b828206905092915050565b600081519050919050565b60005b83811015613893578082015181840152602081019050613878565b60008484015250505050565b6000601f19601f8301169050919050565b60006138bb8261386a565b6138c5818561351a565b93506138d5818560208601613875565b6138de8161389f565b840191505092915050565b6000608082019050818103600083015261390381876138b0565b90506139126020830186612f14565b818103604083015261392481856138b0565b905061393360608301846132df565b95945050505050565b7f4e487b7100000000000000000000000000000000000000000000000000000000600052605160045260246000fdfea26469706673582212209aa399dc48a456a2cb4a1b0898d56044653c8fbc15f06ef70739ad99b2b143b764736f6c634300081b0033",
  "linkReferences": {},
  "deployedLinkReferences": {}
}